:020000040000FA
:0400000007EF00F016
:100008005E823BED1FF030EF1AF094EC1EF050ECDE
:1000180020F0BBEC1FF0000E3E6E2D0E3F6E310E31
:10002800406E010E416E24EC1EF0000E4C6E000E68
:100038004B6E9BEC1FF0000E466EC20E476E010E13
:10004800486E000E496E02D835EF00F00500000139
:10005800FA6EBD51FD6EBE51FE6EF850FF6EFA503D
:100068001200030E326EE80E316E24EC1FF020EE03
:10007800C3F002D84BEF00F00500FA6EDE50FD6EBB
:10008800DE50FE6EF850FF6EFA50010E1200030E9D
:10009800326EE80E316E24EC1FF0F90E346E7F0ECE
:1000A800356EE80E366E7F0E376E20EEC5F002D83C
:1000B80068EF00F00500FA6EDE50FD6EDE50FE6E51
:1000C800F850FF6EFA501200000E0001BC6F000ECF
:1000D800BA6F000EB26F000E746F000EAD6F000E97
:1000E800AE6FAD0E316E000E326EAE0E336E000E78
:1000F800346E010E356EDFEC1EF00001AF69000EA4
:10010800BB6F020E756F000EB56F000EB46F000E58
:10011800B16F000EB06F000EB36F47EF0DF0000E19
:10012800A16F030EA1659BEF00F09DEF00F09FEF1C
:1001380000F0CEEF00F0000EA26F130EA265A7EF3D
:1001480000F0A9EF00F0ABEF00F0CBEF00F020EEED
:10015800E5F002D8C1EF00F00500FA6EDE50FD6E42
:10016800DE50FE6EF850FF6EFA50A2C038F0FD0E59
:10017800396E7F0E3A6EA1511200000E326E0A0ED1
:10018800316E24EC1FF00001A22BA1EF00F0A12B8F
:1001980095EF00F0000EA36F030EA365D6EF00F0F5
:1001A800D8EF00F0DAEF00F009EF01F0000EA46FCD
:1001B800130EA465E2EF00F0E4EF00F0E6EF00F0C4
:1001C80006EF01F020EEE5F002D8FCEF00F00500A4
:1001D800FA6EDE50FD6EDE50FE6EF850FF6EFA507D
:1001E800A4C038F0AC0E396E7D0E3A6EA3511200E1
:1001F800000E326E0A0E316E24EC1FF00001A42BA3
:10020800DCEF00F0A32BD0EF00F0010EBA6FEDEF9A
:100218000DF020EEE5F002D823EF01F00500FA6EAC
:10022800DE50FD6EDE50FE6EF850FF6EFA50000E86
:10023800386ED80E396E7D0E3A6E010E120021EE20
:1002480032F010EE60F0130EDBCFE3FFE806FCE2BD
:10025800000E00019C6F600E9F6F000EA06F4CEFA8
:1002680001F09CC033F0020E5AEC1BF09FC0D9FF7E
:10027800A0C0DAFFDF50EDEC1CF000019C2B000E53
:10028800326E320E316E24EC1FF000019F4BA02B12
:100298009FC0D9FFA0C0DAFFDF50D8A456EF01F005
:1002A80058EF01F035EF01F0DC0E376E050E386EB1
:1002B800000E396E000E3A6EF4EC1FF0020E0001CB
:1002C800BA6FEDEF0DF026EC20F0315032103310FC
:1002D8003410D8A472EF01F074EF01F0EDEF0DF0D7
:1002E800080E0001BA6FEDEF0DF05AEC20F0DF0EAA
:1002F800386E7B0E396E20EEE3F002D88EEF01F0F7
:100308000500FA6EDE50FD6EDE50FE6EF850FF6E90
:10031800FA501200E80E376E030E386E000E396E72
:10032800000E3A6EF4EC1FF0090E0001BA6FEDEF03
:100338000DF026EC20F03150321033103410D8A4D0
:10034800A8EF01F0AAEF01F0EDEF0DF0470E000164
:10035800BA6FEDEF0DF079EC1EF00001BC6FC7EF3E
:1003680001F0030E0001BA6FEDEF0DF0480EBA6F01
:10037800EDEF0DF0640EBA6FEDEF0DF0500E0001C9
:10038800BA6FEDEF0DF0BC51596E5A6A5A50000A17
:10039800D8B4D1EF01F0EDEF0DF05950310AD8B4CF
:1003A800B5EF01F0030AD8B4BAEF01F0010AD8B4E6
:1003B800BEEF01F0070AD8B4C2EF01F0EDEF0DF07F
:1003C8000A0E376EB20E386E000E396E0A0E51ECF8
:1003D8001FF00001B251C5EC1CF020EEEDF002D880
:1003E80005EF02F00500FA6EDE50FD6EDE50FE6E7F
:1003F800F850FF6EFA50760E376E000E386E0B0E00
:100408001200760E00019D6F000E9E6F9DC0D9FFF1
:100418009EC0DAFFDE28D8A414EF02F016EF02F02F
:1004280032EF02F020EEEFF002D82FEF02F00500D5
:10043800FA6EDE50FD6EDE50FE6EF850FF6EFA501A
:10044800BCC031F0326A000E346E300E336E9EEC52
:1004580017F031501200000E0001766F760EB66F5D
:10046800000EB76FFFEF02F0B6C0D9FFB7C0DAFFD2
:10047800640EDF6442EF02F044EF02F051EF02F045
:10048800B6C0D9FFB7C0DAFFFE0EDE18D8A44FEF0A
:1004980002F051EF02F060EF02F0B6C031F0B7C0E1
:1004A80032F0A9EC13F0B6C0D9FFB7C0DAFFDF50BD
:1004B80014EC1DF0FAEF02F0B6C0D9FFB7C0DAFFAE
:1004C800640EDF646AEF02F06CEF02F087EF02F06F
:1004D800B6C0D9FFB7C0DAFFDD0EDF6076EF02F0F5
:1004E80078EF02F087EF02F0B6C031F0B7C032F013
:1004F800A9EC13F0B6C0D9FFB7C0DAFFDF5042EC61
:100508001CF0FAEF02F0B6C031F0B7C032F0A9EC37
:1005180013F097EF02F0B6C0D9FFB7C0DAFFDF0ECD
:10052800DF16C8EF02F0B6C0D9FFB7C0DAFFDF5058
:10053800596E5A6A5A50000AD8B4A5EF02F0C8EFAB
:1005480002F05950410AD8B48FEF02F0030AD8B428
:100558008FEF02F0010AD8B48FEF02F0070AD8B47F
:100568008FEF02F0250AD8B48FEF02F0030AD8B44F
:100578008FEF02F0010AD8B48FEF02F0070AD8B45F
:100588008FEF02F0C8EF02F0B6C0D9FFB7C0DAFFAC
:10059800DF5097EC19F0B6C0D9FFB7C0DAFFDF50CB
:1005A80047EC19F00009D8A4DCEF02F0DEEF02F006
:1005B800EDEF02F0B6C0D9FFB7C0DAFFDF50596ED1
:1005C8005A6A200E59100001866F5A50876FF7EF4C
:1005D80002F0B6C0D9FFB7C0DAFFDF50596E5950E4
:1005E8000001866F876B86516EEC1CF064EC0FF08F
:1005F8000001B64BB72BB6C0D9FFB7C0DAFFDF5042
:10060800D8A409EF03F00BEF03F038EF02F06EEC1B
:1006180020F0100E0001BA6FEDEF0DF06EEC20F037
:10062800000E386E130E396E7F0E3A6E000E38ECDF
:100638001DF0000E386E950E396E7E0E3A6E010E64
:1006480038EC1DF0E80E376E030E386E000E396E6A
:10065800000E3A6EF4EC1FF0510E0001BA6FEDEF88
:100668000DF026EC20F03150321033103410D8A49D
:1006780040EF03F042EF03F0EDEF0DF0520E0001F2
:10068800BA6FEDEF0DF079EC1EF00001BC6F55EF7D
:1006980003F0530EBA6FEDEF0DF0540EBA6FEDEF95
:1006A8000DF0BC51596E5A6A5A50000AD8B45FEF1F
:1006B80003F0EDEF0DF059502A0AD8B474EF01F0A9
:1006C8001B0AD8B44DEF03F0030AD8B451EF03F076
:1006D800EDEF0DF0000E386EE90E396E7E0E3A6EB3
:1006E800000E38EC1DF0000E386E800E396E7E0E4E
:1006F8003A6E010E38EC1DF0000E386E2C0E396E75
:100708007E0E3A6E020E38EC1DF0000E386EFA0EB0
:10071800396E7C0E3A6E030E38EC1DF079EC1EF043
:100728000001BC6FA0EF03F0550EBA6FEDEF0DF0AE
:100738006EEC20F0C2EF01F0BC51596E5A6A5A5063
:10074800000AD8B4AAEF03F0EDEF0DF05950230AD0
:10075800D8B498EF03F0090AD8B49CEF03F0EDEF92
:100768000DF020EEF3F002D8C4EF03F00500FA6EA6
:10077800DE50FD6EDE50FE6EF850FF6EFA5012002D
:100788006EEC20F0000E0001A56F030EA565CFEFFB
:1007980003F0D1EF03F0D3EF03F0F5EF03F0000E11
:1007A800A66F130EA665DBEF03F0DDEF03F0DFEFB6
:1007B80003F0F2EF03F0A6C038F0FD0E396E7F0E9D
:1007C8003A6EA55138EC1DF0000E326E0A0E316EED
:1007D80024EC1FF00001A62BD5EF03F0A52BC9EFE1
:1007E80003F0000EA76F030EA765FDEF03F0FFEF00
:1007F80003F001EF04F023EF04F0000EA86F130ECE
:10080800A86509EF04F00BEF04F00DEF04F020EFFA
:1008180004F0A8C038F0AC0E396E7D0E3A6EA751C0
:1008280038EC1DF0000E326E0A0E316E24EC1FF00B
:100838000001A82B03EF04F0A72BF7EF03F0000E3D
:10084800386E020E396E7E0E3A6E010E38EC1DF0CF
:10085800000E386E170E396E7E0E3A6E020E38ECA8
:100868001DF0E80E376E030E386E000E396E000E5E
:100878003A6EF4EC1FF0560E0001BA6FEDEF0DF072
:1008880026EC20F03150321033103410D8A44FEF3A
:1008980004F051EF04F0EDEF0DF0C2EF01F020EE9F
:1008A800E9F002D862EF04F00500FA6EDE50FD6E42
:1008B800DE50FE6EF850FF6EFA501200320E386E9F
:1008C8007C0E396E20EEE3F002D875EF04F00500D7
:1008D800FA6EDE50FD6EDE50FE6EF850FF6EFA5076
:1008E8001200490E0001BA6F79EC1EF00001BC6FCE
:1008F800B9EF05F0BCC031F0326A000E346E300E2C
:10090800336E9EEC17F03150376EB20E386E000E13
:10091800396E0A0E51EC1FF00001B251C5EC1CF003
:1009280020EEEDF002D8B1EF04F00500FA6EDE50CB
:10093800FD6EDE50FE6EF850FF6EFA50760E376E82
:10094800000E386EBCC031F0326A000E346E300EC4
:10095800336E9EEC17F031501200760E00019D6F39
:10096800000E9E6F9DC0D9FF9EC0DAFFDE28D8A476
:10097800C0EF04F0C2EF04F0DEEF04F020EEEFF079
:1009880002D8DBEF04F00500FA6EDE50FD6EDE5093
:10099800FE6EF850FF6EFA50BCC031F0326A000E9D
:1009A800346E300E336E9EEC17F031501200000E8C
:1009B8000001766F760EB86F000EB96FABEF05F0D9
:1009C800B8C0D9FFB9C0DAFF640EDF64EEEF04F0F7
:1009D800F0EF04F0FDEF04F0B8C0D9FFB9C0DAFFBA
:1009E800FE0EDE18D8A4FBEF04F0FDEF04F00CEFC8
:1009F80005F0B8C031F0B9C032F0A9EC13F0B8C0B6
:100A0800D9FFB9C0DAFFDF5014EC1DF0A6EF05F0EE
:100A1800B8C0D9FFB9C0DAFF640EDF6416EF05F07D
:100A280018EF05F033EF05F0B8C0D9FFB9C0DAFF09
:100A3800DD0EDF6022EF05F024EF05F033EF05F05F
:100A4800B8C031F0B9C032F0A9EC13F0B8C0D9FF82
:100A5800B9C0DAFFDF5042EC1CF0A6EF05F0B8C0D1
:100A680031F0B9C032F0A9EC13F043EF05F0B8C08B
:100A7800D9FFB9C0DAFFDF0EDF1674EF05F0B8C092
:100A8800D9FFB9C0DAFFDF50596E5A6A5A50000AC6
:100A9800D8B451EF05F074EF05F05950410AD8B4B5
:100AA8003BEF05F0030AD8B43BEF05F0010AD8B4D0
:100AB8003BEF05F0070AD8B43BEF05F0250AD8B498
:100AC8003BEF05F0030AD8B43BEF05F0010AD8B4B0
:100AD8003BEF05F0070AD8B43BEF05F074EF05F0DB
:100AE800B8C0D9FFB9C0DAFFDF5097EC19F0B8C029
:100AF800D9FFB9C0DAFFDF5047EC19F00009D8A4D4
:100B080088EF05F08AEF05F099EF05F0B8C0D9FF36
:100B1800B9C0DAFFDF50596E5A6A200E5910000129
:100B2800886F5A50896FA3EF05F0B8C0D9FFB9C0D4
:100B3800DAFFDF50596E59500001886F896B885170
:100B48006EEC1CF064EC0FF00001B84BB92BB8C088
:100B5800D9FFB9C0DAFFDF50D8A4B5EF05F0B7EF79
:100B680005F0E4EF04F00BEF03F0BC51596E5A6A3C
:100B78005A50000AD8B4C3EF05F0EDEF0DF0595004
:100B88002A0AD8B474EF01F01A0AD8B47EEF04F038
:100B9800010AD8B47EEF04F0030AD8B47EEF04F05B
:100BA800010AD8B47EEF04F0070AD8B47EEF04F047
:100BB800010AD8B47EEF04F0030AD8B47EEF04F03B
:100BC800010AD8B47EEF04F00F0AD8B47EEF04F01F
:100BD800010AD8B47EEF04F0EDEF0DF020EEE9F055
:100BE80002D801EF06F00500FA6EDE50FD6EDE5009
:100BF800FE6EF850FF6EFA50120020EEE5F002D8B3
:100C080017EF06F00500FA6EDE50FD6EDE50FE6E40
:100C1800F850FF6EFA50000E386EAA0E396E7E0E2E
:100C28003A6E000E120020EEE5F002D82DEF06F025
:100C38000500FA6EDE50FD6EDE50FE6EF850FF6E57
:100C4800FA50000E386E560E396E7E0E3A6E010E50
:100C58001200060E0001BA6FEDEF0DF020EEE5F080
:100C680002D848EF06F00500FA6EDE50FD6EDE5041
:100C7800FE6EF850FF6EFA50000E386E6B0E396E2D
:100C88007E0E3A6E030E1200040E336E030E5AECFB
:100C98001BF0410E47EC19F00009D8A456EF06F0F6
:100CA80058EF06F05FEF06F0000E00018B6F2D0E77
:100CB8008A6F64EF06F0000E00018B6F2B0E8A6FAF
:100CC8008A51EDEC1CF0080E336E030E5AEC1BF043
:100CD800420E47EC19F00009D8A475EF06F077EF3B
:100CE80006F07EEF06F0000E00018D6F2D0E8C6F62
:100CF80083EF06F0000E00018D6F2B0E8C6F8C5168
:100D0800EDEC1CF00C0E336E030E5AEC1BF0430E88
:100D180047EC19F00009D8A494EF06F096EF06F016
:100D28009DEF06F0000E00018F6F2D0E8E6FA2EF63
:100D380006F0000E00018F6F2B0E8E6F8E51EDECBA
:100D48001CF0100E336E030E5AEC1BF0440E47ECE9
:100D580019F00009D8A4B3EF06F0B5EF06F0BCEF20
:100D680006F0000E0001916F2D0E906FC1EF06F096
:100D7800000E0001916F2B0E906F9051EDEC1CF05E
:100D8800070E0001BA6FEDEF0DF079EC1EF00001CF
:100D9800BC6F63EF07F0BC5197EC19F0040E336E8B
:100DA800030E5AEC1BF0410E47EC19F00009D8A4C9
:100DB800E0EF06F0E2EF06F0E9EF06F0000E0001C2
:100DC800936F2D0E926FEEEF06F0000E0001936FF9
:100DD8002B0E926F9251EDEC1CF0EDEF0DF0BC5123
:100DE80097EC19F0080E336E030E5AEC1BF0420E06
:100DF80047EC19F00009D8A404EF07F006EF07F054
:100E08000DEF07F0000E0001956F2D0E946F12EF95
:100E180007F0000E0001956F2B0E946F9451EDECC6
:100E28001CF0EDEF0DF0BC5197EC19F00C0E336E81
:100E3800030E5AEC1BF0430E47EC19F00009D8A436
:100E480028EF07F02AEF07F031EF07F0000E000156
:100E5800976F2D0E966F36EF07F0000E0001976F13
:100E68002B0E966F9651EDEC1CF0EDEF0DF0BC518A
:100E780097EC19F0100E336E030E5AEC1BF0440E6B
:100E880047EC19F00009D8A44CEF07F04EEF07F033
:100E980055EF07F0000E0001996F2D0E986F5AEF6D
:100EA80007F0000E0001996F2B0E986F9851EDEC2A
:100EB8001CF0EDEF0DF00A0EBA6FEDEF0DF0BC511E
:100EC800596E5A6A5A50000AD8B46DEF07F0EDEF20
:100ED8000DF05950230AD8B45FEF07F0090AD8B4C7
:100EE80074EF01F06B0AD8B4CFEF06F0030AD8B458
:100EF800F3EF06F0010AD8B417EF07F0070AD8B4E1
:100F08003BEF07F0EDEF0DF075EC1AF00001B26F52
:100F180020EEE9F002D89BEF07F00500FA6EDE50EC
:100F2800FD6EDE50FE6EF850FF6EFA50120020EE95
:100F3800E5F002D8B1EF07F00500FA6EDE50FD6E5D
:100F4800DE50FE6EF850FF6EFA50000E386EBF0E7F
:100F5800396E7E0E3A6E000E12000E0E0001BA6F48
:100F6800EDEF0DF079EC1EF00001BC6F0FEF08F00B
:100F7800D3EC1FF00009D8B4C4EF07F0C6EF07F0B0
:100F8800EDEF0DF00001BC5197EC19F00001BC51D8
:100F980047EC19F00009D8A4D4EF07F0D6EF07F012
:100FA800E1EF07F0200EBCC059F05A6A5910000151
:100FB8009A6F5A509B6FE5EF07F0BCC09AF000019A
:100FC8009B6B9A516EEC1CF00DEF03F08BEC1BF051
:100FD8000DEF03F0FEEC1FF00DEF03F083EC20F0B3
:100FE800020AD8A4FAEF07F0FCEF07F0FEEF07F0CB
:100FF800B5EF01F0E4EC19F00DEF03F04A0E000133
:10100800BA6FEDEF0DF0290EBA6FEDEF0DF05A0E35
:10101800BA6FEDEF0DF0BC51596E5A6A5A50000A7A
:10102800D8B419EF08F0EDEF0DF05950230AD8B4F1
:1010380002EF08F0090AD8B4F2EF07F01A0AD8B498
:1010480007EF08F0040AD8B4EEEF07F0020AD8B4A4
:10105800EAEF07F00F0AD8B40BEF08F0780AD8B413
:10106800BCEF07F0030AD8B4BCEF07F0010AD8B404
:10107800BCEF07F0070AD8B4BCEF07F0EDEF0DF0AE
:1010880064EC0FF0B1EF07F020EEE5F002D85EEF68
:1010980008F00500FA6EDE50FD6EDE50FE6EF85068
:1010A800FF6EFA50000E386EF10E396E7F0E3A6EF2
:1010B800030E120020EEE7F002D87BEF08F00500DF
:1010C800FA6EDE50FD6EDE50FE6EF850FF6EFA507E
:1010D800010E3C6E83EC20F0596EFE0E59243D6ED5
:1010E8003E6AFF0E3E22020E3F6E030E120020EEF5
:1010F800E7F002D898EF08F00500FA6EDE50FD6EB2
:10110800DE50FE6EF850FF6EFA50040E3C6E81EC15
:1011180020F0596EFE0E59243D6E3E6AFF0E3E22A7
:10112800020E3F6E030E12000B0E0001BA6FEDEFB8
:101138000DF0460EBA6F010EAF6FEDEF0DF0030E16
:10114800AF19D8A4AAEF08F0ACEF08F046EF09F001
:10115800020EB319D8B4B3EF08F0B5EF08F046EFB4
:1011680009F020EEE5F002D8CBEF08F00500FA6EA2
:10117800DE50FD6EDE50FE6EF850FF6EFA50000E27
:10118800386EED0E396E7D0E3A6E000E1200FF0EAF
:101198004A6E010ED6EC10F0000E4A6E090ED6EC1F
:1011A80010F0010E4A6E0E0ED6EC10F020EEE5F0AF
:1011B80002D8F0EF08F00500FA6EDE50FD6EDE5042
:1011C800FE6EF850FF6EFA50000E386EAE0E396E95
:1011D8007D0E3A6E020E120020EEE7F002D80DEFF7
:1011E80009F00500FA6EDE50FD6EDE50FE6EF85016
:1011F800FF6EFA50040E3C6E83EC20F0596EFE0E22
:1012080059243D6E3E6AFF0E3E22020E3F6E020ECC
:10121800120020EEE7F002D82AEF09F00500FA6E76
:10122800DE50FD6EDE50FE6EF850FF6EFA50010E75
:101238003C6E7FEC20F0596EFF0E59243D6E3E6ADD
:10124800FF0E3E22020E3F6E020E120020EEE7F065
:1012580002D846EF09F00500FA6EDE50FD6EDE504A
:10126800FE6EF850FF6EFA500B0E3C6E5FEC20F0ED
:10127800010E31243D6E000E32203E6E050E3F6E8B
:10128800020E12000001AF51D8A44DEF09F04FEF44
:1012980009F060EF09F0100EBA6F20EEE9F002D8FD
:1012A80060EF09F00500FA6EDE50FD6EDE50FE6E4E
:1012B800F850FF6EFA50120079EC1EF00001BC6F76
:1012C8007FEF09F0010EB36FEDEF0DF0020EB36F73
:1012D800EDEF0DF0000EB36FEDEF0DF0020EB31948
:1012E800D8A479EF09F07BEF09F0EDEF0DF0030ECC
:1012F800B36FEDEF0DF0BC51596E5A6A5A50000A9F
:10130800D8B489EF09F0EDEF0DF05950230AD8B49D
:1013180066EF09F0130AD8B46EEF09F0010AD8B4E1
:1013280072EF09F0040AD8B46AEF09F0EDEF0DF096
:1013380079EC1EF00001BC6F2F0EBC65A6EF09F01A
:10134800A8EF09F0C9EF09F03A0EBC61AEEF09F059
:10135800B0EF09F0C9EF09F0B40E376E000E386E21
:10136800BC515CEC1DF00001B55109E1790EB45D8A
:10137800D8A0C1EF09F0C3EF09F0C7EF09F0000EDC
:10138800B56F780EB46F290EBA6F2A0EBC19D8A49F
:10139800D0EF09F0D2EF09F0DBEF09F0B40E386EA8
:1013A800000E396EF6EC1EF0290E0001BA6F230EFE
:1013B800BC19D8A4E2EF09F0E4EF09F0EDEF0DF065
:1013C8002A0EBA6FEDEF0DF020EEE5F002D8FEEF31
:1013D80009F00500FA6EDE50FD6EDE50FE6EF85024
:1013E800FF6EFA50000E386E280E396E7F0E3A6E78
:1013F800020E120020EEE7F002D816EF0AF0050000
:10140800FA6EDE50FD6EDE50FE6EF850FF6EFA503A
:101418000F0E3C6EB4C03DF0B5C03EF0030E3F6EFB
:10142800020E1200280E0001BA6FEDEF0DF0B45154
:1014380042EC1CF020EEE9F002D82DEF0AF005008E
:10144800FA6EDE50FD6EDE50FE6EF850FF6EFA50FA
:1014580012000DEF03F079EC1EF00001BC6F2F0EA7
:10146800BC6539EF0AF03BEF0AF06DEF0AF03A0E6F
:10147800BC6141EF0AF043EF0AF06DEF0AF0B00EDD
:10148800376E000E386EBC515CEC1DF0110E000179
:10149800B05D270EB159D8A054EF0AF056EF0AF004
:1014A8005AEF0AF0270EB16F100EB06F350E00011B
:1014B800BA6FEDEF0DF00BEF03F0360EBA6FEDEFEC
:1014C8000DF0B00E386E000E396EF6EC1EF05AEFC5
:1014D8000AF0BC51596E5A6A5A50000AD8B477EFCC
:1014E8000AF0EDEF0DF05950230AD8B461EF0AF075
:1014F800090AD8B465EF0AF06B0AD8B45FEF0AF0AE
:10150800030AD8B40BEF03F0010AD8B40BEF03F0C9
:10151800070AD8B40BEF03F0EDEF0DF020EEE9F079
:1015280002D8A1EF0AF00500FA6EDE50FD6EDE501B
:10153800FE6EF850FF6EFA50120020EEE5F002D869
:10154800B7EF0AF00500FA6EDE50FD6EDE50FE6E53
:10155800F850FF6EFA50000E386E990E396E7D0EF7
:101568003A6E000E120020EEE7F002D8CFEF0AF034
:101578000500FA6EDE50FD6EDE50FE6EF850FF6E0E
:10158800FA500F0E3C6EB0C03DF0B1C03EF0050EF3
:101598003F6E000E120020EEE5F002D8E5EF0AF0EB
:1015A8000500FA6EDE50FD6EDE50FE6EF850FF6EDE
:1015B800FA50000E386ED40E396E7E0E3A6E020E58
:1015C8001200340E0001BA6FEDEF0DF00A0E376EFF
:1015D800B2C038F00A0E8AEC1FF002D808EF0BF000
:1015E80005000001FA6EEB51FD6EEC51FE6EF850ED
:1015F800FF6EFA5064EC20F0020E3124376E000EB4
:101608003220386E0B0E1200D10E386E7C0E396EF9
:1016180020EEE3F002D81BEF0BF00500FA6EDE5067
:10162800FD6EDE50FE6EF850FF6EFA50120079EC37
:101638001EF00001BC6F29EF0BF04B0EBA6FEDEFF7
:101648000DF06EEC20F05AEF0AF0BC51596E5A6A50
:101658005A50000AD8B433EF0BF0EDEF0DF05950A3
:10166800230AD8B421EF0BF0090AD8B425EF0BF000
:10167800EDEF0DF020EEE9F002D84DEF0BF005008C
:10168800FA6EDE50FD6EDE50FE6EF850FF6EFA50B8
:101698001200830E386E7C0E396E20EEE3F002D80D
:1016A80060EF0BF00500FA6EDE50FD6EDE50FE6E48
:1016B800F850FF6EFA5012004C0E0001BA6F79EC28
:1016C8001EF00001BC6FAFEF0BF0BCC031F0326A06
:1016D800000E346E300E336E9EEC17F03150376EBC
:1016E800B2C038F00A0E8AEC1FF002D899EF0BF05E
:1016F80005000001FA6EEB51FD6EEC51FE6EF850DC
:10170800FF6EFA5064EC20F0020E3124376E000EA2
:101718003220386EBCC031F0326A000E346E300EA2
:10172800336E9EEC17F0315012004D0E0001BA6F67
:10173800EDEF0DF020EEE9F002D8ADEF0BF005006B
:10174800FA6EDE50FD6EDE50FE6EF850FF6EFA50F7
:10175800120002EF08F0BC51596E5A6A5A50000A3A
:10176800D8B4B9EF0BF0EDEF0DF059502A0AD8B400
:101778009EEF0BF01A0AD8B469EF0BF0010AD8B43F
:1017880069EF0BF0030AD8B469EF0BF0010AD8B47B
:1017980069EF0BF0070AD8B469EF0BF0010AD8B467
:1017A80069EF0BF0030AD8B469EF0BF0010AD8B45B
:1017B80069EF0BF00F0AD8B469EF0BF0010AD8B43F
:1017C80069EF0BF0EDEF0DF020EEE9F002D8F7EF3E
:1017D8000BF00500FA6EDE50FD6EDE50FE6EF8501E
:1017E800FF6EFA501200000E0001A96F030EA965E2
:1017F80000EF0CF002EF0CF004EF0CF033EF0CF0FC
:10180800000EAA6F130EAA650CEF0CF00EEF0CF089
:1018180010EF0CF030EF0CF020EEE5F002D826EFD8
:101828000CF00500FA6EDE50FD6EDE50FE6EF850CC
:10183800FF6EFA50AAC038F0FD0E396E7F0E3A6E70
:10184800A9511200000E326E0A0E316E24EC1FF000
:101858000001AA2B06EF0CF0A92BFAEF0BF0000EF3
:10186800AB6F030EAB653BEF0CF03DEF0CF03FEFB9
:101878000CF06EEF0CF0000EAC6F130EAC6547EF7A
:101888000CF049EF0CF04BEF0CF06BEF0CF020EE86
:10189800E5F002D861EF0CF00500FA6EDE50FD6E3F
:1018A800DE50FE6EF850FF6EFA50ACC038F0AC0E49
:1018B800396E7D0E3A6EAB511200000E326E0A0E72
:1018C800316E24EC1FF00001AC2B41EF0CF0AB2B78
:1018D80035EF0CF020EEE5F002D884EF0CF00500AF
:1018E800FA6EDE50FD6EDE50FE6EF850FF6EFA5056
:1018F800000E386E410E396E7E0E3A6E010E1200E1
:1019080020EEE5F002D89AEF0CF00500FA6EDE50F2
:10191800FD6EDE50FE6EF850FF6EFA50000E386E07
:10192800C30E396E7D0E3A6E020E1200E80E376E47
:10193800030E386E000E396E000E3A6EF4EC1FF08E
:101948004E0E0001BA6FEDEF0DF026EC20F031508D
:10195800321033103410D8A4B4EF0CF0B6EF0CF0FA
:10196800EDEF0DF05AEF0AF020EEE5F002D8CEEFD9
:101978000CF00500FA6EDE50FD6EDE50FE6EF8507B
:10198800FF6EFA50000E386EFE0E396E7E0E3A6EFD
:10199800020E120020EEE7F002D8E6EF0CF0050088
:1019A800FA6EDE50FD6EDE50FE6EF850FF6EFA5095
:1019B8000F0E3C6EB4C03DF0B5C03EF0030E3F6E56
:1019C800020E12005B0E0001BA6FEDEF0DF079EC1C
:1019D8001EF00001BC6F2F0EBC65F5EF0CF0F7EFA1
:1019E8000CF018EF0DF03A0EBC61FDEF0CF0FFEFB4
:1019F8000CF018EF0DF0B40E376E000E386EBC51B7
:101A08005CEC1DF00001B55109E1650EB45DD8A08C
:101A180010EF0DF012EF0DF016EF0DF0000EB56F90
:101A2800640EB46F5A0EBA6F2A0EBC19D8A41FEFF1
:101A38000DF021EF0DF02AEF0DF0B40E386E000E08
:101A4800396EF6EC1EF05A0E0001BA6F230EBC195F
:101A5800D8A431EF0DF033EF0DF0EDEF0DF05C0E83
:101A6800BA6FEDEF0DF0B45114EC1DF01EEF0AF053
:101A7800B0C031F0B1C032F069EC20F01E0E0001A8
:101A8800BA6F66EF09F00001BA51596E5A6A5A5096
:101A9800000AD8B452EF0DF0EDEF0DF05950000ADE
:101AA800D8B493EF00F0010AD8B40DEF01F0030A9F
:101AB800D8B467EF01F0010AD8B4F2EF05F0050ACF
:101AC800D8B432EF06F0010AD8B4C9EF06F00F0A0D
:101AD800D8B479EF01F0010AD8B49DEF01F0030AF8
:101AE800D8B488EF07F0010AD8B4B6EF07F0050AB2
:101AF800D8B448EF08F01E0AD8B444EF08F00E0A2C
:101B0800D8B49DEF08F0360AD8B49CEF09F0010A62
:101B1800D8B4E8EF09F0030AD8B41BEF0AF01E0A9C
:101B2800D8B42FEF0AF0010AD8B492EF0AF0030AEA
:101B3800D8B43CEF0DF0700AD8B4A3EF08F0010A4E
:101B4800D8B4AFEF01F00F0AD8B453EF04F0010A8C
:101B5800D8B478EF04F0030AD8B4EAEF0AF0010A1F
:101B6800D8B43EEF0BF0070AD8B463EF0BF0010AC4
:101B7800D8B4E8EF0BF0030AD8B4A9EF0CF01E0AAA
:101B8800D8B412EF03F0010AD8B435EF03F0030A12
:101B9800D8B447EF03F0060AD8B46EEF03F0010A91
:101BA800D8B4B5EF03F0030AD8B444EF04F00C0A34
:101BB800D8B4B8EF0CF0010AD8B4EBEF0CF0070A70
:101BC800D8B437EF0DF0380AD8B4E4EF01F0EDEFF0
:101BD8000DF016EC1CF030EF0FF079EC20F055EC1E
:101BE80020F0020E0001AF6F47EF0DF07FEC20F000
:101BF80038EC20F00001BB6FB305D8B406EF0EF047
:101C080008EF0EF019EF0EF0030EB319D8B40FEF6A
:101C18000EF011EF0EF019EF0EF0B351D8A417EF34
:101C28000EF019EF0EF047EF0DF0030EAF6F47EF10
:101C38000DF0640EBB6523EF0EF025EF0EF02EEFCE
:101C48000EF0FE0EBB19D8A42CEF0EF02EEF0EF0FE
:101C580061EF0EF0BB0E316E000E326EA9EC13F080
:101C68000001BB51316E326A336A346AFF0E356E39
:101C78000F0E366E000E376E000E386E25EC1BF018
:101C880031C03DF032C03EF033C03FF034C040F0C8
:101C9800640E416E000E426E000E436E000E446EDE
:101CA800E5EC14F03DC04BF03EC04CF09BEC1FF04F
:101CB800060E0001AF6F47EF0DF0640EBB6567EFCE
:101CC8000EF069EF0EF08CEF0EF0DD0EBB616FEFDA
:101CD8000EF071EF0EF08CEF0EF0640EBB5FBBC020
:101CE80031F0326A030E346EE80E336E65EC1FF085
:101CF80031C037F032C038F0000E38BEFF0E396EF2
:101D08003A6EF4EC1FF0040E0001AF6F47EF0DF0D0
:101D1800BB0E316E000E326EA9EC13F0010E346E5C
:101D2800000E356E0001BB51596E5A6A59C036F023
:101D38005AC037F020EECFF002D8ADEF0EF0050014
:101D4800FA6EDE50FD6EDE50FE6EF850FF6EFA50F1
:101D58001200AE0E316E000E326E0001BB51CBEC9C
:101D680016F0050E0001AF6F47EF0DF026EC20F0DE
:101D78003150321033103410D8A4C5EF0EF0C7EF2D
:101D88000EF047EF0DF05CEF0EF0AD0E316E000E69
:101D9800326EBB51E3EC15F00009D8B4D6EF0EF063
:101DA800D8EF0EF047EF0DF05CEF0EF0030EB3190D
:101DB800D8A4E1EF0EF0E3EF0EF0E5EF0EF0020E1F
:101DC800B36F070EAF6F47EF0DF0DEEC1FF07FEC3F
:101DD80020F0596E83EC20F0595CD8B0F6EF0EF085
:101DE800F8EF0EF0FAEF0EF0F5EF0DF07CEC20F0C6
:101DF800080E0001AF6F47EF0DF0B351D8B407EFED
:101E08000FF009EF0FF02BEF0FF05FEC20F031C06F
:101E180059F032C05AF0ACEC1FF03150595C3250D6
:101E28005A58D8A01AEF0FF01CEF0FF027EF0FF059
:101E3800ACEC1FF031503210D8A425EF0FF027EF8B
:101E48000FF02BEF0FF079EC20F0F5EF0DF0000E0E
:101E58000001AF6F47EF0DF00001AF51596E5A6A9C
:101E68005A50000AD8B43BEF0FF047EF0DF0595025
:101E7800000AD8B447EF0DF0010AD8B4F1EF0DF01D
:101E8800030AD8B4FAEF0DF0010AD8B41DEF0EF02A
:101E9800070AD8B4BAEF0EF0010AD8B4C9EF0EF0A9
:101EA800030AD8B4DAEF0EF0010AD8B4E9EF0EF05D
:101EB8000F0AD8B401EF0FF047EF0DF007EF00F06D
:101EC800000E3D6E000E406E000E3F6E5CC03EF090
:101ED800000E336E000E5AEC1BF03D50D8B477EF6D
:101EE8000FF079EF0FF07FEF0FF0200EEDEC1CF004
:101EF8003F2ACDEF10F01F0E3E24D96EDA6A000E8D
:101F0800DA22DF50416E3E2A4150D8A48EEF0FF0FE
:101F180090EF0FF094EF0FF0010E3D6ECDEF10F043
:101F2800650E41609AEF0FF09CEF0FF0ECEF0FF0A9
:101F380041C040F0630E4064A4EF0FF0A6EF0FF02D
:101F4800C1EF0FF0310EEDEC1CF03F2A40C031F02C
:101F5800326A000E346E640E336E9EEC17F0315008
:101F6800406E0A0E4060BBEF0FF0BDEF0FF0C1EFFF
:101F78000FF0300EEDEC1CF03F2A090E4064C7EF5D
:101F88000FF0C9EF0FF0E2EF0FF040C031F0326A06
:101F9800000E346E0A0E336E3CEC17F03150300FE1
:101FA800EDEC1CF03F2A40C031F0326A000E346E6E
:101FB8000A0E336E9EEC17F03150406E4050300FD1
:101FC800EDEC1CF03F2A250EEDEC1CF07CEF0FF039
:101FD800640E4164F2EF0FF0F4EF0FF052EF10F0DF
:101FE800DD0E4160FAEF0FF0FCEF0FF052EF10F04A
:101FF800410E316E000E326EA9EC13F041C040F074
:10200800630E40640AEF10F00CEF10F027EF10F0A9
:10201800310EEDEC1CF03F2A40C031F0326A000E60
:10202800346E640E336E9EEC17F03150406E0A0E1B
:10203800406021EF10F023EF10F027EF10F0300E82
:10204800EDEC1CF03F2A090E40642DEF10F02FEF45
:1020580010F048EF10F040C031F0326A000E346ED4
:102068000A0E336E3CEC17F03150300FEDEC1CF0DB
:102078003F2A40C031F0326A000E346E0A0E336EC9
:102088009EEC17F03150406E4050300FEDEC1CF0D4
:102098003F2A730EEDEC1CF07CEF0FF0DC0E416470
:1020A80058EF10F05AEF10F0B2EF10F0FE0E41604A
:1020B80060EF10F062EF10F0B2EF10F0410E316EE9
:1020C800000E326EA9EC13F085EF10F04150DF0BD3
:1020D800EDEC1CF03F2A41BA74EF10F076EF10F0E7
:1020E8007CEF10F0000E3C6E2B0E3B6E80EF10F074
:1020F800000E3C6E2D0E3B6E3B50EDEC1CF07CEF61
:102108000FF04150396E3A6A3A50000AD8B48FEF4E
:1021180010F0CDEF10F03950410AD8B46AEF10F042
:10212800030AD8B46AEF10F0010AD8B46AEF10F0C5
:10213800070AD8B46AEF10F0250AD8B46AEF10F08D
:10214800030AD8B46AEF10F0010AD8B46AEF10F0A5
:10215800070AD8B46AEF10F0CDEF10F0FE0E411860
:10216800D8A4B9EF10F0BBEF10F0CDEF10F0410E8E
:10217800316E000E326EA9EC13F041C040F04050B1
:10218800300FEDEC1CF03F2A250EEDEC1CF07CEF37
:102198000FF0140E3F64D3EF10F0D5EF10F071EF8D
:1021A8000FF012004D6E4A502FEC20F04E6E4E503C
:1021B800D8B4E1EF10F0E3EF10F00CEF11F0650E7A
:1021C8004E60E9EF10F0EBEF10F00CEF11F04EC09D
:1021D80039F03A6A06EC1EF0030AD8A4F6EF10F0BC
:1021E800F8EF10F0F9EF10F04D064DC03CF04EC07E
:1021F8003DF03E6A4EC039F03A6A06EC1EF03F6E7A
:10220800000E9BEC11F0250EEDEC1CF09AEF11F08E
:10221800640E4E6412EF11F014EF11F043EF11F059
:10222800DD0E4E601AEF11F01CEF11F043EF11F0C4
:102238004E0E316E000E326EA9EC13F04EC039F01E
:102248003A6A06EC1EF0030AD8A42DEF11F02FEF1E
:1022580011F030EF11F04D064DC03CF04EC03DF08E
:102268003E6A4EC039F03A6A06EC1EF03F6E000E28
:102278009BEC11F0730EEDEC1CF09AEF11F0DC0EF4
:102288004E6449EF11F04BEF11F078EF11F0FE0EAC
:102298004E6051EF11F053EF11F078EF11F04E0E40
:1022A800316E000E326EA9EC13F04DC033F0000E03
:1022B8005AEC1BF04E50DF0BEDEC1CF04EBA67EFFA
:1022C80011F069EF11F06FEF11F0000E4C6E2B0E4C
:1022D8004B6E73EF11F0000E4C6E2D0E4B6E4B5083
:1022E800EDEC1CF09AEF11F0FE0E4E18D8A47FEF1B
:1022F80011F081EF11F09AEF11F04E0E316E000ED1
:10230800326EA9EC13F04DC03CF04EC03DF03E6A71
:102318004EC039F03A6A06EC1EF03F6E000E9BEC98
:1023280011F0250EEDEC1CF09AEF11F01200456E3D
:102338003EBEA1EF11F0A4EF11F0010EA5EF11F0D0
:10234800000E476E4750D8B4ACEF11F0AEEF11F065
:10235800B2EF11F03D6C3E1ED8B03E2A3CC033F0BF
:1023680045505AEC1BF0270E496E100E486E050EAC
:10237800466EE1EF11F03DC031F03EC032F048C08A
:1023880033F049C034F03CEC17F031503210D8A487
:10239800D0EF11F0D2EF11F0F4EF11F0460648C07B
:1023A80031F049C032F0000E346E0A0E336E3CEC48
:1023B80017F031C048F032C049F049BEEEEF11F0D5
:1023C800495006E14804D8B0ECEF11F0EEEF11F0F7
:1023D800BFEF11F0F4EF11F0200EEDEC1CF03F060A
:1023E8003F50406E416A475046C042F0436A422619
:1023F800000E43224050425C4350800A446E4150D4
:10240800800A4458D8B00BEF12F00DEF12F015EF18
:1024180012F0020E3F6013EF12F015EF12F0F0EF1A
:1024280011F04750D8B41BEF12F01DEF12F020EF57
:1024380012F02D0EEDEC1CF03DC031F03EC032F034
:1024480048C033F049C034F03CEC17F03150300F3D
:10245800EDEC1CF03DC031F03EC032F048C033F026
:1024680049C034F09EEC17F031C03DF032C03EF068
:1024780048C031F049C032F0000E346E0A0E336E97
:102488003CEC17F031C048F032C049F049BE57EF74
:1024980012F0495006E14804D8B055EF12F057EF52
:1024A80012F020EF12F01200356EE8EF12F031C092
:1024B800D9FF32C0DAFFDF50D8A465EF12F067EF1A
:1024C80012F001EF13F031C0D9FF32C0DAFFFE0E6F
:1024D800DF6E01EF13F031C0D9FF32C0DAFF640EAE
:1024E800DF2601EF13F031C0D9FF32C0DAFFDD0E6D
:1024F800DF6E01EF13F031C0D9FF32C0DAFFDE0E14
:10250800DF6E01EF13F031C0D9FF32C0DAFFDF0E02
:10251800DF6E01EF13F031C0D9FF32C0DAFFE00EF1
:10252800DF6E01EF13F031C0D9FF32C0DAFFE10EE0
:10253800DF6E01EF13F031C0D9FF32C0DAFFE20ECF
:10254800DF6E01EF13F031C0D9FF32C0DAFFE30EBE
:10255800DF6E01EF13F031C0D9FF32C0DAFFE40EAD
:10256800DF6E01EF13F031C0D9FF32C0DAFFDF5060
:10257800336E346A3450000AD8B4C5EF12F001EF54
:1025880013F03350410AD8B477EF12F0030AD8B4E5
:1025980087EF12F0010AD8B497EF12F0070AD8B4FF
:1025A800A7EF12F0250AD8B47FEF12F0030AD8B4C7
:1025B8008FEF12F0010AD8B49FEF12F0070AD8B4CF
:1025C800AFEF12F001EF13F03550336E346A345028
:1025D800000AD8B4F2EF12F001EF13F03350610A99
:1025E800D8B4B7EF12F0110AD8B45BEF12F0040AAE
:1025F800D8B46FEF12F001EF13F012000B0E566E05
:10260800010E576E21EE1EF010EE38F0130EDBCFE0
:10261800E3FFE806FCE220EE4CF0090EDE6AE8066D
:10262800FDE2380E326E7D0E336E20EEBFF002D81A
:1026380028EF13F00500FA6EDE50FD6EDE50FE6ED8
:10264800F850FF6EFA50120039EF13F034C0D9FF7A
:1026580035C0DAFF380E5624E16EE26A000EE22237
:10266800DFCFE7FF344A352A562A34C0D9FF35C0B0
:10267800DAFFDF50D8A443EF13F045EF13F02AEF49
:1026880013F0380E5624D96EDA6A000EDA220D0ECF
:10269800DF6E562A380E5624D96EDA6A000EDA2210
:1026A8000A0EDF6E562A380E5624D96EDA6A000EE4
:1026B800DA22000EDF6E380E326E000E336EA2EC98
:1026C80018F076EF13F036C0D9FF37C0DAFF4C0E9A
:1026D8005724E16EE26A000EE222DFCFE7FF364AB6
:1026E800372A572A36C0D9FF37C0DAFFDF50D8A4B7
:1026F80080EF13F082EF13F067EF13F04C0E5724BE
:10270800D96EDA6A000EDA220D0EDF6E572A4C0EE9
:102718005724D96EDA6A000EDA220A0EDF6E572ABB
:102728004C0E5724D96EDA6A000EDA22000EDF6EDC
:102738004C0E326E000E336EA2EC18F0C40E326EE0
:102748007F0E336EA2EC18F0120031C0D9FF32C0F0
:10275800DAFF650EDF60B3EF13F0B5EF13F0B7EFF4
:1027680013F048EF14F031C0D9FF32C0DAFFDD0EA4
:10277800DF60C1EF13F0C3EF13F013EF14F031C0B3
:10278800D9FF32C0DAFF640EDF5E48EF14F031C0C3
:10279800D9FF32C0DAFF410EDF6E48EF14F031C0C6
:1027A800D9FF32C0DAFF610EDF6E48EF14F031C096
:1027B800D9FF32C0DAFF420EDF6E48EF14F031C0A5
:1027C800D9FF32C0DAFF620EDF6E48EF14F031C075
:1027D800D9FF32C0DAFF430EDF6E48EF14F031C084
:1027E800D9FF32C0DAFF630EDF6E48EF14F031C054
:1027F800D9FF32C0DAFF440EDF6E48EF14F031C063
:10280800D9FF32C0DAFF640EDF6E48EF14F031C032
:10281800D9FF32C0DAFF000EDF6E48EF14F031C086
:10282800D9FF32C0DAFFDF50336E346A3450000A01
:10283800D8B421EF14F048EF14F03350DD0AD8B4BF
:10284800CBEF13F0030AD8B4D3EF13F0010AD8B4CE
:10285800DBEF13F03F0AD8B4E3EF13F0010AD8B462
:10286800EBEF13F0030AD8B4F3EF13F0010AD8B46E
:10287800FBEF13F0070AD8B403EF14F01A0AD8B420
:102888000BEF14F048EF14F012000A0E586E21EE08
:1028980000F010EE3AF01D0EDBCFE3FFE806FCE295
:1028A80066EF14F034C0F6FF35C0F7FF3A0E58242F
:1028B800D96EDA6A000EDA220800F5CFDFFF344A53
:1028C800352A582A34C0F6FF35C0F7FF0800F550FE
:1028D8000009D8A472EF14F074EF14F056EF14F056
:1028E8003A0E5824D96EDA6A000EDA22220EDF6E0A
:1028F800582A3A0E5824D96EDA6A000EDA222C0EBB
:10290800DF6E582A3A0E5824D96EDA6A000EDA2297
:10291800220EDF6E582A34C0F6FF35C0F7FF0800D4
:10292800F550386E396A38C056F139C057F1ADEFF5
:1029380014F036C0F6FF37C0F7FF3A0E5824D96EA8
:10294800DA6A000EDA220800F5CFDFFF364A372AA6
:10295800582A36C0F6FF37C0F7FF0800F5500009BF
:10296800D8A4B9EF14F0BBEF14F09DEF14F03A0EB1
:102978005824D96EDA6A000EDA22220EDF6E582A3F
:102988003A0E5824D96EDA6A000EDA220D0EDF6E7E
:10299800582A3A0E5824D96EDA6A000EDA220A0E3C
:1029A800DF6E582A3A0E5824D96EDA6A000EDA22F7
:1029B800000EDF6E3A0E326E000E336EA2EC18F087
:1029C8001200000E466E44BEEEEF14F0ECEF14F069
:1029D800F8EF14F0441E431E421E416C000E4222C2
:1029E80043224422010E466E40BEFFEF14F0FDEF75
:1029F80014F009EF15F0401E3F1E3E1E3D6C000E00
:102A08003E223F224022010E461A000E476E000E5B
:102A1800486E000E496E000E4A6E41504210431037
:102A28004410D8B41AEF15F01CEF15F052EF15F05A
:102A3800010E456E26EF15F0D890413642364336E2
:102A48004436452A44AE2BEF15F02DEF15F020EF54
:102A580015F0D8904736483649364A3641503D5CDD
:102A680042503E5843503F5844504058D8A03FEF3A
:102A780015F041EF15F04AEF15F041503D5E425018
:102A88003E5A43503F5A4450405A4780D8904432A7
:102A9800433242324132452E2DEF15F04650D8B41C
:102AA80058EF15F05AEF15F062EF15F04A1E491E5F
:102AB800481E476C000E482249224A2247C03DF072
:102AC80048C03EF049C03FF04AC040F01200326EA4
:102AD8008A9C32C031F0313A0F0E311631463146F8
:102AE8008A503118C30B31188A6E8A9E3204D8B4C2
:102AF80080EF15F082EF15F08BEF15F0020E32180B
:102B0800D8A489EF15F08BEF15F094EF15F00D0EA2
:102B1800316EFC0EE82EFED7312EFCD798EF15F05B
:102B2800420EE82EFED700D08A8E3250F00B200AD3
:102B3800D8A4A1EF15F0A3EF15F0B6EF15F08A9C15
:102B480032C031F0313A0F0E3116314631468A50D3
:102B58003118C30B31188A6E8A9E420EE82EFED7B2
:102B680000D08A8E8A9C32C031F00F0E3116314661
:102B780031468A503118C30B31188A6E8A9E320446
:102B8800D8B4C9EF15F0CBEF15F0D4EF15F0020E5D
:102B98003218D8A4D2EF15F0D4EF15F0DDEF15F008
:102BA8000D0E316EFC0EE82EFED7312EFCD7E1EF6C
:102BB80015F0420EE82EFED700D08A8E1200356E30
:102BC80029EF16F031C0D9FF32C0DAFFDF50020B0F
:102BD80056EF16F031C0D9FF32C0DAFFDF50010BD3
:102BE80056EF16F031C0D9FF32C0DAFFDF50080BBC
:102BF80056EF16F031C0D9FF32C0DAFFDF50040BB0
:102C080056EF16F031C0D9FF32C0DAFFDF50200B83
:102C180056EF16F031C0D9FF32C0DAFFDF50100B83
:102C280056EF16F031C0D9FF32C0DAFFDF50800B03
:102C380056EF16F031C0D9FF32C0DAFFDF50400B33
:102C480056EF16F0000E56EF16F03550336E346A14
:102C58003450000AD8B433EF16F026EF16F033508C
:102C6800410AD8B4E6EF15F0030AD8B4F6EF15F028
:102C7800010AD8B406EF16F0070AD8B416EF16F012
:102C8800250AD8B4EEEF15F0030AD8B4FEEF15F014
:102C9800010AD8B40EEF16F0070AD8B41EEF16F0E2
:102CA80026EF16F01200000E3D6E5D043E6E020E19
:102CB8003E6061EF16F063EF16F065EF16F0CAEFAD
:102CC80016F01F0E3E24D96EDA6A000EDA22DF50A3
:102CD8003F6E650E3F6073EF16F075EF16F07DEFEF
:102CE80016F03FC039F03A6A06EC1EF03C6E3C28FC
:102CF8003D26640E3F6483EF16F085EF16F098EFDB
:102D080016F0DD0E3F608BEF16F08DEF16F098EFA2
:102D180016F09C0E3F24396E3A6AFF0E3A2206ECF2
:102D28001EF03C6E3C283D26DC0E3F649EEF16F0FC
:102D3800A0EF16F0AAEF16F0FE0E3F60A6EF16F011
:102D4800A8EF16F0AAEF16F0020E3D26FE0E3F1869
:102D5800D8A4B1EF16F0B3EF16F0BBEF16F03FC0F2
:102D680039F03A6A06EC1EF03C6E3C283D26140EFB
:102D78003D64C1EF16F0C3EF16F0C5EF16F0CAEFC9
:102D880016F03EC05CF03E065BEF16F01200356EA2
:102D98000EEF17F031C0D9FF32C0DAFF000EDB802A
:102DA8003BEF17F031C0D9FF32C0DAFFFE0EDF1655
:102DB8003BEF17F031C0D9FF32C0DAFF000EDB82DB
:102DC8003BEF17F031C0D9FF32C0DAFFFD0EDF1636
:102DD8003BEF17F031C0D9FF32C0DAFF000EDB84B9
:102DE8003BEF17F031C0D9FF32C0DAFFFB0EDF1618
:102DF8003BEF17F031C0D9FF32C0DAFF000EDB8697
:102E08003BEF17F031C0D9FF32C0DAFFF70EDF16FB
:102E18003BEF17F03550336E346A3450000AD8B49B
:102E280018EF17F03BEF17F03350410AD8B4CEEF44
:102E380016F0030AD8B4DEEF16F0010AD8B4EEEFA4
:102E480016F0070AD8B4FEEF16F0250AD8B4D6EF64
:102E580016F0030AD8B4E6EF16F0010AD8B4F6EF74
:102E680016F0070AD8B406EF17F03BEF17F0120078
:102E7800000E366E34BE45EF17F043EF17F04BEFF8
:102E880017F0336C341ED8B0342A010E366E32BEB9
:102E980052EF17F050EF17F058EF17F0316C321E61
:102EA800D8B0322A010E361A000E386E000E376E70
:102EB80033503410D8B463EF17F065EF17F08DEF87
:102EC80017F0010E356E6DEF17F0D89033363436A3
:102ED800352A34AE72EF17F074EF17F069EF17F078
:102EE800D890373638363350315C34503258D8A001
:102EF80080EF17F082EF17F087EF17F03350315E4D
:102F08003450325A3780D89034323332352E74EFF9
:102F180017F03650D8B493EF17F095EF17F099EFF4
:102F280017F0376C381ED8B0382A37C031F038C09F
:102F380032F01200000E366E32BEA7EF17F0A5EF82
:102F480017F0ADEF17F0316C321ED8B0322A010EEF
:102F5800366E34BEB4EF17F0B2EF17F0B8EF17F0D3
:102F6800336C341ED8B0342A33503410D8B4BFEF81
:102F780017F0C1EF17F0E5EF17F0010E356EC9EF46
:102F880017F0D89033363436352A34AECEEF17F0F2
:102F9800D0EF17F0C5EF17F03350315C345032588A
:102FA800D8A0D9EF17F0DBEF17F0DFEF17F03350A9
:102FB800315E3450325AD89034323332352ED0EF15
:102FC80017F03650D8B4EBEF17F0EDEF17F0F1EF3C
:102FD80017F0316C321ED8B0322A31C031F032C00D
:102FE80032F01200346E3404D8A4FDEF17F0FFEF6E
:102FF80017F017EF18F08C0E326E7F0E336EA2ECBE
:1030080018F04F0E326E7F0E336EA2EC18F07E0E63
:10301800326E7F0E336EA2EC18F06F0E326E7F0E9A
:10302800336EA2EC18F0020E3418D8A41EEF18F074
:1030380020EF18F038EF18F0A80E326E7F0E336EBE
:10304800A2EC18F0030E326EE80E316E24EC1FF07D
:10305800600E326E7D0E336EA2EC18F0030E326EE7
:10306800E80E316E24EC1FF0030E3418D8A43FEF9D
:1030780018F041EF18F04DEF18F0B60E326E7F0ED3
:10308800336EA2EC18F00F0E326E7D0E336EA2EC8A
:1030980018F01200000E336E000E346E030E346406
:1030A80058EF18F05AEF18F05CEF18F0A0EF18F08E
:1030B80034C031F0010E326E312A65EF18F0D89025
:1030C8003236312E63EF18F03250836E000E356EB3
:1030D80035C031F0100E326E312A75EF18F0D890E5
:1030E8003236312E73EF18F0325083140009D8B4F9
:1030F80080EF18F082EF18F094EF18F03450040DB8
:10310800460E316E010E326EF3503126F4503222E3
:1031180035503124D96E000E3220DA6EDF50336E0E
:10312800352A030E35649BEF18F09DEF18F06CEF0D
:1031380018F0342A52EF18F033501200DCEF18F070
:1031480020EEDBF002D8B3EF18F00500FA6EDE507F
:10315800FD6EDE50FE6EF850FF6EFA501200000948
:10316800D8A4B9EF18F0BBEF18F0A4EF18F020EED0
:10317800D9F002D8DAEF18F00500FA6EDE50FD6ECD
:10318800DE50FE6EF850FF6EFA5032C0F6FF33C0C4
:10319800F7FFF86A070EF76403D00800F55005D06A
:1031A800F6CFE1FFF7CFE2FFE7501200324A332AA9
:1031B80032C0F6FF33C0F7FFF86A070EF76403D092
:1031C8000800F55005D0F6CFE1FFF7CFE2FFE75052
:1031D8000009D8A4F2EF18F0F4EF18F0A4EF18F0F3
:1031E8001200000E396E000E3A6E000E3B6E000E95
:1031F8003C6E3550361037103810D8B406EF19F039
:1032080008EF19F03EEF19F0010E3D6E12EF19F0BC
:10321800D89035363636373638363D2A38AE17EF39
:1032280019F019EF19F00CEF19F0D89039363A3631
:103238003B363C363550315C36503258375033586F
:1032480038503458D8A02BEF19F02DEF19F036EF7D
:1032580019F03550315E3650325A3750335A38509B
:10326800345A3980D89038323732363235323D2E9A
:1032780019EF19F039C031F03AC032F03BC033F0E1
:103288003CC034F01200336E79EF19F01EB04FEFE6
:1032980019F052EF19F0010E53EF19F0000E96EFE6
:1032A80019F01EB25AEF19F05DEF19F0010E5EEF3A
:1032B80019F0000E96EF19F01EB465EF19F068EFDB
:1032C80019F0010E69EF19F0000E96EF19F01EB60D
:1032D80070EF19F073EF19F0010E74EF19F0000E8A
:1032E80096EF19F0000E96EF19F03350316E326AEE
:1032F8003250000AD8B483EF19F076EF19F0315044
:10330800410AD8B44AEF19F0030AD8B455EF19F0B6
:10331800010AD8B460EF19F0070AD8B46BEF19F0B6
:1033280076EF19F01200336EC6EF19F01EA09FEF6A
:1033380019F0A2EF19F01E80A3EF19F01E90E3EF29
:1033480019F01EA2AAEF19F0ADEF19F01E82AEEF28
:1033580019F01E92E3EF19F01EA4B5EF19F0B8EFBB
:1033680019F01E84B9EF19F01E94E3EF19F01EA6A8
:10337800C0EF19F0C3EF19F01E86C4EF19F01E96BE
:10338800E3EF19F03350316E326A3250000AD8B484
:10339800D0EF19F0E3EF19F03150410AD8B49AEFA1
:1033A80019F0030AD8B4A5EF19F0010AD8B4B0EFA0
:1033B80019F0070AD8B4BBEF19F0E3EF19F01200BF
:1033C8005D50D8B4EAEF19F0ECEF19F02DEF1AF0D0
:1033D800020E5D64F2EF19F0F4EF19F0F5EF19F051
:1033E8005D061F0E5D24D96EDA6A000EDA22DC0E45
:1033F800DF6401EF1AF003EF1AF025EF1AF01F0E41
:103408005D24316E326A000E3222A9EC13F01F0ED1
:103418005D24D96EDA6A000EDA22DF50DF0B97ECF2
:1034280019F01F0E5D24D96EDA6A000EDA22DF5019
:10343800406E416A40C031F041C032F0610E58EC34
:1034480012F01F0E5D24D96EDA6A000EDA22000E21
:10345800DF6E57EC16F01200340EF66E390EF76E6A
:10346800000EF86E01EE00F010EE56F00900F5CFF0
:10347800EEFFE550E150FAE1820EF66E3C0EF76E73
:10348800000EF86E00EEBDF010EE38F00900F5CF32
:10349800EEFFE550E150FAE10A0EF66E410EF76EC6
:1034A800000EF86E0900F5CF5BF00900F5CF5CF06F
:1034B8000900F5CF5DF001EE56F0140EEE6AE8064D
:1034C800FDE10001F66BF56B00EE01F0300EEE6ADF
:1034D800E806FDE15E905E92000EF86E000109EFCD
:1034E80000F0000E346E000E356E000E366E000EC3
:1034F800376E410E47EC19F0346E420E47EC19F066
:10350800356E430E47EC19F0366E440E47EC19F051
:10351800376E340E386E000E396E000E3A6E080E95
:103528003B6EAAEF1AF038C0D9FF39C0DAFFDF5076
:10353800D8B4A1EF1AF0A3EF1AF0A6EF1AF03A5098
:103548003B103A6E384A392AD8903B323B50D8A4BF
:10355800B0EF1AF0B2EF1AF097EF1AF03A501200E3
:10356800000E366E000E356E33503410D8B4BFEFEF
:103578001AF0C1EF1AF0E9EF1AF0010E376EC9EF31
:103588001AF0D89033363436372A34AECEEF1AF0E4
:10359800D0EF1AF0C5EF1AF0D890353636363350DA
:1035A800315C34503258D8A0DCEF1AF0DEEF1AF054
:1035B800E3EF1AF03350315E3450325A3580D890E8
:1035C80034323332372ED0EF1AF035C031F036C0EE
:1035D80032F01200949C948EF29E000E316E2D0EE5
:1035E800326E310E336E010E346E3EC042F03FC073
:1035F80043F040C044F041C045F0020ED890423636
:10360800433644364536E82E02EF1BF042C035F00B
:1036180043C036F044C037F045C038F0F5EC18F038
:10362800FF0E3124AF6EFF0E3220B06EAC98B88614
:10363800AC84AB8EAC8AAB889D8A9D98F28CF28E56
:103648001200000E396E000E3A6E000E3B6E000E30
:103658003C6E31A032EF1BF034EF1BF03CEF1BF057
:103668003550392636503A2237503B2238503C22C2
:10367800D8903536363637363836D89034323332F5
:10368800323231323150321033103410D8A44FEF67
:103698001BF051EF1BF02DEF1BF039C031F03AC091
:1036A80032F03BC033F03CC034F01200366E000EEE
:1036B800376E6BEF1BF0400E376E84EF1BF0140E65
:1036C800376E84EF1BF0540E376E84EF1BF03650C4
:1036D800346E356A3550000AD8B475EF1BF084EFA4
:1036E8001BF03450010AD8B45FEF1BF0030AD8B4BA
:1036F80063EF1BF0010AD8B467EF1BF084EF1BF0EF
:10370800375033247F0B800F6BEC15F01200110E2D
:103718005C6091EF1BF093EF1BF0B7EF1BF0FF0E0F
:10372800316EFF0E326E5D50336E346A315033267F
:10373800325034225C50356E366A3350355C365020
:10374800800A376E3450800A3758D8B0AEEF1BF075
:10375800B0EF1BF0B3EF1BF05C2AB9EF1BF05D0470
:103768005C6EB9EF1BF0110E5C6E1200000E3A6E23
:10377800000E336E000E5AEC1BF0D9EF1BF00A0E48
:103788003B18D8B4CAEF1BF0CCEF1BF0D1EF1BF0FD
:103798003B50EDEC1CF0D7EF1BF0000E336E3A2ACD
:1037A8003A505AEC1BF0384A392A38C0F6FF39C06B
:1037B800F7FF0800F5CF3BF03B50D8A4E6EF1BF02D
:1037C800E8EF1BF0C3EF1BF01200316E800E336E72
:1037D800000E326E0BEF1CF0809431503314000948
:1037E800D8B4F9EF1BF0FBEF1BF0FEEF1BF0808065
:1037F800FFEF1BF0809080A204EF1CF006EF1CF096
:1038080008EF1CF0335032128084D8903332335092
:10381800D8A411EF1CF013EF1CF0F0EF1BF080940C
:10382800325012001C04366E76EC20F0000E376E13
:1038380036EF1CF037501524D96E000E1620DA6EBC
:1038480036501324346E000E1420356E3750345C15
:10385800E16E3550D8A03504E26EE750E9EC1BF074
:10386800DF6E372A1C50375CD8A03DEF1CF03FEFC5
:103878001CF01EEF1CF076EC20F01200406E120EC9
:103888005D6049EF1CF04BEF1CF06BEF1CF04050F3
:10389800D8B451EF1CF053EF1CF06BEF1CF0400E46
:1038A800316E000E326E740E58EC12F01F0E5D244D
:1038B800D96EDA6A000EDA2240C0DFFF5D2A1F0ED9
:1038C8005D24D96EDA6A000EDA22000EDF6E57EC3C
:1038D80016F01200406E120E5D6075EF1CF077EF67
:1038E8001CF097EF1CF04050D8B47DEF1CF07FEF30
:1038F8001CF097EF1CF0400E316E000E326E610E18
:1039080058EC12F01F0E5D24D96EDA6A000EDA2226
:1039180040C0DFFF5D2A1F0E5D24D96EDA6A000EF3
:10392800DA22000EDF6E57EC16F0120041542B43DA
:10393800574A41503D2200000000000000000000EE
:103948000000000000000000000041542B434950D3
:1039580053454E443D2200000000000000004D7514
:103968006E646F20616F2073657520636F6D616E83
:10397800646F3132334134353642373839432A306F
:103988002344356E080E366E410E346E3528D8A4A1
:10399800D0EF1CF0D2EF1CF0E4EF1CF0ECEF1CF0C1
:1039A800355036140009D8B4DCEF1CF0DEEF1CF0FB
:1039B800E1EF1CF0345097EC19F0342AD8903632E5
:1039C8003650D8A4EAEF1CF0ECEF1CF0D4EF1CF052
:1039D8001200326E8A8C32C031F0313A0F0E311635
:1039E800314631468A503118C30B31188A6E8A9E87
:1039F800420EE82EFED700D08A8E8A8C32C031F073
:103A08000F0E3116314631468A503118C30B311822
:103A18008A6E8A9E420EE82EFED700D08A8E120049
:103A2800406E120E5D601BEF1DF01DEF1DF035EFAF
:103A38001DF0400E316E000E326E700E58EC12F012
:103A48001F0E5D24D96EDA6A000EDA2240C0DFFF4D
:103A58005D2A1F0E5D24D96EDA6A000EDA22000E86
:103A6800DF6E57EC16F012003C6E38C03BF038C0E1
:103A780033F03C505AEC1BF04DEF1DF039C0F6FF07
:103A88003AC0F7FF0800F550EDEC1CF0394A3A2A25
:103A98003B2A39C0F6FF3AC0F7FF0800F550000985
:103AA800D8A459EF1DF05BEF1DF042EF1DF0120096
:103AB8003B6ED00E396EFF0E3A6E37C0D9FF38C054
:103AC800DAFFDECF31F0DDCF32F0000E346E0A0EB1
:103AD800336E65EC1FF03B503126000E3222395010
:103AE80031263A50322237C0D9FF38C0DAFF31C008
:103AF800DEFF32C0DDFF120034C036F035C037F0CB
:103B0800040E386ED89037323632382E86EF1DF0D4
:103B18003650E9EC1FF041EC20F0000E326E010E39
:103B2800316E24EC1FF03438F00BE9EC1FF041EC57
:103B380020F0000E326E010E316E24EC1FF01200E0
:103B48003B6E3BC031F0326A78EC1FF031C039F07F
:103B580032C03AF0000E3C6E3C503724D96E000E4D
:103B68003820DA6EDF50316E3C5039240DEC1FF0EE
:103B78003C2A0F0E3C64C3EF1DF0C5EF1DF0B0EFFB
:103B88001DF012003B6E3BC031F0326A78EC1FF03A
:103B980031C039F032C03AF0000E3C6E3C50372448
:103BA800D96E000E3820DA6E3C50392449EC20F0EA
:103BB800DF6E3C2A0F0E3C64E4EF1DF0E6EF1DF0CB
:103BC800D2EF1DF0120012EC20F0000E326E010E42
:103BD800316E24EC1FF0C00EE9EC1FF041EC20F030
:103BE800000E326E010E316E24EC1FF0600EE9EC0F
:103BF8001FF041EC20F0000E326E010E316E24EC05
:103C08001FF01200000E3B6E19EF1EF039C031F0A4
:103C18003AC032F0000E346E0A0E336E3CEC17F0E8
:103C280031C039F032C03AF03B2A39503A10D8A4A2
:103C380020EF1EF022EF1EF00AEF1EF03B5012009C
:103C480093809382C650F00B0809C66E400E316E01
:103C58004B0E326E4C0E336E000E346E3EC035F095
:103C68003FC036F040C037F041C038F0F5EC18F0EE
:103C78003104C86EC78EC68A12005E3D443100000A
:103C8800EC2F92280000000000000000042600002D
:103C9800000000000000E4401040DC350000283D32
:103CA8007437703A3623DC40483B8C3BBA3C000002
:103CB800903F376E37C031F0326A78EC1FF031C070
:103CC80035F032C036F0000E386E000E316E3850C6
:103CD80035240DEC1FF0382A0F0E386476EF1EF0ED
:103CE80078EF1EF069EF1EF01200000E366E4EECF3
:103CF80018F0376E3750D8B484EF1EF086EF1EF0F8
:103D080090EF1EF01B50D8A48CEF1EF08EEF1EF023
:103D180090EF1EF037C036F037C01BF03650120057
:103D2800C168939493969398939A939C939E8A8E42
:103D3800000E326E050E316E24EC1FF0280E6BEC6F
:103D480015F00C0E6BEC15F0010E6BEC15F0020E75
:103D58006BEC15F0120046C03EF047C03FF048C07B
:103D680040F049C041F020EEDDF002D8C6EF1EF069
:103D78000500FA6EDE50FD6EDE50FE6EF850FF6EE6
:103D8800FA5012001200FD0ECF6E8F0ECE6E0B5041
:103D98000C100D100E10D8B4D4EF1EF0D6EF1EF094
:103DA800DDEF1EF00B06000E0C5A0D5A0E5ADEEF10
:103DB8001EF0CD901200C16831C015F032C016F067
:103DC80033C013F034C014F035C01CF080969296BE
:103DD8008094929480909290809292828094809025
:103DE8008086120038C0D9FF39C0DAFFDECF31F043
:103DF800DDCF32F0000E346E0A0E336EB4EC1AF0DA
:103E080038C0D9FF39C0DAFF31C0DEFF32C0DDFF6C
:103E18001200326EF29E32C0A9FF31C0A8FFA69EE2
:103E2800A684550EA76EAA0EA76EA682A6B21FEF8D
:103E38001FF021EF1FF01AEF1FF0A694F28E120068
:103E480031EF1FF0070E336E7D0EE82EFED7332EAE
:103E5800FCD700F03106D8A0320631503210D8A471
:103E680038EF1FF03AEF1FF026EF1FF012000600A0
:103E7800F29E9EA042EF1FF044EF1FF04EEF1FF09E
:103E88009DA049EF1FF04BEF1FF04EEF1FF09E90E3
:103E9800C7EC1EF0F28E5E9211003C6E3CC031F011
:103EA800326A78EC1FF031C03AF032C03BF037503C
:103EB8003A2449EC20F038C0D9FF39C0DAFFDF6E68
:103EC800120031503302F3CF35F0F4CF36F03150D1
:103ED8003402F350362632503302F350362635C0BA
:103EE80031F036C032F0120031C033F032C034F055
:103EF800333A343AF00E341633500F0B3412F00EB6
:103F0800331633C031F034C032F012003B6E3BC080
:103F180031F0326A78EC1FF031C039F032C03AF033
:103F280038C031F0375039240DEC1FF01200E7EC9F
:103F38001DF04BC034F04CC035F080EC1DF01CEC8B
:103F480020F0000E326E010E316E24EC1FF01200CC
:103F580020C033F0346A3350346E336A1F5033262E
:103F6800000E342233C031F034C032F01200CD924A
:103F7800300ECD12CD84FD0ECF6E8F0ECE6ECD9C41
:103F88009D80F28CF28E1200000E336E000E316EA0
:103F980033500DEC1FF0332ACAEF1FF01200110E38
:103FA8005D64D9EF1FF0DCEF1FF0010EDDEF1FF0AD
:103FB800000E12005D505B5CD8B0E5EF1FF0E7EF34
:103FC8001FF0E8EF1FF05B2A1200316E31C0C9FF05
:103FD800C7B0F1EF1FF0F3EF1FF0ECEF1FF0120086
:103FE80037C00BF038C00CF039C00DF03AC00EF0F5
:103FF800CD801200020E5C6404EF20F006EF20F082
:1040080007EF20F05C061200ACA20DEF20F010EFD5
:1040180020F0010E11EF20F0000E1200C5809EA6C0
:1040280018EF20F01AEF20F013EF20F09E96120000
:10403800C5849EA622EF20F024EF20F01DEF20F08B
:104048009E9612000BC031F00CC032F00DC033F058
:104058000EC034F01200326E7FEC20F0322438ECBF
:1040680020F0336E33501200316E1F0E3124D96E9A
:10407800DA6A000EDA22DF501200C5BC46EF20F0E3
:1040880048EF20F041EF20F01200316E31C0A9FF57
:10409800A69EA680A8501200000E836EF00E956EA4
:1040A8001200000E186E000E176E12001E901E925F
:1040B8001E941E96120017C031F018C032F012007C
:1040C8001F0E316E000E326E120031C01FF03250DA
:1040D800206E1200010E6BEC15F01200316E31C02B
:1040E800ADFF1200809680861200020E5B6E1200F1
:1040F800174A182A12005B501200120E12005D5067
:0541080012000202029A
:107BDE0000313A20494E5345524952205345515592
:107BEE00454E4349410A323A2042555343415220B1
:107BFE0053455155454E4349410A333A205245505B
:107C0E004554495220554C542E20534551550A3453
:107C1E003A20434F4E464947555241434F45532014
:107C2E0020202000204553434F4C48412041204DF9
:107C3E00454D4F524941200A515545204445534523
:107C4E004A412045584543555441520A2030202080
:107C5E002031202020322020203320202034200AE2
:107C6E0020352020203620202037202020382020AC
:107C7E002039200A00204553434F4C4841204120D3
:107C8E004D454D4F5249410A2051554520444553CB
:107C9E00454A412053414C5641520A203020202063
:107CAE00312020203220202033202020340A20357D
:107CBE002020203620202037202020382020203958
:107CCE0020200020202020444553454A4120534186
:107CDE004C5641522020200A20202020205345516E
:107CEE0055454E434941203F20200A0A23202D208E
:107CFE0053494D2020202020202A202D204E414F58
:107D0E000041542B43575341503D22576972656CC5
:107D1E00657373222C222A2A2A2A2A2A2A2A222CFC
:107D2E00312C322C342C300D0A0041542B43495047
:107D3E0053544152543D22544350222C2231393255
:107D4E002E3136382E342E31222C22333333220D5F
:107D5E000A0041542B43575341503D225443432272
:107D6E002C223837363534333231222C312C322C0A
:107D7E00342C300D0A0041542B4349505345525672
:107D8E0045523D312C3333330D0A004369636C6F1A
:107D9E00733A202020202020202020202020200088
:107DAE003C20202F20203E20633A2020202020201F
:107DBE002020202000202020202020202053414C55
:107DCE00564120202020202020002020202020206E
:107DDE00534547475549542020202020202000207D
:107DEE002020202020205B202020205D202020200D
:107DFE00202020002020202020202044454C4554C7
:107E0E00454420202020202000202020202020203B
:107E1E00204D454D4F52592020202020200020205B
:107E2E00202020204D454D4F524941203F202020FB
:107E3E0020200020202020202053455155454E4320
:107E4E0049412020202020002020202020444F20A7
:107E5E0053495354454D41202020202000202020FE
:107E6E00412020204220202043202020442020207A
:107E7E00200020202044454C4554415220544F446C
:107E8E0041204120202000323A204C494D50415291
:107E9E00204D454D4F5249412020200020202041A9
:107EAE004A55535445204F20494E4943494F2020AF
:107EBE00002020494E53495241204F5320504153E8
:107ECE00534F5320200030202D204369636C6F20C8
:107EDE00636F6E74696E756F202000204345525497
:107EEE00455A412051554520444553454A412000AD
:107EFE00636F6E66696720636F6E74726C3A2020D2
:107F0E002020202500313A2056455249464943410A
:107F1E0052204D454D4F52494100636F6E66696761
:107F2E002074656D706F3A20202020202073004150
:107F3E00542B43574155544F434F4E4E3D300D0A2F
:107F4E000041542B4349505345525645523D300D36
:107F5E000A0041542B4349504D4F44453D300D0AC4
:107F6E000041542B4349504D4F44453D310D0A00BD
:107F7E0041542B4349504D55583D300D0A00415444
:107F8E002B43574D4F44453D310D0A0041542B4371
:107F9E0049504D55583D310D0A0041542B43574D14
:107FAE004F44453D320D0A0041542B43574D4F442B
:107FBE00453D330D0A0041542B434950434C4F531A
:107FCE00450D0A0041542B43574C41500D0A0041B8
:107FDE00542B43494653520D0A003938373635343F
:107FEE003332003C20202F20203E0054434300FF1C
:027FFE00000081
:020000040020DA
:08000000FFFFFFFFFFFFFFFF00
:020000040030CA
:0E000000040C181EFF0180FF0FC00FE00F4020
:00000001FF
