:020000040000FA
:0400000007EF00F016
:100008005E8279ED1EF06EEF19F0D2EC1DF08EECE9
:100018001FF0F9EC1EF0000E3E6E2D0E3F6E310EF5
:10002800406E010E416E62EC1DF0000E4C6E000E2B
:100038004B6ED9EC1EF0000E466EC20E476E010ED6
:10004800486E000E496E02D835EF00F00500000139
:10005800FA6EBD51FD6EBE51FE6EF850FF6EFA503D
:100068001200030E326EE80E316E62EC1EF020EEC6
:10007800C3F002D84BEF00F00500FA6EDE50FD6EBB
:10008800DE50FE6EF850FF6EFA50010E1200030E9D
:10009800326EE80E316E62EC1EF0F70E346E7F0E93
:1000A800356EE60E366E7F0E376E20EEC5F002D83E
:1000B80068EF00F00500FA6EDE50FD6EDE50FE6E51
:1000C800F850FF6EFA501200000E0001BC6F000ECF
:1000D800BB6F000EB26F000E746F000EAD6F000E96
:1000E800AE6FAD0E316E000E326EAE0E336E000E78
:1000F800346E010E356E1DEC1EF00001AF69000E66
:10010800BA6F020E756F000EB56F000EB46F000E59
:10011800B16F000EB06F000EB36F47EF0DF0000E19
:10012800A16F030EA1659BEF00F09DEF00F09FEF1C
:1001380000F0CEEF00F0000EA26F130EA265A7EF3D
:1001480000F0A9EF00F0ABEF00F0CBEF00F020EEED
:10015800E5F002D8C1EF00F00500FA6EDE50FD6E42
:10016800DE50FE6EF850FF6EFA50A2C038F0FD0E59
:10017800396E7F0E3A6EA1511200000E326E0A0ED1
:10018800316E62EC1EF00001A22BA1EF00F0A12B52
:1001980095EF00F0000EA36F030EA365D6EF00F0F5
:1001A800D8EF00F0DAEF00F009EF01F0000EA46FCD
:1001B800130EA465E2EF00F0E4EF00F0E6EF00F0C4
:1001C80006EF01F020EEE5F002D8FCEF00F00500A4
:1001D800FA6EDE50FD6EDE50FE6EF850FF6EFA507D
:1001E800A4C038F0AA0E396E7D0E3A6EA3511200E3
:1001F800000E326E0A0E316E62EC1EF00001A42B66
:10020800DCEF00F0A32BD0EF00F0010EBB6FEDEF99
:100218000DF020EEE5F002D823EF01F00500FA6EAC
:10022800DE50FD6EDE50FE6EF850FF6EFA50000E86
:10023800386ED60E396E7D0E3A6E010E120021EE22
:1002480032F010EE60F0130EDBCFE3FFE806FCE2BD
:10025800000E00019C6F600E9F6F000EA06F4CEFA8
:1002680001F09CC033F0020E98EC1AF09FC0D9FF41
:10027800A0C0DAFFDF502BEC1CF000019C2B000E15
:10028800326E320E316E62EC1EF000019F4BA02BD5
:100298009FC0D9FFA0C0DAFFDF50D8A456EF01F005
:1002A80058EF01F035EF01F0DC0E376E050E386EB1
:1002B800000E396E000E3A6E32EC1FF0020E00018D
:1002C800BB6FEDEF0DF064EC1FF0315032103310BE
:1002D8003410D8A472EF01F074EF01F0EDEF0DF0D7
:1002E800080E0001BB6FEDEF0DF098EC1FF0DD0E6E
:1002F800386E7B0E396E20EEE3F002D88EEF01F0F7
:100308000500FA6EDE50FD6EDE50FE6EF850FF6E90
:10031800FA501200E80E376E030E386E000E396E72
:10032800000E3A6E32EC1FF0090E0001BB6FEDEFC4
:100338000DF064EC1FF03150321033103410D8A493
:10034800A8EF01F0AAEF01F0EDEF0DF0470E000164
:10035800BB6FEDEF0DF0B7EC1DF00001BC6FC7EF00
:1003680001F0030E0001BB6FEDEF0DF0480EBB6FFF
:10037800EDEF0DF0640EBB6FEDEF0DF0500E0001C8
:10038800BB6FEDEF0DF0BC51596E5A6A5A50000A16
:10039800D8B4D1EF01F0EDEF0DF05950310AD8B4CF
:1003A800B5EF01F0030AD8B4BAEF01F0010AD8B4E6
:1003B800BEEF01F0070AD8B4C2EF01F0EDEF0DF07F
:1003C8000A0E376EB20E386E000E396E0A0E8FECBA
:1003D8001EF00001B25103EC1CF020EEEDF002D843
:1003E80005EF02F00500FA6EDE50FD6EDE50FE6E7F
:1003F800F850FF6EFA50760E376E000E386E0B0E00
:100408001200760E00019D6F000E9E6F9DC0D9FFF1
:100418009EC0DAFFDE28D8A414EF02F016EF02F02F
:1004280032EF02F020EEEFF002D82FEF02F00500D5
:10043800FA6EDE50FD6EDE50FE6EF850FF6EFA501A
:10044800BCC031F0326A000E346E300E336EDCEC14
:1004580016F031501200000E0001766F760EB66F5E
:10046800000EB76FFFEF02F0B6C0D9FFB7C0DAFFD2
:10047800640EDF6442EF02F044EF02F051EF02F045
:10048800B6C0D9FFB7C0DAFFFE0EDE18D8A44FEF0A
:1004980002F051EF02F060EF02F0B6C031F0B7C0E1
:1004A80032F0E7EC12F0B6C0D9FFB7C0DAFFDF5080
:1004B80052EC1CF0FAEF02F0B6C0D9FFB7C0DAFF71
:1004C800640EDF646AEF02F06CEF02F087EF02F06F
:1004D800B6C0D9FFB7C0DAFFDD0EDF6076EF02F0F5
:1004E80078EF02F087EF02F0B6C031F0B7C032F013
:1004F800E7EC12F0B6C0D9FFB7C0DAFFDF5080ECE6
:100508001BF0FAEF02F0B6C031F0B7C032F0E7ECFA
:1005180012F097EF02F0B6C0D9FFB7C0DAFFDF0ECE
:10052800DF16C8EF02F0B6C0D9FFB7C0DAFFDF5058
:10053800596E5A6A5A50000AD8B4A5EF02F0C8EFAB
:1005480002F05950410AD8B48FEF02F0030AD8B428
:100558008FEF02F0010AD8B48FEF02F0070AD8B47F
:100568008FEF02F0250AD8B48FEF02F0030AD8B44F
:100578008FEF02F0010AD8B48FEF02F0070AD8B45F
:100588008FEF02F0C8EF02F0B6C0D9FFB7C0DAFFAC
:10059800DF50D5EC18F0B6C0D9FFB7C0DAFFDF508E
:1005A80085EC18F00009D8A4DCEF02F0DEEF02F0C9
:1005B800EDEF02F0B6C0D9FFB7C0DAFFDF50596ED1
:1005C8005A6A200E59100001866F5A50876FF7EF4C
:1005D80002F0B6C0D9FFB7C0DAFFDF50596E5950E4
:1005E8000001866F876B8651ACEC1BF049EC0FF06D
:1005F8000001B64BB72BB6C0D9FFB7C0DAFFDF5042
:10060800D8A409EF03F00BEF03F038EF02F0ACECDD
:100618001FF0100E0001BB6FEDEF0DF0ACEC1FF0FA
:10062800000E386E110E396E7F0E3A6E000E76ECA3
:100638001CF0000E386E930E396E7E0E3A6E010E67
:1006480076EC1CF0E80E376E030E386E000E396E2D
:10065800000E3A6E32EC1FF0510E0001BB6FEDEF49
:100668000DF064EC1FF03150321033103410D8A460
:1006780040EF03F042EF03F0EDEF0DF0520E0001F2
:10068800BB6FEDEF0DF0B7EC1DF00001BC6F55EF3F
:1006980003F0530EBB6FEDEF0DF0540EBB6FEDEF93
:1006A8000DF0BC51596E5A6A5A50000AD8B45FEF1F
:1006B80003F0EDEF0DF059502A0AD8B474EF01F0A9
:1006C8001B0AD8B44DEF03F0030AD8B451EF03F076
:1006D800EDEF0DF0000E386EE70E396E7E0E3A6EB5
:1006E800000E76EC1CF0000E386E7E0E396E7E0E13
:1006F8003A6E010E76EC1CF0000E386E2A0E396E3A
:100708007E0E3A6E020E76EC1CF0000E386EF80E75
:10071800396E7C0E3A6E030E76EC1CF0B7EC1DF0C9
:100728000001BC6FA0EF03F0550EBB6FEDEF0DF0AD
:10073800ACEC1FF0C2EF01F0BC51596E5A6A5A5026
:10074800000AD8B4AAEF03F0EDEF0DF05950230AD0
:10075800D8B498EF03F0090AD8B49CEF03F0EDEF92
:100768000DF020EEF3F002D8C4EF03F00500FA6EA6
:10077800DE50FD6EDE50FE6EF850FF6EFA5012002D
:10078800ACEC1FF0000E0001A56F030EA565CFEFBE
:1007980003F0D1EF03F0D3EF03F0F5EF03F0000E11
:1007A800A66F130EA665DBEF03F0DDEF03F0DFEFB6
:1007B80003F0F2EF03F0A6C038F0FD0E396E7F0E9D
:1007C8003A6EA55176EC1CF0000E326E0A0E316EB0
:1007D80062EC1EF00001A62BD5EF03F0A52BC9EFA4
:1007E80003F0000EA76F030EA765FDEF03F0FFEF00
:1007F80003F001EF04F023EF04F0000EA86F130ECE
:10080800A86509EF04F00BEF04F00DEF04F020EFFA
:1008180004F0A8C038F0AA0E396E7D0E3A6EA751C2
:1008280076EC1CF0000E326E0A0E316E62EC1EF091
:100838000001A82B03EF04F0A72BF7EF03F0000E3D
:10084800386E000E396E7E0E3A6E010E76EC1CF094
:10085800000E386E150E396E7E0E3A6E020E76EC6C
:100868001CF0E80E376E030E386E000E396E000E5F
:100878003A6E32EC1FF0560E0001BB6FEDEF0DF033
:1008880064EC1FF03150321033103410D8A44FEFFD
:1008980004F051EF04F0EDEF0DF0C2EF01F020EE9F
:1008A800E9F002D862EF04F00500FA6EDE50FD6E42
:1008B800DE50FE6EF850FF6EFA501200300E386EA1
:1008C8007C0E396E20EEE3F002D875EF04F00500D7
:1008D800FA6EDE50FD6EDE50FE6EF850FF6EFA5076
:1008E8001200490E0001BB6FB7EC1DF00001BC6F90
:1008F800B9EF05F0BCC031F0326A000E346E300E2C
:10090800336EDCEC16F03150376EB20E386E000ED6
:10091800396E0A0E8FEC1EF00001B25103EC1CF088
:1009280020EEEDF002D8B1EF04F00500FA6EDE50CB
:10093800FD6EDE50FE6EF850FF6EFA50760E376E82
:10094800000E386EBCC031F0326A000E346E300EC4
:10095800336EDCEC16F031501200760E00019D6FFC
:10096800000E9E6F9DC0D9FF9EC0DAFFDE28D8A476
:10097800C0EF04F0C2EF04F0DEEF04F020EEEFF079
:1009880002D8DBEF04F00500FA6EDE50FD6EDE5093
:10099800FE6EF850FF6EFA50BCC031F0326A000E9D
:1009A800346E300E336EDCEC16F031501200000E4F
:1009B8000001766F760EB86F000EB96FABEF05F0D9
:1009C800B8C0D9FFB9C0DAFF640EDF64EEEF04F0F7
:1009D800F0EF04F0FDEF04F0B8C0D9FFB9C0DAFFBA
:1009E800FE0EDE18D8A4FBEF04F0FDEF04F00CEFC8
:1009F80005F0B8C031F0B9C032F0E7EC12F0B8C079
:100A0800D9FFB9C0DAFFDF5052EC1CF0A6EF05F0B1
:100A1800B8C0D9FFB9C0DAFF640EDF6416EF05F07D
:100A280018EF05F033EF05F0B8C0D9FFB9C0DAFF09
:100A3800DD0EDF6022EF05F024EF05F033EF05F05F
:100A4800B8C031F0B9C032F0E7EC12F0B8C0D9FF45
:100A5800B9C0DAFFDF5080EC1BF0A6EF05F0B8C094
:100A680031F0B9C032F0E7EC12F043EF05F0B8C04E
:100A7800D9FFB9C0DAFFDF0EDF1674EF05F0B8C092
:100A8800D9FFB9C0DAFFDF50596E5A6A5A50000AC6
:100A9800D8B451EF05F074EF05F05950410AD8B4B5
:100AA8003BEF05F0030AD8B43BEF05F0010AD8B4D0
:100AB8003BEF05F0070AD8B43BEF05F0250AD8B498
:100AC8003BEF05F0030AD8B43BEF05F0010AD8B4B0
:100AD8003BEF05F0070AD8B43BEF05F074EF05F0DB
:100AE800B8C0D9FFB9C0DAFFDF50D5EC18F0B8C0EC
:100AF800D9FFB9C0DAFFDF5085EC18F00009D8A497
:100B080088EF05F08AEF05F099EF05F0B8C0D9FF36
:100B1800B9C0DAFFDF50596E5A6A200E5910000129
:100B2800886F5A50896FA3EF05F0B8C0D9FFB9C0D4
:100B3800DAFFDF50596E59500001886F896B885170
:100B4800ACEC1BF049EC0FF00001B84BB92BB8C066
:100B5800D9FFB9C0DAFFDF50D8A4B5EF05F0B7EF79
:100B680005F0E4EF04F00BEF03F0BC51596E5A6A3C
:100B78005A50000AD8B4C3EF05F0EDEF0DF0595004
:100B88002A0AD8B474EF01F01A0AD8B47EEF04F038
:100B9800010AD8B47EEF04F0030AD8B47EEF04F05B
:100BA800010AD8B47EEF04F0070AD8B47EEF04F047
:100BB800010AD8B47EEF04F0030AD8B47EEF04F03B
:100BC800010AD8B47EEF04F00F0AD8B47EEF04F01F
:100BD800010AD8B47EEF04F0EDEF0DF020EEE9F055
:100BE80002D801EF06F00500FA6EDE50FD6EDE5009
:100BF800FE6EF850FF6EFA50120020EEE5F002D8B3
:100C080017EF06F00500FA6EDE50FD6EDE50FE6E40
:100C1800F850FF6EFA50000E386EA80E396E7E0E30
:100C28003A6E000E120020EEE5F002D82DEF06F025
:100C38000500FA6EDE50FD6EDE50FE6EF850FF6E57
:100C4800FA50000E386E540E396E7E0E3A6E010E52
:100C58001200060E0001BB6FEDEF0DF020EEE5F07F
:100C680002D848EF06F00500FA6EDE50FD6EDE5041
:100C7800FE6EF850FF6EFA50000E386E690E396E2F
:100C88007E0E3A6E030E1200040E336E030E98ECBD
:100C98001AF0410E85EC18F00009D8A456EF06F0BA
:100CA80058EF06F05FEF06F0000E00018B6F2D0E77
:100CB8008A6F64EF06F0000E00018B6F2B0E8A6FAF
:100CC8008A512BEC1CF0080E336E030E98EC1AF0C8
:100CD800420E85EC18F00009D8A475EF06F077EFFE
:100CE80006F07EEF06F0000E00018D6F2D0E8C6F62
:100CF80083EF06F0000E00018D6F2B0E8C6F8C5168
:100D08002BEC1CF00C0E336E030E98EC1AF0430E0D
:100D180085EC18F00009D8A494EF06F096EF06F0D9
:100D28009DEF06F0000E00018F6F2D0E8E6FA2EF63
:100D380006F0000E00018F6F2B0E8E6F8E512BEC7C
:100D48001CF0100E336E030E98EC1AF0440E85EC6E
:100D580018F00009D8A4B3EF06F0B5EF06F0BCEF21
:100D680006F0000E0001916F2D0E906FC1EF06F096
:100D7800000E0001916F2B0E906F90512BEC1CF020
:100D8800070E0001BB6FEDEF0DF0B7EC1DF0000191
:100D9800BC6F63EF07F0BC51D5EC18F0040E336E4E
:100DA800030E98EC1AF0410E85EC18F00009D8A44F
:100DB800E0EF06F0E2EF06F0E9EF06F0000E0001C2
:100DC800936F2D0E926FEEEF06F0000E0001936FF9
:100DD8002B0E926F92512BEC1CF0EDEF0DF0BC51E5
:100DE800D5EC18F0080E336E030E98EC1AF0420E8C
:100DF80085EC18F00009D8A404EF07F006EF07F017
:100E08000DEF07F0000E0001956F2D0E946F12EF95
:100E180007F0000E0001956F2B0E946F94512BEC88
:100E28001CF0EDEF0DF0BC51D5EC18F00C0E336E44
:100E3800030E98EC1AF0430E85EC18F00009D8A4BC
:100E480028EF07F02AEF07F031EF07F0000E000156
:100E5800976F2D0E966F36EF07F0000E0001976F13
:100E68002B0E966F96512BEC1CF0EDEF0DF0BC514C
:100E7800D5EC18F0100E336E030E98EC1AF0440EF1
:100E880085EC18F00009D8A44CEF07F04EEF07F0F6
:100E980055EF07F0000E0001996F2D0E986F5AEF6D
:100EA80007F0000E0001996F2B0E986F98512BECEC
:100EB8001CF0EDEF0DF00A0EBB6FEDEF0DF0BC511D
:100EC800596E5A6A5A50000AD8B46DEF07F0EDEF20
:100ED8000DF05950230AD8B45FEF07F0090AD8B4C7
:100EE80074EF01F06B0AD8B4CFEF06F0030AD8B458
:100EF800F3EF06F0010AD8B417EF07F0070AD8B4E1
:100F08003BEF07F0EDEF0DF0B3EC19F00001B26F15
:100F180020EEE9F002D89BEF07F00500FA6EDE50EC
:100F2800FD6EDE50FE6EF850FF6EFA50120020EE95
:100F3800E5F002D8B1EF07F00500FA6EDE50FD6E5D
:100F4800DE50FE6EF850FF6EFA50000E386EBD0E81
:100F5800396E7E0E3A6E000E12000E0E0001BB6F47
:100F6800EDEF0DF0B7EC1DF00001BC6F0FEF08F0CE
:100F780011EC1FF00009D8B4C4EF07F0C6EF07F072
:100F8800EDEF0DF00001BC51D5EC18F00001BC519B
:100F980085EC18F00009D8A4D4EF07F0D6EF07F0D5
:100FA800E1EF07F0200EBCC059F05A6A5910000151
:100FB8009A6F5A509B6FE5EF07F0BCC09AF000019A
:100FC8009B6B9A51ACEC1BF00DEF03F0C9EC1AF0D7
:100FD8000DEF03F03CEC1FF00DEF03F0C1EC1FF038
:100FE800020AD8A4FAEF07F0FCEF07F0FEEF07F0CB
:100FF800B5EF01F022EC19F00DEF03F04A0E0001F5
:10100800BB6FEDEF0DF0290EBB6FEDEF0DF05A0E33
:10101800BB6FEDEF0DF0BC51596E5A6A5A50000A79
:10102800D8B419EF08F0EDEF0DF05950230AD8B4F1
:1010380002EF08F0090AD8B4F2EF07F01A0AD8B498
:1010480007EF08F0040AD8B4EEEF07F0020AD8B4A4
:10105800EAEF07F00F0AD8B40BEF08F0780AD8B413
:10106800BCEF07F0030AD8B4BCEF07F0010AD8B404
:10107800BCEF07F0070AD8B4BCEF07F0EDEF0DF0AE
:1010880049EC0FF0B1EF07F020EEE5F002D85EEF83
:1010980008F00500FA6EDE50FD6EDE50FE6EF85068
:1010A800FF6EFA50000E386EEF0E396E7F0E3A6EF4
:1010B800030E120020EEE7F002D87BEF08F00500DF
:1010C800FA6EDE50FD6EDE50FE6EF850FF6EFA507E
:1010D800010E3C6EC1EC1FF0596EFE0E59243D6E98
:1010E8003E6AFF0E3E22020E3F6E030E120020EEF5
:1010F800E7F002D898EF08F00500FA6EDE50FD6EB2
:10110800DE50FE6EF850FF6EFA50040E3C6EBFECD7
:101118001FF0596EFE0E59243D6E3E6AFF0E3E22A8
:10112800020E3F6E030E12000B0E0001BB6FEDEFB7
:101138000DF0460EBB6F010EAF6FEDEF0DF0030E15
:10114800AF19D8A4AAEF08F0ACEF08F046EF09F001
:10115800020EB319D8B4B3EF08F0B5EF08F046EFB4
:1011680009F020EEE5F002D8CBEF08F00500FA6EA2
:10117800DE50FD6EDE50FE6EF850FF6EFA50000E27
:10118800386EEB0E396E7D0E3A6E000E1200FF0EB1
:101198004A6E010EBBEC10F0000E4A6E090EBBEC55
:1011A80010F0010E4A6E0E0EBBEC10F020EEE5F0CA
:1011B80002D8F0EF08F00500FA6EDE50FD6EDE5042
:1011C800FE6EF850FF6EFA50000E386EAC0E396E97
:1011D8007D0E3A6E020E120020EEE7F002D80DEFF7
:1011E80009F00500FA6EDE50FD6EDE50FE6EF85016
:1011F800FF6EFA50040E3C6EC1EC1FF0596EFE0EE5
:1012080059243D6E3E6AFF0E3E22020E3F6E020ECC
:10121800120020EEE7F002D82AEF09F00500FA6E76
:10122800DE50FD6EDE50FE6EF850FF6EFA50010E75
:101238003C6EBDEC1FF0596EFF0E59243D6E3E6AA0
:10124800FF0E3E22020E3F6E020E120020EEE7F065
:1012580002D846EF09F00500FA6EDE50FD6EDE504A
:10126800FE6EF850FF6EFA500B0E3C6E9DEC1FF0B0
:10127800010E31243D6E000E32203E6E050E3F6E8B
:10128800020E12000001AF51D8A44DEF09F04FEF44
:1012980009F060EF09F0100EBB6F20EEE9F002D8FC
:1012A80060EF09F00500FA6EDE50FD6EDE50FE6E4E
:1012B800F850FF6EFA501200B7EC1DF00001BC6F39
:1012C8007FEF09F0010EB36FEDEF0DF0020EB36F73
:1012D800EDEF0DF0000EB36FEDEF0DF0020EB31948
:1012E800D8A479EF09F07BEF09F0EDEF0DF0030ECC
:1012F800B36FEDEF0DF0BC51596E5A6A5A50000A9F
:10130800D8B489EF09F0EDEF0DF05950230AD8B49D
:1013180066EF09F0130AD8B46EEF09F0010AD8B4E1
:1013280072EF09F0040AD8B46AEF09F0EDEF0DF096
:10133800B7EC1DF00001BC6F2F0EBC65A6EF09F0DD
:10134800A8EF09F0C9EF09F03A0EBC61AEEF09F059
:10135800B0EF09F0C9EF09F0B40E376E000E386E21
:10136800BC519AEC1CF00001B55109E1790EB45D4D
:10137800D8A0C1EF09F0C3EF09F0C7EF09F0000EDC
:10138800B56F780EB46F290EBB6F2A0EBC19D8A49E
:10139800D0EF09F0D2EF09F0DBEF09F0B40E386EA8
:1013A800000E396E34EC1EF0290E0001BB6F230EBF
:1013B800BC19D8A4E2EF09F0E4EF09F0EDEF0DF065
:1013C8002A0EBB6FEDEF0DF020EEE5F002D8FEEF30
:1013D80009F00500FA6EDE50FD6EDE50FE6EF85024
:1013E800FF6EFA50000E386E260E396E7F0E3A6E7A
:1013F800020E120020EEE7F002D816EF0AF0050000
:10140800FA6EDE50FD6EDE50FE6EF850FF6EFA503A
:101418000F0E3C6EB4C03DF0B5C03EF0030E3F6EFB
:10142800020E1200280E0001BB6FEDEF0DF0B45153
:1014380080EC1BF020EEE9F002D82DEF0AF0050051
:10144800FA6EDE50FD6EDE50FE6EF850FF6EFA50FA
:1014580012000DEF03F0B7EC1DF00001BC6F2F0E6A
:10146800BC6539EF0AF03BEF0AF06DEF0AF03A0E6F
:10147800BC6141EF0AF043EF0AF06DEF0AF0B00EDD
:10148800376E000E386EBC519AEC1CF0110E00013C
:10149800B05D270EB159D8A054EF0AF056EF0AF004
:1014A8005AEF0AF0270EB16F100EB06F350E00011B
:1014B800BB6FEDEF0DF00BEF03F0360EBB6FEDEFEA
:1014C8000DF0B00E386E000E396E34EC1EF05AEF87
:1014D8000AF0BC51596E5A6A5A50000AD8B477EFCC
:1014E8000AF0EDEF0DF05950230AD8B461EF0AF075
:1014F800090AD8B465EF0AF06B0AD8B45FEF0AF0AE
:10150800030AD8B40BEF03F0010AD8B40BEF03F0C9
:10151800070AD8B40BEF03F0EDEF0DF020EEE9F079
:1015280002D8A1EF0AF00500FA6EDE50FD6EDE501B
:10153800FE6EF850FF6EFA50120020EEE5F002D869
:10154800B7EF0AF00500FA6EDE50FD6EDE50FE6E53
:10155800F850FF6EFA50000E386E970E396E7D0EF9
:101568003A6E000E120020EEE7F002D8CFEF0AF034
:101578000500FA6EDE50FD6EDE50FE6EF850FF6E0E
:10158800FA500F0E3C6EB0C03DF0B1C03EF0050EF3
:101598003F6E000E120020EEE5F002D8E5EF0AF0EB
:1015A8000500FA6EDE50FD6EDE50FE6EF850FF6EDE
:1015B800FA50000E386ED20E396E7E0E3A6E020E5A
:1015C8001200340E0001BB6FEDEF0DF00A0E376EFE
:1015D800B2C038F00A0EC8EC1EF002D808EF0BF0C3
:1015E80005000001FA6EEB51FD6EEC51FE6EF850ED
:1015F800FF6EFA50A2EC1FF0020E3124376E000E77
:101608003220386E0B0E1200CF0E386E7C0E396EFB
:1016180020EEE3F002D81BEF0BF00500FA6EDE5067
:10162800FD6EDE50FE6EF850FF6EFA501200B7ECF9
:101638001DF00001BC6F29EF0BF04B0EBB6FEDEFF7
:101648000DF0ACEC1FF05AEF0AF0BC51596E5A6A13
:101658005A50000AD8B433EF0BF0EDEF0DF05950A3
:10166800230AD8B421EF0BF0090AD8B425EF0BF000
:10167800EDEF0DF020EEE9F002D84DEF0BF005008C
:10168800FA6EDE50FD6EDE50FE6EF850FF6EFA50B8
:101698001200810E386E7C0E396E20EEE3F002D80F
:1016A80060EF0BF00500FA6EDE50FD6EDE50FE6E48
:1016B800F850FF6EFA5012004C0E0001BB6FB7ECE9
:1016C8001DF00001BC6FAFEF0BF0BCC031F0326A07
:1016D800000E346E300E336EDCEC16F03150376E7F
:1016E800B2C038F00A0EC8EC1EF002D899EF0BF021
:1016F80005000001FA6EEB51FD6EEC51FE6EF850DC
:10170800FF6EFA50A2EC1FF0020E3124376E000E65
:101718003220386EBCC031F0326A000E346E300EA2
:10172800336EDCEC16F0315012004D0E0001BB6F29
:10173800EDEF0DF020EEE9F002D8ADEF0BF005006B
:10174800FA6EDE50FD6EDE50FE6EF850FF6EFA50F7
:10175800120002EF08F0BC51596E5A6A5A50000A3A
:10176800D8B4B9EF0BF0EDEF0DF059502A0AD8B400
:101778009EEF0BF01A0AD8B469EF0BF0010AD8B43F
:1017880069EF0BF0030AD8B469EF0BF0010AD8B47B
:1017980069EF0BF0070AD8B469EF0BF0010AD8B467
:1017A80069EF0BF0030AD8B469EF0BF0010AD8B45B
:1017B80069EF0BF00F0AD8B469EF0BF0010AD8B43F
:1017C80069EF0BF0EDEF0DF020EEE9F002D8F7EF3E
:1017D8000BF00500FA6EDE50FD6EDE50FE6EF8501E
:1017E800FF6EFA501200000E0001A96F030EA965E2
:1017F80000EF0CF002EF0CF004EF0CF033EF0CF0FC
:10180800000EAA6F130EAA650CEF0CF00EEF0CF089
:1018180010EF0CF030EF0CF020EEE5F002D826EFD8
:101828000CF00500FA6EDE50FD6EDE50FE6EF850CC
:10183800FF6EFA50AAC038F0FD0E396E7F0E3A6E70
:10184800A9511200000E326E0A0E316E62EC1EF0C3
:101858000001AA2B06EF0CF0A92BFAEF0BF0000EF3
:10186800AB6F030EAB653BEF0CF03DEF0CF03FEFB9
:101878000CF06EEF0CF0000EAC6F130EAC6547EF7A
:101888000CF049EF0CF04BEF0CF06BEF0CF020EE86
:10189800E5F002D861EF0CF00500FA6EDE50FD6E3F
:1018A800DE50FE6EF850FF6EFA50ACC038F0AA0E4B
:1018B800396E7D0E3A6EAB511200000E326E0A0E72
:1018C800316E62EC1EF00001AC2B41EF0CF0AB2B3B
:1018D80035EF0CF020EEE5F002D884EF0CF00500AF
:1018E800FA6EDE50FD6EDE50FE6EF850FF6EFA5056
:1018F800000E386E3F0E396E7E0E3A6E010E1200E3
:1019080020EEE5F002D89AEF0CF00500FA6EDE50F2
:10191800FD6EDE50FE6EF850FF6EFA50000E386E07
:10192800C10E396E7D0E3A6E020E1200E80E376E49
:10193800030E386E000E396E000E3A6E32EC1FF050
:101948004E0E0001BB6FEDEF0DF064EC1FF031504F
:10195800321033103410D8A4B4EF0CF0B6EF0CF0FA
:10196800EDEF0DF05AEF0AF020EEE5F002D8CEEFD9
:101978000CF00500FA6EDE50FD6EDE50FE6EF8507B
:10198800FF6EFA50000E386EFC0E396E7E0E3A6EFF
:10199800020E120020EEE7F002D8E6EF0CF0050088
:1019A800FA6EDE50FD6EDE50FE6EF850FF6EFA5095
:1019B8000F0E3C6EB4C03DF0B5C03EF0030E3F6E56
:1019C800020E12005B0E0001BB6FEDEF0DF0B7ECDD
:1019D8001DF00001BC6F2F0EBC65F5EF0CF0F7EFA2
:1019E8000CF018EF0DF03A0EBC61FDEF0CF0FFEFB4
:1019F8000CF018EF0DF0B40E376E000E386EBC51B7
:101A08009AEC1CF00001B55109E1650EB45DD8A04F
:101A180010EF0DF012EF0DF016EF0DF0000EB56F90
:101A2800640EB46F5A0EBB6F2A0EBC19D8A41FEFF0
:101A38000DF021EF0DF02AEF0DF0B40E386E000E08
:101A4800396E34EC1EF05A0E0001BB6F230EBC1920
:101A5800D8A431EF0DF033EF0DF0EDEF0DF05C0E83
:101A6800BB6FEDEF0DF0B45152EC1CF01EEF0AF015
:101A7800B0C031F0B1C032F0A7EC1FF01E0E00016B
:101A8800BB6F66EF09F00001BB51596E5A6A5A5094
:101A9800000AD8B452EF0DF0EDEF0DF05950000ADE
:101AA800D8B493EF00F0010AD8B40DEF01F0030A9F
:101AB800D8B467EF01F0010AD8B4F2EF05F0050ACF
:101AC800D8B432EF06F0010AD8B4C9EF06F00F0A0D
:101AD800D8B479EF01F0010AD8B49DEF01F0030AF8
:101AE800D8B488EF07F0010AD8B4B6EF07F0050AB2
:101AF800D8B448EF08F01E0AD8B444EF08F00E0A2C
:101B0800D8B49DEF08F0360AD8B49CEF09F0010A62
:101B1800D8B4E8EF09F0030AD8B41BEF0AF01E0A9C
:101B2800D8B42FEF0AF0010AD8B492EF0AF0030AEA
:101B3800D8B43CEF0DF0700AD8B4A3EF08F0010A4E
:101B4800D8B4AFEF01F00F0AD8B453EF04F0010A8C
:101B5800D8B478EF04F0030AD8B4EAEF0AF0010A1F
:101B6800D8B43EEF0BF0070AD8B463EF0BF0010AC4
:101B7800D8B4E8EF0BF0030AD8B4A9EF0CF01E0AAA
:101B8800D8B412EF03F0010AD8B435EF03F0030A12
:101B9800D8B447EF03F0060AD8B46EEF03F0010A91
:101BA800D8B4B5EF03F0030AD8B444EF04F00C0A34
:101BB800D8B4B8EF0CF0010AD8B4EBEF0CF0070A70
:101BC800D8B437EF0DF0380AD8B4E4EF01F0EDEFF0
:101BD8000DF054EC1BF015EF0FF0B7EC1FF093EC81
:101BE8001FF0020E0001AF6F47EF0DF0BDEC1FF0C4
:101BF80076EC1FF00001BA6FB305D8B406EF0EF00B
:101C080008EF0EF019EF0EF0030EB319D8B40FEF6A
:101C18000EF011EF0EF019EF0EF0B351D8A417EF34
:101C28000EF019EF0EF047EF0DF0030EAF6F47EF10
:101C38000DF0640EBA6523EF0EF025EF0EF02EEFCF
:101C48000EF0FE0EBA19D8A42CEF0EF02EEF0EF0FF
:101C580061EF0EF0BA0E316E000E326EE7EC12F044
:101C68000001BA51316E326A336A346AFF0E356E3A
:101C78000F0E366E000E376E000E386E63EC1AF0DB
:101C880031C03DF032C03EF033C03FF034C040F0C8
:101C9800640E416E000E426E000E436E000E446EDE
:101CA80023EC14F03DC04BF03EC04CF0D9EC1EF0D4
:101CB800060E0001AF6F47EF0DF0640EBA6567EFCF
:101CC8000EF069EF0EF08CEF0EF0DD0EBA616FEFDB
:101CD8000EF071EF0EF08CEF0EF0640EBA5FBAC022
:101CE80031F0326A030E346EE80E336EA3EC1EF048
:101CF80031C037F032C038F0000E38BEFF0E396EF2
:101D08003A6E32EC1FF0040E0001AF6F47EF0DF092
:101D1800BA0E316E000E326EE7EC12F0AE0E316E76
:101D2800000E326E0001BA5109EC16F0050E0001E2
:101D3800AF6F47EF0DF064EC1FF0315032103310E5
:101D48003410D8A4AAEF0EF0ACEF0EF047EF0DF068
:101D58005CEF0EF0AD0E316E000E326EBA5121EC12
:101D680015F00009D8B4BBEF0EF0BDEF0EF047EF49
:101D78000DF05CEF0EF0030EB319D8A4C6EF0EF009
:101D8800C8EF0EF0CAEF0EF0020EB36F070EAF6F7A
:101D980047EF0DF01CEC1FF0BDEC1FF0596EC1ECC5
:101DA8001FF0595CD8B0DBEF0EF0DDEF0EF0DFEF7F
:101DB8000EF0F5EF0DF0BAEC1FF0080E0001AF6F52
:101DC80047EF0DF0B351D8B4ECEF0EF0EEEF0EF094
:101DD80010EF0FF09DEC1FF031C059F032C05AF0EF
:101DE800EAEC1EF03150595C32505A58D8A0FFEF37
:101DF8000EF001EF0FF00CEF0FF0EAEC1EF031508F
:101E08003210D8A40AEF0FF00CEF0FF010EF0FF01C
:101E1800B7EC1FF0F5EF0DF0000E0001AF6F47EFC4
:101E28000DF00001AF51596E5A6A5A50000AD8B4E1
:101E380020EF0FF047EF0DF05950000AD8B447EFE4
:101E48000DF0010AD8B4F1EF0DF0030AD8B4FAEF97
:101E58000DF0010AD8B41DEF0EF0070AD8B49FEFB1
:101E68000EF0010AD8B4AEEF0EF0030AD8B4BFEFF3
:101E78000EF0010AD8B4CEEF0EF00F0AD8B4E6EF90
:101E88000EF047EF0DF007EF00F0000E3D6E000E6C
:101E9800406E000E3F6E5CC03EF0000E336E000ECA
:101EA80098EC1AF03D50D8B45CEF0FF05EEF0FF0ED
:101EB80064EF0FF0200E2BEC1CF03F2AB2EF10F06D
:101EC8001F0E3E24D96EDA6A000EDA22DF50416E08
:101ED8003E2A4150D8A473EF0FF075EF0FF079EF59
:101EE8000FF0010E3D6EB2EF10F0650E41607FEF0E
:101EF8000FF081EF0FF0D1EF0FF041C040F0630E0B
:101F0800406489EF0FF08BEF0FF0A6EF0FF0310E62
:101F18002BEC1CF03F2A40C031F0326A000E346EC0
:101F2800640E336EDCEC16F03150406E0A0E4060E1
:101F3800A0EF0FF0A2EF0FF0A6EF0FF0300E2BEC92
:101F48001CF03F2A090E4064ACEF0FF0AEEF0FF023
:101F5800C7EF0FF040C031F0326A000E346E0A0E3F
:101F6800336E7AEC16F03150300F2BEC1CF03F2A10
:101F780040C031F0326A000E346E0A0E336EDCEC6B
:101F880016F03150406E4050300F2BEC1CF03F2AB9
:101F9800250E2BEC1CF061EF0FF0640E4164D7EFB7
:101FA8000FF0D9EF0FF037EF10F0DD0E4160DFEFE3
:101FB8000FF0E1EF0FF037EF10F0410E316E000E29
:101FC800326EE7EC12F041C040F0630E4064EFEF70
:101FD8000FF0F1EF0FF00CEF10F0310E2BEC1CF0BE
:101FE8003F2A40C031F0326A000E346E640E336E00
:101FF800DCEC16F03150406E0A0E406006EF10F02F
:1020080008EF10F00CEF10F0300E2BEC1CF03F2A0C
:10201800090E406412EF10F014EF10F02DEF10F0DD
:1020280040C031F0326A000E346E0A0E336E7AEC1C
:1020380016F03150300F2BEC1CF03F2A40C031F025
:10204800326A000E346E0A0E336EDCEC16F0315034
:10205800406E4050300F2BEC1CF03F2A730E2BECD7
:102068001CF061EF0FF0DC0E41643DEF10F03FEF24
:1020780010F097EF10F0FE0E416045EF10F047EFBB
:1020880010F097EF10F0410E316E000E326EE7EC53
:1020980012F06AEF10F04150DF0B2BEC1CF03F2AD6
:1020A80041BA59EF10F05BEF10F061EF10F0000E3D
:1020B8003C6E2B0E3B6E65EF10F0000E3C6E2D0E45
:1020C8003B6E3B502BEC1CF061EF0FF04150396E2A
:1020D8003A6A3A50000AD8B474EF10F0B2EF10F030
:1020E8003950410AD8B44FEF10F0030AD8B44FEF73
:1020F80010F0010AD8B44FEF10F0070AD8B44FEF28
:1021080010F0250AD8B44FEF10F0030AD8B44FEFF7
:1021180010F0010AD8B44FEF10F0070AD8B44FEF07
:1021280010F0B2EF10F0FE0E4118D8A49EEF10F098
:10213800A0EF10F0B2EF10F0410E316E000E326ECB
:10214800E7EC12F041C040F04050300F2BEC1CF08F
:102158003F2A250E2BEC1CF061EF0FF0140E3F64A4
:10216800B8EF10F0BAEF10F056EF0FF012004D6E06
:102178004A506DEC1FF04E6E4E50D8B4C6EF10F0BA
:10218800C8EF10F0F1EF10F0650E4E60CEEF10F0D2
:10219800D0EF10F0F1EF10F04EC039F03A6A44EC8D
:1021A8001DF0030AD8A4DBEF10F0DDEF10F0DEEF2E
:1021B80010F04D064DC03CF04EC03DF03E6A4EC09A
:1021C80039F03A6A44EC1DF03F6E000E80EC11F0D5
:1021D800250E2BEC1CF07FEF11F0640E4E64F7EF28
:1021E80010F0F9EF10F028EF11F0DD0E4E60FFEF60
:1021F80010F001EF11F028EF11F04E0E316E000EC5
:10220800326EE7EC12F04EC039F03A6A44EC1DF039
:10221800030AD8A412EF11F014EF11F015EF11F022
:102228004D064DC03CF04EC03DF03E6A4EC039F000
:102238003A6A44EC1DF03F6E000E80EC11F0730E0C
:102248002BEC1CF07FEF11F0DC0E4E642EEF11F03A
:1022580030EF11F05DEF11F0FE0E4E6036EF11F029
:1022680038EF11F05DEF11F04E0E316E000E326E48
:10227800E7EC12F04DC033F0000E98EC1AF04E5017
:10228800DF0B2BEC1CF04EBA4CEF11F04EEF11F0B7
:1022980054EF11F0000E4C6E2B0E4B6E58EF11F0F0
:1022A800000E4C6E2D0E4B6E4B502BEC1CF07FEF3E
:1022B80011F0FE0E4E18D8A464EF11F066EF11F07D
:1022C8007FEF11F04E0E316E000E326EE7EC12F019
:1022D8004DC03CF04EC03DF03E6A4EC039F03A6AFF
:1022E80044EC1DF03F6E000E80EC11F0250E2BEC37
:1022F8001CF07FEF11F01200456E3EBE86EF11F024
:1023080089EF11F0010E8AEF11F0000E476E475069
:10231800D8B491EF11F093EF11F097EF11F03D6CF5
:102328003E1ED8B03E2A3CC033F0455098EC1AF017
:10233800270E496E100E486E050E466EC6EF11F058
:102348003DC031F03EC032F048C033F049C034F0EF
:102358007AEC16F031503210D8A4B5EF11F0B7EF7F
:1023680011F0D9EF11F0460648C031F049C032F0FB
:10237800000E346E0A0E336E7AEC16F031C048F057
:1023880032C049F049BED3EF11F0495006E1480484
:10239800D8B0D1EF11F0D3EF11F0A4EF11F0D9EFCD
:1023A80011F0200E2BEC1CF03F063F50406E416AA6
:1023B800475046C042F0436A4226000E432240502E
:1023C800425C4350800A446E4150800A4458D8B059
:1023D800F0EF11F0F2EF11F0FAEF11F0020E3F609A
:1023E800F8EF11F0FAEF11F0D5EF11F04750D8B42B
:1023F80000EF12F002EF12F005EF12F02D0E2BECA9
:102408001CF03DC031F03EC032F048C033F049C046
:1024180034F07AEC16F03150300F2BEC1CF03DC044
:1024280031F03EC032F048C033F049C034F0DCEC43
:1024380016F031C03DF032C03EF048C031F049C01E
:1024480032F0000E346E0A0E336E7AEC16F031C09C
:1024580048F032C049F049BE3CEF12F0495006E15D
:102468004804D8B03AEF12F03CEF12F005EF12F042
:102478001200356ECDEF12F031C0D9FF32C0DAFF4D
:10248800DF50D8A44AEF12F04CEF12F0E6EF12F04A
:1024980031C0D9FF32C0DAFFFE0EDF6EE6EF12F070
:1024A80031C0D9FF32C0DAFF640EDF26E6EF12F042
:1024B80031C0D9FF32C0DAFFDD0EDF6EE6EF12F071
:1024C80031C0D9FF32C0DAFFDE0EDF6EE6EF12F060
:1024D80031C0D9FF32C0DAFFDF0EDF6EE6EF12F04F
:1024E80031C0D9FF32C0DAFFE00EDF6EE6EF12F03E
:1024F80031C0D9FF32C0DAFFE10EDF6EE6EF12F02D
:1025080031C0D9FF32C0DAFFE20EDF6EE6EF12F01B
:1025180031C0D9FF32C0DAFFE30EDF6EE6EF12F00A
:1025280031C0D9FF32C0DAFFE40EDF6EE6EF12F0F9
:1025380031C0D9FF32C0DAFFDF50336E346A34500D
:10254800000AD8B4AAEF12F0E6EF12F03350410AAD
:10255800D8B45CEF12F0030AD8B46CEF12F0010A99
:10256800D8B47CEF12F0070AD8B48CEF12F0250A21
:10257800D8B464EF12F0030AD8B474EF12F0010A69
:10258800D8B484EF12F0070AD8B494EF12F0E6EF4B
:1025980012F03550336E346A3450000AD8B4D7EF8D
:1025A80012F0E6EF12F03350610AD8B49CEF12F043
:1025B800110AD8B440EF12F0040AD8B454EF12F05C
:1025C800E6EF12F0120031C0D9FF32C0DAFF650E13
:1025D800DF60F1EF12F0F3EF12F0F5EF12F086EF93
:1025E80013F031C0D9FF32C0DAFFDD0EDF60FFEF34
:1025F80012F001EF13F051EF13F031C0D9FF32C0E0
:10260800DAFF640EDF5E86EF13F031C0D9FF32C007
:10261800DAFF410EDF6E86EF13F031C0D9FF32C00A
:10262800DAFF610EDF6E86EF13F031C0D9FF32C0DA
:10263800DAFF420EDF6E86EF13F031C0D9FF32C0E9
:10264800DAFF620EDF6E86EF13F031C0D9FF32C0B9
:10265800DAFF430EDF6E86EF13F031C0D9FF32C0C8
:10266800DAFF630EDF6E86EF13F031C0D9FF32C098
:10267800DAFF440EDF6E86EF13F031C0D9FF32C0A7
:10268800DAFF640EDF6E86EF13F031C0D9FF32C077
:10269800DAFF000EDF6E86EF13F031C0D9FF32C0CB
:1026A800DAFFDF50336E346A3450000AD8B45FEF73
:1026B80013F086EF13F03350DD0AD8B409EF13F0A6
:1026C800030AD8B411EF13F0010AD8B419EF13F0C4
:1026D8003F0AD8B421EF13F0010AD8B429EF13F058
:1026E800030AD8B431EF13F0010AD8B439EF13F064
:1026F800070AD8B441EF13F01A0AD8B449EF13F017
:1027080086EF13F012000A0E586E21EE00F010EE5C
:102718003AF01D0EDBCFE3FFE806FCE2A4EF13F06E
:1027280034C0F6FF35C0F7FF3A0E5824D96EDA6A7E
:10273800000EDA220800F5CFDFFF344A352A582A7E
:1027480034C0F6FF35C0F7FF0800F5500009D8A4DB
:10275800B0EF13F0B2EF13F094EF13F03A0E5824E1
:10276800D96EDA6A000EDA22220EDF6E582A3A0E85
:102778005824D96EDA6A000EDA222C0EDF6E582A37
:102788003A0E5824D96EDA6A000EDA22220EDF6E6B
:10279800582A34C0F6FF35C0F7FF0800F550386EE8
:1027A800396A38C056F139C057F1EBEF13F036C02B
:1027B800F6FF37C0F7FF3A0E5824D96EDA6A000ED2
:1027C800DA220800F5CFDFFF364A372A582A36C002
:1027D800F6FF37C0F7FF0800F5500009D8A4F7EF57
:1027E80013F0F9EF13F0DBEF13F03A0E5824D96E1B
:1027F800DA6A000EDA22220EDF6E582A3A0E5824C0
:10280800D96EDA6A000EDA220D0EDF6E582A3A0EF9
:102818005824D96EDA6A000EDA220A0EDF6E582AB8
:102828003A0E5824D96EDA6A000EDA22000EDF6EEC
:102838003A0E326E000E336EE0EC17F01200000E06
:10284800466E44BE2CEF14F02AEF14F036EF14F065
:10285800441E431E421E416C000E42224322442263
:10286800010E466E40BE3DEF14F03BEF14F047EF0B
:1028780014F0401E3F1E3E1E3D6C000E3E223F22BD
:102888004022010E461A000E476E000E486E000EDA
:10289800496E000E4A6E4150421043104410D8B49D
:1028A80058EF14F05AEF14F090EF14F0010E456E43
:1028B80064EF14F0D8904136423643364436452A00
:1028C80044AE69EF14F06BEF14F05EEF14F0D8909B
:1028D8004736483649364A3641503D5C42503E58A4
:1028E80043503F5844504058D8A07DEF14F07FEF34
:1028F80014F088EF14F041503D5E42503E5A435068
:102908003F5A4450405A4780D8904432433242326A
:102918004132452E6BEF14F04650D8B496EF14F0C0
:1029280098EF14F0A0EF14F04A1E491E481E476C99
:10293800000E482249224A2247C03DF048C03EF0D6
:1029480049C03FF04AC040F01200326E8A9C32C043
:1029580031F0313A0F0E3116314631468A5031186E
:10296800C30B31188A6E8A9E3204D8B4BEEF14F0B5
:10297800C0EF14F0C9EF14F0020E3218D8A4C7EF54
:1029880014F0C9EF14F0D2EF14F00D0E316EFC0EF6
:10299800E82EFED7312EFCD7D6EF14F0420EE82EE3
:1029A800FED700D08A8E3250F00B200AD8A4DFEF71
:1029B80014F0E1EF14F0F4EF14F08A9C32C031F017
:1029C800313A0F0E3116314631468A503118C30B51
:1029D80031188A6E8A9E420EE82EFED700D08A8E63
:1029E8008A9C32C031F00F0E3116314631468A507A
:1029F8003118C30B31188A6E8A9E3204D8B407EF97
:102A080015F009EF15F012EF15F0020E3218D8A4E0
:102A180010EF15F012EF15F01BEF15F00D0E316EDB
:102A2800FC0EE82EFED7312EFCD71FEF15F0420E14
:102A3800E82EFED700D08A8E1200356E67EF15F0AB
:102A480031C0D9FF32C0DAFFDF50020B94EF15F026
:102A580031C0D9FF32C0DAFFDF50010B94EF15F017
:102A680031C0D9FF32C0DAFFDF50080B94EF15F000
:102A780031C0D9FF32C0DAFFDF50040B94EF15F0F4
:102A880031C0D9FF32C0DAFFDF50200B94EF15F0C8
:102A980031C0D9FF32C0DAFFDF50100B94EF15F0C8
:102AA80031C0D9FF32C0DAFFDF50800B94EF15F048
:102AB80031C0D9FF32C0DAFFDF50400B94EF15F078
:102AC800000E94EF15F03550336E346A3450000A16
:102AD800D8B471EF15F064EF15F03350410AD8B44B
:102AE80024EF15F0030AD8B434EF15F0010AD8B46E
:102AF80044EF15F0070AD8B454EF15F0250AD8B4F6
:102B08002CEF15F0030AD8B43CEF15F0010AD8B43D
:102B18004CEF15F0070AD8B45CEF15F064EF15F028
:102B28001200000E3D6E5D043E6E020E3E609FEF89
:102B380015F0A1EF15F0A3EF15F008EF16F01F0E32
:102B48003E24D96EDA6A000EDA22DF503F6E650E37
:102B58003F60B1EF15F0B3EF15F0BBEF15F03FC0D4
:102B680039F03A6A44EC1DF03C6E3C283D26640E70
:102B78003F64C1EF15F0C3EF15F0D6EF15F0DD0E89
:102B88003F60C9EF15F0CBEF15F0D6EF15F09C0EAE
:102B98003F24396E3A6AFF0E3A2244EC1DF03C6E2F
:102BA8003C283D26DC0E3F64DCEF15F0DEEF15F027
:102BB800E8EF15F0FE0E3F60E4EF15F0E6EF15F0D4
:102BC800E8EF15F0020E3D26FE0E3F18D8A4EFEFF1
:102BD80015F0F1EF15F0F9EF15F03FC039F03A6A4A
:102BE80044EC1DF03C6E3C283D26140E3D64FFEF7E
:102BF80015F001EF16F003EF16F008EF16F03EC0DF
:102C08005CF03E0699EF15F01200356E4CEF16F0A9
:102C180031C0D9FF32C0DAFF000EDB8079EF16F041
:102C280031C0D9FF32C0DAFFFE0EDF1679EF16F099
:102C380031C0D9FF32C0DAFF000EDB8279EF16F01F
:102C480031C0D9FF32C0DAFFFD0EDF1679EF16F07A
:102C580031C0D9FF32C0DAFF000EDB8479EF16F0FD
:102C680031C0D9FF32C0DAFFFB0EDF1679EF16F05C
:102C780031C0D9FF32C0DAFF000EDB8679EF16F0DB
:102C880031C0D9FF32C0DAFFF70EDF1679EF16F040
:102C98003550336E346A3450000AD8B456EF16F003
:102CA80079EF16F03350410AD8B40CEF16F0030A46
:102CB800D8B41CEF16F0010AD8B42CEF16F0070AA6
:102CC800D8B43CEF16F0250AD8B414EF16F0030A6E
:102CD800D8B424EF16F0010AD8B434EF16F0070A76
:102CE800D8B444EF16F079EF16F01200000E366EE5
:102CF80034BE83EF16F081EF16F089EF16F0336CCF
:102D0800341ED8B0342A010E366E32BE90EF16F05B
:102D18008EEF16F096EF16F0316C321ED8B0322ACC
:102D2800010E361A000E386E000E376E335034100E
:102D3800D8B4A1EF16F0A3EF16F0CBEF16F0010E02
:102D4800356EABEF16F0D89033363436352A34AEBC
:102D5800B0EF16F0B2EF16F0A7EF16F0D8903736AE
:102D680038363350315C34503258D8A0BEEF16F0A4
:102D7800C0EF16F0C5EF16F03350315E3450325ABA
:102D88003780D89034323332352EB2EF16F03650C1
:102D9800D8B4D1EF16F0D3EF16F0D7EF16F0376CA2
:102DA800381ED8B0382A37C031F038C032F0120097
:102DB800000E366E32BEE5EF16F0E3EF16F0EBEFDD
:102DC80016F0316C321ED8B0322A010E366E34BE7F
:102DD800F2EF16F0F0EF16F0F6EF16F0336C341E43
:102DE800D8B0342A33503410D8B4FDEF16F0FFEFC2
:102DF80016F023EF17F0010E356E07EF17F0D89095
:102E080033363436352A34AE0CEF17F00EEF17F0A0
:102E180003EF17F03350315C34503258D8A017EF15
:102E280017F019EF17F01DEF17F03350315E3450DB
:102E3800325AD89034323332352E0EEF17F03650DE
:102E4800D8B429EF17F02BEF17F02FEF17F0316CEC
:102E5800321ED8B0322A31C031F032C032F01200FE
:102E6800346E3404D8A43BEF17F03DEF17F055EF5C
:102E780017F08A0E326E7F0E336EE0EC17F04D0EAF
:102E8800326E7F0E336EE0EC17F07C0E326E7F0EE2
:102E9800336EE0EC17F06D0E326E7F0E336EE0ECA1
:102EA80017F0020E3418D8A45CEF17F05EEF17F095
:102EB80076EF17F0A60E326E7F0E336EE0EC17F049
:102EC800030E326EE80E316E62EC1EF05E0E326E4C
:102ED8007D0E336EE0EC17F0030E326EE80E316EA5
:102EE80062EC1EF0030E3418D8A47DEF17F07FEFC4
:102EF80017F08BEF17F0B40E326E7F0E336EE0ECE6
:102F080017F00D0E326E7D0E336EE0EC17F01200E6
:102F1800000E336E000E346E030E346496EF17F015
:102F280098EF17F09AEF17F0DEEF17F034C031F092
:102F3800010E326E312AA3EF17F0D8903236312EB7
:102F4800A1EF17F03250836E000E356E35C031F0A8
:102F5800100E326E312AB3EF17F0D8903236312E78
:102F6800B1EF17F0325083140009D8B4BEEF17F050
:102F7800C0EF17F0D2EF17F03450040D460E316E43
:102F8800010E326EF3503126F4503222355031247E
:102F9800D96E000E3220DA6EDF50336E352A030EFA
:102FA8003564D9EF17F0DBEF17F0AAEF17F0342AE2
:102FB80090EF17F0335012001AEF18F020EEDBF004
:102FC80002D8F1EF17F00500FA6EDE50FD6EDE5004
:102FD800FE6EF850FF6EFA5012000009D8A4F7EF01
:102FE80017F0F9EF17F0E2EF17F020EED9F002D85A
:102FF80018EF18F00500FA6EDE50FD6EDE50FE6E1A
:10300800F850FF6EFA5032C0F6FF33C0F7FFF86A87
:10301800070EF76403D00800F55005D0F6CFE1FF9E
:10302800F7CFE2FFE7501200324A332A32C0F6FFE8
:1030380033C0F7FFF86A070EF76403D00800F550AD
:1030480005D0F6CFE1FFF7CFE2FFE7500009D8A49B
:1030580030EF18F032EF18F0E2EF17F01200000E20
:10306800396E000E3A6E000E3B6E000E3C6E355007
:10307800361037103810D8B444EF18F046EF18F06F
:103088007CEF18F0010E3D6E50EF18F0D8903536F1
:103098003636373638363D2A38AE55EF18F057EF02
:1030A80018F04AEF18F0D89039363A363B363C36A5
:1030B8003550315C365032583750335838503458C0
:1030C800D8A069EF18F06BEF18F074EF18F03550CE
:1030D800315E3650325A3750335A3850345A398064
:1030E800D89038323732363235323D2E57EF18F015
:1030F80039C031F03AC032F03BC033F03CC034F054
:103108001200336EB7EF18F01EB08DEF18F090EF85
:1031180018F0010E91EF18F0000ED4EF18F01EB25F
:1031280098EF18F09BEF18F0010E9CEF18F0000EC6
:10313800D4EF18F01EB4A3EF18F0A6EF18F0010EA4
:10314800A7EF18F0000ED4EF18F01EB6AEEF18F087
:10315800B1EF18F0010EB2EF18F0000ED4EF18F02E
:10316800000ED4EF18F03350316E326A3250000A34
:10317800D8B4C1EF18F0B4EF18F03150410AD8B400
:1031880088EF18F0030AD8B493EF18F0010AD8B4FE
:103198009EEF18F0070AD8B4A9EF18F0B4EF18F0AA
:1031A8001200336E04EF19F01EA0DDEF18F0E0EF07
:1031B80018F01E80E1EF18F01E9021EF19F01EA202
:1031C800E8EF18F0EBEF18F01E82ECEF18F01E9203
:1031D80021EF19F01EA4F3EF18F0F6EF18F01E8493
:1031E800F7EF18F01E9421EF19F01EA6FEEF18F065
:1031F80001EF19F01E8602EF19F01E9621EF19F063
:103208003350316E326A3250000AD8B40EEF19F0DA
:1032180021EF19F03150410AD8B4D8EF18F0030A59
:10322800D8B4E3EF18F0010AD8B4EEEF18F0070AA3
:10323800D8B4F9EF18F021EF19F012005D50D8B4A6
:1032480028EF19F02AEF19F06BEF19F0020E5D6400
:1032580030EF19F032EF19F033EF19F05D061F0E59
:103268005D24D96EDA6A000EDA22DC0EDF643FEFE5
:1032780019F041EF19F063EF19F01F0E5D24316E5C
:10328800326A000E3222E7EC12F01F0E5D24D96E6E
:10329800DA6A000EDA22DF50DF0BD5EC18F01F0EC9
:1032A8005D24D96EDA6A000EDA22DF50406E416A78
:1032B80040C031F041C032F0610E3DEC12F01F0EFB
:1032C8005D24D96EDA6A000EDA22000EDF6E95EC04
:1032D80015F01200B00EF66E370EF76E000EF86E8F
:1032E80001EE00F010EE56F00900F5CFEEFFE550C4
:1032F800E150FAE1FE0EF66E3A0EF76E000EF86E29
:1033080000EEBDF010EE38F00900F5CFEEFFE55005
:10331800E150FAE1860EF66E3F0EF76E000EF86E7B
:103328000900F5CF5BF00900F5CF5CF00900F5CF97
:103338005DF001EE56F0140EEE6AE806FDE10001BC
:10334800F66BF56B00EE01F0300EEE6AE806FDE173
:103358005E905E92000EF86E000109EF00F0000E1C
:10336800346E000E356E000E366E000E376E410E4E
:1033780085EC18F0346E420E85EC18F0356E430E6D
:1033880085EC18F0366E440E85EC18F0376E340E66
:10339800386E000E396E000E3A6E080E3B6EE8EF7E
:1033A80019F038C0D9FF39C0DAFFDF50D8B4DFEFE1
:1033B80019F0E1EF19F0E4EF19F03A503B103A6ECA
:1033C800384A392AD8903B323B50D8A4EEEF19F04E
:1033D800F0EF19F0D5EF19F03A501200000E366EE2
:1033E800000E356E33503410D8B4FDEF19F0FFEFEE
:1033F80019F027EF1AF0010E376E07EF1AF0D89080
:1034080033363436372A34AE0CEF1AF00EEF1AF092
:1034180003EF1AF0D890353636363350315C3450D5
:103428003258D8A01AEF1AF01CEF1AF021EF1AF050
:103438003350315E3450325A3580D890343233327A
:10344800372E0EEF1AF035C031F036C032F01200C8
:10345800949C948EF29E000E316E2D0E326E310EBB
:10346800336E010E346E3EC042F03FC043F040C0A0
:1034780044F041C045F0020ED890423643364436F7
:103488004536E82E40EF1AF042C035F043C036F01A
:1034980044C037F045C038F033EC18F0FF0E312443
:1034A800AF6EFF0E3220B06EAC98B886AC84AB8E8F
:1034B800AC8AAB889D8A9D98F28CF28E1200000E21
:1034C800396E000E3A6E000E3B6E000E3C6E31A057
:1034D80070EF1AF072EF1AF07AEF1AF035503926B9
:1034E80036503A2237503B2238503C22D890353655
:1034F800363637363836D890343233323232313283
:103508003150321033103410D8A48DEF1AF08FEFE9
:103518001AF06BEF1AF039C031F03AC032F03BC004
:1035280033F03CC034F01200366E000E376EA9EF4F
:103538001AF0400E376EC2EF1AF0140E376EC2EF53
:103548001AF0540E376EC2EF1AF03650346E356AE0
:103558003550000AD8B4B3EF1AF0C2EF1AF034505D
:10356800010AD8B49DEF1AF0030AD8B4A1EF1AF0F3
:10357800010AD8B4A5EF1AF0C2EF1AF03750332475
:103588007F0B800FA9EC14F01200110E5C60CFEFD6
:103598001AF0D1EF1AF0F5EF1AF0FF0E316EFF0EA8
:1035A800326E5D50336E346A3150332632503422D5
:1035B8005C50356E366A3350355C3650800A376E4B
:1035C8003450800A3758D8B0ECEF1AF0EEEF1AF002
:1035D800F1EF1AF05C2AF7EF1AF05D045C6EF7EF72
:1035E8001AF0110E5C6E1200000E3A6E000E336E69
:1035F800000E98EC1AF017EF1BF00A0E3B18D8B41F
:1036080008EF1BF00AEF1BF00FEF1BF03B502BEC01
:103618001CF015EF1BF0000E336E3A2A3A5098EC66
:103628001AF0384A392A38C0F6FF39C0F7FF0800BF
:10363800F5CF3BF03B50D8A424EF1BF026EF1BF04E
:1036480001EF1BF01200316E800E336E000E326EE9
:1036580049EF1BF08094315033140009D8B437EF88
:103668001BF039EF1BF03CEF1BF080803DEF1BF0A7
:10367800809080A242EF1BF044EF1BF046EF1BF056
:10368800335032128084D89033323350D8A44FEF5D
:103698001BF051EF1BF02EEF1BF0809432501200FC
:1036A8001C04366EB4EC1FF0000E376E74EF1BF07E
:1036B80037501524D96E000E1620DA6E36501324B2
:1036C800346E000E1420356E3750345CE16E355080
:1036D800D8A03504E26EE75027EC1BF0DF6E372ADE
:1036E8001C50375CD8A07BEF1BF07DEF1BF05CEF24
:1036F8001BF0B4EC1FF01200406E120E5D6087EFF5
:103708001BF089EF1BF0A9EF1BF04050D8B48FEFE6
:103718001BF091EF1BF0A9EF1BF0400E316E000E6D
:10372800326E740E3DEC12F01F0E5D24D96EDA6A0B
:10373800000EDA2240C0DFFF5D2A1F0E5D24D96E1D
:10374800DA6A000EDA22000EDF6E95EC15F0120030
:10375800406E120E5D60B3EF1BF0B5EF1BF0D5EFB6
:103768001BF04050D8B4BBEF1BF0BDEF1BF0D5EFFA
:103778001BF0400E316E000E326E610E3DEC12F001
:103788001F0E5D24D96EDA6A000EDA2240C0DFFF10
:103798005D2A1F0E5D24D96EDA6A000EDA22000E49
:1037A800DF6E95EC15F0120041542B43574A4150F7
:1037B8003D220000000000000000000000000000A2
:1037C80000000000000041542B43495053454E442B
:1037D8003D2200000000000000004D756E646F205F
:1037E800616F2073657520636F6D616E646F313230
:1037F800334134353642373839432A302344356E1D
:10380800080E366E410E346E3528D8A40EEF1CF023
:1038180010EF1CF022EF1CF02AEF1CF03550361484
:103828000009D8B41AEF1CF01CEF1CF01FEF1CF0B5
:103838003450D5EC18F0342AD89036323650D8A403
:1038480028EF1CF02AEF1CF012EF1CF01200326E69
:103858008A8C32C031F0313A0F0E3116314631467A
:103868008A503118C30B31188A6E8A9E420EE82E90
:10387800FED700D08A8E8A8C32C031F00F0E3116F6
:10388800314631468A503118C30B31188A6E8A9EE8
:10389800420EE82EFED700D08A8E1200406E120E1D
:1038A8005D6059EF1CF05BEF1CF073EF1CF0400EED
:1038B800316E000E326E700E3DEC12F01F0E5D245C
:1038C800D96EDA6A000EDA2240C0DFFF5D2A1F0EC9
:1038D8005D24D96EDA6A000EDA22000EDF6E95ECEE
:1038E80015F012003C6E38C03BF038C033F03C5045
:1038F80098EC1AF08BEF1CF039C0F6FF3AC0F7FFCE
:103908000800F5502BEC1CF0394A3A2A3B2A39C0FA
:10391800F6FF3AC0F7FF0800F5500009D8A497EF62
:103928001CF099EF1CF080EF1CF012003B6ED00EDB
:10393800396EFF0E3A6E37C0D9FF38C0DAFFDECFD6
:1039480031F0DDCF32F0000E346E0A0E336EA3EC88
:103958001EF03B503126000E3222395031263A50A3
:10396800322237C0D9FF38C0DAFF31C0DEFF32C09B
:10397800DDFF120034C036F035C037F0040E386E63
:10398800D89037323632382EC4EF1CF0365027EC38
:103998001FF07FEC1FF0000E326E010E316E62ECEC
:1039A8001EF03438F00B27EC1FF07FEC1FF0000EF0
:1039B800326E010E316E62EC1EF012003B6E3BC09F
:1039C80031F0326AB6EC1EF031C039F032C03AF04C
:1039D800000E3C6E3C503724D96E000E3820DA6E4B
:1039E800DF50316E3C5039244BEC1EF03C2A0F0E50
:1039F8003C6401EF1DF003EF1DF0EEEF1CF0120028
:103A08003B6E3BC031F0326AB6EC1EF031C039F083
:103A180032C03AF0000E3C6E3C503724D96E000E8E
:103A28003820DA6E3C50392487EC1FF0DF6E3C2AD0
:103A38000F0E3C6422EF1DF024EF1DF010EF1DF077
:103A4800120050EC1FF0000E326E010E316E62EC67
:103A58001EF0C00E27EC1FF07FEC1FF0000E326E38
:103A6800010E316E62EC1EF0600E27EC1FF07FEC49
:103A78001FF0000E326E010E316E62EC1EF0120065
:103A8800000E3B6E57EF1DF039C031F03AC032F0EE
:103A9800000E346E0A0E336E7AEC16F031C039F02F
:103AA80032C03AF03B2A39503A10D8A45EEF1DF0E4
:103AB80060EF1DF048EF1DF03B5012009380938299
:103AC800C650F00B0809C66E400E316E4B0E326EB2
:103AD8004C0E336E000E346E3EC035F03FC036F0EB
:103AE80040C037F041C038F033EC18F03104C86EEC
:103AF800C78EC68A1200DA3BC02F0000682E0E2738
:103B080000000000000000000000000000000000AD
:103B18000000603F8C3E58340000A43BF035EC3880
:103B28000023583FC439083A363B00000C3E376E34
:103B380037C031F0326AB6EC1EF031C035F032C011
:103B480036F0000E386E000E316E385035244BECCE
:103B58001EF0382A0F0E3864B4EF1DF0B6EF1DF0D2
:103B6800A7EF1DF01200000E366E8CEC17F0376EC2
:103B78003750D8B4C2EF1DF0C4EF1DF0CEEF1DF0E2
:103B88001B50D8A4CAEF1DF0CCEF1DF0CEEF1DF0EE
:103B980037C036F037C01BF036501200C168939416
:103BA80093969398939A939C939E8A8E000E326E66
:103BB800050E316E62EC1EF0280EA9EC14F00C0E06
:103BC800A9EC14F0010EA9EC14F0020EA9EC14F003
:103BD800120046C03EF047C03FF048C040F049C020
:103BE80041F020EEDDF002D804EF1EF00500FA6E79
:103BF800DE50FD6EDE50FE6EF850FF6EFA50120079
:103C08001200FD0ECF6E8F0ECE6E0B500C100D10E5
:103C18000E10D8B412EF1EF014EF1EF01BEF1EF0BA
:103C28000B06000E0C5A0D5A0E5A1CEF1EF0CD90C2
:103C38001200C16831C015F032C016F033C013F05D
:103C480034C014F035C01CF08096929680949294FB
:103C580080909290809292828094809080861200C8
:103C680038C0D9FF39C0DAFFDECF31F0DDCF32F00E
:103C7800000E346E0A0E336EF2EC19F038C0D9FF1C
:103C880039C0DAFF31C0DEFF32C0DDFF1200326E0C
:103C9800F29E32C0A9FF31C0A8FFA69EA684550E89
:103CA800A76EAA0EA76EA682A6B25DEF1EF05FEF02
:103CB8001EF058EF1EF0A694F28E12006FEF1EF061
:103CC800070E336E7D0EE82EFED7332EFCD700F09C
:103CD8003106D8A0320631503210D8A476EF1EF043
:103CE80078EF1EF064EF1EF012000600F29E9EA010
:103CF80080EF1EF082EF1EF08CEF1EF09DA087EF84
:103D08001EF089EF1EF08CEF1EF09E9005EC1EF061
:103D1800F28E5E9211003C6E3CC031F0326AB6EC15
:103D28001EF031C03AF032C03BF037503A2487ECED
:103D38001FF038C0D9FF39C0DAFFDF6E12003150EA
:103D48003302F3CF35F0F4CF36F031503402F3506C
:103D5800362632503302F350362635C031F036C09D
:103D680032F0120031C033F032C034F0333A343A12
:103D7800F00E341633500F0B3412F00E331633C0D6
:103D880031F034C032F012003B6E3BC031F0326A81
:103D9800B6EC1EF031C039F032C03AF038C031F01C
:103DA800375039244BEC1EF0120025EC1DF04BC0A7
:103DB80034F04CC035F0BEEC1CF05AEC1FF0000E8D
:103DC800326E010E316E62EC1EF0120020C033F02C
:103DD800346A3350346E336A1F503326000E34224F
:103DE80033C031F034C032F01200CD92300ECD1213
:103DF800CD84FD0ECF6E8F0ECE6ECD9C9D80F28C45
:103E0800F28E1200000E336E000E316E33504BEC02
:103E18001EF0332A08EF1FF01200110E5D6417EF31
:103E28001FF01AEF1FF0010E1BEF1FF0000E12001B
:103E38005D505B5CD8B023EF1FF025EF1FF026EF35
:103E48001FF05B2A1200316E31C0C9FFC7B02FEFD7
:103E58001FF031EF1FF02AEF1FF0120037C00BF0F0
:103E680038C00CF039C00DF03AC00EF0CD80120009
:103E7800020E5C6442EF1FF044EF1FF045EF1FF0A5
:103E88005C061200ACA24BEF1FF04EEF1FF0010EC4
:103E98004FEF1FF0000E1200C5809EA656EF1FF0D0
:103EA80058EF1FF051EF1FF09E961200C5849EA692
:103EB80060EF1FF062EF1FF05BEF1FF09E9612009D
:103EC8000BC031F00CC032F00DC033F00EC034F02E
:103ED8001200326EBDEC1FF0322476EC1FF0336E08
:103EE80033501200316E1F0E3124D96EDA6A000E7B
:103EF800DA22DF501200C5BC84EF1FF086EF1FF0F6
:103F08007FEF1FF01200316E31C0A9FFA69EA68078
:103F1800A8501200000E836EF00E956E1200000E6F
:103F2800186E000E176E12001E901E921E941E969A
:103F3800120017C031F018C032F012001F0E316E97
:103F4800000E326E120031C01FF03250206E120087
:103F5800010EA9EC14F01200316E31C0ADFF120051
:103F6800809680861200020E5B6E1200174A182A8D
:103F780012005B501200120E12005D501200020275
:013F88000236
:107BDC0000313A20494E5345524952205345515594
:107BEC00454E4349410A323A2042555343415220B3
:107BFC0053455155454E4349410A333A205245505D
:107C0C004554495220554C542E20534551550A3455
:107C1C003A20434F4E464947555241434F45532016
:107C2C0020202000204553434F4C48412041204DFB
:107C3C00454D4F524941200A515545204445534525
:107C4C004A412045584543555441520A2030202082
:107C5C002031202020322020203320202034200AE4
:107C6C0020352020203620202037202020382020AE
:107C7C002039200A00204553434F4C4841204120D5
:107C8C004D454D4F5249410A2051554520444553CD
:107C9C00454A412053414C5641520A203020202065
:107CAC00312020203220202033202020340A20357F
:107CBC00202020362020203720202038202020395A
:107CCC0020200020202020444553454A4120534188
:107CDC004C5641522020200A202020202053455170
:107CEC0055454E434941203F20200A0A23202D2090
:107CFC0053494D2020202020202A202D204E414F5A
:107D0C000041542B43575341503D22576972656CC7
:107D1C00657373222C222A2A2A2A2A2A2A2A222CFE
:107D2C00312C322C342C300D0A0041542B43495049
:107D3C0053544152543D22544350222C2231393257
:107D4C002E3136382E342E31222C22333333220D61
:107D5C000A0041542B43575341503D225443432274
:107D6C002C223837363534333231222C312C322C0C
:107D7C00342C300D0A0041542B4349505345525674
:107D8C0045523D312C3333330D0A004369636C6F1C
:107D9C00733A20202020202020202020202020008A
:107DAC003C20202F20203E20633A20202020202021
:107DBC002020202000202020202020202053414C57
:107DCC005641202020202020200020202020202070
:107DDC00534547475549542020202020202000207F
:107DEC002020202020205B202020205D202020200F
:107DFC00202020002020202020202044454C4554C9
:107E0C00454420202020202000202020202020203D
:107E1C00204D454D4F52592020202020200020205D
:107E2C00202020204D454D4F524941203F202020FD
:107E3C0020200020202020202053455155454E4322
:107E4C0049412020202020002020202020444F20A9
:107E5C0053495354454D4120202020200020202000
:107E6C00412020204220202043202020442020207C
:107E7C00200020202044454C4554415220544F446E
:107E8C0041204120202000323A204C494D50415293
:107E9C00204D454D4F5249412020200020202041AB
:107EAC004A55535445204F20494E4943494F2020B1
:107EBC00002020494E53495241204F5320504153EA
:107ECC00534F5320200030202D204369636C6F20CA
:107EDC00636F6E74696E756F202000204345525499
:107EEC00455A412051554520444553454A412000AF
:107EFC00636F6E66696720636F6E74726C3A2020D4
:107F0C002020202500313A2056455249464943410C
:107F1C0052204D454D4F52494100636F6E66696763
:107F2C002074656D706F3A20202020202073004152
:107F3C00542B43574155544F434F4E4E3D300D0A31
:107F4C000041542B4349505345525645523D300D38
:107F5C000A0041542B4349504D4F44453D300D0AC6
:107F6C000041542B4349504D4F44453D310D0A00BF
:107F7C0041542B4349504D55583D300D0A00415446
:107F8C002B43574D4F44453D310D0A0041542B4373
:107F9C0049504D55583D310D0A0041542B43574D16
:107FAC004F44453D320D0A0041542B43574D4F442D
:107FBC00453D330D0A0041542B434950434C4F531C
:107FCC00450D0A0041542B43574C41500D0A0041BA
:107FDC00542B43494653520D0A0032383039303253
:107FEC003130003C20202F20203E004C454D455385
:047FFC0000FF000082
:020000040020DA
:08000000FFFFFFFFFFFFFFFF00
:020000040030CA
:0E000000040C181EFF0180FF0FC00FE00F4020
:00000001FF
