:020000040000FA
:0400000007EF00F016
:100008005982EDED1AF06CEF17F05EEC1AF016EC71
:100018001CF081EC1BF0000E336E2D0E346E310E89
:10002800356E010E366E0AEC1AF0000E416E000EA7
:10003800406E61EC1BF0000E0001B66F000EAB6F56
:10004800000E846F000EAC6F000EAD6FAC0E266E06
:10005800000E276EAD0E286E000E296E010E2A6E58
:1000680091EC1AF00001AE69000EB76F020E856FB1
:10007800000EB36F000EB26F000EB06F000EAF6FC0
:10008800000EB16FB1EF0BF0000E9F6F030E9F656E
:1000980050EF00F052EF00F054EF00F083EF00F063
:1000A800000EA06F130EA0655CEF00F05EEF00F08D
:1000B80060EF00F080EF00F020EEDBF002D876EF82
:1000C80000F00500FA6EDE50FD6EDE50FE6EF85050
:1000D800FF6EFA50A0C02DF0FD0E2E6E7F0E2F6E13
:1000E8009F511200000E276E0A0E266ED6EC1AF0EB
:1000F8000001A02B56EF00F09F2B4AEF00F0000EF6
:10010800A16F030EA1658BEF00F08DEF00F08FEF6C
:1001180000F0BEEF00F0000EA26F130EA26597EF7D
:1001280000F099EF00F09BEF00F0BBEF00F020EE3D
:10013800DBF002D8B1EF00F00500FA6EDE50FD6E7C
:10014800DE50FE6EF850FF6EFA50A2C02DF0640E1D
:100158002E6E7E0E2F6EA1511200000E276E0A0E13
:10016800266ED6EC1AF00001A22B91EF00F0A12B1D
:1001780085EF00F0010EB66F53EF0CF020EEDBF0C8
:1001880002D8D8EF00F00500FA6EDE50FD6EDE50A2
:10019800FE6EF850FF6EFA50000E2D6E900E2E6E09
:1001A8007E0E2F6E010E120020EEB9F010EE60F0F8
:1001B800130EDBCFE3FFE806FCE2000E00019C6FA4
:1001C800600E9D6F000E9E6F01EF01F09CC028F03D
:1001D800020E3BEC17F09DC0D9FF9EC0DAFFDF503E
:1001E800D3EC18F000019C2B000E276E320E266E01
:1001F800D6EC1AF000019D4B9E2B9DC0D9FF9EC0E6
:10020800DAFFDF50D8A40BEF01F00DEF01F0EAEFB1
:1002180000F0DC0E2C6E050E2D6E000E2E6E000EFC
:100228002F6EBAEC1BF0020E0001B66F53EF0CF004
:10023800ECEC1BF02650271028102910D8A427EF23
:1002480001F029EF01F053EF0CF0080E0001B66F32
:1002580053EF0CF020EC1CF0210E2D6E7D0E2E6E4F
:1002680020EED9F002D843EF01F00500FA6EDE5017
:10027800FD6EDE50FE6EF850FF6EFA501200E80E6A
:100288002C6E030E2D6E000E2E6E000E2F6EBAEC25
:100298001BF0090E0001B66F53EF0CF0ECEC1BF0ED
:1002A8002650271028102910D8A45DEF01F05FEF21
:1002B80001F053EF0CF0470E0001B66F53EF0CF04E
:1002C80043EC1AF00001B86F78EF01F0030E00015B
:1002D800B66F53EF0CF0480EB66F53EF0CF0500E9C
:1002E8000001B66F53EF0CF0B851446E456A4550A3
:1002F800000AD8B482EF01F053EF0CF04450310AF1
:10030800D8B46AEF01F0030AD8B46FEF01F0010A1C
:10031800D8B453EF0CF0070AD8B473EF01F053EFD9
:100328000CF034EC1CF0000E2D6ECB0E2E6E7F0EF2
:100338002F6E000E1EEC19F0000E2D6E4D0E2E6E57
:100348007F0E2F6E010E1EEC19F0E80E2C6E030EB8
:100358002D6E000E2E6E000E2F6EBAEC1BF0510E95
:100368000001B66F53EF0CF0ECEC1BF02650271091
:1003780028102910D8A4C3EF01F0C5EF01F053EFFE
:100388000CF0520E0001B66F53EF0CF043EC1AF06C
:100398000001B86FD8EF01F0530EB66F53EF0CF0B1
:1003A800540EB66F53EF0CF0B851446E456A455081
:1003B800000AD8B4E2EF01F053EF0CF044502A0AD7
:1003C800D8B429EF01F01B0AD8B4D0EF01F0030A22
:1003D800D8B4D4EF01F053EF0CF0000E2D6EA10E3F
:1003E8002E6E7F0E2F6E000E1EEC19F0000E2D6E75
:1003F800380E2E6E7F0E2F6E010E1EEC19F0000EB9
:100408002D6EE40E2E6E7E0E2F6E020E1EEC19F06F
:10041800000E2D6E3C0E2E6E7E0E2F6E030E1EEC01
:1004280019F043EC1AF00001B86F23EF02F0550EF3
:10043800B66F53EF0CF034EC1CF073EF01F0B851C9
:10044800446E456A4550000AD8B42DEF02F053EFC8
:100458000CF04450230AD8B41BEF02F0090AD8B4B0
:100468001FEF02F053EF0CF020EED5F002D847EF63
:1004780002F00500FA6EDE50FD6EDE50FE6EF8509A
:10048800FF6EFA50120034EC1CF0000E0001A36F4E
:10049800030EA36552EF02F054EF02F056EF02F09C
:1004A80078EF02F0000EA46F130EA4655EEF02F061
:1004B80060EF02F062EF02F075EF02F0A4C02DF0D9
:1004C800FD0E2E6E7F0E2F6EA3511EEC19F0000E3E
:1004D800276E0A0E266ED6EC1AF00001A42B58EFF0
:1004E80002F0A32B4CEF02F0000EA56F030EA565DA
:1004F80080EF02F082EF02F084EF02F0A6EF02F044
:10050800000EA66F130EA6658CEF02F08EEF02F0B8
:1005180090EF02F0A3EF02F0A6C02DF0640E2E6E4D
:100528007E0E2F6EA5511EEC19F0000E276E0A0ED6
:10053800266ED6EC1AF00001A62B86EF02F0A52B4A
:100548007AEF02F0000E2D6EBA0E2E6E7E0E2F6E12
:10055800010E1EEC19F0000E2D6ECF0E2E6E7E0EC3
:100568002F6E020E1EEC19F0E80E2C6E030E2D6E87
:10057800000E2E6E000E2F6EBAEC1BF0560E000108
:10058800B66F53EF0CF0ECEC1BF026502710281038
:100598002910D8A4D2EF02F0D4EF02F053EF0CF0F8
:1005A80073EF01F020EEDFF002D8E5EF02F005006E
:1005B800FA6EDE50FD6EDE50FE6EF850FF6EFA5099
:1005C8001200740E2D6E7D0E2E6E20EED9F002D81C
:1005D800F8EF02F00500FA6EDE50FD6EDE50FE6E9A
:1005E800F850FF6EFA501200490E0001B66F43EC46
:1005F8001AF00001B86F41EF04F0B8C026F0276A7E
:10060800000E296E300E286EA6EC14F026502C6EC3
:10061800AB0E2D6E000E2E6E0A0E17EC1BF00001AD
:10062800AB51ABEC18F020EECFF002D834EF03F06A
:100638000500FA6EDE50FD6EDE50FE6EF850FF6E5D
:10064800FA50740E2C6E000E2D6EB8C026F0276A74
:10065800000E296E300E286EA6EC14F026501200FB
:10066800740E0001866F000E876F86C0D9FF87C0A1
:10067800DAFFDE28D8A443EF03F045EF03F061EF7B
:1006880003F020EED1F002D85EEF03F00500FA6E19
:10069800DE50FD6EDE50FE6EF850FF6EFA50B8C0A8
:1006A80026F0276A000E296E300E286EA6EC14F08C
:1006B80026501200000E0001746F740EB46F000E05
:1006C800B56F2EEF04F0B4C0D9FFB5C0DAFF640EE1
:1006D800DF6471EF03F073EF03F080EF03F0B4C051
:1006E800D9FFB5C0DAFFFE0EDE18D8A47EEF03F0FE
:1006F80080EF03F08FEF03F0B4C026F0B5C027F009
:100708004DEC11F0B4C0D9FFB5C0DAFFDF50FAECF8
:1007180018F029EF04F0B4C0D9FFB5C0DAFF640EB1
:10072800DF6499EF03F09BEF03F0B6EF03F0B4C07A
:10073800D9FFB5C0DAFFDD0EDF60A5EF03F0A7EF44
:1007480003F0B6EF03F0B4C026F0B5C027F04DECC7
:1007580011F0B4C0D9FFB5C0DAFFDF5053EC18F080
:1007680029EF04F0B4C026F0B5C027F04DEC11F025
:10077800C6EF03F0B4C0D9FFB5C0DAFFDF0EDF164D
:10078800F7EF03F0B4C0D9FFB5C0DAFFDF50446E0D
:10079800456A4550000AD8B4D4EF03F0F7EF03F0E8
:1007A8004450410AD8B4BEEF03F0030AD8B4BEEFF0
:1007B80003F0010AD8B4BEEF03F0070AD8B4BEEFBD
:1007C80003F0250AD8B4BEEF03F0030AD8B4BEEF8D
:1007D80003F0010AD8B4BEEF03F0070AD8B4BEEF9D
:1007E80003F0F7EF03F0B4C0D9FFB5C0DAFFDF506C
:1007F800F4EC15F0B4C0D9FFB5C0DAFFDF50A4ECB3
:1008080015F00009D8A40BEF04F00DEF04F01CEF6D
:1008180004F0B4C0D9FFB5C0DAFFDF50446E456AB2
:10082800200E44100001886F4550896F26EF04F0B0
:10083800B4C0D9FFB5C0DAFFDF50446E44500001A0
:10084800886F896B88517FEC18F0AFEC0DF00001D0
:10085800B44BB52BB4C0D9FFB5C0DAFFDF50D8A46C
:1008680038EF04F03AEF04F067EF03F034EC1CF0D3
:10087800100E0001B66F53EF0CF0B851446E456A84
:100888004550000AD8B44BEF04F053EF0CF0445035
:100898002A0AD8B429EF01F01A0AD8B401EF03F0F4
:1008A800010AD8B401EF03F0030AD8B401EF03F04A
:1008B800010AD8B401EF03F0070AD8B401EF03F036
:1008C800010AD8B401EF03F0030AD8B401EF03F02A
:1008D800010AD8B401EF03F00F0AD8B401EF03F00E
:1008E800010AD8B401EF03F053EF0CF020EEDFF06B
:1008F80002D889EF04F00500FA6EDE50FD6EDE5076
:10090800FE6EF850FF6EFA50120020EEDBF002D8AF
:100918009FEF04F00500FA6EDE50FD6EDE50FE6EAD
:10092800F850FF6EFA50000E2D6E620E2E6E7F0E7E
:100938002F6E000E120020EEDBF002D8B5EF04F0A7
:100948000500FA6EDE50FD6EDE50FE6EF850FF6E4A
:10095800FA50000E2D6E0E0E2E6E7F0E2F6E010EAB
:100968001200060E0001B66F53EF0CF020EEDBF01C
:1009780002D8D0EF04F00500FA6EDE50FD6EDE50AE
:10098800FE6EF850FF6EFA50000E2D6E230E2E6E7E
:100998007F0E2F6E030E1200040E286E030E3BEC22
:1009A80017F0410EA4EC15F00009D8A4DEEF04F00E
:1009B800E0EF04F0E7EF04F0000E00018B6F2D0E5E
:1009C8008A6FECEF04F0000E00018B6F2B0E8A6F1C
:1009D8008A51D3EC18F0080E286E030E3BEC17F082
:1009E800420EA4EC15F00009D8A4FDEF04F0FFEFC7
:1009F80004F006EF05F0000E00018D6F2D0E8C6FD0
:100A08000BEF05F0000E00018D6F2B0E8C6F8C51D3
:100A1800D3EC18F00C0E286E030E3BEC17F0430EC7
:100A2800A4EC15F00009D8A41CEF05F01EEF05F0A2
:100A380025EF05F0000E00018F6F2D0E8E6F2AEF47
:100A480005F0000E00018F6F2B0E8E6F8E51D3ECC8
:100A580018F0100E286E030E3BEC17F0440EA4ECB1
:100A680015F00009D8A43BEF05F03DEF05F044EF81
:100A780005F0000E0001916F2D0E906F49EF05F003
:100A8800000E0001916F2B0E906F9051D3EC18F06F
:100A9800070E0001B66F53EF0CF043EC1AF000019B
:100AA800B86FEBEF05F0B851F4EC15F0040E286EB2
:100AB800030E3BEC17F0410EA4EC15F00009D8A486
:100AC80068EF05F06AEF05F071EF05F0000E000120
:100AD800936F2D0E926F76EF05F0000E0001936F65
:100AE8002B0E926F9251D3EC18F053EF0CF0B851D3
:100AF800F4EC15F0080E286E030E3BEC17F0420ECE
:100B0800A4EC15F00009D8A48CEF05F08EEF05F0E1
:100B180095EF05F0000E0001956F2D0E946F9AEF7A
:100B280005F0000E0001956F2B0E946F9451D3ECD5
:100B380018F053EF0CF0B851F4EC15F00C0E286EC9
:100B4800030E3BEC17F0430EA4EC15F00009D8A4F3
:100B5800B0EF05F0B2EF05F0B9EF05F0000E0001B7
:100B6800976F2D0E966FBEEF05F0000E0001976F80
:100B78002B0E966F9651D3EC18F053EF0CF0B8513A
:100B8800F4EC15F0100E286E030E3BEC17F0440E33
:100B9800A4EC15F00009D8A4D4EF05F0D6EF05F0C1
:100BA800DDEF05F0000E0001996F2D0E986FE2EF52
:100BB80005F0000E0001996F2B0E986F9851D3EC39
:100BC80018F053EF0CF00A0EB66F53EF0CF0B85153
:100BD800446E456A4550000AD8B4F5EF05F053EF66
:100BE8000CF04450230AD8B4E7EF05F0090AD8B44A
:100BF80029EF01F06B0AD8B457EF05F0030AD8B40F
:100C08007BEF05F0010AD8B49FEF05F0070AD8B4C6
:100C1800C3EF05F053EF0CF08DEC16F00001AB6F4D
:100C280020EEDFF002D823EF06F00500FA6EDE5062
:100C3800FD6EDE50FE6EF850FF6EFA50120020EE88
:100C4800DBF002D839EF06F00500FA6EDE50FD6ED3
:100C5800DE50FE6EF850FF6EFA50000E2D6E770EC5
:100C68002E6E7F0E2F6E000E12000E0E0001B66F54
:100C780053EF0CF043EC1AF00001B86F97EF06F051
:100C880099EC1BF00009D8B44CEF06F04EEF06F0D3
:100C980053EF0CF00001B851F4EC15F00001B85115
:100CA800A4EC15F00009D8A45CEF06F05EEF06F09E
:100CB80069EF06F0200EB8C044F0456A4410000100
:100CC8009A6F45509B6F6DEF06F0B8C09AF000011F
:100CD8009B6B9A517FEC18F03CEF04F09CEC17F0FA
:100CE8003CEF04F0C4EC1BF03CEF04F045EC1CF0C6
:100CF800020AD8A482EF06F084EF06F086EF06F029
:100D08006AEF01F041EC16F03CEF04F04A0E0001E6
:100D1800B66F53EF0CF0290EB66F53EF0CF05A0E66
:100D2800B66F53EF0CF0B851446E456A4550000A4F
:100D3800D8B4A1EF06F053EF0CF04450230AD8B40E
:100D48008AEF06F0090AD8B47AEF06F01A0AD8B47E
:100D58008FEF06F0040AD8B476EF06F0020AD8B48A
:100D680072EF06F00F0AD8B493EF06F0780AD8B4F9
:100D780044EF06F0030AD8B444EF06F0010AD8B4E9
:100D880044EF06F0070AD8B444EF06F053EF0CF02E
:100D9800AFEC0DF039EF06F020EEDBF002D8E6EF0D
:100DA80006F00500FA6EDE50FD6EDE50FE6EF8505D
:100DB800FF6EFA50000E2D6EF50E2E6E7F0E2F6E02
:100DC800030E120020EEDDF002D803EF07F0050055
:100DD800FA6EDE50FD6EDE50FE6EF850FF6EFA5071
:100DE800010E316E45EC1CF0446EFE0E4424326E4A
:100DF800336AFF0E3322020E346E030E120020EE09
:100E0800DDF002D820EF07F00500FA6EDE50FD6E27
:100E1800DE50FE6EF850FF6EFA50040E316E43EC51
:100E28001CF0446EFE0E4424326E336AFF0E3322E9
:100E3800020E346E030E12000B0E0001B66F53EF54
:100E48000CF0460EB66F010EAE6F53EF0CF0030EAA
:100E5800AE19D8A432EF07F034EF07F0CEEF07F061
:100E6800020EB119D8B43BEF07F03DEF07F0CEEF13
:100E780007F020EEDBF002D853EF07F00500FA6E1A
:100E8800DE50FD6EDE50FE6EF850FF6EFA50000E1A
:100E98002D6EA50E2E6E7E0E2F6E000E1200FF0E0A
:100EA8003F6E010E21EC0FF0000E3F6E090E21EC93
:100EB8000FF0010E3F6E0E0E21EC0FF020EEDBF06E
:100EC80002D878EF07F00500FA6EDE50FD6EDE50AE
:100ED800FE6EF850FF6EFA50000E2D6E660E2E6EE6
:100EE8007E0E2F6E020E120020EEDDF002D895EF76
:100EF80007F00500FA6EDE50FD6EDE50FE6EF8500B
:100F0800FF6EFA50040E316E45EC1CF0446EFE0E76
:100F18004424326E336AFF0E3322020E346E020E00
:100F2800120020EEDDF002D8B2EF07F00500FA6EED
:100F3800DE50FD6EDE50FE6EF850FF6EFA50010E68
:100F4800316E41EC1CF0446EFF0E4424326E336A5D
:100F5800FF0E3322020E346E020E120020EEDDF078
:100F680002D8CEEF07F00500FA6EDE50FD6EDE50B7
:100F7800FE6EF850FF6EFA500B0E316E25EC1CF029
:100F8800010E2624326E000E2720336E050E346EB5
:100F9800020E12000001AE51D8A4D5EF07F0D7EF2A
:100FA80007F0E8EF07F0100EB66F20EEDFF002D87A
:100FB800E8EF07F00500FA6EDE50FD6EDE50FE6EBB
:100FC800F850FF6EFA50120043EC1AF00001B86FA7
:100FD80007EF08F0010EB16F53EF0CF0020EB16F7E
:100FE80053EF0CF0000EB16F53EF0CF0020EB11975
:100FF800D8A401EF08F003EF08F053EF0CF0030E4C
:10100800B16F53EF0CF0B851446E456A4550000A71
:10101800D8B411EF08F053EF0CF04450230AD8B4B9
:10102800EEEF07F0130AD8B4F6EF07F0010AD8B4C8
:10103800FAEF07F0040AD8B4F2EF07F053EF0CF018
:1010480043EC1AF00001B86F2F0EB8652EEF08F0C8
:1010580030EF08F051EF08F03A0EB86136EF08F0BB
:1010680038EF08F051EF08F0B20E2C6E000E2D6E1E
:10107800B85142EC19F00001B35109E1790EB25DA3
:10108800D8A049EF08F04BEF08F04FEF08F0000E3A
:10109800B36F780EB26F290EB66F2A0EB819D8A49E
:1010A80058EF08F05AEF08F063EF08F0B20E2D6E13
:1010B800000E2E6EA8EC1AF0290E0001B66F230E52
:1010C800B819D8A46AEF08F06CEF08F053EF0CF0E9
:1010D8002A0EB66F53EF0CF020EEDBF002D886EF45
:1010E80008F00500FA6EDE50FD6EDE50FE6EF85018
:1010F800FF6EFA50000E2D6EE00E2E6E7F0E2F6ED4
:10110800020E120020EEDDF002D89EEF08F0050076
:10111800FA6EDE50FD6EDE50FE6EF850FF6EFA502D
:101128000F0E316EB2C032F0B3C033F0030E346E1E
:10113800020E1200280E0001B66F53EF0CF0B251E8
:1011480053EC18F020EEDFF002D8B5EF08F00500F8
:10115800FA6EDE50FD6EDE50FE6EF850FF6EFA50ED
:1011680012003CEF04F043EC1AF00001B86F2F0EA8
:10117800B865C1EF08F0C3EF08F0F5EF08F03A0ED4
:10118800B861C9EF08F0CBEF08F0F5EF08F0AF0E43
:101198002C6E000E2D6EB85142EC19F0110E0001A4
:1011A800AF5D270EB059D8A0DCEF08F0DEEF08F0ED
:1011B800E2EF08F0270EB06F100EAF6F350E00018A
:1011C800B66F53EF0CF03AEF04F0360EB66F53EFEC
:1011D8000CF0AF0E2D6E000E2E6EA8EC1AF0E2EF9A
:1011E80008F0B851446E456A4550000AD8B4FFEF7C
:1011F80008F053EF0CF04450230AD8B4E9EF08F094
:10120800090AD8B4EDEF08F06B0AD8B4E7EF08F094
:10121800030AD8B43AEF04F0010AD8B43AEF04F05C
:10122800070AD8B43AEF04F053EF0CF020EEDFF0E1
:1012380002D829EF09F00500FA6EDE50FD6EDE5087
:10124800FE6EF850FF6EFA50120020EEDBF002D866
:101258003FEF09F00500FA6EDE50FD6EDE50FE6EBF
:10126800F850FF6EFA50000E2D6E510E2E6E7E0E47
:101278002F6E000E120020EEDDF002D857EF09F0B5
:101288000500FA6EDE50FD6EDE50FE6EF850FF6E01
:10129800FA500F0E316EAFC032F0B0C033F0050E09
:1012A800346E000E120020EEDBF002D86DEF09F06C
:1012B8000500FA6EDE50FD6EDE50FE6EF850FF6ED1
:1012C800FA50000E2D6E8C0E2E6E7F0E2F6E020EB3
:1012D8001200340E0001B66F53EF0CF0130E2D6E92
:1012E8007E0E2E6E20EED9F002D885EF09F00500AB
:1012F800FA6EDE50FD6EDE50FE6EF850FF6EFA504C
:10130800120043EC1AF00001B86F93EF09F04B0E8E
:10131800B66F53EF0CF034EC1CF0E2EF08F0B85164
:10132800446E456A4550000AD8B49DEF09F053EF62
:101338000CF04450230AD8B48BEF09F0090AD8B44A
:101348008FEF09F053EF0CF020EEDFF002D8B7EF83
:1013580009F00500FA6EDE50FD6EDE50FE6EF850A4
:10136800FF6EFA501200C50E2D6E7D0E2E6E20EE09
:10137800D9F002D8CAEF09F00500FA6EDE50FD6E0A
:10138800DE50FE6EF850FF6EFA5012004C0E00014F
:10139800B66F43EC1AF00001B86F19EF0AF0B8C045
:1013A80026F0276A000E296E300E286EA6EC14F07F
:1013B80026502C6EABC02DF00A0E50EC1BF002D854
:1013C80003EF0AF005000001FA6ECD51FD6ECE5113
:1013D800FE6EF850FF6EFA502AEC1CF0020E26241E
:1013E8002C6E000E27202D6EB8C026F0276A000E3E
:1013F800296E300E286EA6EC14F0265012004D0E01
:101408000001B66F53EF0CF020EEDFF002D817EFB3
:101418000AF00500FA6EDE50FD6EDE50FE6EF850E2
:10142800FF6EFA5012008AEF06F0B851446E456A12
:101438004550000AD8B423EF0AF053EF0CF044509B
:101448002A0AD8B408EF0AF01A0AD8B4D3EF09F078
:10145800010AD8B4D3EF09F0030AD8B4D3EF09F0DE
:10146800010AD8B4D3EF09F0070AD8B4D3EF09F0CA
:10147800010AD8B4D3EF09F0030AD8B4D3EF09F0BE
:10148800010AD8B4D3EF09F00F0AD8B4D3EF09F0A2
:10149800010AD8B4D3EF09F053EF0CF020EEDFF0D7
:1014A80002D861EF0AF00500FA6EDE50FD6EDE50DC
:1014B800FE6EF850FF6EFA501200000E0001A76F82
:1014C800030EA7656AEF0AF06CEF0AF06EEF0AF0F8
:1014D8009DEF0AF0000EA86F130EA86576EF0AF0CC
:1014E80078EF0AF07AEF0AF09AEF0AF020EEDBF0D4
:1014F80002D890EF0AF00500FA6EDE50FD6EDE505D
:10150800FE6EF850FF6EFA50A8C02DF0FD0E2E6E3C
:101518007F0E2F6EA7511200000E276E0A0E266E40
:10152800D6EC1AF00001A82B70EF0AF0A72B64EF95
:101538000AF0000EA96F030EA965A5EF0AF0A7EF40
:101548000AF0A9EF0AF0D8EF0AF0000EAA6F130EFE
:10155800AA65B1EF0AF0B3EF0AF0B5EF0AF0D5EFDC
:101568000AF020EEDBF002D8CBEF0AF00500FA6EA5
:10157800DE50FD6EDE50FE6EF850FF6EFA50AAC0C7
:101588002DF0640E2E6E7E0E2F6EA9511200000EE5
:10159800276E0A0E266ED6EC1AF00001AA2BABEFC6
:1015A8000AF0A92B9FEF0AF020EEDBF002D8EEEF4D
:1015B8000AF00500FA6EDE50FD6EDE50FE6EF85041
:1015C800FF6EFA50000E2D6EF90E2E6E7E0E2F6EE7
:1015D800010E120020EEDBF002D804EF0BF005003C
:1015E800FA6EDE50FD6EDE50FE6EF850FF6EFA5059
:1015F800000E2D6E7B0E2E6E7E0E2F6E020E1200CA
:10160800E80E2C6E030E2D6E000E2E6E000E2F6E41
:10161800BAEC1BF04E0E0001B66F53EF0CF0ECEC79
:101628001BF02650271028102910D8A41EEF0BF005
:1016380020EF0BF053EF0CF0E2EF08F020EEDBF0B8
:1016480002D838EF0BF00500FA6EDE50FD6EDE5062
:10165800FE6EF850FF6EFA50000E2D6EB60E2E6E0E
:101668007F0E2F6E020E120020EEDDF002D850EF32
:101678000BF00500FA6EDE50FD6EDE50FE6EF8507F
:10168800FF6EFA500F0E316EB2C032F0B3C033F0B5
:10169800030E346E020E12005B0E0001B66F53EF9C
:1016A8000CF043EC1AF00001B86F2F0EB8655FEF2D
:1016B8000BF061EF0BF082EF0BF03A0EB86167EFB9
:1016C8000BF069EF0BF082EF0BF0B20E2C6E000EF0
:1016D8002D6EB85142EC19F00001B35109E1650EC5
:1016E800B25DD8A07AEF0BF07CEF0BF080EF0BF037
:1016F800000EB36F640EB26F5A0EB66F2A0EB81989
:10170800D8A489EF0BF08BEF0BF094EF0BF0B20E2F
:101718002D6E000E2E6EA8EC1AF05A0E0001B66F50
:10172800230EB819D8A49BEF0BF09DEF0BF053EFE5
:101738000CF05C0EB66F53EF0CF0B251FAEC18F0E7
:10174800A6EF08F0AFC026F0B0C027F02FEC1CF0D1
:101758001E0E0001B66FEEEF07F00001B651446EA1
:10176800456A4550000AD8B4BCEF0BF053EF0CF0B3
:101778004450000AD8B448EF00F0010AD8B4C2EFC8
:1017880000F0030AD8B41CEF01F0010AD8B47AEFCC
:1017980004F0050AD8B4BAEF04F0010AD8B451EF3E
:1017A80005F00F0AD8B42EEF01F0010AD8B452EFB1
:1017B80001F0030AD8B410EF06F0010AD8B43EEFDE
:1017C80006F0050AD8B4D0EF06F01E0AD8B4CCEF5C
:1017D80006F00E0AD8B425EF07F0360AD8B424EF7D
:1017E80008F0010AD8B470EF08F0030AD8B4A3EFE0
:1017F80008F01E0AD8B4B7EF08F0010AD8B41AEFF7
:1018080009F0030AD8B4A6EF0BF0700AD8B42BEF8E
:1018180007F0010AD8B464EF01F00F0AD8B4D6EF84
:1018280002F0010AD8B4FBEF02F0030AD8B472EF51
:1018380009F0010AD8B4A8EF09F0070AD8B4CDEF27
:1018480009F0010AD8B452EF0AF0030AD8B413EF2A
:101858000BF01E0AD8B495EF01F0010AD8B4B8EF1E
:1018680001F0030AD8B4CAEF01F0060AD8B4F1EFC0
:1018780001F0010AD8B438EF02F0030AD8B4C7EF70
:1018880002F00C0AD8B422EF0BF0010AD8B455EFD5
:101898000BF0070AD8B4A1EF0BF053EF0CF027ECCC
:1018A80018F07BEF0DF03BEC1CF01BEC1CF0020E6B
:1018B8000001AE6FB1EF0BF041EC1CF0FEEC1BF039
:1018C8000001B76FB105D8B46CEF0CF06EEF0CF0F7
:1018D8007FEF0CF0030EB119D8B475EF0CF077EF69
:1018E8000CF07FEF0CF0B151D8A47DEF0CF07FEF36
:1018F8000CF0B1EF0BF0030EAE6FB1EF0BF0640E0E
:10190800B76589EF0CF08BEF0CF094EF0CF0FE0E3E
:10191800B719D8A492EF0CF094EF0CF0C7EF0CF0C5
:10192800B70E266E000E276E4DEC11F00001B75170
:10193800266E276A286A296AFF0E2A6E0F0E2B6EFA
:10194800000E2C6E000E2D6E06EC17F026C032F03D
:1019580027C033F028C034F029C035F0640E366E45
:10196800000E376E000E386E000E396EEDEC11F079
:1019780032C040F033C041F061EC1BF0060E0001AC
:10198800AE6FB1EF0BF0640EB765CDEF0CF0CFEF93
:101998000CF0F2EF0CF0DD0EB761D5EF0CF0D7EFDD
:1019A8000CF0F2EF0CF0640EB75FB7C026F0276AB0
:1019B800030E296EE80E286E2BEC1BF026C02CF0C7
:1019C80027C02DF0000E2DBEFF0E2E6E2F6EBAEC26
:1019D8001BF0040E0001AE6FB1EF0BF0B70E266ED0
:1019E800000E276E4DEC11F0AD0E266E000E276E20
:1019F8000001B751D3EC13F0050E0001AE6FB1EF43
:101A08000BF0ECEC1BF02650271028102910D8A456
:101A180010EF0DF012EF0DF0B1EF0BF0C2EF0CF07C
:101A2800AC0E266E000E276EB751EBEC12F00009D3
:101A3800D8B421EF0DF023EF0DF0B1EF0BF0C2EFAA
:101A48000CF0030EB119D8A42CEF0DF02EEF0DF009
:101A580030EF0DF0020EB16F070EAE6FB1EF0BF065
:101A6800A4EC1BF041EC1CF0446E45EC1CF0445C0B
:101A7800D8B041EF0DF043EF0DF045EF0DF05BEFFF
:101A88000CF03EEC1CF0080E0001AE6FB1EF0BF04D
:101A9800B151D8B452EF0DF054EF0DF076EF0DF0D0
:101AA80025EC1CF026C044F027C045F072EC1BF072
:101AB8002650445C27504558D8A065EF0DF067EFD5
:101AC8000DF072EF0DF072EC1BF026502710D8A421
:101AD80070EF0DF072EF0DF076EF0DF03BEC1CF0AF
:101AE8005BEF0CF0000E0001AE6FB1EF0BF00001E0
:101AF800AE51446E456A4550000AD8B486EF0DF0E1
:101B0800B1EF0BF04450000AD8B4B1EF0BF0010A62
:101B1800D8B457EF0CF0030AD8B460EF0CF0010A00
:101B2800D8B483EF0CF0070AD8B405EF0DF0010A1A
:101B3800D8B414EF0DF0030AD8B425EF0DF0010A5C
:101B4800D8B434EF0DF00F0AD8B44CEF0DF0B1EF64
:101B58000BF007EF00F0000E326E000E356E000E2F
:101B6800346E57C033F0000E286E000E3BEC17F0B1
:101B78003250D8B4C2EF0DF0C4EF0DF0CAEF0DF03B
:101B8800200ED3EC18F0342A18EF0FF0140E33247B
:101B9800D96EDA6A000EDA22DF50366E332A3650F2
:101BA800D8A4D9EF0DF0DBEF0DF0DFEF0DF0010E4B
:101BB800326E18EF0FF0650E3660E5EF0DF0E7EFC7
:101BC8000DF037EF0EF036C035F0630E3564EFEFE9
:101BD8000DF0F1EF0DF00CEF0EF0310ED3EC18F024
:101BE800342A35C026F0276A000E296E640E286E46
:101BF800A6EC14F02650356E0A0E356006EF0EF08E
:101C080008EF0EF00CEF0EF0300ED3EC18F0342A7B
:101C1800090E356412EF0EF014EF0EF02DEF0EF0F2
:101C280035C026F0276A000E296E0A0E286E44EC8D
:101C380014F02650300FD3EC18F0342A35C026F0B3
:101C4800276A000E296E0A0E286EA6EC14F026509C
:101C5800356E3550300FD3EC18F0342A250ED3ECFE
:101C680018F0C7EF0DF0640E36643DEF0EF03FEF4D
:101C78000EF09DEF0EF0DD0E366045EF0EF047EFEB
:101C88000EF09DEF0EF0360E266E000E276E4DEC10
:101C980011F036C035F0630E356455EF0EF057EF8E
:101CA8000EF072EF0EF0310ED3EC18F0342A35C076
:101CB80026F0276A000E296E640E286EA6EC14F032
:101CC8002650356E0A0E35606CEF0EF06EEF0EF092
:101CD80072EF0EF0300ED3EC18F0342A090E35648A
:101CE80078EF0EF07AEF0EF093EF0EF035C026F095
:101CF800276A000E296E0A0E286E44EC14F026504E
:101D0800300FD3EC18F0342A35C026F0276A000EBD
:101D1800296E0A0E286EA6EC14F02650356E355042
:101D2800300FD3EC18F0342A730ED3EC18F0C7EF49
:101D38000DF0DC0E3664A3EF0EF0A5EF0EF0FDEF0C
:101D48000EF0FE0E3660ABEF0EF0ADEF0EF0FDEFCD
:101D58000EF0360E266E000E276E4DEC11F0D0EF09
:101D68000EF03650DF0BD3EC18F0342A36BABFEF3A
:101D78000EF0C1EF0EF0C7EF0EF0000E316E2B0E15
:101D8800306ECBEF0EF0000E316E2D0E306E3050EF
:101D9800D3EC18F0C7EF0DF036502E6E2F6A2F5087
:101DA800000AD8B4DAEF0EF018EF0FF02E50410AFF
:101DB800D8B4B5EF0EF0030AD8B4B5EF0EF0010AA7
:101DC800D8B4B5EF0EF0070AD8B4B5EF0EF0250A6F
:101DD800D8B4B5EF0EF0030AD8B4B5EF0EF0010A87
:101DE800D8B4B5EF0EF0070AD8B4B5EF0EF018EF77
:101DF8000FF0FE0E3618D8A404EF0FF006EF0FF020
:101E080018EF0FF0360E266E000E276E4DEC11F00F
:101E180036C035F03550300FD3EC18F0342A250E83
:101E2800D3EC18F0C7EF0DF0140E34641EEF0FF06A
:101E380020EF0FF0BCEF0DF01200426E3F50F5ECB2
:101E48001BF0436E4350D8B42CEF0FF02EEF0FF079
:101E580057EF0FF0650E436034EF0FF036EF0FF0D9
:101E680057EF0FF043C02EF02F6AECEC19F0030A7D
:101E7800D8A441EF0FF043EF0FF044EF0FF0420604
:101E880042C031F043C032F0336A43C02EF02F6AAB
:101E9800ECEC19F0346E000EE6EC0FF0250ED3ECE6
:101EA80018F0E5EF0FF0640E43645DEF0FF05FEF9D
:101EB8000FF08EEF0FF0DD0E436065EF0FF067EF68
:101EC8000FF08EEF0FF0430E266E000E276E4DECCE
:101ED80011F043C02EF02F6AECEC19F0030AD8A4D5
:101EE80078EF0FF07AEF0FF07BEF0FF0420642C069
:101EF80031F043C032F0336A43C02EF02F6AECEC65
:101F080019F0346E000EE6EC0FF0730ED3EC18F0F7
:101F1800E5EF0FF0DC0E436494EF0FF096EF0FF04F
:101F2800C3EF0FF0FE0E43609CEF0FF09EEF0FF033
:101F3800C3EF0FF0430E266E000E276E4DEC11F026
:101F480042C028F0000E3BEC17F04350DF0BD3ECF7
:101F580018F043BAB2EF0FF0B4EF0FF0BAEF0FF08A
:101F6800000E416E2B0E406EBEEF0FF0000E416E5C
:101F78002D0E406E4050D3EC18F0E5EF0FF0FE0E3A
:101F88004318D8A4CAEF0FF0CCEF0FF0E5EF0FF02D
:101F9800430E266E000E276E4DEC11F042C031F054
:101FA80043C032F0336A43C02EF02F6AECEC19F0CC
:101FB800346E000EE6EC0FF0250ED3EC18F0E5EFCA
:101FC8000FF012003A6E33BEECEF0FF0EFEF0FF0A8
:101FD800010EF0EF0FF0000E3C6E3C50D8B4F7EF56
:101FE8000FF0F9EF0FF0FDEF0FF0326C331ED8B0A1
:101FF800332A31C028F03A503BEC17F0270E3E6EDA
:10200800100E3D6E050E3B6E2CEF10F032C026F020
:1020180033C027F03DC028F03EC029F044EC14F04E
:1020280026502710D8A41BEF10F01DEF10F03FEF3B
:1020380010F03B063DC026F03EC027F0000E296E8A
:102048000A0E286E44EC14F026C03DF027C03EF07E
:102058003EBE39EF10F03E5006E13D04D8B037EFF0
:1020680010F039EF10F00AEF10F03FEF10F0200EEB
:10207800D3EC18F034063450356E366A3C503BC009
:1020880037F0386A3726000E38223550375C38501A
:10209800800A396E3650800A3958D8B056EF10F099
:1020A80058EF10F060EF10F0020E34605EEF10F0A1
:1020B80060EF10F03BEF10F03C50D8B466EF10F032
:1020C80068EF10F06BEF10F02D0ED3EC18F032C063
:1020D80026F033C027F03DC028F03EC029F044EC7C
:1020E80014F02650300FD3EC18F032C026F033C06D
:1020F80027F03DC028F03EC029F0A6EC14F026C019
:1021080032F027C033F03DC026F03EC027F0000E65
:10211800296E0A0E286E44EC14F026C03DF027C044
:102128003EF03EBEA2EF10F03E5006E13D04D8B0AE
:10213800A0EF10F0A2EF10F06BEF10F012002A6E73
:1021480033EF11F026C0D9FF27C0DAFFDF50D8A43B
:10215800B0EF10F0B2EF10F04CEF11F026C0D9FF3D
:1021680027C0DAFFFE0EDF6E4CEF11F026C0D9FF54
:1021780027C0DAFF640EDF264CEF11F026C0D9FF26
:1021880027C0DAFFDD0EDF6E4CEF11F026C0D9FF55
:1021980027C0DAFFDE0EDF6E4CEF11F026C0D9FF44
:1021A80027C0DAFFDF0EDF6E4CEF11F026C0D9FF33
:1021B80027C0DAFFE00EDF6E4CEF11F026C0D9FF22
:1021C80027C0DAFFE10EDF6E4CEF11F026C0D9FF11
:1021D80027C0DAFFE20EDF6E4CEF11F026C0D9FF00
:1021E80027C0DAFFE30EDF6E4CEF11F026C0D9FFEF
:1021F80027C0DAFFE40EDF6E4CEF11F026C0D9FFDE
:1022080027C0DAFFDF50286E296A2950000AD8B49F
:1022180010EF11F04CEF11F02850410AD8B4C2EF7A
:1022280010F0030AD8B4D2EF10F0010AD8B4E2EFE4
:1022380010F0070AD8B4F2EF10F0250AD8B4CAEFA4
:1022480010F0030AD8B4DAEF10F0010AD8B4EAEFB4
:1022580010F0070AD8B4FAEF10F04CEF11F02A503A
:10226800286E296A2950000AD8B43DEF11F04CEFC6
:1022780011F02850610AD8B402EF11F0110AD8B44D
:10228800A6EF10F0040AD8B4BAEF10F04CEF11F032
:10229800120026C0D9FF27C0DAFF650EDF6057EFAE
:1022A80011F059EF11F05BEF11F0ECEF11F026C0CF
:1022B800D9FF27C0DAFFDD0EDF6065EF11F067EFA9
:1022C80011F0B7EF11F026C0D9FF27C0DAFF640E6E
:1022D800DF5EECEF11F026C0D9FF27C0DAFF410E10
:1022E800DF6EECEF11F026C0D9FF27C0DAFF610ED0
:1022F800DF6EECEF11F026C0D9FF27C0DAFF420EDF
:10230800DF6EECEF11F026C0D9FF27C0DAFF620EAE
:10231800DF6EECEF11F026C0D9FF27C0DAFF430EBD
:10232800DF6EECEF11F026C0D9FF27C0DAFF630E8D
:10233800DF6EECEF11F026C0D9FF27C0DAFF440E9C
:10234800DF6EECEF11F026C0D9FF27C0DAFF640E6C
:10235800DF6EECEF11F026C0D9FF27C0DAFF000EC0
:10236800DF6EECEF11F026C0D9FF27C0DAFFDF508F
:10237800286E296A2950000AD8B4C5EF11F0ECEF8D
:1023880011F02850DD0AD8B46FEF11F0030AD8B461
:1023980077EF11F0010AD8B47FEF11F03F0AD8B4F3
:1023A80087EF11F0010AD8B48FEF11F0030AD8B4FF
:1023B80097EF11F0010AD8B49FEF11F0070AD8B4CB
:1023C800A7EF11F01A0AD8B4AFEF11F0ECEF11F043
:1023D8001200000E3B6E39BEF6EF11F0F4EF11F06B
:1023E80000EF12F0391E381E371E366C000E3722E9
:1023F80038223922010E3B6E35BE07EF12F005EF89
:1024080012F011EF12F0351E341E331E326C000E1E
:10241800332234223522010E3B1A000E3C6E000E88
:102428003D6E000E3E6E000E3F6E3650371038106F
:102438003910D8B422EF12F024EF12F05AEF12F04C
:10244800010E3A6E2EEF12F0D890363637363836FF
:1024580039363A2A39AE33EF12F035EF12F028EF59
:1024680012F0D8903C363D363E363F363650325C18
:10247800375033583850345839503558D8A047EF6A
:1024880012F049EF12F052EF12F03650325E375028
:10249800335A3850345A3950355A3C80D8903932EA
:1024A8003832373236323A2E35EF12F03B50D8B444
:1024B80060EF12F062EF12F06AEF12F03F1E3E1E5C
:1024C8003D1E3C6C000E3D223E223F223CC032F0B5
:1024D8003DC033F03EC034F03FC035F01200276EE7
:1024E8008A9C27C026F0263A0F0E26162646264630
:1024F8008A502618C30B26188A6E8A9E2704D8B4D9
:1025080088EF12F08AEF12F093EF12F0020E2718FC
:10251800D8A491EF12F093EF12F09CEF12F00D0E89
:10252800266EFC0EE82EFED7262EFCD7A0EF12F062
:10253800420EE82EFED700D08A8E2750F00B200AD4
:10254800D8A4A9EF12F0ABEF12F0BEEF12F08A9CFC
:1025580027C026F0263A0F0E2616264626468A500B
:102568002618C30B26188A6E8A9E420EE82EFED7BE
:1025780000D08A8E8A9C27C026F00F0E2616264683
:1025880026468A502618C30B26188A6E8A9E270468
:10259800D8B4D1EF12F0D3EF12F0DCEF12F0020E44
:1025A8002718D8A4DAEF12F0DCEF12F0E5EF12F0FA
:1025B8000D0E266EFC0EE82EFED7262EFCD7E9EF70
:1025C80012F0420EE82EFED700D08A8E12002A6E34
:1025D80031EF13F026C0D9FF27C0DAFFDF50020B16
:1025E8005EEF13F026C0D9FF27C0DAFFDF50010BDA
:1025F8005EEF13F026C0D9FF27C0DAFFDF50080BC3
:102608005EEF13F026C0D9FF27C0DAFFDF50040BB6
:102618005EEF13F026C0D9FF27C0DAFFDF50200B8A
:102628005EEF13F026C0D9FF27C0DAFFDF50100B8A
:102638005EEF13F026C0D9FF27C0DAFFDF50800B0A
:102648005EEF13F026C0D9FF27C0DAFFDF50400B3A
:102658005EEF13F0000E5EEF13F02A50286E296A21
:102668002950000AD8B43BEF13F02EEF13F028508E
:10267800410AD8B4EEEF12F0030AD8B4FEEF12F014
:10268800010AD8B40EEF13F0070AD8B41EEF13F0FE
:10269800250AD8B4F6EF12F0030AD8B406EF13F0FF
:1026A800010AD8B416EF13F0070AD8B426EF13F0CE
:1026B8002EEF13F01200000E326E5804336E020E25
:1026C800336069EF13F06BEF13F06DEF13F0D2EF97
:1026D80013F0140E3324D96EDA6A000EDA22DF50B2
:1026E800346E650E34607BEF13F07DEF13F085EFE9
:1026F80013F034C02EF02F6AECEC19F0316E31284B
:102708003226640E34648BEF13F08DEF13F0A0EFD4
:1027180013F0DD0E346093EF13F095EF13F0A0EF94
:1027280013F09C0E34242E6E2F6AFF0E2F22ECEC31
:1027380019F0316E31283226DC0E3464A6EF13F01E
:10274800A8EF13F0B2EF13F0FE0E3460AEEF13F003
:10275800B0EF13F0B2EF13F0020E3226FE0E34186B
:10276800D8A4B9EF13F0BBEF13F0C3EF13F034C0E4
:102778002EF02F6AECEC19F0316E31283226140E47
:102788003264C9EF13F0CBEF13F0CDEF13F0D2EFB3
:1027980013F033C057F0330663EF13F012002A6EBC
:1027A80016EF14F026C0D9FF27C0DAFF000EDB8031
:1027B80043EF14F026C0D9FF27C0DAFFFE0EDF165C
:1027C80043EF14F026C0D9FF27C0DAFF000EDB82E2
:1027D80043EF14F026C0D9FF27C0DAFFFD0EDF163D
:1027E80043EF14F026C0D9FF27C0DAFF000EDB84C0
:1027F80043EF14F026C0D9FF27C0DAFFFB0EDF161F
:1028080043EF14F026C0D9FF27C0DAFF000EDB869D
:1028180043EF14F026C0D9FF27C0DAFFF70EDF1602
:1028280043EF14F02A50286E296A2950000AD8B4B8
:1028380020EF14F043EF14F02850410AD8B4D6EF33
:1028480013F0030AD8B4E6EF13F0010AD8B4F6EF90
:1028580013F0070AD8B406EF14F0250AD8B4DEEF4F
:1028680013F0030AD8B4EEEF13F0010AD8B4FEEF60
:1028780013F0070AD8B40EEF14F043EF14F0120067
:10288800000E2B6E29BE4DEF14F04BEF14F053EFF2
:1028980014F0286C291ED8B0292A010E2B6E27BEE9
:1028A8005AEF14F058EF14F060EF14F0266C271E5E
:1028B800D8B0272A010E2B1A000E2D6E000E2C6E92
:1028C80028502910D8B46BEF14F06DEF14F095EF81
:1028D80014F0010E2A6E75EF14F0D89028362936B8
:1028E8002A2A29AE7AEF14F07CEF14F071EF14F075
:1028F800D8902C362D362850265C29502758D8A039
:1029080088EF14F08AEF14F08FEF14F02850265E49
:102918002950275A2C80D890293228322A2E7CEF29
:1029280014F02B50D8B49BEF14F09DEF14F0A1EFE6
:1029380014F02C6C2D1ED8B02D2A2CC026F02DC0DA
:1029480027F01200000E2B6E27BEAFEF14F0ADEF8C
:1029580014F0B5EF14F0266C271ED8B0272A010E04
:102968002B6E29BEBCEF14F0BAEF14F0C0EF14F0D0
:10297800286C291ED8B0292A28502910D8B4C7EFA6
:1029880014F0C9EF14F0EDEF14F0010E2A6ED1EF38
:1029980014F0D890283629362A2A29AED6EF14F012
:1029A800D8EF14F0CDEF14F02850265C29502758A2
:1029B800D8A0E1EF14F0E3EF14F0E7EF14F028509B
:1029C800265E2950275AD890293228322A2ED8EF45
:1029D80014F02B50D8B4F3EF14F0F5EF14F0F9EF2E
:1029E80014F0266C271ED8B0272A26C026F027C048
:1029F80027F01200000E286E000E296E030E2964BF
:102A080008EF15F00AEF15F00CEF15F050EF15F080
:102A180029C026F0010E276E262A15EF15F0D8904A
:102A28002736262E13EF15F02750836E000E2A6ED8
:102A38002AC026F0100E276E262A25EF15F0D8900A
:102A48002736262E23EF15F0275083140009D8B413
:102A580030EF15F032EF15F044EF15F02950040D62
:102A6800460E266E000E276EF3502626F4502722B7
:102A78002A502624D96E000E2720DA6EDF50286EE1
:102A88002A2A030E2A644BEF15F04DEF15F01CEFC0
:102A980015F0292A02EF15F028501200000E2E6EAC
:102AA800000E2F6E000E306E000E316E2A502B1065
:102AB8002C102D10D8B463EF15F065EF15F09BEFCF
:102AC80015F0010E326E6FEF15F0D8902A362B36BE
:102AD8002C362D36322A2DAE74EF15F076EF15F020
:102AE80069EF15F0D8902E362F36303631362A5009
:102AF800265C2B5027582C5028582D502958D8A0E0
:102B080088EF15F08AEF15F093EF15F02A50265E3E
:102B18002B50275A2C50285A2D50295A2E80D8909D
:102B28002D322C322B322A32322E76EF15F02EC06F
:102B380026F02FC027F030C028F031C029F012004D
:102B4800286ED6EF15F013B0ACEF15F0AFEF15F017
:102B5800010EB0EF15F0000EF3EF15F013B2B7EF5A
:102B680015F0BAEF15F0010EBBEF15F0000EF3EFFC
:102B780015F013B4C2EF15F0C5EF15F0010EC6EF4E
:102B880015F0000EF3EF15F013B6CDEF15F0D0EFFA
:102B980015F0010ED1EF15F0000EF3EF15F0000E51
:102BA800F3EF15F02850266E276A2750000AD8B48C
:102BB800E0EF15F0D3EF15F02650410AD8B4A7EF8F
:102BC80015F0030AD8B4B2EF15F0010AD8B4BDEF76
:102BD80015F0070AD8B4C8EF15F0D3EF15F01200B6
:102BE800286E23EF16F013A0FCEF15F0FFEF15F099
:102BF800138000EF16F0139040EF16F013A207EFC2
:102C080016F00AEF16F013820BEF16F0139240EF4E
:102C180016F013A412EF16F015EF16F0138416EF42
:102C280016F0139440EF16F013A61DEF16F020EFE0
:102C380016F0138621EF16F0139640EF16F0285081
:102C4800266E276A2750000AD8B42DEF16F040EFF9
:102C580016F02650410AD8B4F7EF15F0030AD8B495
:102C680002EF16F0010AD8B40DEF16F0070AD8B42F
:102C780018EF16F040EF16F012005850D8B447EF8E
:102C880016F049EF16F08AEF16F0020E58644FEF6F
:102C980016F051EF16F052EF16F05806140E58249D
:102CA800D96EDA6A000EDA22DC0EDF645EEF16F007
:102CB80060EF16F082EF16F0140E5824266E276A7D
:102CC800000E27224DEC11F0140E5824D96EDA6A42
:102CD800000EDA22DF50DF0BF4EC15F0140E582446
:102CE800D96EDA6A000EDA22DF50356E366A35C0E0
:102CF80026F036C027F0610EA3EC10F0140E58240D
:102D0800D96EDA6A000EDA22000EDF6E5FEC13F07D
:102D18001200000E296E000E2A6E000E2B6E000E99
:102D28002C6E410EA4EC15F0296E420EA4EC15F0A1
:102D38002A6E430EA4EC15F02B6E440EA4EC15F08D
:102D48002C6E290E2D6E000E2E6E000E2F6E080EA4
:102D5800306EC2EF16F02DC0D9FF2EC0DAFFDF505B
:102D6800D8B4B9EF16F0BBEF16F0BEEF16F02F503F
:102D780030102F6E2D4A2E2AD89030323050D8A4D9
:102D8800C8EF16F0CAEF16F0AFEF16F02F5012008A
:102D9800000E2B6E000E2A6E28502910D8B4D7EFDB
:102DA80016F0D9EF16F001EF17F0010E2C6EE1EFD7
:102DB80016F0D890283629362C2A29AEE6EF16F0D8
:102DC800E8EF16F0DDEF16F0D8902A362B362850AB
:102DD800265C29502758D8A0F4EF16F0F6EF16F025
:102DE800FBEF16F02850265E2950275A2A80D890E3
:102DF800293228322C2EE8EF16F02AC026F02BC0F4
:102E080027F01200000E2E6E000E2F6E000E306E90
:102E1800000E316E26A013EF17F015EF17F01DEF17
:102E280017F02A502E262B502F222C5030222D50AE
:102E38003122D8902A362B362C362D36D890293286
:102E48002832273226322650271028102910D8A4D5
:102E580030EF17F032EF17F00EEF17F02EC026F014
:102E68002FC027F030C028F031C029F012002B6E97
:102E7800000E2C6E4CEF17F0400E2C6E65EF17F01D
:102E8800140E2C6E65EF17F0540E2C6E65EF17F0CC
:102E98002B50296E2A6A2A50000AD8B456EF17F028
:102EA80065EF17F02950010AD8B440EF17F0030A6C
:102EB800D8B444EF17F0010AD8B448EF17F065EF1B
:102EC80017F02C5028247F0B800F73EC12F012009F
:102ED800060EF66E360EF76E000EF86E00EEB9F0BE
:102EE80010EE28F00900F5CFEEFFE550E150FAE1C9
:102EF800C40EF66E370EF76E000EF86E00EE46F052
:102F080010EE13F00900F5CFEEFFE550E150FAE1BD
:102F18000001E26BE16B00EE01F0250EEE6AE806B7
:102F2800FDE159905992000EF86E000109EF00F08A
:102F3800110E5760A2EF17F0A4EF17F0C8EF17F0C3
:102F4800FF0E266EFF0E276E5850286E296A2650EF
:102F580028262750292257502A6E2B6A28502A5C87
:102F68002B50800A2C6E2950800A2C58D8B0BFEFFD
:102F780017F0C1EF17F0C4EF17F0572ACAEF17F090
:102F88005804576ECAEF17F0110E576E1200000E54
:102F98002F6E000E286E000E3BEC17F0EAEF17F0CC
:102FA8000A0E3018D8B4DBEF17F0DDEF17F0E2EFB8
:102FB80017F03050D3EC18F0E8EF17F0000E286E39
:102FC8002F2A2F503BEC17F02D4A2E2A2DC0F6FF42
:102FD8002EC0F7FF0800F5CF30F03050D8A4F7EF37
:102FE80017F0F9EF17F0D4EF17F01200266E800EE5
:102FF800286E000E276E1CEF18F0809426502814B7
:103008000009D8B40AEF18F00CEF18F00FEF18F019
:10301800808010EF18F0809080A215EF18F017EF5D
:1030280018F019EF18F0285027128084D890283209
:103038002850D8A422EF18F024EF18F001EF18F068
:1030480080942750120012042B6E38EC1CF0000EEE
:103058002C6E47EF18F02C500B24D96E000E0C2064
:10306800DA6E2B500924296E000E0A202A6E2C5085
:10307800295CE16E2A50D8A02A04E26EE750FAECE7
:1030880017F0DF6E2C2A12502C5CD8A04EEF18F0E7
:1030980050EF18F02FEF18F038EC1CF01200356ED6
:1030A800120E58605AEF18F05CEF18F07CEF18F029
:1030B8003550D8B462EF18F064EF18F07CEF18F0D0
:1030C800350E266E000E276E740EA3EC10F0140E4B
:1030D8005824D96EDA6A000EDA2235C0DFFF582A82
:1030E800140E5824D96EDA6A000EDA22000EDF6E4A
:1030F8005FEC13F01200356E120E586086EF18F070
:1031080088EF18F0A8EF18F03550D8B48EEF18F003
:1031180090EF18F0A8EF18F0350E266E000E276E07
:10312800610EA3EC10F0140E5824D96EDA6A000E62
:10313800DA2235C0DFFF582A140E5824D96EDA6A0D
:10314800000EDA22000EDF6E5FEC13F012002A6E1A
:10315800080E2B6E410E296E2A28D8A4B6EF18F057
:10316800B8EF18F0CAEF18F0D2EF18F02A502B1465
:103178000009D8B4C2EF18F0C4EF18F0C7EF18F080
:103188002950F4EC15F0292AD8902B322B50D8A4CA
:10319800D0EF18F0D2EF18F0BAEF18F01200276E3F
:1031A8008A8C27C026F0263A0F0E26162646264673
:1031B8008A502618C30B26188A6E8A9E420EE82E5D
:1031C800FED700D08A8E8A8C27C026F00F0E2616CE
:1031D800264626468A502618C30B26188A6E8A9ECB
:1031E800420EE82EFED700D08A8E1200356E120EDF
:1031F800586001EF19F003EF19F01BEF19F0350EC5
:10320800266E000E276E700EA3EC10F0140E5824D4
:10321800D96EDA6A000EDA2235C0DFFF582A140E9A
:103228005824D96EDA6A000EDA22000EDF6E5FECDF
:1032380013F01200316E2DC030F02DC028F031503F
:103248003BEC17F033EF19F02EC0F6FF2FC0F7FF55
:103258000800F550D3EC18F02E4A2F2A302A2EC039
:10326800F6FF2FC0F7FF0800F5500009D8A43FEF7C
:1032780019F041EF19F028EF19F01200306ED00E56
:103288002E6EFF0E2F6E2CC0D9FF2DC0DAFFDECFB9
:1032980026F0DDCF27F0000E296E0A0E286E2BECE3
:1032A8001BF030502626000E27222E5026262F509F
:1032B80027222CC0D9FF2DC0DAFF26C0DEFF27C089
:1032C800DDFF120029C02BF02AC02CF0040E2D6E51
:1032D800D8902C322B322D2E6CEF19F02B50AFECEE
:1032E8001BF007EC1CF0000E276E010E266ED6ECC4
:1032F8001AF02938F00BAFEC1BF007EC1CF0000EAD
:10330800276E010E266ED6EC1AF01200306E30C011
:1033180026F0276A3EEC1BF026C02EF027C02FF0BF
:10332800000E316E31502C24D96E000E2D20DA6E2D
:10333800DF50266E31502E24BFEC1AF0312A0F0EC2
:103348003164A9EF19F0ABEF19F096EF19F01200FC
:10335800306E30C026F0276A3EEC1BF026C02EF0F7
:1033680027C02FF0000E316E31502C24D96E000E7C
:103378002D20DA6E31502E240FEC1CF0DF6E312A2E
:103388000F0E3164CAEF19F0CCEF19F0B8EF19F04D
:103398001200CEEC1BF0000E276E010E266ED6EC46
:1033A8001AF0C00EAFEC1BF007EC1CF0000E276EF5
:1033B800010E266ED6EC1AF0600EAFEC1BF007EC8F
:1033C8001CF0000E276E010E266ED6EC1AF01200C5
:1033D800000E306EFFEF19F02EC026F02FC027F038
:1033E800000E296E0A0E286E44EC14F026C02EF04A
:1033F80027C02FF0302A2E502F10D8A406EF1AF02D
:1034080008EF1AF0F0EF19F0305012009380938211
:10341800C650F00B0809C66E400E266E4B0E276E7E
:103428004C0E286E000E296E33C02AF034C02BF0E3
:1034380035C02CF036C02DF052EC15F02604C86EBD
:10344800C78EC68A12002C6E2CC026F0276A3EEC66
:103458001BF026C02AF027C02BF0000E2D6E000EA0
:10346800266E2D502A24BFEC1AF02D2A0F0E2D643B
:1034780040EF1AF042EF1AF033EF1AF01200000E84
:103488002B6EFEEC14F02C6E2C50D8B44EEF1AF0C4
:1034980050EF1AF05AEF1AF01150D8A456EF1AF05C
:1034A80058EF1AF05AEF1AF02CC02BF02CC011F07C
:1034B8002B501200C168939493969398939A939C77
:1034C800939E8A8E000E276E050E266ED6EC1AF095
:1034D800280E73EC12F00C0E73EC12F0010E73EC64
:1034E80012F0020E73EC12F01200FD0ECF6E8F0E6A
:1034F800CE6E0150021003100410D8B486EF1AF0F3
:1035080088EF1AF08FEF1AF00106000E025A035ADC
:10351800045A90EF1AF0CD901200C16826C00BF043
:1035280027C00CF028C009F029C00AF02AC012F000
:1035380080969296809492948090929080929282B3
:1035480080948090808612002DC0D9FF2EC0DAFFAB
:10355800DECF26F0DDCF27F0000E296E0A0E286E8A
:10356800CCEC16F02DC0D9FF2EC0DAFF26C0DEFF46
:1035780027C0DDFF1200276EF29E27C0A9FF26C0D4
:10358800A8FFA69EA684550EA76EAA0EA76EA682B1
:10359800A6B2D1EF1AF0D3EF1AF0CCEF1AF0A69436
:1035A800F28E1200E3EF1AF0070E286E7D0EE82E59
:1035B800FED7282EFCD700F02606D8A027062650CE
:1035C8002710D8A4EAEF1AF0ECEF1AF0D8EF1AF0A7
:1035D80012000600F29E9EA0F4EF1AF0F6EF1AF021
:1035E80000EF1BF09DA0FBEF1AF0FDEF1AF000EFC3
:1035F8001BF09E9079EC1AF0F28E599211004D75DD
:103608006E646F20616F2073657520636F6D616EE6
:10361800646F143358334E3400001C37BC34962F73
:103628003C32CC1F6838316E31C026F0276A3EEC38
:103638001BF026C02FF027C030F02C502F240FECA1
:103648001CF02DC0D9FF2EC0DAFFDF6E1200265005
:103658002802F3CF2AF0F4CF2BF026502902F3509A
:103668002B2627502802F3502B262AC026F02BC0E1
:1036780027F0120026C028F027C029F0283A293A56
:10368800F00E291628500F0B2912F00E281628C004
:1036980026F029C027F01200306E30C026F0276AC5
:1036A8003EEC1BF026C02EF027C02FF02DC026F0D0
:1036B8002C502E24BFEC1AF01200CDEC19F040C0AB
:1036C80029F041C02AF066EC19F0D8EC1BF0000E86
:1036D800276E010E266ED6EC1AF0120015C028F0DF
:1036E800296A2850296E286A14502826000E292293
:1036F80028C026F029C027F01200CD92300ECD1236
:10370800CD84FD0ECF6E8F0ECE6ECD9C9D80F28C3B
:10371800F28E1200000E286E000E266E2850BFECA6
:103728001AF0282A90EF1BF01200110E58649FEF30
:103738001BF0A2EF1BF0010EA3EF1BF0000E12000E
:103748005850565CD8B0ABEF1BF0ADEF1BF0AEEFA6
:103758001BF0562A1200266E26C0C9FFC7B0B7EF65
:103768001BF0B9EF1BF0B2EF1BF012002CC001F0F8
:103778002DC002F02EC003F02FC004F0CD8012003F
:10378800020E5764CAEF1BF0CCEF1BF0CDEF1BF015
:1037980057061200C5809EA6D4EF1BF0D6EF1BF08B
:1037A800CFEF1BF09E961200C5849EA6DEEF1BF09D
:1037B800E0EF1BF0D9EF1BF09E9612003132334137
:0F37C80034353642373839432A3023440202025F
:1037D80001C026F002C027F003C028F004C029F079
:1037E8001200276E41EC1CF02724FEEC1BF0286E1B
:1037F80028501200266E140E2624D96EDA6A000E9E
:10380800DA22DF501200C5BC0CEF1CF00EEF1CF0E2
:1038180007EF1CF01200266E26C0A9FFA69EA68000
:10382800A8501200000E836EF00E956E1200000E66
:103838000E6E000E0D6E12001390139213941396D1
:1038480012000DC026F00EC027F01200140E266ECE
:10385800000E276E120026C014F02750156E1200B5
:10386800010E73EC12F01200809680861200020E90
:10387800566E12000D4A0E2A120056501200120EF1
:063888001200585012006E
:107D200000313A20494E534552495220534551554E
:107D3000454E4349410A323A20425553434152206D
:107D400053455155454E4349410A333A2052455017
:107D50004554495220554C542E20534551550A3410
:107D60003A20434F4E464947555241434F455320D1
:107D700020202000204553434F4C48412041204DB6
:107D8000454D4F524941200A5155452044455345E0
:107D90004A412045584543555441520A203020203D
:107DA0002031202020322020203320202034200A9F
:107DB0002035202020362020203720202038202069
:107DC0002039200A00204553434F4C484120412090
:107DD0004D454D4F5249410A205155452044455388
:107DE000454A412053414C5641520A203020202020
:107DF000312020203220202033202020340A20353A
:107E00002020203620202037202020382020203914
:107E100020200020202020444553454A4120534142
:107E20004C5641522020200A20202020205345512A
:107E300055454E434941203F20200A0A23202D204A
:107E400053494D2020202020202A202D204E414F14
:107E5000004369636C6F733A20202020202020208B
:107E60002020202020003C20202F20203E20633A8C
:107E70002020202020202020202000202020202022
:107E800020202053414C564120202020202020003B
:107E900020202020202053454747554954202020AA
:107EA0002020202000202020202020205B202020B7
:107EB000205D2020202020202000202020202020A5
:107EC0002044454C455445442020202020200020BB
:107ED000202020202020204D454D4F525920202089
:107EE000202020002020202020204D454D4F5249A9
:107EF00041203F202020202000202020202020532F
:107F0000455155454E434941202020202000202046
:107F1000202020444F2053495354454D41202020D8
:107F2000202000202020412020204220202043200B
:107F3000202044202020200020202044454C45546F
:107F4000415220544F4441204120202000323A2009
:107F50004C494D504152204D454D4F5249412020F2
:107F60002000202020414A55535445204F20494E9F
:107F70004943494F2020002020494E534952412077
:107F80004F5320504153534F5320200030202D2079
:107F90004369636C6F20636F6E74696E756F202028
:107FA000002043455254455A4120515545204445EF
:107FB00053454A412000636F6E66696720636F6EA8
:107FC00074726C3A20202020202500313A2056453A
:107FD00052494649434152204D454D4F5249410077
:107FE000636F6E6669672074656D706F3A2020203C
:107FF00020202073003C20202F20203E00FF000086
:020000040020DA
:08000000FFFFFFFFFFFFFFFF00
:020000040030CA
:0E000000040C181EFF0180FF0FC00FE00F4020
:00000001FF
