:020000040000FA
:0400000007EF00F016
:100008005A82A7ED1DF057EF18F000EC1DF0C6EC72
:100018001EF027EC1EF0000E346E2D0E356E310EDC
:10002800366E010E376E90EC1CF0000E426E000E1C
:10003800416E07EC1EF0000E3C6EC20E3D6E010EC6
:100048003E6E000E3F6E02D835EF00F0050000014D
:10005800FA6EBD51FD6EBE51FE6EF850FF6EFA503D
:10006800120020EEC3F002D845EF00F00500FA6E4A
:10007800DE50FD6EDE50FE6EF850FF6EFA50010E37
:100088001200000E0001BC6F000EBB6F000EB26FB5
:10009800000E746F000EAD6F000EAE6FAD0E276EC2
:1000A800000E286EAE0E296E000E2A6E010E2B6E03
:1000B8004BEC1DF00001AF69000EBA6F020E756FB0
:1000C800000EB56F000EB46F000EB16F000EB06F6A
:1000D800000EB36F24EF0DF0000EA16F030EA165A3
:1000E80078EF00F07AEF00F07CEF00F0ABEF00F073
:1000F800000EA26F130EA26584EF00F086EF00F0E9
:1001080088EF00F0A8EF00F020EEEFF002D89EEFA5
:1001180000F00500FA6EDE50FD6EDE50FE6EF850FF
:10012800FF6EFA50A2C02EF0FC0E2F6E7F0E306EBE
:10013800A1511200000E286E0A0E276E90EC1DF0D9
:100148000001A22B7EEF00F0A12B72EF00F0000E51
:10015800A36F030EA365B3EF00F0B5EF00F0B7EFA0
:1001680000F0E6EF00F0000EA46F130EA465BFEFD9
:1001780000F0C1EF00F0C3EF00F0E3EF00F020EE75
:10018800EFF002D8D9EF00F00500FA6EDE50FD6EF0
:10019800DE50FE6EF850FF6EFA50A4C02EF0D80E56
:1001A8002F6E7D0E306EA3511200000E286E0A0EBF
:1001B800276E90EC1DF00001A42BB9EF00F0A32BE3
:1001C800ADEF00F0010EBB6FCAEF0DF020EEEFF0BF
:1001D80002D800EF01F00500FA6EDE50FD6EDE5029
:1001E800FE6EF850FF6EFA50000E2E6E040E2F6E43
:1001F8007E0E306E010E120021EE46F010EE60F019
:10020800130EDBCFE3FFE806FCE2000E00019C6F53
:10021800600E9F6F000EA06F29EF01F09CC029F0BF
:10022800020EC4EC19F09FC0D9FFA0C0DAFFDF505E
:1002380059EC1BF000019C2B000E286E320E276E25
:1002480090EC1DF000019F4BA02B9FC0D9FFA0C0D0
:10025800DAFFDF50D8A433EF01F035EF01F012EFE9
:1002680001F0DC0E2D6E050E2E6E000E2F6E000EA8
:10027800306E60EC1EF0020E0001BB6FCAEF0DF08D
:100288009CEC1EF02750281029102A10D8A44FEFF4
:1002980001F051EF01F0CAEF0DF0080E0001BB6F3D
:1002A800CAEF0DF0D0EC1EF02F0E2E6E7C0E2F6EC6
:1002B80020EEEDF002D86BEF01F00500FA6EDE508B
:1002C800FD6EDE50FE6EF850FF6EFA501200E80E1A
:1002D8002D6E030E2E6E000E2F6E000E306E60EC2B
:1002E8001EF0090E0001BB6FCAEF0DF09CEC1EF06A
:1002F8002750281029102A10D8A485EF01F087EF7D
:1003080001F0CAEF0DF0470E0001BB6FCAEF0DF008
:10031800E5EC1CF00001BC6FA4EF01F0030E000136
:10032800BB6FCAEF0DF0480EBB6FCAEF0DF0640E3D
:10033800BB6FCAEF0DF0500E0001BB6FCAEF0DF096
:10034800BC51456E466A4650000AD8B4AEEF01F07B
:10035800CAEF0DF04550310AD8B492EF01F0030A04
:10036800D8B497EF01F0010AD8B49BEF01F0070A5F
:10037800D8B49FEF01F0CAEF0DF00A0E2D6EB20E41
:100388002E6E000E2F6E0A0EBDEC1DF00001B2514C
:1003980031EC1BF020EEE3F002D8E2EF01F00500AB
:1003A800FA6EDE50FD6EDE50FE6EF850FF6EFA50AB
:1003B800760E2D6E000E2E6E0B0E1200760E0001BC
:1003C8009D6F000E9E6F9DC0D9FF9EC0DAFFDE288C
:1003D800D8A4F1EF01F0F3EF01F00FEF02F020EEF7
:1003E800E5F002D80CEF02F00500FA6EDE50FD6E63
:1003F800DE50FE6EF850FF6EFA50BCC027F0286A37
:10040800000E2A6E300E296E1DEC16F027501200D1
:10041800000E0001766F760EB66F000EB76FDCEF38
:1004280002F0B6C0D9FFB7C0DAFF640EDF641FEF71
:1004380002F021EF02F02EEF02F0B6C0D9FFB7C0EC
:10044800DAFFFE0EDE18D8A42CEF02F02EEF02F031
:100458003DEF02F0B6C027F0B7C028F0C4EC12F0A8
:10046800B6C0D9FFB7C0DAFFDF5080EC1BF0D7EF7A
:1004780002F0B6C0D9FFB7C0DAFF640EDF6447EFF9
:1004880002F049EF02F064EF02F0B6C0D9FFB7C03E
:10049800DAFFDD0EDF6053EF02F055EF02F064EF94
:1004A80002F0B6C027F0B7C028F0C4EC12F0B6C00E
:1004B800D9FFB7C0DAFFDF50D9EC1AF0D7EF02F056
:1004C800B6C027F0B7C028F0C4EC12F074EF02F001
:1004D800B6C0D9FFB7C0DAFFDF0EDF16A5EF02F00E
:1004E800B6C0D9FFB7C0DAFFDF50456E466A46503E
:1004F800000AD8B482EF02F0A5EF02F04550410A95
:10050800D8B46CEF02F0030AD8B46CEF02F0010A19
:10051800D8B46CEF02F0070AD8B46CEF02F0250AE1
:10052800D8B46CEF02F0030AD8B46CEF02F0010AF9
:10053800D8B46CEF02F0070AD8B46CEF02F0A5EF5C
:1005480002F0B6C0D9FFB7C0DAFFDF50BEEC17F033
:10055800B6C0D9FFB7C0DAFFDF506EEC17F000095C
:10056800D8A4B9EF02F0BBEF02F0CAEF02F0B6C0B0
:10057800D9FFB7C0DAFFDF50456E466A200E451036
:100588000001866F4650876FD4EF02F0B6C0D9FFDE
:10059800B7C0DAFFDF50456E45500001866F876BA4
:1005A800865105EC1BF026EC0FF00001B64BB72B7B
:1005B800B6C0D9FFB7C0DAFFDF50D8A4E6EF02F023
:1005C800E8EF02F015EF02F0E4EC1EF0100E000167
:1005D800BB6FCAEF0DF0E4EC1EF0000E2E6E3F0E5E
:1005E8002F6E7F0E306E000EA4EC1BF0000E2E6EE8
:1005F800C10E2F6E7E0E306E010EA4EC1BF0E80EBD
:100608002D6E030E2E6E000E2F6E000E306E60ECF7
:100618001EF0510E0001BB6FCAEF0DF09CEC1EF0EE
:100628002750281029102A10D8A41DEF03F01FEF17
:1006380003F0CAEF0DF0520E0001BB6FCAEF0DF0C8
:10064800E5EC1CF00001BC6F32EF03F0530EBB6FFA
:10065800CAEF0DF0540EBB6FCAEF0DF0BC51456EDA
:10066800466A4650000AD8B43CEF03F0CAEF0DF0D2
:1006780045502A0AD8B451EF01F01B0AD8B42AEF22
:1006880003F0030AD8B42EEF03F0CAEF0DF0000E02
:100698002E6E150E2F6E7F0E306E000EA4EC1BF022
:1006A800000E2E6EAC0E2F6E7E0E306E010EA4EC78
:1006B8001BF0000E2E6E580E2F6E7E0E306E020E40
:1006C800A4EC1BF0000E2E6E4A0E2F6E7D0E306EBF
:1006D800030EA4EC1BF0E5EC1CF00001BC6F7DEFF1
:1006E80003F0550EBB6FCAEF0DF0E4EC1EF09FEF60
:1006F80001F0BC51456E466A4650000AD8B487EFEF
:1007080003F0CAEF0DF04550230AD8B475EF03F093
:10071800090AD8B479EF03F0CAEF0DF020EEE9F03A
:1007280002D8A1EF03F00500FA6EDE50FD6EDE5030
:10073800FE6EF850FF6EFA501200E4EC1EF0000E48
:100748000001A56F030EA565ACEF03F0AEEF03F053
:10075800B0EF03F0D2EF03F0000EA66F130EA665FC
:10076800B8EF03F0BAEF03F0BCEF03F0CFEF03F0FC
:10077800A6C02EF0FC0E2F6E7F0E306EA551A4EC95
:100788001BF0000E286E0A0E276E90EC1DF000017B
:10079800A62BB2EF03F0A52BA6EF03F0000EA76F70
:1007A800030EA765DAEF03F0DCEF03F0DEEF03F0EA
:1007B80000EF04F0000EA86F130EA865E6EF03F033
:1007C800E8EF03F0EAEF03F0FDEF03F0A8C02EF026
:1007D800D80E2F6E7D0E306EA751A4EC1BF0000EC4
:1007E800286E0A0E276E90EC1DF00001A82BE0EF92
:1007F80003F0A72BD4EF03F0000E2E6E2E0E2F6EF3
:100808007E0E306E010EA4EC1BF0000E2E6E430E11
:100818002F6E7E0E306E020EA4EC1BF0E80E2D6ECD
:10082800030E2E6E000E2F6E000E306E60EC1EF062
:10083800560E0001BB6FCAEF0DF09CEC1EF027505E
:10084800281029102A10D8A42CEF04F02EEF04F059
:10085800CAEF0DF09FEF01F020EEF3F002D83FEF62
:1008680004F00500FA6EDE50FD6EDE50FE6EF850A4
:10087800FF6EFA501200820E2E6E7C0E2F6E20EE46
:10088800EDF002D852EF04F00500FA6EDE50FD6E6E
:10089800DE50FE6EF850FF6EFA501200490E00014D
:1008A800BB6FE5EC1CF00001BC6F96EF05F0BCC017
:1008B80027F0286A000E2A6E300E296E1DEC16F0FD
:1008C80027502D6EB20E2E6E000E2F6E0A0EBDEC46
:1008D8001DF00001B25131EC1BF020EEE3F002D81C
:1008E8008EEF04F00500FA6EDE50FD6EDE50FE6EEF
:1008F800F850FF6EFA50760E2D6E000E2E6EBCC0AC
:1009080027F0286A000E2A6E300E296E1DEC16F0AC
:1009180027501200760E00019D6F000E9E6F9DC03D
:10092800D9FF9EC0DAFFDE28D8A49DEF04F09FEF20
:1009380004F0BBEF04F020EEE5F002D8B8EF04F0C5
:100948000500FA6EDE50FD6EDE50FE6EF850FF6E4A
:10095800FA50BCC027F0286A000E2A6E300E296EA5
:100968001DEC16F027501200000E0001766F760E6F
:10097800B86F000EB96F88EF05F0B8C0D9FFB9C0DD
:10098800DAFF640EDF64CBEF04F0CDEF04F0DAEFAA
:1009980004F0B8C0D9FFB9C0DAFFFE0EDE18D8A43B
:1009A800D8EF04F0DAEF04F0E9EF04F0B8C027F06C
:1009B800B9C028F0C4EC12F0B8C0D9FFB9C0DAFF4A
:1009C800DF5080EC1BF083EF05F0B8C0D9FFB9C049
:1009D800DAFF640EDF64F3EF04F0F5EF04F010EFD4
:1009E80005F0B8C0D9FFB9C0DAFFDD0EDF60FFEF50
:1009F80004F001EF05F010EF05F0B8C027F0B9C01A
:100A080028F0C4EC12F0B8C0D9FFB9C0DAFFDF5043
:100A1800D9EC1AF083EF05F0B8C027F0B9C028F078
:100A2800C4EC12F020EF05F0B8C0D9FFB9C0DAFF66
:100A3800DF0EDF1651EF05F0B8C0D9FFB9C0DAFFF5
:100A4800DF50456E466A4650000AD8B42EEF05F0CE
:100A580051EF05F04550410AD8B418EF05F0030AE4
:100A6800D8B418EF05F0010AD8B418EF05F0070A52
:100A7800D8B418EF05F0250AD8B418EF05F0030A22
:100A8800D8B418EF05F0010AD8B418EF05F0070A32
:100A9800D8B418EF05F051EF05F0B8C0D9FFB9C0C8
:100AA800DAFFDF50BEEC17F0B8C0D9FFB9C0DAFFE3
:100AB800DF506EEC17F00009D8A465EF05F067EF7A
:100AC80005F076EF05F0B8C0D9FFB9C0DAFFDF50FE
:100AD800456E466A200E45100001886F4650896FA2
:100AE80080EF05F0B8C0D9FFB9C0DAFFDF50456E16
:100AF80045500001886F896B885105EC1BF026EC86
:100B08000FF00001B84BB92BB8C0D9FFB9C0DAFF54
:100B1800DF50D8A492EF05F094EF05F0C1EF04F090
:100B2800E8EF02F0BC51456E466A4650000AD8B458
:100B3800A0EF05F0CAEF0DF045502A0AD8B451EFDE
:100B480001F01A0AD8B45BEF04F0010AD8B45BEFDD
:100B580004F0030AD8B45BEF04F0010AD8B45BEFE1
:100B680004F0070AD8B45BEF04F0010AD8B45BEFCD
:100B780004F0030AD8B45BEF04F0010AD8B45BEFC1
:100B880004F00F0AD8B45BEF04F0010AD8B45BEFA5
:100B980004F0CAEF0DF020EEF3F002D8DEEF05F016
:100BA8000500FA6EDE50FD6EDE50FE6EF850FF6EE8
:100BB800FA50120020EEEFF002D8F4EF05F005002D
:100BC800FA6EDE50FD6EDE50FE6EF850FF6EFA5083
:100BD800000E2E6ED60E2F6E7E0E306E000E120098
:100BE80020EEEFF002D80AEF06F00500FA6EDE50AC
:100BF800FD6EDE50FE6EF850FF6EFA50000E2E6E3F
:100C0800820E2F6E7E0E306E010E1200060E00014F
:100C1800BB6FCAEF0DF020EEEFF002D825EF06F01B
:100C28000500FA6EDE50FD6EDE50FE6EF850FF6E67
:100C3800FA50000E2E6E970E2F6E7E0E306E030E3B
:100C48001200040E296E030EC4EC19F0410E6EEC6E
:100C580017F00009D8A433EF06F035EF06F03CEFA3
:100C680006F0000E00018B6F2D0E8A6F41EF06F023
:100C7800000E00018B6F2B0E8A6F8A5159EC1BF006
:100C8800080E296E030EC4EC19F0420E6EEC17F034
:100C98000009D8A452EF06F054EF06F05BEF06F017
:100CA800000E00018D6F2D0E8C6F60EF06F0000EA8
:100CB80000018D6F2B0E8C6F8C5159EC1BF00C0EB4
:100CC800296E030EC4EC19F0430E6EEC17F0000900
:100CD800D8A471EF06F073EF06F07AEF06F0000E75
:100CE80000018F6F2D0E8E6F7FEF06F0000E000152
:100CF8008F6F2B0E8E6F8E5159EC1BF0100E296ED4
:100D0800030EC4EC19F0440E6EEC17F00009D8A4D9
:100D180090EF06F092EF06F099EF06F0000E000152
:100D2800916F2D0E906F9EEF06F0000E0001916FEF
:100D38002B0E906F905159EC1BF0070E0001BB6F02
:100D4800CAEF0DF0E5EC1CF00001BC6F40EF07F0B6
:100D5800BC51BEEC17F0040E296E030EC4EC19F05A
:100D6800410E6EEC17F00009D8A4BDEF06F0BFEFF6
:100D780006F0C6EF06F0000E0001936F2D0E926F7D
:100D8800CBEF06F0000E0001936F2B0E926F92517D
:100D980059EC1BF0CAEF0DF0BC51BEEC17F0080E71
:100DA800296E030EC4EC19F0420E6EEC17F0000920
:100DB800D8A4E1EF06F0E3EF06F0EAEF06F0000E44
:100DC8000001956F2D0E946FEFEF06F0000E0001F5
:100DD800956F2B0E946F945159EC1BF0CAEF0DF0E0
:100DE800BC51BEEC17F00C0E296E030EC4EC19F0C2
:100DF800430E6EEC17F00009D8A405EF07F007EFD3
:100E080007F00EEF07F0000E0001976F2D0E966F9A
:100E180013EF07F0000E0001976F2B0E966F965197
:100E280059EC1BF0CAEF0DF0BC51BEEC17F0100ED8
:100E3800296E030EC4EC19F0440E6EEC17F000098D
:100E4800D8A429EF07F02BEF07F032EF07F0000ED8
:100E58000001996F2D0E986F37EF07F0000E000113
:100E6800996F2B0E986F985159EC1BF0CAEF0DF043
:100E78000A0EBB6FCAEF0DF0BC51456E466A46506C
:100E8800000AD8B44AEF07F0CAEF0DF04550230A1C
:100E9800D8B43CEF07F0090AD8B451EF01F06B0A57
:100EA800D8B4ACEF06F0030AD8B4D0EF06F0010AC4
:100EB800D8B4F4EF06F0070AD8B418EF07F0CAEF71
:100EC8000DF0DFEC18F00001B26F20EEF3F002D85D
:100ED80078EF07F00500FA6EDE50FD6EDE50FE6E0C
:100EE800F850FF6EFA50120020EEEFF002D88EEFA5
:100EF80007F00500FA6EDE50FD6EDE50FE6EF8500B
:100F0800FF6EFA50000E2E6EEB0E2F6E7E0E306EB8
:100F1800000E12000E0E0001BB6FCAEF0DF0E5ECDB
:100F28001CF00001BC6FECEF07F03FEC1EF000096D
:100F3800D8B4A1EF07F0A3EF07F0CAEF0DF0000156
:100F4800BC51BEEC17F00001BC516EEC17F0000963
:100F5800D8A4B1EF07F0B3EF07F0BEEF07F0200E0B
:100F6800BCC045F0466A451000019A6F46509B6F19
:100F7800C2EF07F0BCC09AF000019B6B9A5105ECD8
:100F88001BF0EAEF02F0F5EC19F0EAEF02F06AEC78
:100F98001EF0EAEF02F0F9EC1EF0020AD8A4D7EF2F
:100FA80007F0D9EF07F0DBEF07F092EF01F00BEC59
:100FB80018F0EAEF02F04A0E0001BB6FCAEF0DF01D
:100FC800290EBB6FCAEF0DF05A0EBB6FCAEF0DF0BA
:100FD800BC51456E466A4650000AD8B4F6EF07F091
:100FE800CAEF0DF04550230AD8B4DFEF07F0090A1D
:100FF800D8B4CFEF07F01A0AD8B4E4EF07F0040A20
:10100800D8B4CBEF07F0020AD8B4C7EF07F00F0A3D
:10101800D8B4E8EF07F0780AD8B499EF07F0030AD4
:10102800D8B499EF07F0010AD8B499EF07F0070A86
:10103800D8B499EF07F0CAEF0DF026EC0FF08EEF59
:1010480007F020EEEFF002D83BEF08F00500FA6E4B
:10105800DE50FD6EDE50FE6EF850FF6EFA50000E48
:101068002E6EF40E2F6E7F0E306E030E120020EEE1
:10107800F1F002D858EF08F00500FA6EDE50FD6E68
:10108800DE50FE6EF850FF6EFA50010E326EF9EC2B
:101098001EF0456EFE0E4524336E346AFF0E342270
:1010A800020E356E030E120020EEF1F002D875EF35
:1010B80008F00500FA6EDE50FD6EDE50FE6EF85048
:1010C800FF6EFA50040E326EF7EC1EF0456EFE0EFF
:1010D8004524336E346AFF0E3422020E356E030E39
:1010E80012000B0E0001BB6FCAEF0DF0460EBB6F6E
:1010F800010EAF6FCAEF0DF0030EAF19D8A487EF3A
:1011080008F089EF08F023EF09F0020EB319D8B4FC
:1011180090EF08F092EF08F023EF09F020EEEFF0DF
:1011280002D8A8EF08F00500FA6EDE50FD6EDE501A
:10113800FE6EF850FF6EFA50000E2E6E190E2F6ECE
:101148007E0E306E000E1200FF0E406E010E98ECFF
:1011580010F0000E406E090E98EC10F0010E406E73
:101168000E0E98EC10F020EEEFF002D8CDEF08F05C
:101178000500FA6EDE50FD6EDE50FE6EF850FF6E12
:10118800FA50000E2E6EDA0E2F6E7D0E306E020EA5
:10119800120020EEF1F002D8EAEF08F00500FA6E2E
:1011A800DE50FD6EDE50FE6EF850FF6EFA50040EF3
:1011B800326EF9EC1EF0456EFE0E4524336E346A2D
:1011C800FF0E3422020E356E020E120020EEF1F0F0
:1011D80002D807EF09F00500FA6EDE50FD6EDE500A
:1011E800FE6EF850FF6EFA50010E326EF5EC1EF0EE
:1011F800456EFF0E4524336E346AFF0E3422020E0C
:10120800356E020E120020EEF1F002D823EF09F03D
:101218000500FA6EDE50FD6EDE50FE6EF850FF6E71
:10122800FA500B0E326ED5EC1EF0010E2724336EE9
:10123800000E2820346E050E356E020E12000001D5
:10124800AF51D8A42AEF09F02CEF09F03DEF09F0CF
:10125800100EBB6F20EEF3F002D83DEF09F0050049
:10126800FA6EDE50FD6EDE50FE6EF850FF6EFA50DC
:101278001200E5EC1CF00001BC6F5CEF09F0010EF8
:10128800B36FCAEF0DF0020EB36FCAEF0DF0000E88
:10129800B36FCAEF0DF0020EB319D8A456EF09F0D8
:1012A80058EF09F0CAEF0DF0030EB36FCAEF0DF057
:1012B800BC51456E466A4650000AD8B466EF09F03C
:1012C800CAEF0DF04550230AD8B443EF09F0130ACA
:1012D800D8B44BEF09F0010AD8B44FEF09F0040A6B
:1012E800D8B447EF09F0CAEF0DF0E5EC1CF00001A7
:1012F800BC6F2F0EBC6583EF09F085EF09F0A6EFF0
:1013080009F03A0EBC618BEF09F08DEF09F0A6EFFA
:1013180009F0B40E2D6E000E2E6EBC51C8EC1BF0F9
:101328000001B55109E1790EB45DD8A09EEF09F02E
:10133800A0EF09F0A4EF09F0000EB56F780EB46FB6
:10134800290EBB6F2A0EBC19D8A4ADEF09F0AFEF78
:1013580009F0B8EF09F0B40E2E6E000E2F6E62EC95
:101368001DF0290E0001BB6F230EBC19D8A4BFEFD6
:1013780009F0C1EF09F0CAEF0DF02A0EBB6FCAEFF2
:101388000DF020EEEFF002D8DBEF09F00500FA6E61
:10139800DE50FD6EDE50FE6EF850FF6EFA50000E05
:1013A8002E6E540E2F6E7F0E306E020E120020EE3F
:1013B800F1F002D8F3EF09F00500FA6EDE50FD6E89
:1013C800DE50FE6EF850FF6EFA500F0E326EB4C04B
:1013D80033F0B5C034F0030E356E020E1200280E3D
:1013E8000001BB6FCAEF0DF0B451D9EC1AF020EE32
:1013F800F3F002D80AEF0AF00500FA6EDE50FD6E2F
:10140800DE50FE6EF850FF6EFA501200EAEF02F05E
:10141800E5EC1CF00001BC6F2F0EBC6516EF0AF05E
:1014280018EF0AF04AEF0AF03A0EBC611EEF0AF014
:1014380020EF0AF04AEF0AF0B00E2D6E000E2E6E65
:10144800BC51C8EC1BF0110E0001B05D270EB1595C
:10145800D8A031EF0AF033EF0AF037EF0AF0270E81
:10146800B16F100EB06F350E0001BB6FCAEF0DF0F3
:10147800E8EF02F0360EBB6FCAEF0DF0B00E2E6E1D
:10148800000E2F6E62EC1DF037EF0AF0BC51456E6E
:10149800466A4650000AD8B454EF0AF0CAEF0DF075
:1014A8004550230AD8B43EEF0AF0090AD8B442EFEF
:1014B8000AF06B0AD8B43CEF0AF0030AD8B4E8EF94
:1014C80002F0010AD8B4E8EF02F0070AD8B4E8EF4E
:1014D80002F0CAEF0DF020EEF3F002D87EEF0AF02A
:1014E8000500FA6EDE50FD6EDE50FE6EF850FF6E9F
:1014F800FA50120020EEEFF002D894EF0AF005003F
:10150800FA6EDE50FD6EDE50FE6EF850FF6EFA5039
:10151800000E2E6EC50E2F6E7D0E306E000E120060
:1015280020EEF1F002D8ACEF0AF00500FA6EDE50BA
:10153800FD6EDE50FE6EF850FF6EFA500F0E326EE2
:10154800B0C033F0B1C034F0050E356E000E120095
:1015580020EEEFF002D8C2EF0AF00500FA6EDE5076
:10156800FD6EDE50FE6EF850FF6EFA50000E2E6EC5
:10157800000E2F6E7F0E306E020E1200340E000128
:10158800BB6FCAEF0DF00A0E2D6EB2C02EF00A0E18
:10159800F6EC1DF002D8E5EF0AF005000001FA6E3E
:1015A800E151FD6EE251FE6EF850FF6EFA50DAEC32
:1015B8001EF0020E27242D6E000E28202E6E0B0E14
:1015C8001200210E2E6E7D0E2F6E20EEEDF002D849
:1015D800F8EF0AF00500FA6EDE50FD6EDE50FE6E82
:1015E800F850FF6EFA501200E5EC1CF00001BC6FD9
:1015F80006EF0BF04B0EBB6FCAEF0DF0E4EC1EF0DC
:1016080037EF0AF0BC51456E466A4650000AD8B416
:1016180010EF0BF0CAEF0DF04550230AD8B4FEEFD7
:101628000AF0090AD8B402EF0BF0CAEF0DF020EE69
:10163800F3F002D82AEF0BF00500FA6EDE50FD6ECB
:10164800DE50FE6EF850FF6EFA501200D30E2E6E6A
:101658007C0E2F6E20EEEDF002D83DEF0BF005006A
:10166800FA6EDE50FD6EDE50FE6EF850FF6EFA50D8
:1016780012004C0E0001BB6FE5EC1CF00001BC6FC2
:101688008CEF0BF0BCC027F0286A000E2A6E300ED3
:10169800296E1DEC16F027502D6EB2C02EF00A0EE2
:1016A800F6EC1DF002D876EF0BF005000001FA6E9B
:1016B800E151FD6EE251FE6EF850FF6EFA50DAEC21
:1016C8001EF0020E27242D6E000E28202E6EBCC0A0
:1016D80027F0286A000E2A6E300E296E1DEC16F0CF
:1016E800275012004D0E0001BB6FCAEF0DF020EE1F
:1016F800F3F002D88AEF0BF00500FA6EDE50FD6EAB
:10170800DE50FE6EF850FF6EFA501200DFEF07F061
:10171800BC51456E466A4650000AD8B496EF0BF0A5
:10172800CAEF0DF045502A0AD8B47BEF0BF01A0A1D
:10173800D8B446EF0BF0010AD8B446EF0BF0030A11
:10174800D8B446EF0BF0010AD8B446EF0BF0070AFD
:10175800D8B446EF0BF0010AD8B446EF0BF0030AF1
:10176800D8B446EF0BF0010AD8B446EF0BF00F0AD5
:10177800D8B446EF0BF0010AD8B446EF0BF0CAEF25
:101788000DF020EEF3F002D8D4EF0BF00500FA6E5E
:10179800DE50FD6EDE50FE6EF850FF6EFA501200FD
:1017A800000E0001A96F030EA965DDEF0BF0DFEF56
:1017B8000BF0E1EF0BF010EF0CF0000EAA6F130E18
:1017C800AA65E9EF0BF0EBEF0BF0EDEF0BF00DEF87
:1017D8000CF020EEEFF002D803EF0CF00500FA6EE3
:1017E800DE50FD6EDE50FE6EF850FF6EFA50AAC055
:1017F8002EF0FC0E2F6E7F0E306EA9511200000ED7
:10180800286E0A0E276E90EC1DF00001AA2BE3EF5C
:101818000BF0A92BD7EF0BF0000EAB6F030EAB65E7
:1018280018EF0CF01AEF0CF01CEF0CF04BEF0CF06B
:10183800000EAC6F130EAC6524EF0CF026EF0CF025
:1018480028EF0CF048EF0CF020EEEFF002D83EEF56
:101858000CF00500FA6EDE50FD6EDE50FE6EF8509C
:10186800FF6EFA50ACC02EF0D80E2F6E7D0E306E83
:10187800AB511200000E286E0A0E276E90EC1DF078
:101888000001AC2B1EEF0CF0AB2B12EF0CF020EE8E
:10189800EFF002D861EF0CF00500FA6EDE50FD6E35
:1018A800DE50FE6EF850FF6EFA50000E2E6E6D0E72
:1018B8002F6E7E0E306E010E120020EEEFF002D871
:1018C80077EF0CF00500FA6EDE50FD6EDE50FE6E0E
:1018D800F850FF6EFA50000E2E6EEF0E2F6E7D0E32
:1018E800306E020E1200E80E2D6E030E2E6E000EE4
:1018F8002F6E000E306E60EC1EF04E0E0001BB6FB6
:10190800CAEF0DF09CEC1EF02750281029102A1061
:10191800D8A491EF0CF093EF0CF0CAEF0DF037EF6D
:101928000AF020EEEFF002D8ABEF0CF00500FA6EEB
:10193800DE50FD6EDE50FE6EF850FF6EFA50000E5F
:101948002E6E2A0E2F6E7F0E306E020E120020EEC3
:10195800F1F002D8C3EF0CF00500FA6EDE50FD6E10
:10196800DE50FE6EF850FF6EFA500F0E326EB4C0A5
:1019780033F0B5C034F0030E356E020E12005B0E64
:101988000001BB6FCAEF0DF0E5EC1CF00001BC6F65
:101998002F0EBC65D2EF0CF0D4EF0CF0F5EF0CF085
:1019A8003A0EBC61DAEF0CF0DCEF0CF0F5EF0CF05E
:1019B800B40E2D6E000E2E6EBC51C8EC1BF000014B
:1019C800B55109E1650EB45DD8A0EDEF0CF0EFEF6D
:1019D8000CF0F3EF0CF0000EB56F640EB46F5A0EF6
:1019E800BB6F2A0EBC19D8A4FCEF0CF0FEEF0CF06C
:1019F80007EF0DF0B40E2E6E000E2F6E62EC1DF088
:101A08005A0E0001BB6F230EBC19D8A40EEF0DF0BF
:101A180010EF0DF0CAEF0DF05C0EBB6FCAEF0DF0C2
:101A2800B45180EC1BF0FBEF09F0B0C027F0B1C057
:101A380028F0DFEC1EF01E0E0001BB6F43EF09F02B
:101A48000001BB51456E466A4650000AD8B42FEFD4
:101A58000DF0CAEF0DF04550000AD8B470EF00F051
:101A6800010AD8B4EAEF00F0030AD8B444EF01F051
:101A7800010AD8B4CFEF05F0050AD8B40FEF06F085
:101A8800010AD8B4A6EF06F00F0AD8B456EF01F051
:101A9800010AD8B47AEF01F0030AD8B465EF07F069
:101AA800010AD8B493EF07F0050AD8B425EF08F077
:101AB8001E0AD8B421EF08F00E0AD8B47AEF08F05D
:101AC800360AD8B479EF09F0010AD8B4C5EF09F09D
:101AD800030AD8B4F8EF09F01E0AD8B40CEF0AF0DC
:101AE800010AD8B46FEF0AF0030AD8B419EF0DF061
:101AF800700AD8B480EF08F0010AD8B48CEF01F06E
:101B08000F0AD8B430EF04F0010AD8B455EF04F046
:101B1800030AD8B4C7EF0AF0010AD8B41BEF0BF0D8
:101B2800070AD8B440EF0BF0010AD8B4C5EF0BF0A0
:101B3800030AD8B486EF0CF01E0AD8B4EFEF02F00F
:101B4800010AD8B412EF03F0030AD8B424EF03F063
:101B5800060AD8B44BEF03F0010AD8B492EF03F0A9
:101B6800030AD8B421EF04F00C0AD8B495EF0CF0AE
:101B7800010AD8B4C8EF0CF0070AD8B414EF0DF076
:101B8800380AD8B4C1EF01F0CAEF0DF0ADEC1AF085
:101B9800F2EF0EF0EFEC1EF0CBEC1EF0020E00019F
:101BA800AF6F24EF0DF0F5EC1EF0AEEC1EF0000167
:101BB800BA6FB305D8B4E3EF0DF0E5EF0DF0F6EF2B
:101BC8000DF0030EB319D8B4ECEF0DF0EEEF0DF0F5
:101BD800F6EF0DF0B351D8A4F4EF0DF0F6EF0DF0D9
:101BE80024EF0DF0030EAF6F24EF0DF0640EBA650D
:101BF80000EF0EF002EF0EF00BEF0EF0FE0EBA192A
:101C0800D8A409EF0EF00BEF0EF03EEF0EF0BA0E6F
:101C1800276E000E286EC4EC12F00001BA51276E30
:101C2800286A296A2A6AFF0E2B6E0F0E2C6E000E88
:101C38002D6E000E2E6E8FEC19F027C033F028C0E1
:101C480034F029C035F02AC036F0640E376E000E25
:101C5800386E000E396E000E3A6E64EC13F033C025
:101C680041F034C042F007EC1EF0060E0001AF6FE1
:101C780024EF0DF0640EBA6544EF0EF046EF0EF057
:101C880069EF0EF0DD0EBA614CEF0EF04EEF0EF07C
:101C980069EF0EF0640EBA5FBAC027F0286A030E27
:101CA8002A6EE80E296ED1EC1DF027C02DF028C051
:101CB8002EF0000E2EBEFF0E2F6E306E60EC1EF062
:101CC800040E0001AF6F24EF0DF0BA0E276E000E60
:101CD800286EC4EC12F0AE0E276E000E286E0001BE
:101CE800BA514AEC15F0050E0001AF6F24EF0DF064
:101CF8009CEC1EF02750281029102A10D8A487EF32
:101D08000EF089EF0EF024EF0DF039EF0EF0AD0E66
:101D1800276E000E286EBA5162EC14F00009D8B490
:101D280098EF0EF09AEF0EF024EF0DF039EF0EF069
:101D3800030EB319D8A4A3EF0EF0A5EF0EF0A7EF8A
:101D48000EF0020EB36F070EAF6F24EF0DF04AECE2
:101D58001EF0F5EC1EF0456EF9EC1EF0455CD8B0AF
:101D6800B8EF0EF0BAEF0EF0BCEF0EF0D2EF0DF0B8
:101D7800F2EC1EF0080E0001AF6F24EF0DF0B35126
:101D8800D8B4C9EF0EF0CBEF0EF0EDEF0EF0D5ECB6
:101D98001EF027C045F028C046F018EC1EF027506A
:101DA800455C28504658D8A0DCEF0EF0DEEF0EF068
:101DB800E9EF0EF018EC1EF027502810D8A4E7EF32
:101DC8000EF0E9EF0EF0EDEF0EF0EFEC1EF0D2EFB3
:101DD8000DF0000E0001AF6F24EF0DF00001AF51C0
:101DE800456E466A4650000AD8B4FDEF0EF024EF5F
:101DF8000DF04550000AD8B424EF0DF0010AD8B40C
:101E0800CEEF0DF0030AD8B4D7EF0DF0010AD8B41D
:101E1800FAEF0DF0070AD8B47CEF0EF0010AD8B437
:101E28008BEF0EF0030AD8B49CEF0EF0010AD8B479
:101E3800ABEF0EF00F0AD8B4C3EF0EF024EF0DF09D
:101E480007EF00F0000E336E000E366E000E356E92
:101E580058C034F0000E296E000EC4EC19F033504F
:101E6800D8B439EF0FF03BEF0FF041EF0FF0200E31
:101E780059EC1BF0352A8FEF10F0150E3424D96E6B
:101E8800DA6A000EDA22DF50376E342A3750D8A4C7
:101E980050EF0FF052EF0FF056EF0FF0010E336EC8
:101EA8008FEF10F0650E37605CEF0FF05EEF0FF00C
:101EB800AEEF0FF037C036F0630E366466EF0FF002
:101EC80068EF0FF083EF0FF0310E59EC1BF0352A55
:101ED80036C027F0286A000E2A6E640E296E1DECA3
:101EE80016F02750366E0A0E36607DEF0FF07FEF42
:101EF8000FF083EF0FF0300E59EC1BF0352A090E66
:101F0800366489EF0FF08BEF0FF0A4EF0FF036C0B7
:101F180027F0286A000E2A6E0A0E296EBBEC15F00F
:101F28002750300F59EC1BF0352A36C027F0286AA5
:101F3800000E2A6E0A0E296E1DEC16F02750366E1A
:101F48003650300F59EC1BF0352A250E59EC1BF092
:101F58003EEF0FF0640E3764B4EF0FF0B6EF0FF0FA
:101F680014EF10F0DD0E3760BCEF0FF0BEEF0FF08E
:101F780014EF10F0370E276E000E286EC4EC12F026
:101F880037C036F0630E3664CCEF0FF0CEEF0FF0AB
:101F9800E9EF0FF0310E59EC1BF0352A36C027F067
:101FA800286A000E2A6E640E296E1DEC16F0275062
:101FB800366E0A0E3660E3EF0FF0E5EF0FF0E9EF4B
:101FC8000FF0300E59EC1BF0352A090E3664EFEF8E
:101FD8000FF0F1EF0FF00AEF10F036C027F0286A83
:101FE800000E2A6E0A0E296EBBEC15F02750300F32
:101FF80059EC1BF0352A36C027F0286A000E2A6EE5
:102008000A0E296E1DEC16F02750366E3650300F2A
:1020180059EC1BF0352A730E59EC1BF03EEF0FF00C
:10202800DC0E37641AEF10F01CEF10F074EF10F0AC
:10203800FE0E376022EF10F024EF10F074EF10F06E
:10204800370E276E000E286EC4EC12F047EF10F022
:102058003750DF0B59EC1BF0352A37BA36EF10F042
:1020680038EF10F03EEF10F0000E326E2B0E316E8E
:1020780042EF10F0000E326E2D0E316E315059ECD9
:102088001BF03EEF0FF037502F6E306A3050000AC9
:10209800D8B451EF10F08FEF10F02F50410AD8B498
:1020A8002CEF10F0030AD8B42CEF10F0010AD8B4C2
:1020B8002CEF10F0070AD8B42CEF10F0250AD8B48A
:1020C8002CEF10F0030AD8B42CEF10F0010AD8B4A2
:1020D8002CEF10F0070AD8B42CEF10F08FEF10F0A7
:1020E800FE0E3718D8A47BEF10F07DEF10F08FEFBD
:1020F80010F0370E276E000E286EC4EC12F037C0B1
:1021080036F03650300F59EC1BF0352A250E59ECB5
:102118001BF03EEF0FF0140E356495EF10F097EFBB
:1021280010F033EF0FF01200436E4050A5EC1EF094
:10213800446E4450D8B4A3EF10F0A5EF10F0CEEFE2
:1021480010F0650E4460ABEF10F0ADEF10F0CEEF7D
:1021580010F044C02FF0306A72EC1CF0030AD8A4C7
:10216800B8EF10F0BAEF10F0BBEF10F0430643C021
:1021780032F044C033F0346A44C02FF0306A72EC55
:102188001CF0356E000E5DEC11F0250E59EC1BF0BD
:102198005CEF11F0640E4464D4EF10F0D6EF10F049
:1021A80005EF11F0DD0E4460DCEF10F0DEEF10F00B
:1021B80005EF11F0440E276E000E286EC4EC12F0E5
:1021C80044C02FF0306A72EC1CF0030AD8A4EFEF79
:1021D80010F0F1EF10F0F2EF10F0430643C032F0C8
:1021E80044C033F0346A44C02FF0306A72EC1CF0FB
:1021F800356E000E5DEC11F0730E59EC1BF05CEFC0
:1022080011F0DC0E44640BEF11F00DEF11F03AEF12
:1022180011F0FE0E446013EF11F015EF11F03AEFD4
:1022280011F0440E276E000E286EC4EC12F043C065
:1022380029F0000EC4EC19F04450DF0B59EC1BF0E8
:1022480044BA29EF11F02BEF11F031EF11F0000E25
:10225800426E2B0E416E35EF11F0000E426E2D0EC0
:10226800416E415059EC1BF05CEF11F0FE0E441822
:10227800D8A441EF11F043EF11F05CEF11F0440ED8
:10228800276E000E286EC4EC12F043C032F044C032
:1022980033F0346A44C02FF0306A72EC1CF0356EAB
:1022A800000E5DEC11F0250E59EC1BF05CEF11F0FF
:1022B80012003B6E34BE63EF11F066EF11F0010EB1
:1022C80067EF11F0000E3D6E3D50D8B46EEF11F07F
:1022D80070EF11F074EF11F0336C341ED8B0342A5B
:1022E80032C029F03B50C4EC19F0270E3F6E100E97
:1022F8003E6E050E3C6EA3EF11F033C027F034C0DC
:1023080028F03EC029F03FC02AF0BBEC15F027505A
:102318002810D8A492EF11F094EF11F0B6EF11F055
:102328003C063EC027F03FC028F0000E2A6E0A0E79
:10233800296EBBEC15F027C03EF028C03FF03FBE29
:10234800B0EF11F03F5006E13E04D8B0AEEF11F007
:10235800B0EF11F081EF11F0B6EF11F0200E59EC4B
:102368001BF035063550366E376A3D503CC038F0A4
:10237800396A3826000E39223650385C3950800ABE
:102388003A6E3750800A3A58D8B0CDEF11F0CFEFF7
:1023980011F0D7EF11F0020E3560D5EF11F0D7EF3D
:1023A80011F0B2EF11F03D50D8B4DDEF11F0DFEFCE
:1023B80011F0E2EF11F02D0E59EC1BF033C027F0AD
:1023C80034C028F03EC029F03FC02AF0BBEC15F01D
:1023D8002750300F59EC1BF033C027F034C028F0D9
:1023E8003EC029F03FC02AF01DEC16F027C033F09C
:1023F80028C034F03EC027F03FC028F0000E2A6EF7
:102408000A0E296EBBEC15F027C03EF028C03FF03D
:102418003FBE19EF12F03F5006E13E04D8B017EF67
:1024280012F019EF12F0E2EF11F012002B6EAAEF82
:1024380012F027C0D9FF28C0DAFFDF50D8A427EF51
:1024480012F029EF12F0C3EF12F027C0D9FF28C00D
:10245800DAFFFE0EDF6EC3EF12F027C0D9FF28C0E7
:10246800DAFF640EDF26C3EF12F027C0D9FF28C0B9
:10247800DAFFDD0EDF6EC3EF12F027C0D9FF28C0E8
:10248800DAFFDE0EDF6EC3EF12F027C0D9FF28C0D7
:10249800DAFFDF0EDF6EC3EF12F027C0D9FF28C0C6
:1024A800DAFFE00EDF6EC3EF12F027C0D9FF28C0B5
:1024B800DAFFE10EDF6EC3EF12F027C0D9FF28C0A4
:1024C800DAFFE20EDF6EC3EF12F027C0D9FF28C093
:1024D800DAFFE30EDF6EC3EF12F027C0D9FF28C082
:1024E800DAFFE40EDF6EC3EF12F027C0D9FF28C071
:1024F800DAFFDF50296E2A6A2A50000AD8B487EF1B
:1025080012F0C3EF12F02950410AD8B439EF12F093
:10251800030AD8B449EF12F0010AD8B459EF12F0FF
:10252800070AD8B469EF12F0250AD8B441EF12F0BF
:10253800030AD8B451EF12F0010AD8B461EF12F0CF
:10254800070AD8B471EF12F0C3EF12F02B50296EBE
:102558002A6A2A50000AD8B4B4EF12F0C3EF12F076
:102568002950610AD8B479EF12F0110AD8B41DEFD6
:1025780012F0040AD8B431EF12F0C3EF12F01200CF
:1025880027C0D9FF28C0DAFF650EDF60CEEF12F052
:10259800D0EF12F0D2EF12F063EF13F027C0D9FF9B
:1025A80028C0DAFFDD0EDF60DCEF12F0DEEF12F09C
:1025B8002EEF13F027C0D9FF28C0DAFF640EDF5EC4
:1025C80063EF13F027C0D9FF28C0DAFF410EDF6E92
:1025D80063EF13F027C0D9FF28C0DAFF610EDF6E62
:1025E80063EF13F027C0D9FF28C0DAFF420EDF6E71
:1025F80063EF13F027C0D9FF28C0DAFF620EDF6E41
:1026080063EF13F027C0D9FF28C0DAFF430EDF6E4F
:1026180063EF13F027C0D9FF28C0DAFF630EDF6E1F
:1026280063EF13F027C0D9FF28C0DAFF440EDF6E2E
:1026380063EF13F027C0D9FF28C0DAFF640EDF6EFE
:1026480063EF13F027C0D9FF28C0DAFF000EDF6E52
:1026580063EF13F027C0D9FF28C0DAFFDF50296ED7
:102668002A6A2A50000AD8B43CEF13F063EF13F03B
:102678002950DD0AD8B4E6EF12F0030AD8B4EEEF19
:1026880012F0010AD8B4F6EF12F03F0AD8B4FEEF00
:1026980012F0010AD8B406EF13F0030AD8B40EEF0B
:1026A80013F0010AD8B416EF13F0070AD8B41EEFD6
:1026B80013F01A0AD8B426EF13F063EF13F01200E0
:1026C800000E3C6E3ABE6DEF13F06BEF13F077EF30
:1026D80013F03A1E391E381E376C000E3822392284
:1026E8003A22010E3C6E36BE7EEF13F07CEF13F0FB
:1026F80088EF13F0361E351E341E336C000E34225C
:1027080035223622010E3C1A000E3D6E000E3E6E3A
:10271800000E3F6E000E406E3750381039103A10D8
:10272800D8B499EF13F09BEF13F0D1EF13F0010E2B
:102738003B6EA5EF13F0D8903736383639363A362F
:102748003B2A3AAEAAEF13F0ACEF13F09FEF13F069
:10275800D8903D363E363F3640363750335C385099
:102768003458395035583A503658D8A0BEEF13F07F
:10277800C0EF13F0C9EF13F03750335E3850345AB6
:102788003950355A3A50365A3D80D8903A32393213
:10279800383237323B2EACEF13F03C50D8B4D7EF79
:1027A80013F0D9EF13F0E1EF13F0401E3F1E3E1E69
:1027B8003D6C000E3E223F2240223DC033F03EC019
:1027C80034F03FC035F040C036F01200286E8A9CC5
:1027D80028C027F0273A0F0E2716274627468A5083
:1027E8002718C30B27188A6E8A9E2804D8B4FFEFCF
:1027F80013F001EF14F00AEF14F0020E2818D8A411
:1028080008EF14F00AEF14F013EF14F00D0E276E12
:10281800FC0EE82EFED7272EFCD717EF14F0420E39
:10282800E82EFED700D08A8E2850F00B200AD8A4B4
:1028380020EF14F022EF14F035EF14F08A9C28C032
:1028480027F0273A0F0E2716274627468A502718BB
:10285800C30B27188A6E8A9E420EE82EFED700D038
:102868008A8E8A9C28C027F00F0E271627462746EF
:102878008A502718C30B27188A6E8A9E2804D8B452
:1028880048EF14F04AEF14F053EF14F0020E281832
:10289800D8A451EF14F053EF14F05CEF14F00D0EC0
:1028A800276EFC0EE82EFED7272EFCD760EF14F01B
:1028B800420EE82EFED700D08A8E12002B6EA8EFAB
:1028C80014F027C0D9FF28C0DAFFDF50020BD5EF7C
:1028D80014F027C0D9FF28C0DAFFDF50010BD5EF6D
:1028E80014F027C0D9FF28C0DAFFDF50080BD5EF56
:1028F80014F027C0D9FF28C0DAFFDF50040BD5EF4A
:1029080014F027C0D9FF28C0DAFFDF50200BD5EF1D
:1029180014F027C0D9FF28C0DAFFDF50100BD5EF1D
:1029280014F027C0D9FF28C0DAFFDF50800BD5EF9D
:1029380014F027C0D9FF28C0DAFFDF50400BD5EFCD
:1029480014F0000ED5EF14F02B50296E2A6A2A5085
:10295800000AD8B4B2EF14F0A5EF14F02950410AD8
:10296800D8B465EF14F0030AD8B475EF14F0010A6F
:10297800D8B485EF14F0070AD8B495EF14F0250AF7
:10298800D8B46DEF14F0030AD8B47DEF14F0010A3F
:10299800D8B48DEF14F0070AD8B49DEF14F0A5EF62
:1029A80014F01200000E336E5904346E020E3460B7
:1029B800E0EF14F0E2EF14F0E4EF14F049EF15F053
:1029C800150E3424D96EDA6A000EDA22DF50356E1D
:1029D800650E3560F2EF14F0F4EF14F0FCEF14F02C
:1029E80035C02FF0306A72EC1CF0326E3228332674
:1029F800640E356402EF15F004EF15F017EF15F0CB
:102A0800DD0E35600AEF15F00CEF15F017EF15F035
:102A18009C0E35242F6E306AFF0E302272EC1CF0AB
:102A2800326E32283326DC0E35641DEF15F01FEFA9
:102A380015F029EF15F0FE0E356025EF15F027EF9C
:102A480015F029EF15F0020E3326FE0E3518D8A41E
:102A580030EF15F032EF15F03AEF15F035C02FF0E2
:102A6800306A72EC1CF0326E32283326140E33644E
:102A780040EF15F042EF15F044EF15F049EF15F06F
:102A880034C058F03406DAEF14F012002B6E8DEFD4
:102A980015F027C0D9FF28C0DAFF000EDB80BAEF97
:102AA80015F027C0D9FF28C0DAFFFE0EDF16BAEFEF
:102AB80015F027C0D9FF28C0DAFF000EDB82BAEF75
:102AC80015F027C0D9FF28C0DAFFFD0EDF16BAEFD0
:102AD80015F027C0D9FF28C0DAFF000EDB84BAEF53
:102AE80015F027C0D9FF28C0DAFFFB0EDF16BAEFB2
:102AF80015F027C0D9FF28C0DAFF000EDB86BAEF31
:102B080015F027C0D9FF28C0DAFFF70EDF16BAEF95
:102B180015F02B50296E2A6A2A50000AD8B497EF6C
:102B280015F0BAEF15F02950410AD8B44DEF15F059
:102B3800030AD8B45DEF15F0010AD8B46DEF15F0AB
:102B4800070AD8B47DEF15F0250AD8B455EF15F06B
:102B5800030AD8B465EF15F0010AD8B475EF15F07B
:102B6800070AD8B485EF15F0BAEF15F01200000E79
:102B78002C6E2ABEC4EF15F0C2EF15F0CAEF15F09F
:102B8800296C2A1ED8B02A2A010E2C6E28BED1EF35
:102B980015F0CFEF15F0D7EF15F0276C281ED8B039
:102BA800282A010E2C1A000E2E6E000E2D6E2950AA
:102BB8002A10D8B4E2EF15F0E4EF15F00CEF16F098
:102BC800010E2B6EECEF15F0D89029362A362B2AF9
:102BD8002AAEF1EF15F0F3EF15F0E8EF15F0D89005
:102BE8002D362E362950275C2A502858D8A0FFEFBA
:102BF80015F001EF16F006EF16F02950275E2A505F
:102C0800285A2D80D8902A3229322B2EF3EF15F02E
:102C18002C50D8B412EF16F014EF16F018EF16F087
:102C28002D6C2E1ED8B02E2A2DC027F02EC028F0CD
:102C38001200000E2C6E28BE26EF16F024EF16F0B8
:102C48002CEF16F0276C281ED8B0282A010E2C6EFF
:102C58002ABE33EF16F031EF16F037EF16F0296C75
:102C68002A1ED8B02A2A29502A10D8B43EEF16F0C6
:102C780040EF16F064EF16F0010E2B6E48EF16F0D9
:102C8800D89029362A362B2A2AAE4DEF16F04FEF68
:102C980016F044EF16F02950275C2A502858D8A07F
:102CA80058EF16F05AEF16F05EEF16F02950275E2F
:102CB8002A50285AD8902A3229322B2E4FEF16F054
:102CC8002C50D8B46AEF16F06CEF16F070EF16F0CF
:102CD800276C281ED8B0282A27C027F028C028F03B
:102CE8001200000E296E000E2A6E030E2A647FEF72
:102CF80016F081EF16F083EF16F0C7EF16F02AC032
:102D080027F0010E286E272A8CEF16F0D890283667
:102D1800272E8AEF16F02850836E000E2B6E2BC0DC
:102D280027F0100E286E272A9CEF16F0D890283628
:102D3800272E9AEF16F0285083140009D8B4A7EF6D
:102D480016F0A9EF16F0BBEF16F02A50040DD10EBD
:102D5800276E000E286EF3502726F45028222B5099
:102D68002724D96E000E2820DA6EDF50296E2B2A10
:102D7800030E2B64C2EF16F0C4EF16F093EF16F0B3
:102D88002A2A79EF16F02950120003EF17F020EEE7
:102D980051F002D8DAEF16F00500FA6EDE50FD6E3B
:102DA800DE50FE6EF850FF6EFA5012000009D8A4EB
:102DB800E0EF16F0E2EF16F0CBEF16F020EE4FF052
:102DC80002D801EF17F00500FA6EDE50FD6EDE50F6
:102DD800FE6EF850FF6EFA5028C0F6FF29C0F7FFC4
:102DE800F86A070EF76403D00800F55005D0F6CF4F
:102DF800E1FFF7CFE2FFE7501200284A292A28C04E
:102E0800F6FF29C0F7FFF86A070EF76403D0080039
:102E1800F55005D0F6CFE1FFF7CFE2FFE750000904
:102E2800D8A419EF17F01BEF17F0CBEF16F012002C
:102E3800000E2F6E000E306E000E316E000E326ED8
:102E48002B502C102D102E10D8B42DEF17F02FEF7B
:102E580017F065EF17F0010E336E39EF17F0D890C1
:102E68002B362C362D362E36332A2EAE3EEF17F063
:102E780040EF17F033EF17F0D8902F363036313651
:102E880032362B50275C2C5028582D5029582E505C
:102E98002A58D8A052EF17F054EF17F05DEF17F04B
:102EA8002B50275E2C50285A2D50295A2E502A5A1A
:102EB8002F80D8902E322D322C322B32332E40EFE9
:102EC80017F02FC027F030C028F031C029F032C0E9
:102ED8002AF01200296EA0EF17F013B076EF17F062
:102EE80079EF17F0010E7AEF17F0000EBDEF17F02B
:102EF80013B281EF17F084EF17F0010E85EF17F08A
:102F0800000EBDEF17F013B48CEF17F08FEF17F02A
:102F1800010E90EF17F0000EBDEF17F013B697EF04
:102F280017F09AEF17F0010E9BEF17F0000EBDEFA8
:102F380017F0000EBDEF17F02950276E286A2850A9
:102F4800000AD8B4AAEF17F09DEF17F02750410AEE
:102F5800D8B471EF17F0030AD8B47CEF17F0010A60
:102F6800D8B487EF17F0070AD8B492EF17F09DEF9F
:102F780017F01200296EEDEF17F013A0C6EF17F047
:102F8800C9EF17F01380CAEF17F013900AEF18F083
:102F980013A2D1EF17F0D4EF17F01382D5EF17F083
:102FA80013920AEF18F013A4DCEF17F0DFEF17F015
:102FB8001384E0EF17F013940AEF18F013A6E7EF65
:102FC80017F0EAEF17F01386EBEF17F013960AEFF6
:102FD80018F02950276E286A2850000AD8B4F7EF4D
:102FE80017F00AEF18F02750410AD8B4C1EF17F0CC
:102FF800030AD8B4CCEF17F0010AD8B4D7EF17F00A
:10300800070AD8B4E2EF17F00AEF18F01200595087
:10301800D8B411EF18F013EF18F054EF18F0020EAF
:10302800596419EF18F01BEF18F01CEF18F0590647
:10303800150E5924D96EDA6A000EDA22DC0EDF6426
:1030480028EF18F02AEF18F04CEF18F0150E592455
:10305800276E286A000E2822C4EC12F0150E592497
:10306800D96EDA6A000EDA22DF50DF0BBEEC17F0F9
:10307800150E5924D96EDA6A000EDA22DF50366E40
:10308800376A36C027F037C028F0610E1AEC12F004
:10309800150E5924D96EDA6A000EDA22000EDF6E98
:1030A800D6EC14F01200A60EF66E340EF76E000E73
:1030B800F86E01EE00F010EE5AF00900F5CFEEFFC1
:1030C800E550E150FAE15A0EF66E390EF76E000E31
:1030D800F86E00EEBDF010EE38F00900F5CFEEFF07
:1030E800E550E150FAE1240EF66E3D0EF76E000E43
:1030F800F86E00EE47F010EE13F00900F5CFEEFF82
:10310800E550E150FAE101EE5AF01E0EEE6AE806CB
:10311800FDE10001F66BF56B00EE01F0260EEE6A9C
:10312800E806FDE15A905A92000EF86E000109EF88
:1031380000F02A6E2A04D8A4A4EF18F0A6EF18F01D
:10314800ACEF18F0980E286E7F0E296EC9EC16F0B9
:10315800020E2A18D8A4B3EF18F0B5EF18F0C1EF93
:1031680018F0B40E286E7F0E296EC9EC16F05F0EAB
:10317800286E7D0E296EC9EC16F0030E2A18D8A405
:10318800C8EF18F0CAEF18F0D8EF18F0C20E286E82
:103198007F0E296EC9EC16F05F0E286E7D0E296E23
:1031A800C9EC16F0DEEF18F08A0E286E7F0E296E35
:1031B800C9EC16F01200000E2A6E000E2B6E000EDF
:1031C8002C6E000E2D6E410E6EEC17F02A6E420E1C
:1031D8006EEC17F02B6E430E6EEC17F02C6E440E4F
:1031E8006EEC17F02D6E2A0E2E6E000E2F6E000E4E
:1031F800306E080E316E14EF19F02EC0D9FF2FC0B3
:10320800DAFFDF50D8B40BEF19F00DEF19F010EF1B
:1032180019F030503110306E2E4A2F2AD8903132A2
:103228003150D8A41AEF19F01CEF19F001EF19F07A
:1032380030501200000E2C6E000E2B6E29502A10F2
:10324800D8B429EF19F02BEF19F053EF19F0010E4C
:103258002D6E33EF19F0D89029362A362D2A2AAE4A
:1032680038EF19F03AEF19F02FEF19F0D8902B3604
:103278002C362950275C2A502858D8A046EF19F038
:1032880048EF19F04DEF19F02950275E2A50285AB7
:103298002B80D8902A3229322D2E3AEF19F02BC0E4
:1032A80027F02CC028F01200948C948EF29E000E09
:1032B800276E2D0E286E310E296E010E2A6E34C02F
:1032C80038F035C039F036C03AF037C03BF0020E5E
:1032D800D890383639363A363B36E82E6CEF19F046
:1032E80038C02BF039C02CF03AC02DF03BC02EF07E
:1032F8001CEC17F0FF0E2724AF6EFF0E2820B06ECF
:10330800AC98B886AC84AB8EAC8AAB889D8A9D9805
:10331800F28CF28E1200000E2F6E000E306E000E30
:10332800316E000E326E27A09CEF19F09EEF19F057
:10333800A6EF19F02B502F262C5030222D50312279
:103348002E503222D8902B362C362D362E36D89049
:103358002A322932283227322750281029102A10D9
:10336800D8A4B9EF19F0BBEF19F097EF19F02FC0F7
:1033780027F030C028F031C029F032C02AF01200FE
:103388002C6E000E2D6ED5EF19F0400E2D6EEEEF5F
:1033980019F0140E2D6EEEEF19F0540E2D6EEEEF9F
:1033A80019F02C502A6E2B6A2B50000AD8B4DFEF84
:1033B80019F0EEEF19F02A50010AD8B4C9EF19F044
:1033C800030AD8B4CDEF19F0010AD8B4D1EF19F037
:1033D800EEEF19F02D5029247F0B800FEAEC13F043
:1033E8001200110E5860FBEF19F0FDEF19F021EFF4
:1033F8001AF0FF0E276EFF0E286E5950296E2A6AA2
:103408002750292628502A2258502B6E2C6A2950DA
:103418002B5C2C50800A2D6E2A50800A2D58D8B06B
:1034280018EF1AF01AEF1AF01DEF1AF0582A23EFC6
:103438001AF05904586E23EF1AF0110E586E120044
:10344800000E306E000E296E000EC4EC19F043EF2A
:103458001AF00A0E3118D8B434EF1AF036EF1AF011
:103468003BEF1AF0315059EC1BF041EF1AF0000E07
:10347800296E302A3050C4EC19F02E4A2F2A2EC05B
:10348800F6FF2FC0F7FF0800F5CF31F03150D8A470
:1034980050EF1AF052EF1AF02DEF1AF012004154C3
:1034A8002B43574A41503D22000000000000000015
:1034B8000000000000000000000000000000000004
:1034C80000000000000041542B43495053454E442E
:1034D8003D22000000000000000000000000000085
:1034E800000000004D756E646F20616F2073657574
:1034F80020636F6D616E646F276E800E296E000EFB
:10350800286EA2EF1AF08094275029140009D8B425
:1035180090EF1AF092EF1AF095EF1AF0808096EF7C
:103528001AF0809080A29BEF1AF09DEF1AF09FEF9F
:103538001AF0295028128084D89029322950D8A40A
:10354800A8EF1AF0AAEF1AF087EF1AF08094285023
:10355800120012042C6EECEC1EF0000E2D6ECDEF56
:103568001AF02D500B24D96E000E0C20DA6E2C5058
:1035780009242A6E000E0A202B6E2D502A5CE16E5B
:103588002B50D8A02B04E26EE75080EC1AF0DF6EC7
:103598002D2A12502D5CD8A0D4EF1AF0D6EF1AF0CD
:1035A800B5EF1AF0ECEC1EF01200366E120E5960F0
:1035B800E0EF1AF0E2EF1AF002EF1BF03650D8B441
:1035C800E8EF1AF0EAEF1AF002EF1BF0360E276E5A
:1035D800000E286E740E1AEC12F0150E5924D96ECE
:1035E800DA6A000EDA2236C0DFFF592A150E59248E
:1035F800D96EDA6A000EDA22000EDF6ED6EC14F00D
:103608001200366E120E59600CEF1BF00EEF1BF015
:103618002EEF1BF03650D8B414EF1BF016EF1BF04A
:103628002EEF1BF0360E276E000E286E610E1AEC78
:1036380012F0150E5924D96EDA6A000EDA2236C055
:10364800DFFF592A150E5924D96EDA6A000EDA22DC
:10365800000EDF6ED6EC14F012002B6E080E2C6EE6
:10366800410E2A6E2B28D8A43CEF1BF03EEF1BF02E
:1036780050EF1BF058EF1BF02B502C140009D8B456
:1036880048EF1BF04AEF1BF04DEF1BF02A50BEEC41
:1036980017F02A2AD8902C322C50D8A456EF1BF0B9
:1036A80058EF1BF040EF1BF01200286E8A8C28C0E0
:1036B80027F0273A0F0E2716274627468A5027183D
:1036C800C30B27188A6E8A9E420EE82EFED700D0BA
:1036D8008A8E8A8C28C027F00F0E27162746274681
:1036E8008A502718C30B27188A6E8A9E420EE82E26
:1036F800FED700D08A8E1200366E120E596087EF00
:103708001BF089EF1BF0A1EF1BF0360E276E000EA1
:10371800286E700E1AEC12F0150E5924D96EDA6A5A
:10372800000EDA2236C0DFFF592A150E5924D96E49
:10373800DA6A000EDA22000EDF6ED6EC14F0120000
:10374800326E2EC031F02EC029F03250C4EC19F080
:10375800B9EF1BF02FC0F6FF30C0F7FF0800F55097
:1037680059EC1BF02F4A302A312A2FC0F6FF30C0FF
:10377800F7FF0800F5500009D8A4C5EF1BF0C7EF04
:103788001BF0AEEF1BF01200316ED00E2F6EFF0E45
:10379800306E2DC0D9FF2EC0DAFFDECF27F0DDCF87
:1037A80028F0000E2A6E0A0E296ED1EC1DF0315059
:1037B8002726000E28222F502726305028222DC0D9
:1037C800D9FF2EC0DAFF27C0DEFF28C0DDFF1200B8
:1037D8002AC02CF02BC02DF0040E2E6ED8902D325E
:1037E8002C322E2EF2EF1BF02C5055EC1EF0B7ECBD
:1037F8001EF0000E286E010E276E90EC1DF02A3880
:10380800F00B55EC1EF0B7EC1EF0000E286E010E02
:10381800276E90EC1DF01200316E31C027F0286A37
:10382800E4EC1DF027C02FF028C030F0000E326EF7
:1038380032502D24D96E000E2E20DA6EDF50276EFE
:1038480032502F2479EC1DF0322A0F0E32642FEFFC
:103858001CF031EF1CF01CEF1CF01200316E31C06F
:1038680027F0286AE4EC1DF027C02FF028C030F0BC
:10387800000E326E32502D24D96E000E2E20DA6ED4
:1038880032502F24BFEC1EF0DF6E322A0F0E326446
:1038980050EF1CF052EF1CF03EEF1CF012007EECD3
:1038A8001EF0000E286E010E276E90EC1DF0C00E63
:1038B80055EC1EF0B7EC1EF0000E286E010E276EB8
:1038C80090EC1DF0600E55EC1EF0B7EC1EF0000EEB
:1038D800286E010E276E90EC1DF01200000E316E5E
:1038E80085EF1CF02FC027F030C028F0000E2A6E9C
:1038F8000A0E296EBBEC15F027C02FF028C030F057
:10390800312A2F503010D8A48CEF1CF08EEF1CF009
:1039180076EF1CF03150120093809382C650F00B62
:103928000809C66E400E276E4B0E286E4C0E296E87
:10393800000E2A6E34C02BF035C02CF036C02DF0A6
:1039480037C02EF01CEC17F02704C86EC78EC68A45
:103958001200363A922D00003A31000000000000B3
:103968000000000000003132334134353642373828
:1039780039432A3023442038643892390000683C9F
:10398800003A48344837BA22C83D2D6E2DC027F07A
:10399800286AE4EC1DF027C02BF028C02CF0000E9C
:1039A8002E6E000E276E2E502B2479EC1DF02E2A39
:1039B8000F0E2E64E2EF1CF0E4EF1CF0D5EF1CF0C4
:1039C8001200000E2C6E75EC16F02D6E2D50D8B42A
:1039D800F0EF1CF0F2EF1CF0FCEF1CF01150D8A433
:1039E800F8EF1CF0FAEF1CF0FCEF1CF02DC02CF0E7
:1039F8002DC011F02C501200C1689394939693989F
:103A0800939A939C939E8A8E000E286E050E276EBD
:103A180090EC1DF0280EEAEC13F00C0EEAEC13F013
:103A2800010EEAEC13F0020EEAEC13F012003CC0AF
:103A380034F03DC035F03EC036F03FC037F020EEE0
:103A480053F002D832EF1DF00500FA6EDE50FD6E1D
:103A5800DE50FE6EF850FF6EFA5012001200FD0E96
:103A6800CF6E8F0ECE6E0150021003100410D8B422
:103A780040EF1DF042EF1DF049EF1DF00106000E6A
:103A8800025A035A045A4AEF1DF0CD901200C16839
:103A980027C00BF028C00CF029C009F02AC00AF092
:103AA8002BC012F080969296809492948090929077
:103AB8008092928280948090808612002EC0D9FFD6
:103AC8002FC0DAFFDECF27F0DDCF28F0000E2A6EF8
:103AD8000A0E296E1EEC19F02EC0D9FF2FC0DAFF8E
:103AE80027C0DEFF28C0DDFF1200286EF29E28C026
:103AF800A9FF27C0A8FFA69EA684550EA76EAA0EEA
:103B0800A76EA682A6B28BEF1DF08DEF1DF086EF93
:103B18001DF0A694F28E12009DEF1DF0070E296E7F
:103B28007D0EE82EFED7292EFCD700F02706D8A058
:103B3800280627502810D8A4A4EF1DF0A6EF1DF0E2
:103B480092EF1DF012000600F29E9EA0AEEF1DF04F
:103B5800B0EF1DF0BAEF1DF09DA0B5EF1DF0B7EF67
:103B68001DF0BAEF1DF09E9033EC1DF0F28E5A92C4
:103B78001100326E32C027F0286AE4EC1DF027C02D
:103B880030F028C031F02D503024BFEC1EF02EC08C
:103B9800D9FF2FC0DAFFDF6E120027502902F3CFBA
:103BA8002BF0F4CF2CF027502A02F3502C26285063
:103BB8002902F3502C262BC027F02CC028F0120025
:103BC80027C029F028C02AF0293A2A3AF00E2A16E6
:103BD80029500F0B2A12F00E291629C027F02AC0E7
:103BE80028F01200316E31C027F0286AE4EC1DF08D
:103BF80027C02FF028C030F02EC027F02D502F24DA
:103C080079EC1DF0120053EC1CF041C02AF042C0C0
:103C18002BF0ECEC1BF088EC1EF0000E286E010E69
:103C2800276E90EC1DF0120016C029F02A6A295060
:103C38002A6E296A15502926000E2A2229C027F043
:103C48002AC028F01200CD92300ECD12CD84FD0E80
:103C5800CF6E8F0ECE6ECD9C9D80F28CF28E1200B0
:103C6800000E296E000E276E295079EC1DF0292AC6
:103C780036EF1EF01200110E596445EF1EF048EFA2
:103C88001EF0010E49EF1EF0000E12005950575C4D
:103C9800D8B051EF1EF053EF1EF054EF1EF0572A24
:103CA8001200276E27C0C9FFC7B05DEF1EF05FEF97
:103CB8001EF058EF1EF012002DC001F02EC002F0C9
:103CC8002FC003F030C004F0CD801200020E5864FB
:103CD80070EF1EF072EF1EF073EF1EF05806120020
:103CE800ACA279EF1EF07CEF1EF0010E7DEF1EF006
:103CF800000E1200C5809EA684EF1EF086EF1EF00F
:103D08007FEF1EF09E961200C5849EA68EEF1EF0D1
:103D180090EF1EF089EF1EF09E9612000000000042
:0F3D280000000000D03DE83CB032000002020273
:103D380001C027F002C028F003C029F004C02AF00F
:103D48001200286EF5EC1EF02824AEEC1EF0296E49
:103D580029501200276E150E2724D96EDA6A000E34
:103D6800DA22DF501200C5BCBCEF1EF0BEEF1EF019
:103D7800B7EF1EF01200276E27C0A9FFA69EA680E7
:103D8800A8501200000E836EF00E956E1200000E01
:103D98000E6E000E0D6E120013901392139413966C
:103DA80012000DC027F00EC028F01200150E276E65
:103DB800000E286E120027C015F02850166E12004B
:103DC800010EEAEC13F01200276E27C0ADFF1200B7
:103DD800809680861200020E576E12000D4A0E2A37
:0E3DE800120057501200120E12005950120015
:107C2E0000313A20494E5345524952205345515541
:107C3E00454E4349410A323A204255534341522060
:107C4E0053455155454E4349410A333A205245500A
:107C5E004554495220554C542E20534551550A3403
:107C6E003A20434F4E464947555241434F455320C4
:107C7E0020202000204553434F4C48412041204DA9
:107C8E00454D4F524941200A5155452044455345D3
:107C9E004A412045584543555441520A2030202030
:107CAE002031202020322020203320202034200A92
:107CBE00203520202036202020372020203820205C
:107CCE002039200A00204553434F4C484120412083
:107CDE004D454D4F5249410A20515545204445537B
:107CEE00454A412053414C5641520A203020202013
:107CFE00312020203220202033202020340A20352D
:107D0E002020203620202037202020382020203907
:107D1E0020200020202020444553454A4120534135
:107D2E004C5641522020200A20202020205345511D
:107D3E0055454E434941203F20200A0A23202D203D
:107D4E0053494D2020202020202A202D204E414F07
:107D5E000041542B43575341503D22576972656C75
:107D6E00657373222C222A2A2A2A2A2A2A2A222CAC
:107D7E00312C322C342C300D0A0041542B434950F7
:107D8E0053544152543D22544350222C2231393205
:107D9E002E3136382E342E31222C22333333220D0F
:107DAE000A0041542B4349505345525645523D31DA
:107DBE002C3333330D0A004369636C6F733A202002
:107DCE002020202020202020202020003C20202F9A
:107DDE0020203E20633A202020202020202020201A
:107DEE0000202020202020202053414C56412020CE
:107DFE0020202020200020202020202053454747EF
:107E0E0055495420202020202020002020202020F2
:107E1E0020205B202020205D2020202020202000FC
:107E2E002020202020202044454C4554454420202D
:107E3E00202020200020202020202020204D454DD5
:107E4E004F525920202020202000202020202020AA
:107E5E004D454D4F524941203F20202020200020EB
:107E6E00202020202053455155454E434941202086
:107E7E00202020002020202020444F2053495354FE
:107E8E00454D412020202020002020204120202070
:107E9E00422020204320202044202020200020208B
:107EAE002044454C4554415220544F4441204120DA
:107EBE00202000323A204C494D504152204D454D24
:107ECE004F52494120202000202020414A55535432
:107EDE0045204F20494E4943494F2020002020493C
:107EEE004E53495241204F5320504153534F53202C
:107EFE00200030202D204369636C6F20636F6E74F9
:107F0E00696E756F2020002043455254455A41201A
:107F1E0051554520444553454A412000636F6E66D6
:107F2E00696720636F6E74726C3A202020202025C2
:107F3E0000313A20564552494649434152204D455B
:107F4E004D4F52494100636F6E6669672074656DCF
:107F5E00706F3A202020202020730041542B43576D
:107F6E004155544F434F4E4E3D300D0A0041542B58
:107F7E004349504D4F44453D300D0A0041542B436B
:107F8E00574D4F44453D300D0A0041542B43574D3C
:107F9E004F44453D310D0A0041542B4349504D5538
:107FAE00583D310D0A0041542B43574D4F44453D2A
:107FBE00320D0A0041542B43574D4F44453D330D6E
:107FCE000A0041542B434950434C4F53450D0A0070
:107FDE0041542B43574C41500D0A0041542B4349F9
:107FEE004653520D0A003C20202F20203E00FF0059
:017FFE000082
:020000040020DA
:08000000FFFFFFFFFFFFFFFF00
:020000040030CA
:0E000000040C181EFF0180FF0FC00FE00F4020
:00000001FF
