:020000040000FA
:0400000007EF00F016
:1000080059823EED1CF0BDEF18F0AFEC1BF067EC29
:100018001DF0D2EC1CF0000E336E2D0E346E310E36
:10002800356E010E366E5BEC1BF0000E416E000E55
:10003800406EB2EC1CF0000E0001BC6F000EBB6FEE
:10004800000EB26F000E746F000EAD6F000EAE6F33
:10005800AD0E266E000E276EAE0E286E000E296EAF
:10006800010E2A6EE2EC1BF00001AF69000EBA6FB8
:10007800020E756F000EB56F000EB46F000EB16FF3
:10008800000EB06F000EB36FFEEF0CF0000EA16F04
:10009800030EA16552EF00F054EF00F056EF00F0A8
:1000A80085EF00F0000EA26F130EA2655EEF00F060
:1000B80060EF00F062EF00F082EF00F020EEDFF07A
:1000C80002D878EF00F00500FA6EDE50FD6EDE50C3
:1000D800FE6EF850FF6EFA50A2C02DF0FD0E2E6E87
:1000E8007F0E2F6EA1511200000E276E0A0E266E8B
:1000F80027EC1CF00001A22B58EF00F0A12B4CEFCD
:1001080000F0000EA36F030EA3658DEF00F08FEFD4
:1001180000F091EF00F0C0EF00F0000EA46F130E96
:10012800A46599EF00F09BEF00F09DEF00F0BDEFA4
:1001380000F020EEDFF002D8B3EF00F00500FA6E11
:10014800DE50FD6EDE50FE6EF850FF6EFA50A4C011
:100158002DF0640E2E6E7E0E2F6EA3511200000E2F
:10016800276E0A0E266E27EC1CF00001A42B93EFD5
:1001780000F0A32B87EF00F0010EBB6FA4EF0DF08A
:1001880020EEDFF002D8DAEF00F00500FA6EDE505C
:10019800FD6EDE50FE6EF850FF6EFA50000E2D6EAA
:1001A800900E2E6E7E0E2F6E010E120020EEBDF008
:1001B80010EE60F0130EDBCFE3FFE806FCE2000E62
:1001C80000019C6F600E9F6F000EA06F03EF01F09F
:1001D8009CC028F0020E8CEC18F09FC0D9FFA0C07C
:1001E800DAFFDF5024EC1AF000019C2B000E276E7A
:1001F800320E266E27EC1CF000019F4BA02B9FC0EF
:10020800D9FFA0C0DAFFDF50D8A40DEF01F00FEF3F
:1002180001F0ECEF00F0DC0E2C6E050E2D6E000EDA
:100228002E6E000E2F6E0BEC1DF0020E0001BB6F40
:10023800A4EF0DF03DEC1DF02650271028102910D2
:10024800D8A429EF01F02BEF01F0A4EF0DF0080E70
:100258000001BB6FA4EF0DF071EC1DF0210E2D6EA7
:100268007D0E2E6E20EEDDF002D845EF01F0050080
:10027800FA6EDE50FD6EDE50FE6EF850FF6EFA50DC
:100288001200E80E2C6E030E2D6E000E2E6E000E60
:100298002F6E0BEC1DF0090E0001BB6FA4EF0DF0E3
:1002A8003DEC1DF02650271028102910D8A45FEF28
:1002B80001F061EF01F0A4EF0DF0470E0001BB6FF4
:1002C800A4EF0DF094EC1BF00001BC6F7EEF01F081
:1002D800030E0001BB6FA4EF0DF0480EBB6FA4EF37
:1002E8000DF0640EBB6FA4EF0DF0500E0001BB6F54
:1002F800A4EF0DF0BC51446E456A4550000AD8B4CD
:1003080088EF01F0A4EF0DF04450310AD8B46CEF37
:1003180001F0030AD8B471EF01F0010AD8B475EFFF
:1003280001F0070AD8B479EF01F0A4EF0DF00A0E36
:100338002C6EB20E2D6E000E2E6E0A0E68EC1CF09E
:100348000001B251FCEC19F020EED3F002D8BCEF5A
:1003580001F00500FA6EDE50FD6EDE50FE6EF850BC
:10036800FF6EFA50760E2C6E000E2D6E0B0E1200DC
:10037800760E00019D6F000E9E6F9DC0D9FF9EC036
:10038800DAFFDE28D8A4CBEF01F0CDEF01F0E9EFDA
:1003980001F020EED5F002D8E6EF01F00500FA6E84
:1003A800DE50FD6EDE50FE6EF850FF6EFA50BCC097
:1003B80026F0276A000E296E300E286EF7EC15F02D
:1003C80026501200000E0001766F760EB66F000EF2
:1003D800B76FB6EF02F0B6C0D9FFB7C0DAFF640E48
:1003E800DF64F9EF01F0FBEF01F008EF02F0B6C0AF
:1003F800D9FFB7C0DAFFFE0EDE18D8A406EF02F068
:1004080008EF02F017EF02F0B6C026F0B7C027F0E9
:100418009EEC12F0B6C0D9FFB7C0DAFFDF504BEC44
:100428001AF0B1EF02F0B6C0D9FFB7C0DAFF640E18
:10043800DF6421EF02F023EF02F03EEF02F0B6C0D6
:10044800D9FFB7C0DAFFDD0EDF602DEF02F02FEF26
:1004580002F03EEF02F0B6C026F0B7C027F09EECDF
:1004680012F0B6C0D9FFB7C0DAFFDF50A4EC19F01C
:10047800B1EF02F0B6C026F0B7C027F09EEC12F03C
:100488004EEF02F0B6C0D9FFB7C0DAFFDF0EDF16B5
:100498007FEF02F0B6C0D9FFB7C0DAFFDF50446E75
:1004A800456A4550000AD8B45CEF02F07FEF02F0CD
:1004B8004450410AD8B446EF02F0030AD8B446EFD4
:1004C80002F0010AD8B446EF02F0070AD8B446EFA2
:1004D80002F0250AD8B446EF02F0030AD8B446EF72
:1004E80002F0010AD8B446EF02F0070AD8B446EF82
:1004F80002F07FEF02F0B6C0D9FFB7C0DAFFDF50D5
:1005080045EC17F0B6C0D9FFB7C0DAFFDF50F5ECFD
:1005180016F00009D8A493EF02F095EF02F0A4EFCB
:1005280002F0B6C0D9FFB7C0DAFFDF50446E456AA3
:10053800200E44100001866F4550876FAEEF02F021
:10054800B6C0D9FFB7C0DAFFDF50446E445000018F
:10055800866F876B8651D0EC19F000EC0FF0000124
:10056800B64BB72BB6C0D9FFB7C0DAFFDF50D8A457
:10057800C0EF02F0C2EF02F0EFEF01F085EC1DF0E2
:10058800100E0001BB6FA4EF0DF085EC1DF0000EFE
:100598002D6ECB0E2E6E7F0E2F6E000E6FEC1AF0A6
:1005A800000E2D6E4D0E2E6E7F0E2F6E010E6FEC0F
:1005B8001AF0E80E2C6E030E2D6E000E2E6E000E35
:1005C8002F6E0BEC1DF0510E0001BB6FA4EF0DF068
:1005D8003DEC1DF02650271028102910D8A4F7EF5D
:1005E80002F0F9EF02F0A4EF0DF0520E0001BB6F1C
:1005F800A4EF0DF094EC1BF00001BC6F0CEF03F0BE
:10060800530EBB6FA4EF0DF0540EBB6FA4EF0DF0AB
:10061800BC51446E456A4550000AD8B416EF03F041
:10062800A4EF0DF044502A0AD8B42BEF01F01B0AAE
:10063800D8B404EF03F0030AD8B408EF03F0A4EF2A
:100648000DF0000E2D6EA10E2E6E7F0E2F6E000E79
:100658006FEC1AF0000E2D6E380E2E6E7F0E2F6E78
:10066800010E6FEC1AF0000E2D6EE40E2E6E7E0E4B
:100678002F6E020E6FEC1AF0000E2D6E3C0E2E6ED1
:100688007E0E2F6E030E6FEC1AF094EC1BF0000137
:10069800BC6F57EF03F0550EBB6FA4EF0DF085EC60
:1006A8001DF079EF01F0BC51446E456A4550000ACF
:1006B800D8B461EF03F0A4EF0DF04450230AD8B486
:1006C8004FEF03F0090AD8B453EF03F0A4EF0DF08D
:1006D80020EED9F002D87BEF03F00500FA6EDE5069
:1006E800FD6EDE50FE6EF850FF6EFA50120085EC7B
:1006F8001DF0000E0001A56F030EA56586EF03F03F
:1007080088EF03F08AEF03F0ACEF03F0000EA66F5A
:10071800130EA66592EF03F094EF03F096EF03F043
:10072800A9EF03F0A6C02DF0FD0E2E6E7F0E2F6EE2
:10073800A5516FEC1AF0000E276E0A0E266E27ECF4
:100748001CF00001A62B8CEF03F0A52B80EF03F023
:10075800000EA76F030EA765B4EF03F0B6EF03F022
:10076800B8EF03F0DAEF03F0000EA86F130EA865D8
:10077800C0EF03F0C2EF03F0C4EF03F0D7EF03F0CC
:10078800A8C02DF0640E2E6E7E0E2F6EA7516FEC52
:100798001AF0000E276E0A0E266E27EC1CF00001D8
:1007A800A82BBAEF03F0A72BAEEF03F0000E2D6EC7
:1007B800BA0E2E6E7E0E2F6E010E6FEC1AF0000E22
:1007C8002D6ECF0E2E6E7E0E2F6E020E6FEC1AF06F
:1007D800E80E2C6E030E2D6E000E2E6E000E2F6E80
:1007E8000BEC1DF0560E0001BB6FA4EF0DF03DECB5
:1007F8001DF02650271028102910D8A406EF04F061
:1008080008EF04F0A4EF0DF079EF01F020EEE3F02B
:1008180002D819EF04F00500FA6EDE50FD6EDE50C6
:10082800FE6EF850FF6EFA501200740E2D6E7D0E9B
:100838002E6E20EEDDF002D82CEF04F00500FA6EE3
:10084800DE50FD6EDE50FE6EF850FF6EFA5012005C
:10085800490E0001BB6F94EC1BF00001BC6F70EFF8
:1008680005F0BCC026F0276A000E296E300E286EEF
:10087800F7EC15F026502C6EB20E2D6E000E2E6E73
:100888000A0E68EC1CF00001B251FCEC19F020EEE5
:10089800D3F002D868EF04F00500FA6EDE50FD6E62
:1008A800DE50FE6EF850FF6EFA50760E2C6E000E7B
:1008B8002D6EBCC026F0276A000E296E300E286EF9
:1008C800F7EC15F026501200760E00019D6F000E11
:1008D8009E6F9DC0D9FF9EC0DAFFDE28D8A477EFAF
:1008E80004F079EF04F095EF04F020EED5F002D88B
:1008F80092EF04F00500FA6EDE50FD6EDE50FE6EDB
:10090800F850FF6EFA50BCC026F0276A000E296E18
:10091800300E286EF7EC15F026501200000E00017C
:10092800766F760EB86F000EB96F62EF05F0B8C03B
:10093800D9FFB9C0DAFF640EDF64A5EF04F0A7EFB2
:1009480004F0B4EF04F0B8C0D9FFB9C0DAFFFE0E66
:10095800DE18D8A4B2EF04F0B4EF04F0C3EF04F04B
:10096800B8C026F0B9C027F09EEC12F0B8C0D9FF85
:10097800B9C0DAFFDF504BEC1AF05DEF05F0B8C0F4
:10098800D9FFB9C0DAFF640EDF64CDEF04F0CFEF12
:1009980004F0EAEF04F0B8C0D9FFB9C0DAFFDD0E01
:1009A800DF60D9EF04F0DBEF04F0EAEF04F0B8C041
:1009B80026F0B9C027F09EEC12F0B8C0D9FFB9C034
:1009C800DAFFDF50A4EC19F05DEF05F0B8C026F0AF
:1009D800B9C027F09EEC12F0FAEF04F0B8C0D9FFC6
:1009E800B9C0DAFFDF0EDF162BEF05F0B8C0D9FF6C
:1009F800B9C0DAFFDF50446E456A4550000AD8B4E2
:100A080008EF05F02BEF05F04450410AD8B4F2EF97
:100A180004F0030AD8B4F2EF04F0010AD8B4F2EFF4
:100A280004F0070AD8B4F2EF04F0250AD8B4F2EFBC
:100A380004F0030AD8B4F2EF04F0010AD8B4F2EFD4
:100A480004F0070AD8B4F2EF04F02BEF05F0B8C0B1
:100A5800D9FFB9C0DAFFDF5045EC17F0B8C0D9FFAD
:100A6800B9C0DAFFDF50F5EC16F00009D8A43FEF63
:100A780005F041EF05F050EF05F0B8C0D9FFB9C057
:100A8800DAFFDF50446E456A200E44100001886F7B
:100A98004550896F5AEF05F0B8C0D9FFB9C0DAFFE1
:100AA800DF50446E44500001886F896B8851D0EC48
:100AB80019F000EC0FF00001B84BB92BB8C0D9FF02
:100AC800B9C0DAFFDF50D8A46CEF05F06EEF05F07F
:100AD8009BEF04F0C2EF02F0BC51446E456A4550EA
:100AE800000AD8B47AEF05F0A4EF0DF044502A0AB2
:100AF800D8B42BEF01F01A0AD8B435EF04F0010A84
:100B0800D8B435EF04F0030AD8B435EF04F0010A7D
:100B1800D8B435EF04F0070AD8B435EF04F0010A69
:100B2800D8B435EF04F0030AD8B435EF04F0010A5D
:100B3800D8B435EF04F00F0AD8B435EF04F0010A41
:100B4800D8B435EF04F0A4EF0DF020EEE3F002D8AE
:100B5800B8EF05F00500FA6EDE50FD6EDE50FE6E51
:100B6800F850FF6EFA50120020EEDFF002D8CEEFF8
:100B780005F00500FA6EDE50FD6EDE50FE6EF85090
:100B8800FF6EFA50000E2D6E620E2E6E7F0E2F6EC7
:100B9800000E120020EEDFF002D8E4EF05F00500A9
:100BA800FA6EDE50FD6EDE50FE6EF850FF6EFA50A3
:100BB800000E2D6E0E0E2E6E7F0E2F6E010E120081
:100BC800060E0001BB6FA4EF0DF020EEDFF002D897
:100BD800FFEF05F00500FA6EDE50FD6EDE50FE6E8A
:100BE800F850FF6EFA50000E2D6E230E2E6E7F0EFB
:100BF8002F6E030E1200040E286E030E8CEC18F0F4
:100C0800410EF5EC16F00009D8A40DEF06F00FEF31
:100C180006F016EF06F0000E00018B6F2D0E8A6F9E
:100C28001BEF06F0000E00018B6F2B0E8A6F8A51A6
:100C380024EC1AF0080E286E030E8CEC18F0420E05
:100C4800F5EC16F00009D8A42CEF06F02EEF06F00C
:100C580035EF06F0000E00018D6F2D0E8C6F3AEF08
:100C680006F0000E00018D6F2B0E8C6F8C5124EC5A
:100C78001AF00C0E286E030E8CEC18F0430EF5ECEF
:100C880016F00009D8A44BEF06F04DEF06F054EF2C
:100C980006F0000E00018F6F2D0E8E6F59EF06F0D3
:100CA800000E00018F6F2B0E8E6F8E5124EC1AF000
:100CB800100E286E030E8CEC18F0440EF5EC16F0AE
:100CC8000009D8A46AEF06F06CEF06F073EF06F09F
:100CD800000E0001916F2D0E906F78EF06F0000E58
:100CE8000001916F2B0E906F905124EC1AF0070EB3
:100CF8000001BB6FA4EF0DF094EC1BF00001BC6F7A
:100D08001AEF07F0BC5145EC17F0040E286E030EDD
:100D18008CEC18F0410EF5EC16F00009D8A497EF0A
:100D280006F099EF06F0A0EF06F0000E0001936FB1
:100D38002D0E926FA5EF06F0000E0001936F2B0E9B
:100D4800926F925124EC1AF0A4EF0DF0BC5145ECCF
:100D580017F0080E286E030E8CEC18F0420EF5EC16
:100D680016F00009D8A4BBEF06F0BDEF06F0C4EFFB
:100D780006F0000E0001956F2D0E946FC9EF06F076
:100D8800000E0001956F2B0E946F945124EC1AF00D
:100D9800A4EF0DF0BC5145EC17F00C0E286E030EB5
:100DA8008CEC18F0430EF5EC16F00009D8A4DFEF30
:100DB80006F0E1EF06F0E8EF06F0000E0001976F8D
:100DC8002D0E966FEDEF06F0000E0001976F2B0EBB
:100DD800966F965124EC1AF0A4EF0DF0BC5145EC37
:100DE80017F0100E286E030E8CEC18F0440EF5EC7C
:100DF80016F00009D8A403EF07F005EF07F00CEF91
:100E080007F0000E0001996F2D0E986F11EF07F093
:100E1800000E0001996F2B0E986F985124EC1AF070
:100E2800A4EF0DF00A0EBB6FA4EF0DF0BC51446E99
:100E3800456A4550000AD8B424EF07F0A4EF0DF036
:100E48004450230AD8B416EF07F0090AD8B42BEF98
:100E580001F06B0AD8B486EF06F0030AD8B4AAEFFB
:100E680006F0010AD8B4CEEF06F0070AD8B4F2EFBC
:100E780006F0A4EF0DF0DEEC17F00001B26F20EEE3
:100E8800E3F002D852EF07F00500FA6EDE50FD6E6F
:100E9800DE50FE6EF850FF6EFA50120020EEDFF0C2
:100EA80002D868EF07F00500FA6EDE50FD6EDE50DE
:100EB800FE6EF850FF6EFA50000E2D6E770E2E6EF5
:100EC8007F0E2F6E000E12000E0E0001BB6FA4EFF6
:100ED8000DF094EC1BF00001BC6FC6EF07F0EAECD4
:100EE8001CF00009D8B47BEF07F07DEF07F0A4EF02
:100EF8000DF00001BC5145EC17F00001BC51F5ECB8
:100F080016F00009D8A48BEF07F08DEF07F098EFE3
:100F180007F0200EBCC044F0456A441000019A6FE7
:100F280045509B6F9CEF07F0BCC09AF000019B6B8B
:100F38009A51D0EC19F0C4EF02F0EDEC18F0C4EFC0
:100F480002F015EC1DF0C4EF02F096EC1DF0020A59
:100F5800D8A4B1EF07F0B3EF07F0B5EF07F06CEFE7
:100F680001F092EC17F0C4EF02F04A0E0001BB6FDB
:100F7800A4EF0DF0290EBB6FA4EF0DF05A0EBB6F56
:100F8800A4EF0DF0BC51446E456A4550000AD8B430
:100F9800D0EF07F0A4EF0DF04450230AD8B4B9EF0E
:100FA80007F0090AD8B4A9EF07F01A0AD8B4BEEFB7
:100FB80007F0040AD8B4A5EF07F0020AD8B4A1EFE5
:100FC80007F00F0AD8B4C2EF07F0780AD8B473EF65
:100FD80007F0030AD8B473EF07F0010AD8B473EF27
:100FE80007F0070AD8B473EF07F0A4EF0DF000EC90
:100FF8000FF068EF07F020EEDFF002D815EF08F0E9
:101008000500FA6EDE50FD6EDE50FE6EF850FF6E83
:10101800FA50000E2D6EF50E2E6E7F0E2F6E030EFB
:10102800120020EEE1F002D832EF08F00500FA6E67
:10103800DE50FD6EDE50FE6EF850FF6EFA50010E67
:10104800316E96EC1DF0446EFE0E4424326E336A07
:10105800FF0E3322020E346E030E120020EEE1F072
:1010680002D84FEF08F00500FA6EDE50FD6EDE5034
:10107800FE6EF850FF6EFA50040E316E94EC1DF0BF
:10108800446EFE0E4424326E336AFF0E3322020E83
:10109800346E030E12000B0E0001BB6FA4EF0DF0AF
:1010A800460EBB6F010EAF6FA4EF0DF0030EAF1924
:1010B800D8A461EF08F063EF08F0FDEF08F0020E26
:1010C800B319D8B46AEF08F06CEF08F0FDEF08F038
:1010D80020EEDFF002D882EF08F00500FA6EDE504D
:1010E800FD6EDE50FE6EF850FF6EFA50000E2D6E4B
:1010F800A50E2E6E7E0E2F6E000E1200FF0E3F6E96
:10110800010E72EC10F0000E3F6E090E72EC10F03A
:10111800010E3F6E0E0E72EC10F020EEDFF002D8DA
:10112800A7EF08F00500FA6EDE50FD6EDE50FE6E89
:10113800F850FF6EFA50000E2D6E660E2E6E7E0E63
:101148002F6E020E120020EEE1F002D8C4EF08F074
:101158000500FA6EDE50FD6EDE50FE6EF850FF6E32
:10116800FA50040E316E96EC1DF0446EFE0E4424C7
:10117800326E336AFF0E3322020E346E020E1200F4
:1011880020EEE1F002D8E1EF08F00500FA6EDE503B
:10119800FD6EDE50FE6EF850FF6EFA50010E316E95
:1011A80092EC1DF0446EFF0E4424326E336AFF0E3B
:1011B8003322020E346E020E120020EEE1F002D845
:1011C800FDEF08F00500FA6EDE50FD6EDE50FE6E93
:1011D800F850FF6EFA500B0E316E76EC1DF0010ED2
:1011E8002624326E000E2720336E050E346E020E52
:1011F80012000001AF51D8A404EF09F006EF09F07E
:1012080017EF09F0100EBB6F20EEE3F002D817EFCE
:1012180009F00500FA6EDE50FD6EDE50FE6EF850E5
:10122800FF6EFA50120094EC1BF00001BC6F36EF11
:1012380009F0010EB36FA4EF0DF0020EB36FA4EF27
:101248000DF0000EB36FA4EF0DF0020EB319D8A481
:1012580030EF09F032EF09F0A4EF0DF0030EB36F91
:10126800A4EF0DF0BC51446E456A4550000AD8B44D
:1012780040EF09F0A4EF0DF04450230AD8B41DEF55
:1012880009F0130AD8B425EF09F0010AD8B429EFF8
:1012980009F0040AD8B421EF09F0A4EF0DF094EC9A
:1012A8001BF00001BC6F2F0EBC655DEF09F05FEF0E
:1012B80009F080EF09F03A0EBC6165EF09F067EFBD
:1012C80009F080EF09F0B40E2C6E000E2D6EBC51A3
:1012D80093EC1AF00001B55109E1790EB45DD8A07C
:1012E80078EF09F07AEF09F07EEF09F0000EB56F9C
:1012F800780EB46F290EBB6F2A0EBC19D8A487EFDD
:1013080009F089EF09F092EF09F0B40E2D6E000E86
:101318002E6EF9EC1BF0290E0001BB6F230EBC19D1
:10132800D8A499EF09F09BEF09F0A4EF0DF02A0E6D
:10133800BB6FA4EF0DF020EEDFF002D8B5EF09F097
:101348000500FA6EDE50FD6EDE50FE6EF850FF6E40
:10135800FA50000E2D6EE00E2E6E7F0E2F6E020ECE
:10136800120020EEE1F002D8CDEF09F00500FA6E88
:10137800DE50FD6EDE50FE6EF850FF6EFA500F0E16
:10138800316EB4C032F0B5C033F0030E346E020EC5
:101398001200280E0001BB6FA4EF0DF0B451A4ECAD
:1013A80019F020EEE3F002D8E4EF09F00500FA6E38
:1013B800DE50FD6EDE50FE6EF850FF6EFA501200E1
:1013C800C4EF02F094EC1BF00001BC6F2F0EBC655B
:1013D800F0EF09F0F2EF09F024EF0AF03A0EBC61E1
:1013E800F8EF09F0FAEF09F024EF0AF0B00E2C6ECE
:1013F800000E2D6EBC5193EC1AF0110E0001B05D79
:10140800270EB159D8A00BEF0AF00DEF0AF011EF33
:101418000AF0270EB16F100EB06F350E0001BB6FCA
:10142800A4EF0DF0C2EF02F0360EBB6FA4EF0DF083
:10143800B00E2D6E000E2E6EF9EC1BF011EF0AF0B7
:10144800BC51446E456A4550000AD8B42EEF0AF0E4
:10145800A4EF0DF04450230AD8B418EF0AF0090A93
:10146800D8B41CEF0AF06B0AD8B416EF0AF0030AD6
:10147800D8B4C2EF02F0010AD8B4C2EF02F0070AEA
:10148800D8B4C2EF02F0A4EF0DF020EEE3F002D8DA
:1014980058EF0AF00500FA6EDE50FD6EDE50FE6E63
:1014A800F850FF6EFA50120020EEDFF002D86EEF0F
:1014B8000AF00500FA6EDE50FD6EDE50FE6EF85042
:1014C800FF6EFA50000E2D6E510E2E6E7E0E2F6E90
:1014D800000E120020EEE1F002D886EF0AF00500B7
:1014E800FA6EDE50FD6EDE50FE6EF850FF6EFA505A
:1014F8000F0E316EB0C032F0B1C033F0050E346E4D
:10150800000E120020EEDFF002D89CEF0AF0050072
:10151800FA6EDE50FD6EDE50FE6EF850FF6EFA5029
:10152800000E2D6E8C0E2E6E7F0E2F6E020E120088
:10153800340E0001BB6FA4EF0DF00A0E2C6EB2C082
:101548002DF00A0EA1EC1CF002D8BFEF0AF005003E
:101558000001FA6ED151FD6ED251FE6EF850FF6E49
:10156800FA507BEC1DF0020E26242C6E000E27206C
:101578002D6E0B0E1200130E2D6E7E0E2E6E20EEAB
:10158800DDF002D8D2EF0AF00500FA6EDE50FD6EEB
:10159800DE50FE6EF850FF6EFA50120094EC1BF00D
:1015A8000001BC6FE0EF0AF04B0EBB6FA4EF0DF02B
:1015B80085EC1DF011EF0AF0BC51446E456A4550A8
:1015C800000AD8B4EAEF0AF0A4EF0DF04450230A59
:1015D800D8B4D8EF0AF0090AD8B4DCEF0AF0A4EFBF
:1015E8000DF020EEE3F002D804EF0BF00500FA6EE0
:1015F800DE50FD6EDE50FE6EF850FF6EFA5012009F
:10160800C50E2D6E7D0E2E6E20EEDDF002D817EF82
:101618000BF00500FA6EDE50FD6EDE50FE6EF850DF
:10162800FF6EFA5012004C0E0001BB6F94EC1BF0D9
:101638000001BC6F66EF0BF0BCC026F0276A000EF5
:10164800296E300E286EF7EC15F026502C6EB2C0BD
:101658002DF00A0EA1EC1CF002D850EF0BF005009B
:101668000001FA6ED151FD6ED251FE6EF850FF6E38
:10167800FA507BEC1DF0020E26242C6E000E27205B
:101688002D6EBCC026F0276A000E296E300E286E1B
:10169800F7EC15F0265012004D0E0001BB6FA4EFB9
:1016A8000DF020EEE3F002D864EF0BF00500FA6EBF
:1016B800DE50FD6EDE50FE6EF850FF6EFA501200DE
:1016C800B9EF07F0BC51446E456A4550000AD8B4DA
:1016D80070EF0BF0A4EF0DF044502A0AD8B455EF80
:1016E8000BF01A0AD8B420EF0BF0010AD8B420EF97
:1016F8000BF0030AD8B420EF0BF0010AD8B420EF9E
:101708000BF0070AD8B420EF0BF0010AD8B420EF89
:101718000BF0030AD8B420EF0BF0010AD8B420EF7D
:101728000BF00F0AD8B420EF0BF0010AD8B420EF61
:101738000BF0A4EF0DF020EEE3F002D8AEEF0BF0C3
:101748000500FA6EDE50FD6EDE50FE6EF850FF6E3C
:10175800FA501200000E0001A96F030EA965B7EF39
:101768000BF0B9EF0BF0BBEF0BF0EAEF0BF0000E4C
:10177800AA6F130EAA65C3EF0BF0C5EF0BF0C7EF06
:101788000BF0E7EF0BF020EEDFF002D8DDEF0BF007
:101798000500FA6EDE50FD6EDE50FE6EF850FF6EEC
:1017A800FA50AAC02DF0FD0E2E6E7F0E2F6EA95195
:1017B8001200000E276E0A0E266E27EC1CF00001A0
:1017C800AA2BBDEF0BF0A92BB1EF0BF0000EAB6FFE
:1017D800030EAB65F2EF0BF0F4EF0BF0F6EF0BF046
:1017E80025EF0CF0000EAC6F130EAC65FEEF0BF09E
:1017F80000EF0CF002EF0CF022EF0CF020EEDFF01F
:1018080002D818EF0CF00500FA6EDE50FD6EDE50BF
:10181800FE6EF850FF6EFA50ACC02DF0640E2E6EBE
:101828007E0E2F6EAB511200000E276E0A0E266E2A
:1018380027EC1CF00001AC2BF8EF0BF0AB2BECEF16
:101848000BF020EEDFF002D83BEF0CF00500FA6E4B
:10185800DE50FD6EDE50FE6EF850FF6EFA50000E40
:101868002D6EF90E2E6E7E0E2F6E010E120020EEDA
:10187800DFF002D851EF0CF00500FA6EDE50FD6E75
:10188800DE50FE6EF850FF6EFA50000E2D6E7B0E85
:101898002E6E7E0E2F6E020E1200E80E2C6E030EB8
:1018A8002D6E000E2E6E000E2F6E0BEC1DF04E0EE0
:1018B8000001BB6FA4EF0DF03DEC1DF02650271082
:1018C80028102910D8A46BEF0CF06DEF0CF0A4EFE2
:1018D8000DF011EF0AF020EEDFF002D885EF0CF0E2
:1018E8000500FA6EDE50FD6EDE50FE6EF850FF6E9B
:1018F800FA50000E2D6EB60E2E6E7F0E2F6E020E53
:10190800120020EEE1F002D89DEF0CF00500FA6E0F
:10191800DE50FD6EDE50FE6EF850FF6EFA500F0E70
:10192800316EB4C032F0B5C033F0030E346E020E1F
:1019380012005B0E0001BB6FA4EF0DF094EC1BF0DE
:101948000001BC6F2F0EBC65ACEF0CF0AEEF0CF0D5
:10195800CFEF0CF03A0EBC61B4EF0CF0B6EF0CF020
:10196800CFEF0CF0B40E2C6E000E2D6EBC5193EC24
:101978001AF00001B55109E1650EB45DD8A0C7EFB2
:101988000CF0C9EF0CF0CDEF0CF0000EB56F640E43
:10199800B46F5A0EBB6F2A0EBC19D8A4D6EF0CF040
:1019A800D8EF0CF0E1EF0CF0B40E2D6E000E2E6E99
:1019B800F9EC1BF05A0E0001BB6F230EBC19D8A41A
:1019C800E8EF0CF0EAEF0CF0A4EF0DF05C0EBB6F43
:1019D800A4EF0DF0B4514BEC1AF0D5EF09F0B0C0FC
:1019E80026F0B1C027F080EC1DF01E0E0001BB6F81
:1019F8001DEF09F00001BB51446E456A4550000ACD
:101A0800D8B409EF0DF0A4EF0DF04450000AD8B493
:101A18004AEF00F0010AD8B4C4EF00F0030AD8B4C2
:101A28001EEF01F0010AD8B4A9EF05F0050AD8B4F1
:101A3800E9EF05F0010AD8B480EF06F00F0AD8B430
:101A480030EF01F0010AD8B454EF01F0030AD8B41A
:101A58003FEF07F0010AD8B46DEF07F0050AD8B4D4
:101A6800FFEF07F01E0AD8B4FBEF07F00E0AD8B450
:101A780054EF08F0360AD8B453EF09F0010AD8B485
:101A88009FEF09F0030AD8B4D2EF09F01E0AD8B4C0
:101A9800E6EF09F0010AD8B449EF0AF0030AD8B40E
:101AA800F3EF0CF0700AD8B45AEF08F0010AD8B472
:101AB80066EF01F00F0AD8B40AEF04F0010AD8B4AF
:101AC8002FEF04F0030AD8B4A1EF0AF0010AD8B442
:101AD800F5EF0AF0070AD8B41AEF0BF0010AD8B4E8
:101AE8009FEF0BF0030AD8B460EF0CF01E0AD8B4CD
:101AF800C9EF02F0010AD8B4ECEF02F0030AD8B437
:101B0800FEEF02F0060AD8B425EF03F0010AD8B4B4
:101B18006CEF03F0030AD8B4FBEF03F00C0AD8B457
:101B28006FEF0CF0010AD8B4A2EF0CF0070AD8B492
:101B3800EEEF0CF0380AD8B49BEF01F0A4EF0DF0EB
:101B480078EC19F0CCEF0EF08CEC1DF06CEC1DF07D
:101B5800020E0001AF6FFEEF0CF092EC1DF04FEC9F
:101B68001DF00001BA6FB305D8B4BDEF0DF0BFEF9B
:101B78000DF0D0EF0DF0030EB319D8B4C6EF0DF089
:101B8800C8EF0DF0D0EF0DF0B351D8A4CEEF0DF0A3
:101B9800D0EF0DF0FEEF0CF0030EAF6FFEEF0CF080
:101BA800640EBA65DAEF0DF0DCEF0DF0E5EF0DF03D
:101BB800FE0EBA19D8A4E3EF0DF0E5EF0DF018EF1B
:101BC8000EF0BA0E266E000E276E9EEC12F0000183
:101BD800BA51266E276A286A296AFF0E2A6E0F0EE6
:101BE8002B6E000E2C6E000E2D6E57EC18F026C0D2
:101BF80032F027C033F028C034F029C035F0640E25
:101C0800366E000E376E000E386E000E396E3EECE2
:101C180013F032C040F033C041F0B2EC1CF0060EB5
:101C28000001AF6FFEEF0CF0640EBA651EEF0EF008
:101C380020EF0EF043EF0EF0DD0EBA6126EF0EF046
:101C480028EF0EF043EF0EF0640EBA5FBAC026F02C
:101C5800276A030E296EE80E286E7CEC1CF026C05D
:101C68002CF027C02DF0000E2DBEFF0E2E6E2F6E0D
:101C78000BEC1DF0040E0001AF6FFEEF0CF0BA0E76
:101C8800266E000E276E9EEC12F0AE0E266E000E2B
:101C9800276E0001BA5124EC15F0050E0001AF6F54
:101CA800FEEF0CF03DEC1DF02650271028102910EF
:101CB800D8A461EF0EF063EF0EF0FEEF0CF013EF17
:101CC8000EF0AD0E266E000E276EBA513CEC14F0E5
:101CD8000009D8B472EF0EF074EF0EF0FEEF0CF0BE
:101CE80013EF0EF0030EB319D8A47DEF0EF07FEFBB
:101CF8000EF081EF0EF0020EB36F070EAF6FFEEF1E
:101D08000CF0F5EC1CF092EC1DF0446E96EC1DF016
:101D1800445CD8B092EF0EF094EF0EF096EF0EF010
:101D2800ACEF0DF08FEC1DF0080E0001AF6FFEEF69
:101D38000CF0B351D8B4A3EF0EF0A5EF0EF0C7EF37
:101D48000EF076EC1DF026C044F027C045F0C3EC39
:101D58001CF02650445C27504558D8A0B6EF0EF02A
:101D6800B8EF0EF0C3EF0EF0C3EC1CF026502710AE
:101D7800D8A4C1EF0EF0C3EF0EF0C7EF0EF08CEC55
:101D88001DF0ACEF0DF0000E0001AF6FFEEF0CF090
:101D98000001AF51446E456A4550000AD8B4D7EFE8
:101DA8000EF0FEEF0CF04450000AD8B4FEEF0CF031
:101DB800010AD8B4A8EF0DF0030AD8B4B1EF0DF0BA
:101DC800010AD8B4D4EF0DF0070AD8B456EF0EF0D4
:101DD800010AD8B465EF0EF0030AD8B476EF0EF016
:101DE800010AD8B485EF0EF00F0AD8B49DEF0EF0B3
:101DF800FEEF0CF007EF00F0000E326E000E356EAD
:101E0800000E346E57C033F0000E286E000E8CECB6
:101E180018F03250D8B413EF0FF015EF0FF01BEF96
:101E28000FF0200E24EC1AF0342A69EF10F0140E8B
:101E38003324D96EDA6A000EDA22DF50366E332A7E
:101E48003650D8A42AEF0FF02CEF0FF030EF0FF038
:101E5800010E326E69EF10F0650E366036EF0FF046
:101E680038EF0FF088EF0FF036C035F0630E3564A9
:101E780040EF0FF042EF0FF05DEF0FF0310E24EC62
:101E88001AF0342A35C026F0276A000E296E640E2F
:101E9800286EF7EC15F02650356E0A0E356057EFB0
:101EA8000FF059EF0FF05DEF0FF0300E24EC1AF041
:101EB800342A090E356463EF0FF065EF0FF07EEFFB
:101EC8000FF035C026F0276A000E296E0A0E286E1C
:101ED80095EC15F02650300F24EC1AF0342A35C052
:101EE80026F0276A000E296E0A0E286EF7EC15F008
:101EF8002650356E3550300F24EC1AF0342A250E52
:101F080024EC1AF018EF0FF0640E36648EEF0FF021
:101F180090EF0FF0EEEF0FF0DD0E366096EF0FF05A
:101F280098EF0FF0EEEF0FF0360E266E000E276ECC
:101F38009EEC12F036C035F0630E3564A6EF0FF054
:101F4800A8EF0FF0C3EF0FF0310E24EC1AF0342A8B
:101F580035C026F0276A000E296E640E286EF7EC4D
:101F680015F02650356E0A0E3560BDEF0FF0BFEF45
:101F78000FF0C3EF0FF0300E24EC1AF0342A090EDC
:101F88003564C9EF0FF0CBEF0FF0E4EF0FF035C079
:101F980026F0276A000E296E0A0E286E95EC15F0B9
:101FA8002650300F24EC1AF0342A35C026F0276A60
:101FB800000E296E0A0E286EF7EC15F02650356EC5
:101FC8003550300F24EC1AF0342A730E24EC1AF032
:101FD80018EF0FF0DC0E3664F4EF0FF0F6EF0FF0A9
:101FE8004EEF10F0FE0E3660FCEF0FF0FEEF0FF034
:101FF8004EEF10F0360E266E000E276E9EEC12F095
:1020080021EF10F03650DF0B24EC1AF0342A36BAE0
:1020180010EF10F012EF10F018EF10F0000E316E04
:102028002B0E306E1CEF10F0000E316E2D0E306E40
:10203800305024EC1AF018EF0FF036502E6E2F6A3D
:102048002F50000AD8B42BEF10F069EF10F02E5083
:10205800410AD8B406EF10F0030AD8B406EF10F01E
:10206800010AD8B406EF10F0070AD8B406EF10F04A
:10207800250AD8B406EF10F0030AD8B406EF10F01A
:10208800010AD8B406EF10F0070AD8B406EF10F02A
:1020980069EF10F0FE0E3618D8A455EF10F057EF80
:1020A80010F069EF10F0360E266E000E276E9EECCB
:1020B80012F036C035F03550300F24EC1AF0342ABF
:1020C800250E24EC1AF018EF0FF0140E34646FEF9D
:1020D80010F071EF10F00DEF0FF01200426E3F504C
:1020E80046EC1DF0436E4350D8B47DEF10F07FEFFF
:1020F80010F0A8EF10F0650E436085EF10F087EF41
:1021080010F0A8EF10F043C02EF02F6A3DEC1BF042
:10211800030AD8A492EF10F094EF10F095EF10F0A6
:10212800420642C031F043C032F0336A43C02EF059
:102138002F6A3DEC1BF0346E000E37EC11F0250EC3
:1021480024EC1AF036EF11F0640E4364AEEF10F091
:10215800B0EF10F0DFEF10F0DD0E4360B6EF10F0D7
:10216800B8EF10F0DFEF10F0430E266E000E276E6A
:102178009EEC12F043C02EF02F6A3DEC1BF0030AD0
:10218800D8A4C9EF10F0CBEF10F0CCEF10F0420656
:1021980042C031F043C032F0336A43C02EF02F6A98
:1021A8003DEC1BF0346E000E37EC11F0730E24EC8E
:1021B8001AF036EF11F0DC0E4364E5EF10F0E7EFAC
:1021C80010F014EF11F0FE0E4360EDEF10F0EFEF9A
:1021D80010F014EF11F0430E266E000E276E9EECE1
:1021E80012F042C028F0000E8CEC18F04350DF0BC0
:1021F80024EC1AF043BA03EF11F005EF11F00BEFDE
:1022080011F0000E416E2B0E406E0FEF11F0000E14
:10221800416E2D0E406E405024EC1AF036EF11F04E
:10222800FE0E4318D8A41BEF11F01DEF11F036EF86
:1022380011F0430E266E000E276E9EEC12F042C07F
:1022480031F043C032F0336A43C02EF02F6A3DECC0
:102258001BF0346E000E37EC11F0250E24EC1AF04A
:1022680036EF11F012003A6E33BE3DEF11F040EF39
:1022780011F0010E41EF11F0000E3C6E3C50D8B445
:1022880048EF11F04AEF11F04EEF11F0326C331EA7
:10229800D8B0332A31C028F03A508CEC18F0270E09
:1022A8003E6E100E3D6E050E3B6E7DEF11F032C096
:1022B80026F033C027F03DC028F03EC029F095EC49
:1022C80015F026502710D8A46CEF11F06EEF11F01E
:1022D80090EF11F03B063DC026F03EC027F0000EFF
:1022E800296E0A0E286E95EC15F026C03DF027C021
:1022F8003EF03EBE8AEF11F03E5006E13D04D8B0F4
:1023080088EF11F08AEF11F05BEF11F090EF11F008
:10231800200E24EC1AF034063450356E366A3C50E0
:102328003BC037F0386A3726000E38223550375C04
:102338003850800A396E3650800A3958D8B0A7EF1D
:1023480011F0A9EF11F0B1EF11F0020E3460AFEF08
:1023580011F0B1EF11F08CEF11F03C50D8B4B7EF99
:1023680011F0B9EF11F0BCEF11F02D0E24EC1AF0BA
:1023780032C026F033C027F03DC028F03EC029F017
:1023880095EC15F02650300F24EC1AF032C026F0E8
:1023980033C027F03DC028F03EC029F0F7EC15F017
:1023A80026C032F027C033F03DC026F03EC027F0EB
:1023B800000E296E0A0E286E95EC15F026C03DF029
:1023C80027C03EF03EBEF3EF11F03E5006E13D045B
:1023D800D8B0F1EF11F0F3EF11F0BCEF11F01200EB
:1023E8002A6E84EF12F026C0D9FF27C0DAFFDF502B
:1023F800D8A401EF12F003EF12F09DEF12F026C0FF
:10240800D9FF27C0DAFFFE0EDF6E9DEF12F026C05F
:10241800D9FF27C0DAFF640EDF269DEF12F026C031
:10242800D9FF27C0DAFFDD0EDF6E9DEF12F026C060
:10243800D9FF27C0DAFFDE0EDF6E9DEF12F026C04F
:10244800D9FF27C0DAFFDF0EDF6E9DEF12F026C03E
:10245800D9FF27C0DAFFE00EDF6E9DEF12F026C02D
:10246800D9FF27C0DAFFE10EDF6E9DEF12F026C01C
:10247800D9FF27C0DAFFE20EDF6E9DEF12F026C00B
:10248800D9FF27C0DAFFE30EDF6E9DEF12F026C0FA
:10249800D9FF27C0DAFFE40EDF6E9DEF12F026C0E9
:1024A800D9FF27C0DAFFDF50286E296A2950000AB1
:1024B800D8B461EF12F09DEF12F02850410AD8B459
:1024C80013EF12F0030AD8B423EF12F0010AD8B4BC
:1024D80033EF12F0070AD8B443EF12F0250AD8B444
:1024E8001BEF12F0030AD8B42BEF12F0010AD8B48C
:1024F8003BEF12F0070AD8B44BEF12F09DEF12F041
:102508002A50286E296A2950000AD8B48EEF12F092
:102518009DEF12F02850610AD8B453EF12F0110A57
:10252800D8B4F7EF11F0040AD8B40BEF12F09DEF0E
:1025380012F0120026C0D9FF27C0DAFF650EDF604F
:10254800A8EF12F0AAEF12F0ACEF12F03DEF13F083
:1025580026C0D9FF27C0DAFFDD0EDF60B6EF12F024
:10256800B8EF12F008EF13F026C0D9FF27C0DAFF42
:10257800640EDF5E3DEF13F026C0D9FF27C0DAFFF7
:10258800410EDF6E3DEF13F026C0D9FF27C0DAFFFA
:10259800610EDF6E3DEF13F026C0D9FF27C0DAFFCA
:1025A800420EDF6E3DEF13F026C0D9FF27C0DAFFD9
:1025B800620EDF6E3DEF13F026C0D9FF27C0DAFFA9
:1025C800430EDF6E3DEF13F026C0D9FF27C0DAFFB8
:1025D800630EDF6E3DEF13F026C0D9FF27C0DAFF88
:1025E800440EDF6E3DEF13F026C0D9FF27C0DAFF97
:1025F800640EDF6E3DEF13F026C0D9FF27C0DAFF67
:10260800000EDF6E3DEF13F026C0D9FF27C0DAFFBA
:10261800DF50286E296A2950000AD8B416EF13F043
:102628003DEF13F02850DD0AD8B4C0EF12F0030ACA
:10263800D8B4C8EF12F0010AD8B4D0EF12F03F0AAC
:10264800D8B4D8EF12F0010AD8B4E0EF12F0030AB8
:10265800D8B4E8EF12F0010AD8B4F0EF12F0070A84
:10266800D8B4F8EF12F01A0AD8B400EF13F03DEF1F
:1026780013F01200000E3B6E39BE47EF13F045EF22
:1026880013F051EF13F0391E381E371E366C000E4A
:10269800372238223922010E3B6E35BE58EF13F02F
:1026A80056EF13F062EF13F0351E341E331E326CF2
:1026B800000E332234223522010E3B1A000E3C6EE6
:1026C800000E3D6E000E3E6E000E3F6E3650371007
:1026D80038103910D8B473EF13F075EF13F0ABEF6F
:1026E80013F0010E3A6E7FEF13F0D8903636373676
:1026F800383639363A2A39AE84EF13F086EF13F0BC
:1027080079EF13F0D8903C363D363E363F3636509A
:10271800325C375033583850345839503558D8A06F
:1027280098EF13F09AEF13F0A3EF13F03650325EE0
:102738003750335A3850345A3950355A3C80D8902B
:1027480039323832373236323A2E86EF13F03B5070
:10275800D8B4B1EF13F0B3EF13F0BBEF13F03F1E93
:102768003E1E3D1E3C6C000E3D223E223F223CC0D8
:1027780032F03DC033F03EC034F03FC035F01200B7
:10278800276E8A9C27C026F0263A0F0E2616264664
:1027980026468A502618C30B26188A6E8A9E270456
:1027A800D8B4D9EF13F0DBEF13F0E4EF13F0020E17
:1027B8002718D8A4E2EF13F0E4EF13F0EDEF13F0CD
:1027C8000D0E266EFC0EE82EFED7262EFCD7F1EF56
:1027D80013F0420EE82EFED700D08A8E2750F00B59
:1027E800200AD8A4FAEF13F0FCEF13F00FEF14F05F
:1027F8008A9C27C026F0263A0F0E2616264626461D
:102808008A502618C30B26188A6E8A9E420EE82E16
:10281800FED700D08A8E8A9C27C026F00F0E261677
:10282800264626468A502618C30B26188A6E8A9E84
:102838002704D8B422EF14F024EF14F02DEF14F08D
:10284800020E2718D8A42BEF14F02DEF14F036EF52
:1028580014F00D0E266EFC0EE82EFED7262EFCD7A1
:102868003AEF14F0420EE82EFED700D08A8E1200FE
:102878002A6E82EF14F026C0D9FF27C0DAFFDF5096
:10288800020BAFEF14F026C0D9FF27C0DAFFDF50E4
:10289800010BAFEF14F026C0D9FF27C0DAFFDF50D5
:1028A800080BAFEF14F026C0D9FF27C0DAFFDF50BE
:1028B800040BAFEF14F026C0D9FF27C0DAFFDF50B2
:1028C800200BAFEF14F026C0D9FF27C0DAFFDF5086
:1028D800100BAFEF14F026C0D9FF27C0DAFFDF5086
:1028E800800BAFEF14F026C0D9FF27C0DAFFDF5006
:1028F800400BAFEF14F0000EAFEF14F02A50286E23
:10290800296A2950000AD8B48CEF14F07FEF14F02C
:102918002850410AD8B43FEF14F0030AD8B44FEF57
:1029280014F0010AD8B45FEF14F0070AD8B46FEFB7
:1029380014F0250AD8B447EF14F0030AD8B457EFB7
:1029480014F0010AD8B467EF14F0070AD8B477EF87
:1029580014F07FEF14F01200000E326E5804336E3C
:10296800020E3360BAEF14F0BCEF14F0BEEF14F0AF
:1029780023EF15F0140E3324D96EDA6A000EDA222A
:10298800DF50346E650E3460CCEF14F0CEEF14F0E7
:10299800D6EF14F034C02EF02F6A3DEC1BF0316EE8
:1029A80031283226640E3464DCEF14F0DEEF14F0C4
:1029B800F1EF14F0DD0E3460E4EF14F0E6EF14F0FC
:1029C800F1EF14F09C0E34242E6E2F6AFF0E2F2286
:1029D8003DEC1BF0316E31283226DC0E3464F7EF03
:1029E80014F0F9EF14F003EF15F0FE0E3460FFEF6A
:1029F80014F001EF15F003EF15F0020E3226FE0E6B
:102A08003418D8A40AEF15F00CEF15F014EF15F0F0
:102A180034C02EF02F6A3DEC1BF0316E312832267F
:102A2800140E32641AEF15F01CEF15F01EEF15F0B6
:102A380023EF15F033C057F03306B4EF14F012004B
:102A48002A6E67EF15F026C0D9FF27C0DAFF000EFF
:102A5800DB8094EF15F026C0D9FF27C0DAFFFE0E01
:102A6800DF1694EF15F026C0D9FF27C0DAFF000E55
:102A7800DB8294EF15F026C0D9FF27C0DAFFFD0EE0
:102A8800DF1694EF15F026C0D9FF27C0DAFF000E35
:102A9800DB8494EF15F026C0D9FF27C0DAFFFB0EC0
:102AA800DF1694EF15F026C0D9FF27C0DAFF000E15
:102AB800DB8694EF15F026C0D9FF27C0DAFFF70EA2
:102AC800DF1694EF15F02A50286E296A2950000A5B
:102AD800D8B471EF15F094EF15F02850410AD8B426
:102AE80027EF15F0030AD8B437EF15F0010AD8B468
:102AF80047EF15F0070AD8B457EF15F0250AD8B4F0
:102B08002FEF15F0030AD8B43FEF15F0010AD8B437
:102B18004FEF15F0070AD8B45FEF15F094EF15F0F2
:102B28001200000E2B6E29BE9EEF15F09CEF15F0DB
:102B3800A4EF15F0286C291ED8B0292A010E2B6E97
:102B480027BEABEF15F0A9EF15F0B1EF15F0266C25
:102B5800271ED8B0272A010E2B1A000E2D6E000E44
:102B68002C6E28502910D8B4BCEF15F0BEEF15F024
:102B7800E6EF15F0010E2A6EC6EF15F0D89028364C
:102B880029362A2A29AECBEF15F0CDEF15F0C2EF82
:102B980015F0D8902C362D362850265C2950275809
:102BA800D8A0D9EF15F0DBEF15F0E0EF15F02850BD
:102BB800265E2950275A2C80D890293228322A2E6E
:102BC800CDEF15F02B50D8B4ECEF15F0EEEF15F073
:102BD800F2EF15F02C6C2D1ED8B02D2A2CC026F043
:102BE8002DC027F01200000E2B6E27BE00EF16F046
:102BF800FEEF15F006EF16F0266C271ED8B0272A30
:102C0800010E2B6E29BE0DEF16F00BEF16F011EF2B
:102C180016F0286C291ED8B0292A28502910D8B4B3
:102C280018EF16F01AEF16F03EEF16F0010E2A6EA6
:102C380022EF16F0D890283629362A2A29AE27EF0F
:102C480016F029EF16F01EEF16F02850265C2950D2
:102C58002758D8A032EF16F034EF16F038EF16F0F8
:102C68002850265E2950275AD890293228322A2EF1
:102C780029EF16F02B50D8B444EF16F046EF16F0B3
:102C88004AEF16F0266C271ED8B0272A26C026F051
:102C980027C027F01200000E286E000E296E030EC2
:102CA800296459EF16F05BEF16F05DEF16F0A1EF0F
:102CB80016F029C026F0010E276E262A66EF16F0B8
:102CC800D8902736262E64EF16F02750836E000E14
:102CD8002A6E2AC026F0100E276E262A76EF16F0E6
:102CE800D8902736262E74EF16F027508314000943
:102CF800D8B481EF16F083EF16F095EF16F029504F
:102D0800040D460E266E000E276EF3502626F4504C
:102D180027222A502624D96E000E2720DA6EDF508B
:102D2800286E2A2A030E2A649CEF16F09EEF16F0EE
:102D38006DEF16F0292A53EF16F028501200000EF6
:102D48002E6E000E2F6E000E306E000E316E2A5061
:102D58002B102C102D10D8B4B4EF16F0B6EF16F0D7
:102D6800ECEF16F0010E326EC0EF16F0D8902A364E
:102D78002B362C362D36322A2DAEC5EF16F0C7EF7E
:102D880016F0BAEF16F0D8902E362F363036313688
:102D98002A50265C2B5027582C5028582D5029583B
:102DA800D8A0D9EF16F0DBEF16F0E4EF16F02A50B2
:102DB800265E2B50275A2C50285A2D50295A2E80DF
:102DC800D8902D322C322B322A32322EC7EF16F001
:102DD8002EC026F02FC027F030C028F031C029F0CF
:102DE8001200286E27EF17F013B0FDEF16F000EF72
:102DF80017F0010E01EF17F0000E44EF17F013B2B1
:102E080008EF17F00BEF17F0010E0CEF17F0000E9C
:102E180044EF17F013B413EF17F016EF17F0010E85
:102E280017EF17F0000E44EF17F013B61EEF17F068
:102E380021EF17F0010E22EF17F0000E44EF17F004
:102E4800000E44EF17F02850266E276A2750000A14
:102E5800D8B431EF17F024EF17F02650410AD8B450
:102E6800F8EF16F0030AD8B403EF17F0010AD8B444
:102E78000EEF17F0070AD8B419EF17F024EF17F080
:102E88001200286E74EF17F013A04DEF17F050EFF3
:102E980017F0138051EF17F0139091EF17F013A26A
:102EA80058EF17F05BEF17F013825CEF17F01392EF
:102EB80091EF17F013A463EF17F066EF17F0138480
:102EC80067EF17F0139491EF17F013A66EEF17F052
:102ED80071EF17F0138672EF17F0139691EF17F052
:102EE8002850266E276A2750000AD8B47EEF17F0BC
:102EF80091EF17F02650410AD8B448EF17F0030AAB
:102F0800D8B453EF17F0010AD8B45EEF17F0070AE8
:102F1800D8B469EF17F091EF17F012005850D8B4F1
:102F280098EF17F09AEF17F0DBEF17F0020E5864DE
:102F3800A0EF17F0A2EF17F0A3EF17F05806140E42
:102F48005824D96EDA6A000EDA22DC0EDF64AFEF9D
:102F580017F0B1EF17F0D3EF17F0140E5824266EC0
:102F6800276A000E27229EEC12F0140E5824D96E00
:102F7800DA6A000EDA22DF50DF0B45EC17F0140E88
:102F88005824D96EDA6A000EDA22DF50356E366AB6
:102F980035C026F036C027F0610EF4EC11F0140E9F
:102FA8005824D96EDA6A000EDA22000EDF6EB0EC11
:102FB80014F01200000E296E000E2A6E000E2B6E01
:102FC800000E2C6E410EF5EC16F0296E420EF5EC53
:102FD80016F02A6E430EF5EC16F02B6E440EF5EC47
:102FE80016F02C6E290E2D6E000E2E6E000E2F6E12
:102FF800080E306E13EF18F02DC0D9FF2EC0DAFF7F
:10300800DF50D8B40AEF18F00CEF18F00FEF18F0F3
:103018002F5030102F6E2D4A2E2AD8903032305033
:10302800D8A419EF18F01BEF18F000EF18F02F5084
:103038001200000E2B6E000E2A6E28502910D8B4EC
:1030480028EF18F02AEF18F052EF18F0010E2C6E46
:1030580032EF18F0D890283629362C2A29AE37EFC7
:1030680018F039EF18F02EEF18F0D8902A362B36D2
:103078002850265C29502758D8A045EF18F047EF6C
:1030880018F04CEF18F02850265E2950275A2A804D
:10309800D890293228322C2E39EF18F02AC026F081
:1030A8002BC027F01200000E2E6E000E2F6E000EA1
:1030B800306E000E316E26A064EF18F066EF18F03F
:1030C8006EEF18F02A502E262B502F222C5030222B
:1030D8002D503122D8902A362B362C362D36D890C2
:1030E8002932283227322632265027102810291054
:1030F800D8A481EF18F083EF18F05FEF18F02EC016
:1031080026F02FC027F030C028F031C029F0120077
:103118002B6E000E2C6E9DEF18F0400E2C6EB6EF45
:1031280018F0140E2C6EB6EF18F0540E2C6EB6EF85
:1031380018F02B50296E2A6A2A50000AD8B4A7EF33
:1031480018F0B6EF18F02950010AD8B491EF18F02A
:10315800030AD8B495EF18F0010AD8B499EF18F01B
:10316800B6EF18F02C5028247F0B800FC4EC13F016
:103178001200A80EF66E380EF76E000EF86E00EE0E
:10318800BDF010EE28F00900F5CFEEFFE550E15054
:10319800FAE1660EF66E3A0EF76E000EF86E00EE65
:1031A80046F010EE13F00900F5CFEEFFE550E150C0
:1031B800FAE10001E66BE56B00EE01F0250EEE6A20
:1031C800E806FDE159905992000EF86E000109EFEA
:1031D80000F0110E5760F3EF18F0F5EF18F019EF43
:1031E80019F0FF0E266EFF0E276E5850286E296ABA
:1031F800265028262750292257502A6E2B6A2850F5
:103208002A5C2B50800A2C6E2950800A2C58D8B082
:1032180010EF19F012EF19F015EF19F0572A1BEFFC
:1032280019F05804576E1BEF19F0110E576E120063
:10323800000E2F6E000E286E000E8CEC18F03BEF7F
:1032480019F00A0E3018D8B42CEF19F02EEF19F037
:1032580033EF19F0305024EC1AF039EF19F0000E62
:10326800286E2F2A2F508CEC18F02D4A2E2A2DC0AC
:10327800F6FF2EC0F7FF0800F5CF30F03050D8A485
:1032880048EF19F04AEF19F025EF19F01200266EF1
:10329800800E286E000E276E6DEF19F08094265070
:1032A80028140009D8B45BEF19F05DEF19F060EF4E
:1032B80019F0808061EF19F0809080A266EF19F014
:1032C80068EF19F06AEF19F0285027128084D89017
:1032D80028322850D8A473EF19F075EF19F052EF7F
:1032E80019F080942750120012042B6E89EC1DF0FF
:1032F800000E2C6E98EF19F02C500B24D96E000E8E
:103308000C20DA6E2B500924296E000E0A202A6E32
:103318002C50295CE16E2A50D8A02A04E26EE750AE
:103328004BEC19F0DF6E2C2A12502C5CD8A09FEFC2
:1033380019F0A1EF19F080EF19F089EC1DF01200D7
:10334800356E120E5860ABEF19F0ADEF19F0CDEFF6
:1033580019F03550D8B4B3EF19F0B5EF19F0CDEF37
:1033680019F0350E266E000E276E740EF4EC11F06F
:10337800140E5824D96EDA6A000EDA2235C0DFFF3F
:10338800582A140E5824D96EDA6A000EDA22000E72
:10339800DF6EB0EC14F01200356E120E5860D7EFE5
:1033A80019F0D9EF19F0F9EF19F03550D8B4DFEF6B
:1033B80019F0E1EF19F0F9EF19F0350E266E000E4D
:1033C800276E610EF4EC11F0140E5824D96EDA6AE7
:1033D800000EDA2235C0DFFF582A140E5824D96EA1
:1033E800DA6A000EDA22000EDF6EB0EC14F012007A
:1033F8002A6E080E2B6E410E296E2A28D8A407EFD4
:103408001AF009EF1AF01BEF1AF023EF1AF02A50FE
:103418002B140009D8B413EF1AF015EF1AF018EFAF
:103428001AF0295045EC17F0292AD8902B322B5046
:10343800D8A421EF1AF023EF1AF00BEF1AF01200BC
:10344800276E8A8C27C026F0263A0F0E26162646A7
:1034580026468A502618C30B26188A6E8A9E420E64
:10346800E82EFED700D08A8E8A8C27C026F00F0E51
:103478002616264626468A502618C30B26188A6E14
:103488008A9E420EE82EFED700D08A8E1200356E34
:10349800120E586052EF1AF054EF1AF06CEF1AF04F
:1034A800350E266E000E276E700EF4EC11F0140E19
:1034B8005824D96EDA6A000EDA2235C0DFFF582A9E
:1034C800140E5824D96EDA6A000EDA22000EDF6E66
:1034D800B0EC14F01200316E2DC030F02DC028F081
:1034E80031508CEC18F084EF1AF02EC0F6FF2FC084
:1034F800F7FF0800F55024EC1AF02E4A2F2A302A3C
:103508002EC0F6FF2FC0F7FF0800F5500009D8A419
:1035180090EF1AF092EF1AF079EF1AF01200306E6D
:10352800D00E2E6EFF0E2F6E2CC0D9FF2DC0DAFFE5
:10353800DECF26F0DDCF27F0000E296E0A0E286EAA
:103548007CEC1CF030502626000E27222E50262612
:103558002F5027222CC0D9FF2DC0DAFF26C0DEFF4E
:1035680027C0DDFF120029C02BF02AC02CF0040E62
:103578002D6ED8902C322B322D2EBDEF1AF02B50F9
:1035880000EC1DF058EC1DF0000E276E010E266EA3
:1035980027EC1CF02938F00B00EC1DF058EC1DF05E
:1035A800000E276E010E266E27EC1CF01200306EFE
:1035B80030C026F0276A8FEC1CF026C02EF027C0FA
:1035C8002FF0000E316E31502C24D96E000E2D20B4
:1035D800DA6EDF50266E31502E2410EC1CF0312AA2
:1035E8000F0E3164FAEF1AF0FCEF1AF0E7EF1AF059
:1035F8001200306E30C026F0276A8FEC1CF026C00F
:103608002EF027C02FF0000E316E31502C24D96EC9
:10361800000E2D20DA6E31502E2460EC1DF0DF6E86
:10362800312A0F0E31641BEF1BF01DEF1BF009EF61
:103638001BF012001FEC1DF0000E276E010E266E07
:1036480027EC1CF0C00E00EC1DF058EC1DF0000E2D
:10365800276E010E266E27EC1CF0600E00EC1DF0A4
:1036680058EC1DF0000E276E010E266E27EC1CF09C
:103678001200000E306E50EF1BF02EC026F02FC047
:1036880027F0000E296E0A0E286E95EC15F026C05C
:103698002EF027C02FF0302A2E502F10D8A457EF25
:1036A8001BF059EF1BF041EF1BF0305012009380D4
:1036B8009382C650F00B0809C66E400E266E4B0E5C
:1036C800276E4C0E286E000E296E33C02AF034C0C7
:1036D8002BF035C02CF036C02DF0A3EC16F02604E4
:1036E800C86EC78EC68A12002C6E2CC026F0276AB8
:1036F8008FEC1CF026C02AF027C02BF0000E2D6E90
:10370800000E266E2D502A2410EC1CF02D2A0F0EC8
:103718002D6491EF1BF093EF1BF084EF1BF0120068
:10372800000E2B6E4FEC16F02C6E2C50D8B49FEF79
:103738001BF0A1EF1BF0ABEF1BF01150D8A4A7EFC3
:103748001BF0A9EF1BF0ABEF1BF02CC02BF02CC02B
:1037580011F02B501200C168939493969398939A02
:10376800939C939E8A8E000E276E050E266E27EC7C
:103778001CF0280EC4EC13F00C0EC4EC13F0010E70
:10378800C4EC13F0020EC4EC13F01200FD0ECF6E61
:103798008F0ECE6E0150021003100410D8B4D7EF6C
:1037A8001BF0D9EF1BF0E0EF1BF00106000E025AE8
:1037B800035A045AE1EF1BF0CD901200C16826C0ED
:1037C8000BF027C00CF028C009F029C00AF02AC065
:1037D80012F0809692968094929480909290809223
:1037E800928280948090808612002DC0D9FF2EC0CE
:1037F800DAFFDECF26F0DDCF27F0000E296E0A0EA5
:10380800286E1DEC18F02DC0D9FF2EC0DAFF26C097
:10381800DEFF27C0DDFF1200276EF29E27C0A9FF3A
:1038280026C0A8FFA69EA684550EA76EAA0EA76E50
:10383800A682A6B222EF1CF024EF1CF01DEF1CF0AC
:10384800A694F28E120034EF1CF0070E286E7D0E3F
:10385800E82EFED7282EFCD700F02606D8A027068B
:1038680026502710D8A43BEF1CF03DEF1CF029EFA1
:103878001CF012000600F29E9EA045EF1CF047EFD8
:103888001CF051EF1CF09DA04CEF1CF04EEF1CF00B
:1038980051EF1CF09E90CAEC1BF0F28E5992110069
:1038A8004D756E646F20616F2073657520636F6D51
:1038B800616E646FB635FA35F0360000BE395E3792
:1038C8003832DE346E220A3B316E31C026F0276A68
:1038D8008FEC1CF026C02FF027C030F02C502F247E
:1038E80060EC1DF02DC0D9FF2EC0DAFFDF6E12008C
:1038F80026502802F3CF2AF0F4CF2BF026502902C5
:10390800F3502B2627502802F3502B262AC026F0E6
:103918002BC027F0120026C028F027C029F0283A2B
:10392800293AF00E291628500F0B2912F00E2816E6
:1039380028C026F029C027F01200306E30C026F0CB
:10394800276A8FEC1CF026C02EF027C02FF02DC060
:1039580026F02C502E2410EC1CF012001EEC1BF04C
:1039680040C029F041C02AF0B7EC1AF029EC1DF04C
:10397800000E276E010E266E27EC1CF0120015C0F3
:1039880028F0296A2850296E286A14502826000E23
:10399800292228C026F029C027F01200CD92300E27
:1039A800CD12CD84FD0ECF6E8F0ECE6ECD9C9D8038
:1039B800F28CF28E1200000E286E000E266E285031
:1039C80010EC1CF0282AE1EF1CF01200110E5864CC
:1039D800F0EF1CF0F3EF1CF0010EF4EF1CF0000EFA
:1039E80012005850565CD8B0FCEF1CF0FEEF1CF0EB
:1039F800FFEF1CF0562A1200266E26C0C9FFC7B07A
:103A080008EF1DF00AEF1DF003EF1DF012002CC0A7
:103A180001F02DC002F02EC003F02FC004F0CD80BD
:103A28001200020E57641BEF1DF01DEF1DF01EEF74
:103A38001DF057061200C5809EA625EF1DF027EF42
:103A48001DF020EF1DF09E961200C5849EA62FEF54
:103A58001DF031EF1DF02AEF1DF09E961200313255
:103A6800334134353642373839432A302344020249
:013A7800024B
:103A7A0001C026F002C027F003C028F004C029F0D4
:103A8A001200276E92EC1DF027244FEC1DF0286ED1
:103A9A0028501200266E140E2624D96EDA6A000EF9
:103AAA00DA22DF501200C5BC5DEF1DF05FEF1DF09A
:103ABA0058EF1DF01200266E26C0A9FFA69EA6800A
:103ACA00A8501200000E836EF00E956E1200000EC2
:103ADA000E6E000E0D6E120013901392139413962D
:103AEA0012000DC026F00EC027F01200140E266E2A
:103AFA00000E276E120026C014F02750156E120011
:103B0A00010EC4EC13F01200809680861200020E99
:103B1A00566E12000D4A0E2A120056501200120E4C
:063B2A00120058501200C9
:107D200000313A20494E534552495220534551554E
:107D3000454E4349410A323A20425553434152206D
:107D400053455155454E4349410A333A2052455017
:107D50004554495220554C542E20534551550A3410
:107D60003A20434F4E464947555241434F455320D1
:107D700020202000204553434F4C48412041204DB6
:107D8000454D4F524941200A5155452044455345E0
:107D90004A412045584543555441520A203020203D
:107DA0002031202020322020203320202034200A9F
:107DB0002035202020362020203720202038202069
:107DC0002039200A00204553434F4C484120412090
:107DD0004D454D4F5249410A205155452044455388
:107DE000454A412053414C5641520A203020202020
:107DF000312020203220202033202020340A20353A
:107E00002020203620202037202020382020203914
:107E100020200020202020444553454A4120534142
:107E20004C5641522020200A20202020205345512A
:107E300055454E434941203F20200A0A23202D204A
:107E400053494D2020202020202A202D204E414F14
:107E5000004369636C6F733A20202020202020208B
:107E60002020202020003C20202F20203E20633A8C
:107E70002020202020202020202000202020202022
:107E800020202053414C564120202020202020003B
:107E900020202020202053454747554954202020AA
:107EA0002020202000202020202020205B202020B7
:107EB000205D2020202020202000202020202020A5
:107EC0002044454C455445442020202020200020BB
:107ED000202020202020204D454D4F525920202089
:107EE000202020002020202020204D454D4F5249A9
:107EF00041203F202020202000202020202020532F
:107F0000455155454E434941202020202000202046
:107F1000202020444F2053495354454D41202020D8
:107F2000202000202020412020204220202043200B
:107F3000202044202020200020202044454C45546F
:107F4000415220544F4441204120202000323A2009
:107F50004C494D504152204D454D4F5249412020F2
:107F60002000202020414A55535445204F20494E9F
:107F70004943494F2020002020494E534952412077
:107F80004F5320504153534F5320200030202D2079
:107F90004369636C6F20636F6E74696E756F202028
:107FA000002043455254455A4120515545204445EF
:107FB00053454A412000636F6E66696720636F6EA8
:107FC00074726C3A20202020202500313A2056453A
:107FD00052494649434152204D454D4F5249410077
:107FE000636F6E6669672074656D706F3A2020203C
:107FF00020202073003C20202F20203E00FF000086
:020000040020DA
:08000000FFFFFFFFFFFFFFFF00
:020000040030CA
:0E000000040C181EFF0180FF0FC00FE00F4020
:00000001FF
