:020000040000FA
:0400000007EF00F016
:100008005E8219ED21F0EBEF1BF080EC20F099EC0B
:1000180022F0EDEC21F0000E346E2D0E356E310E0F
:10002800366E010E376E63EC20F0000E426E000E45
:10003800416EBEEC21F0000E3C6EC20E3D6E010E0C
:100048003E6E000E3F6E02D835EF00F0050000014D
:10005800FA6EBD51FD6EBE51FE6EF850FF6EFA503D
:10006800120020EEC3F002D845EF00F00500FA6E4A
:10007800DE50FD6EDE50FE6EF850FF6EFA50010E37
:100088001200000E0001BC6F000EBB6F000EB26FB5
:10009800000E746FF2C0ADF0F1C0AEF0AD0E276E79
:1000A800000E286EAE0E296E000E2A6E010E2B6E03
:1000B80031EC21F00001AF69000EBA6F020E756FC6
:1000C800000EB56F000EB46F000EB16F000EB06F6A
:1000D800000EB36FBFEF0EF0BFEF0EF0000EA16F72
:1000E800030EA1657AEF00F07CEF00F080EF00F0DE
:1000F800C1EF00F0C1EF00F0000EA26F130EA26571
:1001080088EF00F08AEF00F08EEF00F0B6EF00F015
:10011800B6EF00F020EE55F002D8A4EF00F005008D
:10012800FA6EDE50FD6EDE50FE6EF850FF6EFA502D
:10013800A2C02EF0FC0E2F6E7F0E306EA151120061
:10014800000E286E0A0E276EE8EC20F00001A22BA4
:10015800130EA265B2EF00F0B4EF00F08EEF00F0DE
:10016800B6EF00F0A12B030EA165BDEF00F0BFEFC5
:1001780000F080EF00F0C1EF00F0000EA36F030E57
:10018800A365C9EF00F0CBEF00F0CFEF00F010EF60
:1001980001F010EF01F0000EA46F130EA465D7EF65
:1001A80000F0D9EF00F0DDEF00F005EF01F005EF0A
:1001B80001F020EE55F002D8F3EF00F00500FA6EDA
:1001C800DE50FD6EDE50FE6EF850FF6EFA50A4C091
:1001D8002EF0D80E2F6E7D0E306EA3511200000E39
:1001E800286E0A0E276EE8EC20F00001A42B130EEF
:1001F800A46501EF01F003EF01F0DDEF00F005EF7A
:1002080001F0A32B030EA3650CEF01F00EEF01F034
:10021800CFEF00F010EF01F0010EBB6F65EF0FF0AC
:1002280020EE55F002D82AEF01F00500FA6EDE50F4
:10023800FD6EDE50FE6EF850FF6EFA50000E2E6E08
:10024800040E2F6E7E0E306E010E120021EE46F067
:1002580010EE60F0130EDBCFE3FFE806FCE2000EC1
:1002680000019C6F600E9F6F000EA06F55EF01F0AC
:100278009CC029F0020E54EC1EF09FC0D9FFA0C00C
:10028800DAFFDF508FEC1FF000019C2B000E286E68
:10029800320E276EE8EC20F000019F4BA02B55EFA3
:1002A80001F09FC0D9FFA0C0DAFFDF50D8A45FEFEC
:1002B80001F061EF01F03CEF01F063EF01F0DC0EBB
:1002C8002D6E050E2E6E000E2F6E000E306E76EC23
:1002D80022F0020E0001BB6F65EF0FF080EC22F0F8
:1002E8002750281029102A10D8A47DEF01F07FEF9D
:1002F80001F065EF0FF0080E0001BB6F65EF0FF01E
:1003080065EF0FF0A3EC22F02F0E2E6E7C0E2F6EF1
:1003180020EE53F002D89BEF01F00500FA6EDE5094
:10032800FD6EDE50FE6EF850FF6EFA501200E80EB9
:100338002D6E030E2E6E000E2F6E000E306E76ECB4
:1003480022F0090E0001BB6F65EF0FF080EC22F080
:100358002750281029102A10D8A4B5EF01F0B7EFBC
:1003680001F065EF0FF0470E0001BB6F65EF0FF06E
:1003780065EF0FF025EC20F00001BC6FD6EF01F01F
:10038800030EBB6F65EF0FF0480EBB6F65EF0FF004
:10039800640EBB6F65EF0FF0500EBB6F65EF0FF08B
:1003A80065EF0FF0BC51456E466A4650000AD8B456
:1003B800E0EF01F065EF0FF04550310AD8B4C4EF13
:1003C80001F0030AD8B4C8EF01F0010AD8B4CCEFA1
:1003D80001F0070AD8B4D0EF01F065EF0FF065EF30
:1003E8000FF00A0E2D6EB20E2E6E000E2F6E0A0E34
:1003F80074EC21F00001B25152EC1DF020EE49F0EE
:1004080002D816EF02F00500FA6EDE50FD6EDE50DF
:10041800FE6EF850FF6EFA50760E2D6E000E2E6EA0
:100428000B0E1200760E00019D6F000E9E6F9DC090
:10043800D9FF9EC0DAFFDE28D8A425EF02F027EF07
:1004480002F045EF02F020EE4BF002D840EF02F048
:100458000500FA6EDE50FD6EDE50FE6EF850FF6E3F
:10046800FA50BCC027F0286A000E2A6E300E296E9A
:100478002EEC19F027501200000E0001766F45EFA0
:1004880002F0760EB66F000EB76F2CEF03F0B6C011
:10049800D9FFB7C0DAFF640EDF6455EF02F057EFFB
:1004A80002F066EF02F0B6C0D9FFB7C0DAFFFE0E61
:1004B800DE18D8A462EF02F064EF02F075EF02F0E4
:1004C80066EF02F0B6C027F0B7C028F0E7EC14F0EA
:1004D800B6C0D9FFB7C0DAFFDF5013EC1FF025EF25
:1004E80003F0B6C0D9FFB7C0DAFF640EDF647FEF50
:1004F80002F081EF02F09CEF02F0B6C0D9FFB7C05E
:10050800DAFFDD0EDF608BEF02F08DEF02F09CEF7B
:1005180002F0B6C027F0B7C028F0E7EC14F0B6C078
:10052800D9FFB7C0DAFFDF5086EC1DF025EF03F0E6
:10053800B6C027F0B7C028F0E7EC14F0BCEF02F023
:10054800B2EF02F0B2EF02F0B2EF02F0B2EF02F057
:10055800B2EF02F0B2EF02F0B2EF02F0B6C0D9FF8C
:10056800B7C0DAFFDF0EDF16EDEF02F0EDEF02F0B5
:10057800B6C0D9FFB7C0DAFFDF50456E466A4650AD
:10058800000AD8B4CAEF02F0EDEF02F04550410A74
:10059800D8B4B2EF02F0030AD8B4B2EF02F0010AFD
:1005A800D8B4B2EF02F0070AD8B4B2EF02F0250AC5
:1005B800D8B4B2EF02F0030AD8B4B2EF02F0010ADD
:1005C800D8B4B2EF02F0070AD8B4B2EF02F0EDEFF8
:1005D80002F0B6C0D9FFB7C0DAFFDF500DEC1BF050
:1005E800B6C0D9FFB7C0DAFFDF509AEC19F000099E
:1005F800D8A401EF03F003EF03F012EF03F0B6C045
:10060800D9FFB7C0DAFFDF50456E466A200E4510A5
:100618000001866F4650876F1EEF03F0B6C0D9FF02
:10062800B7C0DAFFDF50456E45500001866F876B13
:100638001EEF03F08651BAEC1DF025EF03F025EF0D
:1006480003F0E9EC10F00001B64BB72B2CEF03F0E8
:10065800B6C0D9FFB7C0DAFFDF50D8A436EF03F031
:1006680038EF03F04BEF02F03AEF03F0BEEC22F064
:10067800100E0001BB6F65EF0FF0BEEC22F0000E0C
:100688002E6E3F0E2F6E7F0E306E000E67EC1FF041
:10069800000E2E6EC10E2F6E7E0E306E010E67ECB0
:1006A8001FF0E80E2D6E030E2E6E000E2F6E000E3C
:1006B800306E76EC22F0510E0001BB6F65EF0FF043
:1006C80080EC22F02750281029102A10D8A46FEFA8
:1006D80003F071EF03F065EF0FF0520E0001BB6FEE
:1006E80065EF0FF065EF0FF025EC20F00001BC6F0F
:1006F8008CEF03F0530EBB6F65EF0FF0540EBB6F1A
:1007080065EF0FF0080EBB6F65EF0FF065EF0FF0A8
:10071800BC51456E466A4650000AD8B496EF03F0BD
:1007280065EF0FF045502A0AD8B486EF03F01B0A8C
:10073800D8B47EEF03F0030AD8B482EF03F065EF74
:100748000FF065EF0FF0000E2E6E150E2F6E7F0E58
:10075800306E000E67EC1FF0000E2E6EAC0E2F6E82
:100768007E0E306E010E67EC1FF0000E2E6E580ED6
:100778002F6E7E0E306E020E67EC1FF0000E2E6E8E
:100788004A0E2F6E7D0E306E030E67EC1FF025ECBF
:1007980020F00001BC6FDEEF03F0550EBB6F65EF74
:1007A8000FF0BEEC22F0500E0001BB6F65EF0FF0AA
:1007B80065EF0FF0BC51456E466A4650000AD8B442
:1007C800E8EF03F065EF0FF04550230AD8B4D1EFF6
:1007D80003F0090AD8B4D5EF03F065EF0FF065EF21
:1007E8000FF020EE4FF002D804EF04F00500FA6E87
:1007F800DE50FD6EDE50FE6EF850FF6EFA501200AD
:10080800BEEC22F0000E0001A56F030EA5650FEFE8
:1008180004F011EF04F015EF04F049EF04F049EF8C
:1008280004F0000EA66F130EA6651DEF04F01FEF6F
:1008380004F023EF04F03EEF04F03EEF04F0A6C00E
:100848002EF0FC0E2F6E7F0E306EA55167EC1FF058
:10085800000E286E0A0E276EE8EC20F00001A62B89
:10086800130EA6653AEF04F03CEF04F023EF04F012
:100878003EEF04F0A52B030EA56545EF04F047EF06
:1008880004F015EF04F049EF04F0000EA76F030E13
:10089800A76551EF04F053EF04F057EF04F08BEF26
:1008A80004F08BEF04F0000EA86F130EA8655FEF3D
:1008B80004F061EF04F065EF04F080EF04F080EFDE
:1008C80004F0A8C02EF0D80E2F6E7D0E306EA75102
:1008D80067EC1FF0000E286E0A0E276EE8EC20F079
:1008E8000001A82B130EA8657CEF04F07EEF04F03E
:1008F80065EF04F080EF04F0A72B030EA76587EFE0
:1009080004F089EF04F057EF04F08BEF04F0000EC9
:100918002E6E2E0E2F6E7E0E306E010E67EC1FF0BF
:10092800000E2E6E430E2F6E7E0E306E020E67EC9A
:100938001FF0E80E2D6E030E2E6E000E2F6E000EA9
:10094800306E76EC22F0560E0001BB6F65EF0FF0AB
:1009580080EC22F02750281029102A10D8A4B7EFCD
:1009680004F0B9EF04F065EF0FF0500E0001BB6F13
:1009780065EF0FF065EF0FF020EE59F002D8CFEFDA
:1009880004F00500FA6EDE50FD6EDE50FE6EF85083
:10099800FF6EFA501200820E2E6E7C0E2F6E20EE25
:1009A80053F002D8E2EF04F00500FA6EDE50FD6E57
:1009B800DE50FE6EF850FF6EFA501200490E00012C
:1009C800BB6FE7EF04F025EC20F00001BC6F63EF8C
:1009D80006F0FFEF04F0FFEF04F0FFEF04F0FFEF85
:1009E80004F0FFEF04F0FFEF04F0FFEF04F0FFEF77
:1009F80004F0FFEF04F0BCC027F0286A000E2A6E4E
:100A0800300E296E2EEC19F027502D6EB20E2E6E78
:100A1800000E2F6E0A0E74EC21F00001B25152EC58
:100A28001DF020EE49F002D832EF05F00500FA6E0D
:100A3800DE50FD6EDE50FE6EF850FF6EFA50760EF8
:100A48002D6E000E2E6EBCC027F0286A000E2A6E8E
:100A5800300E296E2EEC19F027501200760E000188
:100A68009D6F000E9E6F9DC0D9FF9EC0DAFFDE28E5
:100A7800D8A441EF05F043EF05F061EF05F020EE53
:100A88004BF002D85CEF05F00500FA6EDE50FD6E03
:100A9800DE50FE6EF850FF6EFA50BCC027F0286A90
:100AA800000E2A6E300E296E2EEC19F02750120017
:100AB800000E0001766F61EF05F0760EB86F000E3C
:100AC800B96F48EF06F0B8C0D9FFB9C0DAFF640EB5
:100AD800DF6471EF05F073EF05F082EF05F0B8C041
:100AE800D9FFB9C0DAFFFE0EDE18D8A47EEF05F0F4
:100AF80080EF05F091EF05F082EF05F0B8C027F020
:100B0800B9C028F0E7EC14F0B8C0D9FFB9C0DAFFD3
:100B1800DF5013EC1FF041EF06F0B8C0D9FFB9C0A1
:100B2800DAFF640EDF649BEF05F09DEF05F0B8EF88
:100B380005F0B8C0D9FFB9C0DAFFDD0EDF60A7EF56
:100B480005F0A9EF05F0B8EF05F0B8C027F0B9C077
:100B580028F0E7EC14F0B8C0D9FFB9C0DAFFDF50CD
:100B680086EC1DF041EF06F0B8C027F0B9C028F0B8
:100B7800E7EC14F0D8EF05F0CEEF05F0CEEF05F076
:100B8800CEEF05F0CEEF05F0CEEF05F0CEEF05F095
:100B9800CEEF05F0B8C0D9FFB9C0DAFFDF0EDF1617
:100BA80009EF06F009EF06F0B8C0D9FFB9C0DAFFBF
:100BB800DF50456E466A4650000AD8B4E6EF05F0A5
:100BC80009EF06F04550410AD8B4CEEF05F0030A04
:100BD800D8B4CEEF05F0010AD8B4CEEF05F0070A75
:100BE800D8B4CEEF05F0250AD8B4CEEF05F0030A45
:100BF800D8B4CEEF05F0010AD8B4CEEF05F0070A55
:100C0800D8B4CEEF05F009EF06F0B8C0D9FFB9C0E7
:100C1800DAFFDF500DEC1BF0B8C0D9FFB9C0DAFF1E
:100C2800DF509AEC19F00009D8A41DEF06F01FEF69
:100C380006F02EEF06F0B8C0D9FFB9C0DAFFDF50D2
:100C4800456E466A200E45100001886F4650896F30
:100C58003AEF06F0B8C0D9FFB9C0DAFFDF50456EE9
:100C680045500001886F896B3AEF06F08851BAEC5D
:100C78001DF041EF06F041EF06F0E9EC10F000013D
:100C8800B84BB92B48EF06F0B8C0D9FFB9C0DAFFA6
:100C9800DF50D8A452EF06F054EF06F067EF05F0E6
:100CA80056EF06F0BEEC22F0100E0001BB6F65EFA8
:100CB8000FF0080EBB6F65EF0FF065EF0FF0BC513A
:100CC800456E466A4650000AD8B46DEF06F065EFE7
:100CD8000FF045502A0AD8B45DEF06F01A0AD8B4C6
:100CE800FFEF04F0010AD8B4FFEF04F0030AD8B408
:100CF800FFEF04F0010AD8B4FFEF04F0070AD8B4F4
:100D0800FFEF04F0010AD8B4FFEF04F0030AD8B4E7
:100D1800FFEF04F0010AD8B4FFEF04F00F0AD8B4CB
:100D2800FFEF04F0010AD8B4FFEF04F065EF0FF00D
:100D380065EF0FF020EE59F002D8ADEF06F0050090
:100D4800FA6EDE50FD6EDE50FE6EF850FF6EFA5001
:100D5800120020EE55F002D8C3EF06F00500FA6E37
:100D6800DE50FD6EDE50FE6EF850FF6EFA50000E3B
:100D78002E6ED60E2F6E7E0E306E000E120020EEF6
:100D880055F002D8D9EF06F00500FA6EDE50FD6E78
:100D9800DE50FE6EF850FF6EFA50000E2E6E820E78
:100DA8002F6E7E0E306E010E1200060E0001BB6F14
:100DB80065EF0FF020EE55F002D8F4EF06F00500CD
:100DC800FA6EDE50FD6EDE50FE6EF850FF6EFA5081
:100DD800000E2E6E970E2F6E7E0E306E030E1200D2
:100DE800040E296E030E54EC1EF0410E9AEC19F015
:100DF8000009D8A402EF07F004EF07F00BEF07F0A3
:100E0800000E00018B6F2D0E8A6F12EF07F0000E97
:100E180000018B6F2B0E8A6F12EF07F08A518FEC4F
:100E28001FF0080E296E030E54EC1EF0420E9AECC9
:100E380019F00009D8A423EF07F025EF07F02CEFED
:100E480007F0000E00018D6F2D0E8C6F33EF07F049
:100E5800000E00018D6F2B0E8C6F33EF07F08C5155
:100E68008FEC1FF00C0E296E030E54EC1EF0430E8F
:100E78009AEC19F00009D8A444EF07F046EF07F000
:100E88004DEF07F0000E00018F6F2D0E8E6F54EF9F
:100E980007F0000E00018F6F2B0E8E6F54EF07F0D6
:100EA8008E518FEC1FF0100E296E030E54EC1EF0BD
:100EB800440E9AEC19F00009D8A465EF07F067EF23
:100EC80007F06EEF07F0000E0001916F2D0E906F86
:100ED80075EF07F0000E0001916F2B0E906F75EF04
:100EE80007F090518FEC1FF0070E0001BB6F65EF04
:100EF8000FF025EC20F00001BC6F29EF08F0BC5181
:100F08000DEC1BF0040E296E030E54EC1EF0410E7E
:100F18009AEC19F00009D8A494EF07F096EF07F0BF
:100F28009DEF07F0000E0001936F2D0E926FA4EF56
:100F380007F0000E0001936F2B0E926FA4EF07F0DD
:100F480092518FEC1FF065EF0FF00001BC510DECD2
:100F58001BF0080E296E030E54EC1EF0420E9AEC9C
:100F680019F00009D8A4BBEF07F0BDEF07F0C4EFF4
:100F780007F0000E0001956F2D0E946FCBEF07F070
:100F8800000E0001956F2B0E946FCBEF07F0945174
:100F98008FEC1FF065EF0FF00001BC510DEC1BF05A
:100FA8000C0E296E030E54EC1EF0430E9AEC19F049
:100FB8000009D8A4E2EF07F0E4EF07F0EBEF07F041
:100FC800000E0001976F2D0E966FF2EF07F0000EDE
:100FD8000001976F2B0E966FF2EF07F096518FEC8A
:100FE8001FF065EF0FF00001BC510DEC1BF0100E67
:100FF800296E030E54EC1EF0440E9AEC19F0000909
:10100800D8A409EF08F00BEF08F012EF08F0000E73
:101018000001996F2D0E986F19EF08F0000E00016E
:10102800996F2B0E986F19EF08F098518FEC1FF0FD
:1010380065EF0FF00A0E0001BB6F65EF0FF0080EA9
:10104800BB6F65EF0FF065EF0FF0BC51456E466A58
:101058004650000AD8B433EF08F065EF0FF045505A
:10106800230AD8B41EEF08F0090AD8B423EF08F011
:101078006B0AD8B483EF07F0030AD8B4A9EF07F0D6
:10108800010AD8B4D0EF07F0070AD8B4F7EF07F091
:1010980065EF0FF065EF0FF0A4EC1BF00001B26FE5
:1010A80020EE59F002D863EF08F00500FA6EDE5022
:1010B800FD6EDE50FE6EF850FF6EFA50120020EE04
:1010C80055F002D879EF08F00500FA6EDE50FD6E93
:1010D800DE50FE6EF850FF6EFA50000E2E6EEB0ECC
:1010E8002F6E7E0E306E000E12000E0E0001BB6FCA
:1010F80065EF0FF025EC20F00001BC6FF3EF08F06E
:101108008AEF08F08AEF08F08AEF08F014EC22F072
:101118000009D8B492EF08F094EF08F065EF0FF0EB
:101128000001BC510DEC1BF00001BC519AEC19F008
:101138000009D8A4A2EF08F0A4EF08F0AFEF08F078
:10114800200EBCC045F0466A451000019A6F465013
:101158009B6FB5EF08F0BCC09AF000019B6BB5EF30
:1011680008F09A51BAEC1DF0100E0001BB6F65EF44
:101178000FF065EF0FF021EC1EF0100E0001BB6FB1
:1011880065EF0FF02EEC22F0100E0001BB6F65EF3B
:101198000FF0BAEC22F0020AD8A4D5EF08F0D7EF86
:1011A80008F0DCEF08F0030E0001BB6F65EF0FF0ED
:1011B80055EC1AF0100E0001BB6F65EF0FF065EFEC
:1011C8000FF04A0EBB6F65EF0FF0290EBB6F65EF8E
:1011D8000FF05A0EBB6F65EF0FF065EF0FF0BC51C3
:1011E800456E466A4650000AD8B4FDEF08F065EF30
:1011F8000FF04550230AD8B4E5EF08F0090AD8B42F
:10120800CDEF08F01A0AD8B4E9EF08F0040AD8B408
:10121800C6EF08F0020AD8B4BFEF08F00F0AD8B436
:10122800EDEF08F0780AD8B48AEF08F0030AD8B4CA
:101238008AEF08F0010AD8B48AEF08F0070AD8B490
:101248008AEF08F065EF0FF065EF0FF0E9EC10F0AA
:101258000E0E0001BB6F65EF0FF020EE55F002D8BF
:1012680047EF09F00500FA6EDE50FD6EDE50FE6EA7
:10127800F850FF6EFA50000E2E6EF40E2F6E7F0E91
:10128800306E030E120020EE57F002D864EF09F01A
:101298000500FA6EDE50FD6EDE50FE6EF850FF6EF1
:1012A800FA50010E326EBAEC22F0456EFE0E45245D
:1012B800336E346AFF0E3422020E356E030E1200AE
:1012C80020EE57F002D881EF09F00500FA6EDE50E3
:1012D800FD6EDE50FE6EF850FF6EFA50040E326E50
:1012E800B6EC22F0456EFE0E4524336E346AFF0ECE
:1012F8003422020E356E030E12000B0E0001BB6F76
:1013080065EF0FF0460EBB6F010EAF6F65EF0FF084
:10131800030EAF19D8A493EF09F095EF09F031EF58
:101328000AF0020EB319D8B49CEF09F09EEF09F049
:1013380031EF0AF020EE55F002D8B4EF09F00500BD
:10134800FA6EDE50FD6EDE50FE6EF850FF6EFA50FB
:10135800000E2E6E190E2F6E7E0E306E000E1200CD
:10136800FF0E406E010E91EC12F0000E406E090E59
:1013780091EC12F0010E406E0E0E91EC12F020EE80
:1013880055F002D8D9EF09F00500FA6EDE50FD6E6F
:10139800DE50FE6EF850FF6EFA50000E2E6EDA0E1A
:1013A8002F6E7D0E306E020E120020EE57F002D81E
:1013B800F6EF09F00500FA6EDE50FD6EDE50FE6EA7
:1013C800F850FF6EFA50040E326EBAEC22F0456EF9
:1013D800FE0E4524336E346AFF0E3422020E356E3B
:1013E800020E120020EE57F002D813EF0AF00500A3
:1013F800FA6EDE50FD6EDE50FE6EF850FF6EFA504B
:10140800010E326EB2EC22F0456EFF0E4524336EAB
:10141800346AFF0E3422020E356E020E120020EEE0
:1014280057F002D82FEF0AF00500FA6EDE50FD6E75
:10143800DE50FE6EF850FF6EFA500B0E326EA8ECBE
:1014480022F0010E2724336E000E2820346E050E7C
:10145800356E020E120031EF0AF00001AF51D8A428
:1014680038EF0AF03AEF0AF04DEF0AF0100EBB6FB2
:1014780020EE59F002D84BEF0AF00500FA6EDE5064
:10148800FD6EDE50FE6EF850FF6EFA5012004DEF02
:101498000AF025EC20F00001BC6F70EF0AF0010E95
:1014A800B36F65EF0FF0020EB36F65EF0FF0000E2C
:1014B800B36F65EF0FF0020EB319D8A466EF0AF008
:1014C80068EF0AF065EF0FF0030EB36F65EF0FF0EA
:1014D80065EF0FF065EF0FF0BC51456E466A465058
:1014E800000AD8B47AEF0AF065EF0FF04550230AE6
:1014F800D8B453EF0AF0130AD8B45BEF0AF0010A24
:10150800D8B45FEF0AF0040AD8B457EF0AF065EFD1
:101518000FF065EF0FF025EC20F00001BC6F2F0EE7
:10152800BC6599EF0AF09BEF0AF0BEEF0AF03A0E9D
:10153800BC61A1EF0AF0A3EF0AF0BEEF0AF0B40E07
:101548002D6E000E2E6EBC51B6EC1FF00001B55189
:1015580009E1790EB45DD8A0B4EF0AF0B6EF0AF04D
:10156800BAEF0AF0000EB56F780EB46F290EBB6F94
:10157800BEEF0AF02A0EBC19D8A4C5EF0AF0C7EFCF
:101588000AF0D2EF0AF0B40E2E6E000E2F6E48EC61
:1015980021F0290E0001BB6FD2EF0AF0230EBC190F
:1015A800D8A4D9EF0AF0DBEF0AF065EF0FF02A0EA6
:1015B800BB6F65EF0FF065EF0FF020EE55F002D826
:1015C800F7EF0AF00500FA6EDE50FD6EDE50FE6E93
:1015D800F850FF6EFA50000E2E6E540E2F6E7F0ECE
:1015E800306E020E120020EE57F002D80FEF0BF00B
:1015F8000500FA6EDE50FD6EDE50FE6EF850FF6E8E
:10160800FA500F0E326EB4C033F0B5C034F0030E8A
:10161800356E020E1200280E0001BB6F65EF0FF049
:10162800B45186EC1DF020EE59F002D826EF0BF0ED
:101638000500FA6EDE50FD6EDE50FE6EF850FF6E4D
:10164800FA501200100E0001BB6F65EF0FF025EC89
:1016580020F00001BC6F2F0EBC6535EF0BF037EFA3
:101668000BF07AEF0BF03A0EBC613DEF0BF03FEF59
:101678000BF07AEF0BF0B00E2D6E000E2E6EBC51F3
:10168800B6EC1FF0110E0001B05D270EB159D8A0BD
:1016980050EF0BF052EF0BF056EF0BF0270EB16F37
:1016A800100EB06F350EBB6F65EF0FF07AEF0BF0D1
:1016B80062EF0BF062EF0BF062EF0BF0BEEC22F082
:1016C800100E0001BB6F65EF0FF0360EBB6F65EFB4
:1016D8000FF0B00E2E6E000E2F6E48EC21F0350E76
:1016E8000001BB6F65EF0FF065EF0FF0BC51456E61
:1016F800466A4650000AD8B484EF0BF065EF0FF045
:101708004550230AD8B469EF0BF0090AD8B46DEF35
:101718000BF06B0AD8B462EF0BF0030AD8B462EF8F
:101728000BF0010AD8B462EF0BF0070AD8B462EFE5
:101738000BF065EF0FF065EF0FF020EE59F002D8CF
:10174800B0EF0BF00500FA6EDE50FD6EDE50FE6E57
:10175800F850FF6EFA50120020EE55F002D8C6EF8E
:101768000BF00500FA6EDE50FD6EDE50FE6EF8508E
:10177800FF6EFA50000E2E6EC50E2F6E7D0E306E67
:10178800000E120020EE57F002D8DEEF0BF0050035
:10179800FA6EDE50FD6EDE50FE6EF850FF6EFA50A7
:1017A8000F0E326EB0C033F0B1C034F0050E356E96
:1017B800000E120020EE55F002D8F4EF0BF00500F1
:1017C800FA6EDE50FD6EDE50FE6EF850FF6EFA5077
:1017D800000E2E6E000E2F6E7F0E306E020E12005F
:1017E800340E0001BB6F65EF0FF00A0E2D6EB2C00C
:1017F8002EF00A0E9CEC21F002D816EF0CF0050032
:10180800FA6E4750FD6E4850FE6EF850FF6EFA5063
:1018180092EC22F0020E27242D6E000E28202E6E48
:101828000B0E1200210E2E6E7D0E2F6E20EE53F041
:1018380002D829EF0CF00500FA6EDE50FD6EDE507E
:10184800FE6EF850FF6EFA50120025EC20F00001F1
:10185800BC6F3CEF0CF04B0EBB6F65EF0FF0BEECAE
:1018680022F0350E0001BB6F65EF0FF065EF0FF04A
:10187800BC51456E466A4650000AD8B446EF0CF093
:1018880065EF0FF04550230AD8B42FEF0CF0090A82
:10189800D8B433EF0CF065EF0FF065EF0FF020EEE2
:1018A80059F002D862EF0CF00500FA6EDE50FD6EBA
:1018B800DE50FE6EF850FF6EFA501200D30E2E6EF8
:1018C8007C0E2F6E20EE53F002D875EF0CF0050059
:1018D800FA6EDE50FD6EDE50FE6EF850FF6EFA5066
:1018E80012004C0E0001BB6F7AEF0CF025EC20F0D3
:1018F8000001BC6FDCEF0CF092EF0CF092EF0CF0F3
:1019080092EF0CF092EF0CF092EF0CF092EF0CF0DB
:1019180092EF0CF092EF0CF092EF0CF0BCC027F0B5
:10192800286A000E2A6E300E296E2EEC19F0275008
:101938002D6EB2C02EF00A0E9CEC21F002D8C1EF39
:101948000CF00500FA6E4750FD6E4850FE6EF850D8
:10195800FF6EFA5092EC22F0020E27242D6E000E34
:1019680028202E6EBCC027F0286A000E2A6E300E82
:10197800296E2EEC19F0275012004D0E0001BB6F96
:1019880065EF0FF020EE59F002D8D5EF0CF0050006
:10199800FA6EDE50FD6EDE50FE6EF850FF6EFA50A5
:1019A80012004A0E0001BB6F65EF0FF065EF0FF0F4
:1019B800BC51456E466A4650000AD8B4E6EF0CF0B2
:1019C80065EF0FF045502A0AD8B4C6EF0CF01A0A92
:1019D800D8B492EF0CF0010AD8B492EF0CF0030AD5
:1019E800D8B492EF0CF0010AD8B492EF0CF0070AC1
:1019F800D8B492EF0CF0010AD8B492EF0CF0030AB5
:101A0800D8B492EF0CF0010AD8B492EF0CF00F0A98
:101A1800D8B492EF0CF0010AD8B492EF0CF065EF4D
:101A28000FF065EF0FF020EE59F002D826EF0DF019
:101A38000500FA6EDE50FD6EDE50FE6EF850FF6E49
:101A4800FA501200000E0001A96F030EA9652FEFCE
:101A58000DF031EF0DF035EF0DF076EF0DF076EF7C
:101A68000DF0000EAA6F130EAA653DEF0DF03FEFC3
:101A78000DF043EF0DF06BEF0DF06BEF0DF020EE76
:101A880055F002D859EF0DF00500FA6EDE50FD6EE4
:101A9800DE50FE6EF850FF6EFA50AAC02EF0FC0E13
:101AA8002F6E7F0E306EA9511200000E286E0A0E9E
:101AB800276EE8EC20F00001AA2B130EAA6567EF49
:101AC8000DF069EF0DF043EF0DF06BEF0DF0A92B62
:101AD800030EA96572EF0DF074EF0DF035EF0DF000
:101AE80076EF0DF0000EAB6F030EAB657EEF0DF0D9
:101AF80080EF0DF084EF0DF0C5EF0DF0C5EF0DF0A0
:101B0800000EAC6F130EAC658CEF0DF08EEF0DF080
:101B180092EF0DF0BAEF0DF0BAEF0DF020EE55F0A0
:101B280002D8A8EF0DF00500FA6EDE50FD6EDE500B
:101B3800FE6EF850FF6EFA50ACC02EF0D80E2F6E25
:101B48007D0E306EAB511200000E286E0A0E276E05
:101B5800E8EC20F00001AC2B130EAC65B6EF0DF0ED
:101B6800B8EF0DF092EF0DF0BAEF0DF0AB2B030EBE
:101B7800AB65C1EF0DF0C3EF0DF084EF0DF0C5EFCD
:101B88000DF020EE55F002D8DBEF0DF00500FA6EEF
:101B9800DE50FD6EDE50FE6EF850FF6EFA50000EFD
:101BA8002E6E6D0E2F6E7E0E306E010E120020EE20
:101BB80055F002D8F1EF0DF00500FA6EDE50FD6E1B
:101BC800DE50FE6EF850FF6EFA50000E2E6EEF0ECD
:101BD8002F6E7D0E306E020E1200E80E2D6E030E73
:101BE8002E6E000E2F6E000E306E76EC22F04E0E2A
:101BF8000001BB6F65EF0FF080EC22F02750281032
:101C080029102A10D8A40BEF0EF00DEF0EF065EF97
:101C18000FF0350E0001BB6F65EF0FF065EF0FF0A9
:101C280020EE55F002D82AEF0EF00500FA6EDE50CD
:101C3800FD6EDE50FE6EF850FF6EFA50000E2E6EEE
:101C48002A0E2F6E7F0E306E020E120020EE57F015
:101C580002D842EF0EF00500FA6EDE50FD6EDE503F
:101C6800FE6EF850FF6EFA500F0E326EB4C033F0AD
:101C7800B5C034F0030E356E020E12005B0E000183
:101C8800BB6F65EF0FF025EC20F00001BC6F2F0E45
:101C9800BC6551EF0EF053EF0EF076EF0EF03A0EF2
:101CA800BC6159EF0EF05BEF0EF076EF0EF0B40E5C
:101CB8002D6E000E2E6EBC51B6EC1FF00001B55112
:101CC80009E1650EB45DD8A06CEF0EF06EEF0EF072
:101CD80072EF0EF0000EB56F640EB46F5A0EBB6F44
:101CE80076EF0EF02A0EBC19D8A47DEF0EF07FEF28
:101CF8000EF08AEF0EF0B40E2E6E000E2F6E48EC2A
:101D080021F05A0E0001BB6F8AEF0EF0230EBC19AA
:101D1800D8A491EF0EF093EF0EF065EF0FF05C0E84
:101D2800BB6F65EF0FF065EF0FF0B45113EC1FF0C8
:101D380020EE59F002D8ABEF0EF00500FA6EDE5037
:101D4800FD6EDE50FE6EF850FF6EFA501200100E57
:101D58000001BB6F65EF0FF0B0C027F0B1C028F0ED
:101D6800ADEC22F01E0E0001BB6F010EB36F65EFE4
:101D78000FF065EF0FF00001BB51456E466A465003
:101D8800000AD8B4CAEF0EF065EF0FF04550000A0C
:101D9800D8B472EF00F0010AD8B414EF01F0030AC6
:101DA800D8B472EF01F0010AD8B49EEF06F0050A24
:101DB800D8B4DEEF06F0010AD8B47DEF07F00F0AB9
:101DC800D8B486EF01F0010AD8B4AAEF01F0030AEB
:101DD800D8B450EF08F0010AD8B47EEF08F0050A2D
:101DE800D8B431EF09F01E0AD8B42AEF09F00E0A68
:101DF800D8B486EF09F0360AD8B48FEF0AF0010A92
:101E0800D8B4E1EF0AF0030AD8B414EF0BF01E0AB5
:101E1800D8B42BEF0BF0010AD8B4A1EF0BF0030AEA
:101E2800D8B4B0EF0EF0700AD8B48CEF09F0010AFC
:101E3800D8B4BEEF01F00F0AD8B4C0EF04F0010A1D
:101E4800D8B4E7EF04F0030AD8B4F9EF0BF0010AAD
:101E5800D8B453EF0CF0070AD8B47AEF0CF0010AA3
:101E6800D8B417EF0DF0030AD8B400EF0EF01E0A2D
:101E7800D8B441EF03F0010AD8B464EF03F0030AC1
:101E8800D8B478EF03F0060AD8B4A7EF03F0010A34
:101E9800D8B4F5EF03F0030AD8B4ACEF04F00C0A99
:101EA800D8B414EF0EF0010AD8B447EF0EF0070AC1
:101EB800D8B499EF0EF0380AD8B4F5EF01F065EF11
:101EC8000FF075EC1CF0B1EF10F0BFEF0EF0C9EC9D
:101ED80022F09EEC22F0020E0001AF6FBFEF0EF071
:101EE800B2EC22F007EC22F00001BA6FB305D8B4C7
:101EF80080EF0FF082EF0FF095EF0FF0030EB3199C
:101F0800D8B489EF0FF08BEF0FF095EF0FF0B351C6
:101F1800D8A491EF0FF093EF0FF0BFEF0EF095EF0D
:101F28000FF0030EAF6FBFEF0EF0BFEF0EF0640EB1
:101F3800BA65A1EF0FF0A3EF0FF0AEEF0FF0FE0EB2
:101F4800BA19D8A4AAEF0FF0ACEF0FF0E1EF0FF039
:101F5800AEEF0FF0BA0E276E000E286EE7EC14F005
:101F68000001BA51276E286A296A2A6AFF0E2B6E69
:101F78000F0E2C6E000E2D6E000E2E6EAEEC1CF0A9
:101F880027C033F028C034F029C035F02AC036F015
:101F9800640E376E000E386E000E396E000E3A6E03
:101FA8002BEC16F033C041F034C042F0BEEC21F007
:101FB800060E0001AF6FBFEF0EF0640EBA65E7EFD3
:101FC8000FF0E9EF0FF00CEF10F0DD0EBA61EFEF54
:101FD8000FF0F1EF0FF00CEF10F0640EBA5FBAC01B
:101FE80027F0286A030E2A6EE80E296E5FEC21F0AE
:101FF80027C02DF028C02EF0000E2EBEFF0E2F6E2B
:10200800306E76EC22F0040E0001AF6FBFEF0EF0D9
:10201800BA0E276E000E286EE7EC14F0AE0E276E8F
:10202800000E286E0001BA5149EC18F0050E0001A7
:10203800AF6FBFEF0EF0BFEF0EF0BFEF0EF080EC0A
:1020480022F02750281029102A10D8A42EEF10F0BB
:1020580030EF10F0BFEF0EF0060E0001AF6FBFEFCC
:102068000EF0BFEF0EF0AD0E276E000E286EBA51BF
:1020780091EC15F00009D8B444EF10F046EF10F0D9
:10208800BFEF0EF0060E0001AF6FBFEF0EF0BFEF0F
:102098000EF0030EB319D8A454EF10F056EF10F059
:1020A80058EF10F0020EB36F070EAF6FBFEF0EF0D0
:1020B80021EC22F0B2EC22F0456EBAEC22F0455C3D
:1020C800D8B069EF10F06BEF10F070EF10F0020E5F
:1020D8000001AF6FBFEF0EF0CCEC22F0080E00014C
:1020E800AF6FBFEF0EF0BFEF0EF0B351D8B47FEF74
:1020F80010F081EF10F0A8EF10F0A8EC22F027C044
:1021080045F028C046F0ADEC21F02750455C28503A
:102118004658D8A092EF10F094EF10F0A1EF10F00D
:10212800ADEC21F027502810D8A49DEF10F09FEFB8
:1021380010F0A8EF10F0A1EF10F0C9EC22F0020E99
:102148000001AF6FBFEF0EF0000E0001AF6FBFEFE1
:102158000EF0BFEF0EF0BFEF0EF00001AF51456E6D
:10216800466A4650000AD8B4BCEF10F0BFEF0EF034
:102178004550000AD8B4BFEF0EF0010AD8B46BEF8F
:102188000FF0030AD8B474EF0FF0010AD8B49BEF2C
:102198000FF0070AD8B423EF10F0010AD8B437EFCC
:1021A80010F0030AD8B44DEF10F0010AD8B45CEF70
:1021B80010F00F0AD8B479EF10F0BFEF0EF0BFEFB0
:1021C8000EF0BFEF0EF007EF00F0000E336E000EBA
:1021D800376E000E366E000E356E5CC034F0000EA1
:1021E800296E000E54EC1EF0FAEF10F03350D8B4FC
:1021F80000EF11F002EF11F008EF11F0200E8FEC54
:102208001FF0352A86EF12F03450010D150EF32415
:10221800D96E000EF420DA6EDF50376E342A37504C
:10222800D8A419EF11F01BEF11F01FEF11F0010EF8
:10223800336E86EF12F0650E376025EF11F027EF49
:1022480011F07EEF11F037C036F0630E36642FEFD1
:1022580011F031EF11F050EF11F0310E8FEC1FF04B
:10226800352A36C027F0286A000E2A6E640E296EB9
:102278002EEC19F02750366E0A0E366046EF11F034
:1022880048EF11F050EF11F0300E8FEC1FF0352AA7
:1022980050EF11F050EF11F0090E366456EF11F0BF
:1022A80058EF11F073EF11F036C027F0286A000ECE
:1022B8002A6E0A0E296ED3EC17F02750300F8FECD8
:1022C8001FF0352A36C027F0286A000E2A6E0A0E3B
:1022D800296E2EEC19F02750366E73EF11F0365038
:1022E800300F8FEC1FF0352A250E8FEC1FF0352AA2
:1022F80086EF12F0640E376484EF11F086EF11F068
:10230800EBEF11F0DD0E37608CEF11F08EEF11F06E
:10231800EBEF11F0370E276E000E286EE7EC14F085
:1023280037C036F0630E36649CEF11F09EEF11F063
:10233800BDEF11F0310E8FEC1FF0352A36C027F0B3
:10234800286A000E2A6E640E296E2EEC19F02750AA
:10235800366E0A0E3660B3EF11F0B5EF11F0BDEF2F
:1023680011F0300E8FEC1FF0352ABDEF11F0BDEFE4
:1023780011F0090E3664C3EF11F0C5EF11F0E0EF6C
:1023880011F036C027F0286A000E2A6E0A0E296E50
:10239800D3EC17F02750300F8FEC1FF0352A36C0DA
:1023A80027F0286A000E2A6E0A0E296E2EEC19F004
:1023B8002750366EE0EF11F03650300F8FEC1FF0DB
:1023C800352A730E8FEC1FF0352A86EF12F0DC0EDB
:1023D8003764F1EF11F0F3EF11F060EF12F0FE0E39
:1023E8003760F9EF11F0FBEF11F060EF12F0370EE4
:1023F800276E000E286EE7EC14F031EF12F011EFA3
:1024080012F011EF12F011EF12F011EF12F011EFBC
:1024180012F011EF12F011EF12F03750DF0B8FECC2
:102428001FF0352A37BA1BEF12F01DEF12F023EF19
:1024380012F0000E326E2B0E316E29EF12F0000EE4
:10244800326E2D0E316E29EF12F031508FEC1FF0E5
:10245800352A86EF12F086EF12F037502F6E306A69
:102468003050000AD8B43BEF12F086EF12F02F502C
:10247800410AD8B411EF12F0030AD8B411EF12F0E0
:10248800010AD8B411EF12F0070AD8B411EF12F00C
:10249800250AD8B411EF12F0030AD8B411EF12F0DC
:1024A800010AD8B411EF12F0070AD8B411EF12F0EC
:1024B80086EF12F086EF12F0FE0E3718D8A467EFF9
:1024C80012F069EF12F086EF12F0370E276E000E49
:1024D800286EE7EC14F037C036F03650300F8FEC2A
:1024E8001FF0352A250E8FEC1FF0352A86EF12F0E3
:1024F80086EF12F086EF12F086EF12F086EF12F0F8
:1025080086EF12F0140E35648CEF12F08EEF12F095
:10251800FAEF10F090EF12F01200436E4050FAEC10
:1025280021F0446E4450D8B49CEF12F09EEF12F0A4
:10253800C9EF12F0650E4460A4EF12F0A6EF12F096
:10254800C9EF12F044C02FF0306ADDEC1FF0030A27
:10255800D8A4B1EF12F0B3EF12F0B6EF12F04306C1
:10256800B6EF12F043C032F044C033F0346A44C0CE
:102578002FF0306ADDEC1FF0356E000E62EC13F0C0
:10258800250E8FEC1FF061EF13F0640E4464CFEF5B
:1025980012F0D1EF12F002EF13F0DD0E4460D7EF26
:1025A80012F0D9EF12F002EF13F0440E276E000E6E
:1025B800286EE7EC14F044C02FF0306ADDEC1FF011
:1025C800030AD8A4EAEF12F0ECEF12F0EFEF12F0E2
:1025D8004306EFEF12F043C032F044C033F0346AE0
:1025E80044C02FF0306ADDEC1FF0356E000E62EC4F
:1025F80013F0730E8FEC1FF061EF13F0DC0E4464E0
:1026080008EF13F00AEF13F039EF13F0FE0E4460F1
:1026180010EF13F012EF13F039EF13F0440E276E9A
:10262800000E286EE7EC14F043C029F0000E54ECBD
:102638001EF04450DF0B8FEC1FF044BA26EF13F066
:1026480028EF13F02EEF13F0000E426E2B0E416EA2
:1026580034EF13F0000E426E2D0E416E34EF13F07E
:1026680041508FEC1FF061EF13F0FE0E4418D8A410
:1026780040EF13F042EF13F061EF13F0440E276EB2
:10268800000E286EE7EC14F043C032F044C033F07B
:10269800346A44C02FF0306ADDEC1FF0356E000E4E
:1026A80062EC13F0250E8FEC1FF061EF13F061EF71
:1026B80013F061EF13F061EF13F012003B6E34BEBC
:1026C80068EF13F06BEF13F0010E6CEF13F0000ED0
:1026D8003D6E3D50D8B473EF13F075EF13F07BEFF8
:1026E80013F0336C341ED8B0342A7BEF13F032C0A9
:1026F80029F03B5054EC1EF0270E3F6E100E3E6E34
:10270800050E3C6EB0EF13F033C027F034C028F04C
:102718003EC029F03FC02AF0D3EC17F0275028100C
:10272800D8A499EF13F09BEF13F0C7EF13F03C0612
:10273800A0EF13F0C7EF13F03EC027F03FC028F01A
:10274800000E2A6E0A0E296ED3EC17F027C03EF051
:1027580028C03FF0B0EF13F03FBEBDEF13F03F507D
:1027680006E13E04D8B0BBEF13F0BDEF13F088EFDD
:1027780013F0C7EF13F0C7EF13F0200E8FEC1FF024
:102788003506C7EF13F03550366E376A3D503CC0FA
:1027980038F0396A3826000E39223650385C3950FC
:1027A800800A3A6E3750800A3A58D8B0DEEF13F0F4
:1027B800E0EF13F0ECEF13F0020E3560E6EF13F0E4
:1027C800E8EF13F0C1EF13F0ECEF13F0ECEF13F0B8
:1027D8003D50D8B4F2EF13F0F4EF13F0F9EF13F023
:1027E8002D0E8FEC1FF0F9EF13F033C027F034C033
:1027F80028F03EC029F03FC02AF0D3EC17F027504C
:10280800300F8FEC1FF033C027F034C028F03EC0E3
:1028180029F03FC02AF02EEC19F027C033F028C069
:1028280034F03EC027F03FC028F0000E2A6E0A0E92
:10283800296ED3EC17F027C03EF028C03FF03FBE0A
:1028480030EF14F03F5006E13E04D8B02EEF14F0FC
:1028580030EF14F0F9EF13F032EF14F012002B6E92
:10286800CDEF14F027C0D9FF28C0DAFFDF50D8A475
:1028780040EF14F042EF14F0E6EF14F027C0D9FF50
:1028880028C0DAFFFE0EDF6EE6EF14F0E6EF14F074
:1028980027C0D9FF28C0DAFF640EDF26E6EF14F060
:1028A80098EF14F027C0D9FF28C0DAFFDD0EDF6EDD
:1028B800E6EF14F027C0D9FF28C0DAFFDE0EDF6E7E
:1028C800E6EF14F027C0D9FF28C0DAFFDF0EDF6E6D
:1028D800E6EF14F027C0D9FF28C0DAFFE00EDF6E5C
:1028E800E6EF14F027C0D9FF28C0DAFFE10EDF6E4B
:1028F800E6EF14F027C0D9FF28C0DAFFE20EDF6E3A
:10290800E6EF14F027C0D9FF28C0DAFFE30EDF6E28
:10291800E6EF14F027C0D9FF28C0DAFFE40EDF6E17
:10292800E6EF14F0E6EF14F027C0D9FF28C0DAFF6D
:10293800DF50296E2A6A2A50000AD8B4A6EF14F08C
:10294800E6EF14F02950410AD8B456EF14F0030A00
:10295800D8B466EF14F0010AD8B476EF14F0070A79
:10296800D8B486EF14F0250AD8B45EEF14F0030A41
:10297800D8B46EEF14F0010AD8B47EEF14F0070A49
:10298800D8B48EEF14F0E6EF14F0E6EF14F0E6EFAB
:1029980014F02B50296E2A6A2A50000AD8B4D7EFAF
:1029A80014F0E6EF14F02950610AD8B498EF14F047
:1029B800110AD8B436EF14F0040AD8B44CEF14F066
:1029C800E6EF14F0120027C0D9FF28C0DAFF650E21
:1029D800DF60F1EF14F0F3EF14F0F7EF14F090EF7D
:1029E80015F090EF15F027C0D9FF28C0DAFFDD0EEB
:1029F800DF6001EF15F003EF15F057EF15F027C072
:102A0800D9FF28C0DAFF640EDF5E90EF15F057EFAC
:102A180015F027C0D9FF28C0DAFF410EDF6E90EF0E
:102A280015F027C0D9FF28C0DAFF610EDF6E90EFDE
:102A380015F027C0D9FF28C0DAFF420EDF6E90EFED
:102A480015F027C0D9FF28C0DAFF620EDF6E90EFBD
:102A580015F027C0D9FF28C0DAFF430EDF6E90EFCC
:102A680015F027C0D9FF28C0DAFF630EDF6E90EF9C
:102A780015F027C0D9FF28C0DAFF440EDF6E90EFAB
:102A880015F027C0D9FF28C0DAFF640EDF6E90EF7B
:102A980015F027C0D9FF28C0DAFF000EDF6E90EFCF
:102AA80015F090EF15F027C0D9FF28C0DAFFDF50E6
:102AB800296E2A6A2A50000AD8B465EF15F090EFFB
:102AC80015F02950DD0AD8B40DEF15F0030AD8B473
:102AD80015EF15F0010AD8B41DEF15F03F0AD8B468
:102AE80025EF15F0010AD8B42DEF15F0030AD8B474
:102AF80035EF15F0010AD8B43DEF15F0070AD8B440
:102B080045EF15F01A0AD8B44DEF15F090EF15F00F
:102B180090EF15F090EF15F012002B6EFDEF15F009
:102B280027C0D9FF28C0DAFFDF50020B2AEF16F0C2
:102B38002AEF16F02AEF16F027C0D9FF28C0DAFFCF
:102B4800DF50010B2AEF16F02AEF16F02AEF16F0E5
:102B580027C0D9FF28C0DAFFDF50080B2AEF16F08C
:102B68002AEF16F02AEF16F027C0D9FF28C0DAFF9F
:102B7800DF50040B2AEF16F02AEF16F02AEF16F0B2
:102B880027C0D9FF28C0DAFFDF50200B2AEF16F044
:102B98002AEF16F02AEF16F027C0D9FF28C0DAFF6F
:102BA800DF50100B2AEF16F02AEF16F02AEF16F076
:102BB80027C0D9FF28C0DAFFDF50800B2AEF16F0B4
:102BC8002AEF16F02AEF16F027C0D9FF28C0DAFF3F
:102BD800DF50400B2AEF16F02AEF16F02AEF16F016
:102BE800000E2AEF16F02AEF16F02AEF16F02AEF59
:102BF80016F02B50296E2A6A2A50000AD8B407EF1B
:102C080016F0F4EF15F02950410AD8B494EF15F0F6
:102C1800030AD8B4ACEF15F0010AD8B4C4EF15F024
:102C2800070AD8B4DCEF15F0250AD8B4A0EF15F0E0
:102C3800030AD8B4B8EF15F0010AD8B4D0EF15F0EC
:102C4800070AD8B4E8EF15F0F4EF15F01200000EFB
:102C58003C6E3ABE34EF16F032EF16F040EF16F045
:102C68003A1E391E381E376C000E382239223A2295
:102C7800010E3C6E40EF16F036BE47EF16F045EFFA
:102C880016F053EF16F0361E351E341E336C000E48
:102C9800342235223622010E3C1A53EF16F0000E6C
:102CA8003D6E000E3E6E000E3F6E000E406E3750B9
:102CB800381039103A10D8B464EF16F066EF16F0F1
:102CC800A8EF16F0010E3B6E72EF16F0D89037366B
:102CD800383639363A363B2A72EF16F03AAE77EF85
:102CE80016F079EF16F06AEF16F07DEF16F07DEF2B
:102CF80016F0D8903D363E363F3640363750335C76
:102D080038503458395035583A503658D8A08FEF83
:102D180016F091EF16F09CEF16F03750335E3850EE
:102D2800345A3950355A3A50365A3D809CEF16F08D
:102D3800D8903A323932383237323B2E7DEF16F09E
:102D4800A8EF16F0A8EF16F03C50D8B4AEEF16F086
:102D5800B0EF16F0BAEF16F0401E3F1E3E1E3D6C57
:102D6800000E3E223F224022BAEF16F03DC033F05B
:102D78003EC034F03FC035F040C036F0C4EF16F026
:102D88001200000E336E5D04346E020E3460CFEF15
:102D980016F0D1EF16F0D5EF16F050EF17F050EF10
:102DA80017F03450010D150EF324D96E000EF420DF
:102DB800DA6EDF50356E650E3560E5EF16F0E7EF39
:102DC80016F0F1EF16F035C02FF0306ADDEC1FF089
:102DD800326E32283326F1EF16F0640E3564F7EFC1
:102DE80016F0F9EF16F00EEF17F0DD0E3560FFEF75
:102DF80016F001EF17F00EEF17F09C0E35242F6E2A
:102E0800306AFF0E3022DDEC1FF0326E3228332696
:102E18000EEF17F0DC0E356414EF17F016EF17F00D
:102E280020EF17F0FE0E35601CEF17F01EEF17F0BD
:102E380020EF17F0020E3326FE0E3518D8A427EF20
:102E480017F029EF17F033EF17F035C02FF0306A7D
:102E5800DDEC1FF0326E3228332633EF17F0140EF4
:102E6800336439EF17F03BEF17F041EF17F050EFED
:102E780017F050EF17F045EF17F034C05CF045EF4E
:102E880017F03406020E34604CEF17F04EEF17F0CF
:102E9800D5EF16F050EF17F01200286E8A9C28C064
:102EA80027F0273A0F0E2716274627468A50271855
:102EB800C30B27188A6E8A9E2804D8B466EF17F0C9
:102EC80068EF17F073EF17F0020E2818D8A46FEF09
:102ED80017F071EF17F07CEF17F073EF17F00D0E86
:102EE800276EFC0EE82EFED7272EFCD782EF17F0B0
:102EF800420EE82EFED700D082EF17F08A8E2850B7
:102F0800F00B200AD8A48BEF17F08DEF17F0A2EF83
:102F180017F08A9C28C027F0273A0F0E2716274655
:102F280027468A502718C30B27188A6E8A9E420E96
:102F3800E82EFED700D08A8EA2EF17F08A9C28C010
:102F480027F00F0E2716274627468A502718C30B47
:102F580027188A6E8A9E2804D8B4B5EF17F0B7EF01
:102F680017F0C2EF17F0020E2818D8A4BEEF17F01A
:102F7800C0EF17F0CBEF17F0C2EF17F00D0E276E6A
:102F8800FC0EE82EFED7272EFCD7D1EF17F0420E05
:102F9800E82EFED700D0D1EF17F08A8E1200000E6F
:102FA8002C6E2ABEDCEF17F0DAEF17F0E4EF17F01B
:102FB800296C2A1ED8B02A2A010E2C6EE4EF17F0CD
:102FC80028BEEBEF17F0E9EF17F0F3EF17F0276CD7
:102FD800281ED8B0282A010E2C1AF3EF17F0000E7D
:102FE8002E6E000E2D6E29502A10D8B4FEEF17F061
:102FF80000EF18F034EF18F0010E2B6E0AEF18F0FE
:10300800D89029362A362B2A0AEF18F02AAE0FEF65
:1030180018F011EF18F004EF18F015EF18F015EF8D
:1030280018F0D8902D362E362950275C2A5028586B
:10303800D8A021EF18F023EF18F02AEF18F0295044
:10304800275E2A50285A2D802AEF18F0D8902A3265
:1030580029322B2E15EF18F034EF18F034EF18F052
:103068002C50D8B43AEF18F03CEF18F042EF18F0B3
:103078002D6C2E1ED8B02E2A42EF18F02DC027F046
:103088002EC028F048EF18F012002B6E8EEF18F0C3
:1030980027C0D9FF28C0DAFF000EDB80BBEF18F08D
:1030A80027C0D9FF28C0DAFFFE0EDF16BBEF18F0E5
:1030B80027C0D9FF28C0DAFF000EDB82BBEF18F06B
:1030C80027C0D9FF28C0DAFFFD0EDF16BBEF18F0C6
:1030D80027C0D9FF28C0DAFF000EDB84BBEF18F049
:1030E80027C0D9FF28C0DAFFFB0EDF16BBEF18F0A8
:1030F80027C0D9FF28C0DAFF000EDB86BBEF18F027
:1031080027C0D9FF28C0DAFFF70EDF16BBEF18F08B
:10311800BBEF18F02B50296E2A6A2A50000AD8B43F
:1031280098EF18F0BBEF18F02950410AD8B44CEFCB
:1031380018F0030AD8B45CEF18F0010AD8B46CEFA1
:1031480018F0070AD8B47CEF18F0250AD8B454EF61
:1031580018F0030AD8B464EF18F0010AD8B474EF71
:1031680018F0070AD8B484EF18F0BBEF18F0120073
:10317800000E296E000E2A6E030E2A64C6EF18F0A0
:10318800C8EF18F0CCEF18F02AEF19F02AEF19F071
:103198002AC027F0010E286E272AD5EF18F0D890FC
:1031A8002836272ED3EF18F02850836E000E2B6E8A
:1031B800030E2B64E2EF18F0E4EF18F0E8EF18F0D4
:1031C8001FEF19F01FEF19F02BC027F0100E286E13
:1031D800272AF1EF18F0D8902836272EEFEF18F0AD
:1031E800285083140009D8B4FCEF18F0FEEF18F04B
:1031F80014EF19F02A50040DE10E276E000E286E08
:10320800F3502726F45028222B50010DF350272481
:10321800D96EF4502820DA6EDF50296E14EF19F0B9
:103228002B2A030E2B641BEF19F01DEF19F0E8EFA2
:1032380018F01FEF19F02A2A030E2A6426EF19F056
:1032480028EF19F0CCEF18F02AEF19F029502DEFDC
:1032580019F01200000E2C6E28BE37EF19F035EF6A
:1032680019F03FEF19F0276C281ED8B0282A010E54
:103278002C6E3FEF19F02ABE46EF19F044EF19F013
:103288004CEF19F0296C2A1ED8B02A2A4CEF19F0F5
:1032980029502A10D8B453EF19F055EF19F085EFDB
:1032A80019F0010E2B6E5FEF19F0D89029362A36E7
:1032B8002B2A5FEF19F02AAE64EF19F066EF19F0C8
:1032C80059EF19F06AEF19F06AEF19F02950275CE5
:1032D8002A502858D8A073EF19F075EF19F07BEF32
:1032E80019F02950275E2A50285A7BEF19F0D890F8
:1032F8002A3229322B2E6AEF19F085EF19F085EF63
:1033080019F02C50D8B48BEF19F08DEF19F093EF1A
:1033180019F0276C281ED8B0282A93EF19F027C077
:1033280027F028C028F099EF19F01200296EDAEF7B
:1033380019F013B0A2EF19F0A5EF19F0010EA6EFDE
:1033480019F0000EF7EF19F0F7EF19F013B2AFEF1D
:1033580019F0B2EF19F0010EB3EF19F0000EF7EF04
:1033680019F0F7EF19F013B4BCEF19F0BFEF19F02B
:10337800010EC0EF19F0000EF7EF19F0F7EF19F092
:1033880013B6C9EF19F0CCEF19F0010ECDEF19F013
:10339800000EF7EF19F0F7EF19F0000EF7EF19F03C
:1033A800F7EF19F0F7EF19F0F7EF19F02950276E3A
:1033B800286A2850000AD8B4E4EF19F0D1EF19F0C0
:1033C8002750410AD8B49DEF19F0030AD8B4AAEFE0
:1033D80019F0010AD8B4B7EF19F0070AD8B4C4EF46
:1033E80019F0D1EF19F012003AEF1AF0FEEF19F0C8
:1033F800FEEF19F020EEDBF002D80DEF1AF0050011
:10340800FA6EDE50FD6EDE50FE6EF850FF6EFA501A
:1034180012000009D8A413EF1AF015EF1AF0FEEF06
:1034280019F017EF1AF020EED9F002D836EF1AF09B
:103438000500FA6EDE50FD6EDE50FE6EF850FF6E2F
:10344800FA5028C0F6FF29C0F7FFF86A070EF7649C
:1034580003D00800F55005D0F6CFE1FFF7CFE2FF23
:10346800E7501200284A292A3AEF1AF028C0F6FF36
:1034780029C0F7FFF86A070EF76403D00800F55073
:1034880005D0F6CFE1FFF7CFE2FFE7500009D8A457
:1034980050EF1AF052EF1AF0FEEF19F054EF1AF04D
:1034A80012005D50D8B45BEF1AF05DEF1AF0AEEF82
:1034B8001AF0020E5D6463EF1AF065EF1AF068EF18
:1034C8001AF05D0668EF1AF05D50010D150EF32431
:1034D800D96E000EF420DA6EDC0EDF6476EF1AF097
:1034E80078EF1AF0A2EF1AF05D50010D150EF324D3
:1034F800276E000EF420286EE7EC14F05D50010DE5
:10350800150EF324D96E000EF420DA6EDF50DF0BAF
:103518000DEC1BF05D50010D150EF324D96E000E55
:10352800F420DA6EDF50366E376A36C027F037C0BF
:1035380028F0610E33EC14F0A2EF1AF05D50010D83
:10354800150EF324D96E000EF420DA6E000EDF6E2D
:10355800AEEF1AF0C5EC16F01200000E2F6E000E3A
:10356800306E000E316E000E326E2B502C102D1066
:103578002E10D8B4C2EF1AF0C4EF1AF004EF1BF003
:10358800010E336ED0EF1AF0D8902B362C362D362C
:103598002E36332AD0EF1AF02EAED5EF1AF0D7EF29
:1035A8001AF0C8EF1AF0DBEF1AF0DBEF1AF0D89038
:1035B8002F363036313632362B50275C2C5028586F
:1035C8002D5029582E502A58D8A0EDEF1AF0EFEFB9
:1035D8001AF0FAEF1AF02B50275E2C50285A2D506B
:1035E800295A2E502A5A2F80FAEF1AF0D8902E32E4
:1035F8002D322C322B32332EDBEF1AF004EF1BF076
:103608002FC027F030C028F031C029F032C02AF08E
:103618001200296E3EEF1BF013A015EF1BF018EFF8
:103628001BF0138019EF1BF013905BEF1BF013A234
:1036380020EF1BF023EF1BF0138224EF1BF01392F3
:103648005BEF1BF013A42BEF1BF02EEF1BF0138482
:103658002FEF1BF013945BEF1BF013A636EF1BF054
:1036680039EF1BF013863AEF1BF013965BEF1BF054
:103678005BEF1BF02950276E286A2850000AD8B43F
:1036880048EF1BF05BEF1BF02750410AD8B410EF4E
:103698001BF0030AD8B41BEF1BF0010AD8B426EFBD
:1036A8001BF0070AD8B431EF1BF05BEF1BF01200D8
:1036B8002A6E2A04D8A463EF1BF065EF1BF06DEFA8
:1036C8001BF0980E286E7F0E296EF8EC19F06DEF3E
:1036D8001BF0020E2A18D8A474EF1BF076EF1BF02B
:1036E80084EF1BF0B40E286E7F0E296EF8EC19F0EB
:1036F8005F0E286E7D0E296EF8EC19F084EF1BF032
:10370800030E2A18D8A48BEF1BF08DEF1BF09BEF4C
:103718001BF0C20E286E7F0E296EF8EC19F05F0EB2
:10372800286E7D0E296EF8EC19F0A3EF1BF08A0EB7
:10373800286E7F0E296EF8EC19F0A3EF1BF012002B
:1037480005C02AF006C02BF007C02CF008C02DF0E9
:10375800410E9AEC19F02A6E420E9AEC19F02B6E73
:10376800430E9AEC19F02C6E440E9AEC19F02D6E5B
:103778002A0E2E6E000E2F6E000E306E080E316E61
:10378800DDEF1BF02EC0D9FF2FC0DAFFDF50D8B411
:10379800D0EF1BF0D2EF1BF0D7EF1BF030503110F9
:1037A800306ED7EF1BF02E4A2F2AD8903132DDEF3A
:1037B8001BF03150D8A4E3EF1BF0E5EF1BF0C6EF88
:1037C8001BF0E7EF1BF03050EAEF1BF01200CC0EB5
:1037D800F66E3D0EF76E000EF86E01EE00F010EE7C
:1037E8005AF00900F5CFEEFFE550E150FAE1D40EAA
:1037F800F66E440EF76E000EF86E00EE47F010EE0F
:1038080017F00900F5CFEEFFE550E150FAE1360E6A
:10381800F66E410EF76E000EF86E00EEBDF010EE7B
:1038280034F00900F5CFEEFFE550E150FAE101EE82
:103838005AF01E0EEE6AE806FDE10001F26BF16B2C
:1038480000EE01F0260EEE6AE806FDE15E905E925B
:10385800000EF86E000109EF00F0000E2C6E000E4D
:103868002B6E29502A10D8B43CEF1CF03EEF1CF008
:1038780070EF1CF0010E2D6E48EF1CF0D890293621
:103888002A362D2A48EF1CF02AAE4DEF1CF04FEFD8
:103898001CF042EF1CF053EF1CF053EF1CF0D890D3
:1038A8002B362C362950275C2A502858D8A05FEF91
:1038B8001CF061EF1CF068EF1CF02950275E2A50BD
:1038C800285A2B8068EF1CF0D8902A3229322D2EE6
:1038D80053EF1CF070EF1CF02BC027F02CC028F021
:1038E800120012042E6EC6EC22F0000E2F6EA0EF0E
:1038F8001CF02F50010DF3500B24D96EF4500C20FE
:10390800DA6E2F502A6E2B6A2A1E2B1E2A4A2B2A61
:103918002E502C6E2D6A2A502C262B502D222C50DE
:103928000924E16E2D500A20E26EE750EEEC1DF0FE
:10393800DF6E2F2AA0EF1CF012502F5CD8A0A7EF43
:103948001CF0A9EF1CF07DEF1CF0ABEF1CF0C6ECEF
:1039580022F01200000E2F6E000E306E000E316E37
:10396800000E326EB8EF1CF027A0BDEF1CF0BFEFC1
:103978001CF0C9EF1CF02B502F262C5030222D5054
:1039880031222E503222C9EF1CF0D8902B362C361B
:103998002D362E36D8902A3229322832273227500F
:1039A800281029102A10D8A4DCEF1CF0DEEF1CF038
:1039B800B8EF1CF02FC027F030C028F031C029F034
:1039C80032C02AF01200F29E000E276E2D0E286ECD
:1039D800310E296E010E2A6E34C038F035C039F028
:1039E80036C03AF037C03BF0020ED8903836393638
:1039F8003A363B36E82EF9EF1CF038C02BF039C0C8
:103A08002CF03AC02DF03BC02EF0B1EC1AF0FF0EAE
:103A180027240001996FFF0E28209A6FAC98B8866A
:103A2800AC84AB8EAC8AAB889D8A9D98F28CF28E62
:103A38001200000E306E000E296E000E54EC1EF0BF
:103A480040EF1DF00A0E3118D8B42DEF1DF02FEFFE
:103A58001DF034EF1DF031508FEC1FF03CEF1DF0DE
:103A6800000E296E302A305054EC1EF03CEF1DF049
:103A78002E4A2F2A40EF1DF02EC0F6FF2FC0F7FF69
:103A88000800F5CF31F03150D8A44DEF1DF04FEFBD
:103A98001DF026EF1DF051EF1DF012002B6E080EE1
:103AA8002C6E410E2A6E2B28D8A45DEF1DF05FEF17
:103AB8001DF079EF1DF085EF1DF085EF1DF079EF12
:103AC8001DF02B502C140009D8B46DEF1DF06FEFCA
:103AD8001DF074EF1DF02A500DEC1BF074EF1DF073
:103AE8002A2AD8902C3279EF1DF02C50D8A47FEFD9
:103AF8001DF081EF1DF065EF1DF085EF1DF085EFDE
:103B08001DF01200366E120E5D608DEF1DF08FEF06
:103B18001DF0B7EF1DF03650D8B495EF1DF097EFB4
:103B28001DF0B7EF1DF0360E276E000E286E740ECE
:103B380033EC14F05D50010D150EF324D96E000E10
:103B4800F420DA6E36C0DFFF5D2A5D50010D150ED8
:103B5800F324D96E000EF420DA6E000EDF6EB7EF94
:103B68001DF0B7EF1DF0C5EC16F01200366E120E00
:103B78005D60C1EF1DF0C3EF1DF0EBEF1DF0365097
:103B8800D8B4C9EF1DF0CBEF1DF0EBEF1DF0360EEA
:103B9800276E000E286E610E33EC14F05D50010D97
:103BA800150EF324D96E000EF420DA6E36C0DFFF4E
:103BB8005D2A5D50010D150EF324D96E000EF42018
:103BC800DA6E000EDF6EEBEF1DF0EBEF1DF0C5ECCB
:103BD80016F01200276E800E296E000E286E14EF64
:103BE8001EF08094275029140009D8B4FEEF1DF068
:103BF80000EF1EF003EF1EF0808004EF1EF08090AF
:103C080080A209EF1EF00BEF1EF00FEF1EF02950F7
:103C180028120FEF1EF08084D890293214EF1EF07E
:103C28002950D8A41AEF1EF01CEF1EF0F5EF1DF076
:103C38008094285020EF1EF01200110E5C6027EFD0
:103C48001EF029EF1EF04FEF1EF0FF0E276EFF0E3D
:103C5800286E5D50296E2A6A2750292628502A2264
:103C68005C502B6E2C6A29502B5C2C50800A2D6ED0
:103C78002A50800A2D58D8B044EF1EF046EF1EF0A7
:103C880049EF1EF05C2A53EF1EF05D045C6E53EFA3
:103C98001EF053EF1EF0110E5C6E53EF1EF0120073
:103CA8002C6E000E2D6E67EF1EF0400E2D6E80EF0D
:103CB8001EF0140E2D6E80EF1EF0540E2D6E80EF48
:103CC8001EF080EF1EF02C502A6E2B6A2B50000A33
:103CD800D8B471EF1EF080EF1EF02A50010AD8B454
:103CE80059EF1EF0030AD8B45DEF1EF0010AD8B4EC
:103CF80061EF1EF080EF1EF02D5029247F0B800FFE
:103D080051EC17F01200316E31C027F0286A88ECA8
:103D180021F027C02FF028C030F0000E326E0F0EB1
:103D2800326499EF1EF09BEF1EF09FEF1EF0B6EF86
:103D38001EF0B6EF1EF032502D24D96E000E2E2044
:103D4800DA6EDF50276E32502F24CFEC20F0322A63
:103D58000F0E3264B2EF1EF0B4EF1EF09FEF1EF0AC
:103D6800B6EF1EF01200316E31C027F0286A88ECD9
:103D780021F027C02FF028C030F0000E326E0F0E51
:103D88003264C9EF1EF0CBEF1EF0CFEF1EF0E5EF67
:103D98001EF0E5EF1EF032502D24D96E000E2E20B5
:103DA800DA6E32502F2489EC22F0DF6E322A0F0EA1
:103DB8003264E1EF1EF0E3EF1EF0CFEF1EF0E5EF07
:103DC8001EF0120041542B43574A41503D22000037
:103DD80000000000000000000000000000000000DB
:103DE80000000000000000000000000041542B43C8
:103DF800495053454E443D22000000000000000099
:103E0800000000000000000000004D756E646F2087
:103E1800616F2073657520636F6D616E646F366EB8
:103E2800120E5D601AEF1FF01CEF1FF03AEF1FF043
:103E3800360E276E000E286E700E33EC14F05D50AF
:103E4800010D150EF324D96E000EF420DA6E36C07B
:103E5800DFFF5D2A5D50010D150EF324D96E000EAB
:103E6800F420DA6E000EDF6E3AEF1FF0C5EC16F0A4
:103E780012002D6E2DC027F0286A88EC21F027C08B
:103E88002BF028C02CF0000E2E6E0F0E2E644FEF74
:103E98001FF051EF1FF055EF1FF066EF1FF066EFB0
:103EA8001FF0000E276E2E502B24CFEC20F02E2A68
:103EB8000F0E2E6462EF1FF064EF1FF055EF1FF036
:103EC80066EF1FF01200326E2EC031F02EC029F0BE
:103ED800325054EC1EF07EEF1FF02FC0F6FF30C0BA
:103EE800F7FF0800F5508FEC1FF02F4A302A312ACF
:103EF8007EEF1FF02FC0F6FF30C0F7FF0800F55027
:103F08000009D8A48AEF1FF08CEF1FF071EF1FF0A3
:103F18008EEF1FF01200286E8A8C28C027F0273AEF
:103F28000F0E2716274627468A502718C30B27182F
:103F38008A6E8A9E420EE82EFED700D08A8E8A8C20
:103F480028C027F00F0E2716274627468A5027181D
:103F5800C30B27188A6E8A9E420EE82EFED700D021
:103F68008A8E1200336ED00E2F6EFF0E306E2DC06B
:103F7800D9FF2EC0DAFFDECF27F0DDCF28F0000E04
:103F88002A6E0A0E296E5FEC21F03350316E326AC8
:103F980027503126285032222F50312630503222D5
:103FA8002DC0D9FF2EC0DAFF31C0DEFF32C0DDFFE1
:103FB8001200000E316EF2EF1FF02FC027F030C054
:103FC80028F0000E2A6E0A0E296ED3EC17F027C0CF
:103FD8002FF028C030F0312AF2EF1FF02F503010A8
:103FE800D8A4F9EF1FF0FBEF1FF0E1EF1FF0FDEF92
:103FF8001FF0315000EF20F012002AC02CF02BC027
:104008002DF0040E2E6ED8902D322C322E2E07EF66
:1040180020F02C50DEEC21F052EC22F0000E286E3D
:10402800010E276EE8EC20F02A38F00BDEEC21F0C8
:1040380052EC22F0000E286E010E276EE8EC20F0FC
:104048001200000E2D6E000E2C6EBCEC18F02D6EBA
:104058002D50D8B432EF20F034EF20F03EEF20F0AE
:104068001150D8A43AEF20F03CEF20F03EEF20F0BA
:104078002DC02CF02DC011F02C5043EF20F0120071
:1040880046EC22F0000E286E010E276EE8EC20F0B8
:10409800C00EDEEC21F052EC22F0000E286E010E6C
:1040A800276EE8EC20F0600EDEEC21F052EC22F0F6
:1040B800000E286E010E276EE8EC20F012009380A7
:1040C8009382C650F00B0809C66E400E276E4B0E41
:1040D800286E4C0E296E000E2A6E34C02BF035C0A7
:1040E8002CF036C02DF037C02EF0B1EC1AF02704B2
:1040F800C86EC78EC68A1200C16893949396939827
:10410800939A939C939E8A8E000E286E050E276EB6
:10411800E8EC20F0280E51EC17F00C0E51EC17F0DB
:10412800010E51EC17F0020E51EC17F0120002428A
:10413800F0330000B8360000000000000000000066
:104148000000000000000000000084457444CE39DF
:1041580000003132334134353642373839432A305A
:104168002344FD0ECF6E8F0ECE6E01500210031049
:104178000410D8B4C2EF20F0C4EF20F0CBEF20F049
:104188000106000E025A035A045ACEEF20F0CD90D1
:10419800CEEF20F01200286EF29E28C0A9FF27C09B
:1041A800A8FFA69EA684550EA76EAA0EA76EA68285
:1041B800DEEF20F0A6B2E3EF20F0E5EF20F0DEEF2F
:1041C80020F0A694F28E1200F5EF20F0070E296E6B
:1041D8007D0EE82EFED7292EFCD700F02706D8A0A2
:1041E800280627502810D8A4FCEF20F0FEEF20F076
:1041F800EAEF20F000EF21F012003CC034F03DC09F
:1042080035F03EC036F03FC037F020EEDDF002D882
:1042180018EF21F00500FA6EDE50FD6EDE50FE6EDE
:10422800F850FF6EFA50120012000600F29E9EA08F
:1042380020EF21F022EF21F02EEF21F09DA027EFB3
:1042480021F029EF21F02EEF21F09E90B5EC20F01F
:104258002EEF21F0F28E5E921100C16827C00BF09C
:1042680028C00CF029C009F02AC00AF02BC012F0AF
:104278008096929680949294809092908092928266
:1042880080948090808612002EC0D9FF2FC0DAFF5C
:10429800DECF27F0DDCF28F0000E2A6E0A0E296E39
:1042A80031EC1CF02EC0D9FF2FC0DAFF27C0DEFF8B
:1042B80028C0DDFF120027502902F3CF2BF0F4CFDE
:1042C8002CF027502A02F3502C2628502902F350AC
:1042D8002C262BC027F02CC028F073EF21F01200F9
:1042E800326E32C027F0286A88EC21F027C030F0FF
:1042F80028C031F02D50302489EC22F02EC0D9FF8F
:104308002FC0DAFFDF6E120027C029F028C02AF07C
:10431800293A2A3AF00E2A1629500F0B2A12F00EC3
:10432800291629C027F02AC028F09BEF21F0120097
:10433800316E31C027F0286A88EC21F027C02FF0B1
:1043480028C030F02EC027F02D502F24CFEC20F0BD
:10435800120016C029F02A6A29502A6E296A1550B7
:104368002926000E2A2229C027F02AC028F0BDEFEE
:1043780021F0120044EC20F041C02AF042C02BF09A
:1043880001EC20F05EEC22F0000E286E010E276E84
:10439800E8EC20F01200000E296ED5EF21F0DDEFD9
:1043A80021F0000E276E2950CFEC20F0292AD5EFF6
:1043B80021F01200276E27C0C9FFE3EF21F0C7B034
:1043C800E8EF21F0EAEF21F0E3EF21F0ECEF21F044
:1043D8001200CD92300ECD12CD84FD0ECF6E8F0E11
:1043E800CE6ECD9C9D80F28CF28E1200286E000E4F
:1043F800296EB2EC22F0282407EC22F0296E29500D
:1044080006EF22F01200276E2750010D150EF32437
:10441800D96E000EF420DA6EDF5013EF22F012008E
:10442800110E5D641AEF22F01DEF22F0010E1EEF4F
:1044380022F0000E20EF22F012005D505B5CD8B035
:1044480028EF22F02AEF22F02DEF22F05B2A2DEF41
:1044580022F01200020E5C6434EF22F036EF22F0F4
:1044680039EF22F05C0639EF22F01200ACA23FEFE0
:1044780022F042EF22F0010E43EF22F0000E45EF4A
:1044880022F01200C58049EF22F09EA64EEF22F0DE
:1044980050EF22F049EF22F09E96120054EF22F0DE
:1044A800C5BC59EF22F05BEF22F054EF22F05DEF2C
:1044B80022F01200C58461EF22F09EA666EF22F07A
:1044C80068EF22F061EF22F09E9612000E3D6E3DDD
:1044D8007A3E00009E4300413A3ACE3EC4267C45CF
:0344E800020202CB
:1044EC002DC001F02EC002F02FC003F030C004F03C
:1044FC00CD80120001C027F002C028F003C029F0C3
:10450C0004C02AF01200276E27C0A9FFA69EA68021
:10451C00A85091EF22F01200150E276E000E286E97
:10452C0098EF22F01200000E836EF00E956E1200C2
:10453C00000E0E6E000E0D6E12001390139213945B
:10454C00139612000DC027F00EC028F0120027C0E1
:10455C0015F02850166E12005B50B5EF22F01200C9
:10456C00120EB9EF22F012005D50BDEF22F01200D6
:10457C00010E51EC17F01200276E27C0ADFF120090
:10458C00809680861200020E5B6E12000D4A0E2A77
:02459C0012000B
:107C2E0000313A20494E5345524952205345515541
:107C3E00454E4349410A323A204255534341522060
:107C4E0053455155454E4349410A333A205245500A
:107C5E004554495220554C542E20534551550A3403
:107C6E003A20434F4E464947555241434F455320C4
:107C7E0020202000204553434F4C48412041204DA9
:107C8E00454D4F524941200A5155452044455345D3
:107C9E004A412045584543555441520A2030202030
:107CAE002031202020322020203320202034200A92
:107CBE00203520202036202020372020203820205C
:107CCE002039200A00204553434F4C484120412083
:107CDE004D454D4F5249410A20515545204445537B
:107CEE00454A412053414C5641520A203020202013
:107CFE00312020203220202033202020340A20352D
:107D0E002020203620202037202020382020203907
:107D1E0020200020202020444553454A4120534135
:107D2E004C5641522020200A20202020205345511D
:107D3E0055454E434941203F20200A0A23202D203D
:107D4E0053494D2020202020202A202D204E414F07
:107D5E000041542B43575341503D22576972656C75
:107D6E00657373222C222A2A2A2A2A2A2A2A222CAC
:107D7E00312C322C342C300D0A0041542B434950F7
:107D8E0053544152543D22544350222C2231393205
:107D9E002E3136382E342E31222C22333333220D0F
:107DAE000A0041542B4349505345525645523D31DA
:107DBE002C3333330D0A004369636C6F733A202002
:107DCE002020202020202020202020003C20202F9A
:107DDE0020203E20633A202020202020202020201A
:107DEE0000202020202020202053414C56412020CE
:107DFE0020202020200020202020202053454747EF
:107E0E0055495420202020202020002020202020F2
:107E1E0020205B202020205D2020202020202000FC
:107E2E002020202020202044454C4554454420202D
:107E3E00202020200020202020202020204D454DD5
:107E4E004F525920202020202000202020202020AA
:107E5E004D454D4F524941203F20202020200020EB
:107E6E00202020202053455155454E434941202086
:107E7E00202020002020202020444F2053495354FE
:107E8E00454D412020202020002020204120202070
:107E9E00422020204320202044202020200020208B
:107EAE002044454C4554415220544F4441204120DA
:107EBE00202000323A204C494D504152204D454D24
:107ECE004F52494120202000202020414A55535432
:107EDE0045204F20494E4943494F2020002020493C
:107EEE004E53495241204F5320504153534F53202C
:107EFE00200030202D204369636C6F20636F6E74F9
:107F0E00696E756F2020002043455254455A41201A
:107F1E0051554520444553454A412000636F6E66D6
:107F2E00696720636F6E74726C3A202020202025C2
:107F3E0000313A20564552494649434152204D455B
:107F4E004D4F52494100636F6E6669672074656DCF
:107F5E00706F3A202020202020730041542B43576D
:107F6E004155544F434F4E4E3D300D0A0041542B58
:107F7E004349504D4F44453D300D0A0041542B436B
:107F8E00574D4F44453D300D0A0041542B43574D3C
:107F9E004F44453D310D0A0041542B4349504D5538
:107FAE00583D310D0A0041542B43574D4F44453D2A
:107FBE00320D0A0041542B43574D4F44453D330D6E
:107FCE000A0041542B434950434C4F53450D0A0070
:107FDE0041542B43574C41500D0A0041542B4349F9
:107FEE004653520D0A003C20202F20203E00FF0059
:017FFE000082
:020000040020DA
:08000000FFFFFFFFFFFFFFFF00
:020000040030CA
:0E000000040C181EFF0180FF0FC00FE00F4020
:00000001FF
