:020000040000FA
:0400000007EF00F016
:100008005E8243ED20F06EEF1BF0AAEC1FF0B7EC18
:1000180021F017EC21F0000E346E2D0E356E310EE6
:10002800366E010E376E8DEC1FF0000E426E000E1C
:10003800416EE8EC20F0000E3C6EC20E3D6E010EE3
:100048003E6E000E3F6E2BEC20F0000E0001BC6FE0
:10005800000EBB6F000EB26F000E746FF2C0ADF0F1
:10006800F1C0AEF0AD0E276E000E286EAE0E296EF2
:10007800000E2A6E010E2B6E5BEC20F00001AF69BA
:10008800000EBA6F020E756F000EB56F000EB46FDA
:10009800000EB16F000EB06F000EB36FA3EF0EF03D
:1000A800A3EF0EF0000EA16F030EA1655EEF00F046
:1000B80060EF00F064EF00F0A5EF00F0A5EF00F0AE
:1000C800000EA26F130EA2656CEF00F06EEF00F049
:1000D80072EF00F09AEF00F09AEF00F020EE55F082
:1000E80002D888EF00F00500FA6EDE50FD6EDE5093
:1000F800FE6EF850FF6EFA50A2C02EF0FD0E2F6E65
:100108007F0E306EA1511200000E286E0A0E276E67
:1001180012EC20F00001A22B130EA26596EF00F05E
:1001280098EF00F072EF00F09AEF00F0A12B030EA9
:10013800A165A1EF00F0A3EF00F064EF00F0A5EFD8
:1001480000F0000EA36F030EA365ADEF00F0AFEF54
:1001580000F0B3EF00F0F4EF00F0F4EF00F0000E61
:10016800A46F130EA465BBEF00F0BDEF00F0C1EF64
:1001780000F0E9EF00F0E9EF00F020EE55F002D8CA
:10018800D7EF00F00500FA6EDE50FD6EDE50FE6E11
:10019800F850FF6EFA50A4C02EF0C10E2F6E7D0EDF
:1001A800306EA3511200000E286E0A0E276E12EC54
:1001B80020F00001A42B130EA465E5EF00F0E7EF93
:1001C80000F0C1EF00F0E9EF00F0A32B030EA365E8
:1001D800F0EF00F0F2EF00F0B3EF00F0F4EF00F012
:1001E800010EBB6F49EF0FF020EE55F002D80EEF6D
:1001F80001F00500FA6EDE50FD6EDE50FE6EF8501E
:10020800FF6EFA50000E2E6EED0E2F6E7D0E306EC4
:10021800010E120020EEBDF010EE60F0130EDBCFE1
:10022800E3FFE806FCE2000E00019C6F600E9F6F82
:10023800000EA06F39EF01F09CC029F0020E8DEC82
:100248001DF09FC0D9FFA0C0DAFFDF509BEC1EF065
:1002580000019C2B000E286E320E276E12EC20F047
:1002680000019F4BA02B39EF01F09FC0D9FFA0C020
:10027800DAFFDF50D8A443EF01F045EF01F020EF9B
:1002880001F047EF01F0DC0E2D6E050E2E6E000E0C
:100298002F6E000E306E94EC21F0020E0001BB6F41
:1002A80049EF0FF09EEC21F02750281029102A1052
:1002B800D8A461EF01F063EF01F049EF0FF0080EE9
:1002C8000001BB6F49EF0FF049EF0FF0C1EC21F0CF
:1002D800410E2E6E7C0E2F6E20EE53F002D87FEF6B
:1002E80001F00500FA6EDE50FD6EDE50FE6EF8502D
:1002F800FF6EFA501200E80E2D6E030E2E6E000EE1
:100308002F6E000E306E94EC21F0090E0001BB6FC9
:1003180049EF0FF09EEC21F02750281029102A10E1
:10032800D8A499EF01F09BEF01F049EF0FF0470EC9
:100338000001BB6F49EF0FF049EF0FF031EC1FF0F0
:100348000001BC6FBAEF01F0030EBB6F49EF0FF06D
:10035800480EBB6F49EF0FF0640EBB6F49EF0FF00B
:10036800500EBB6F49EF0FF049EF0FF0BC51456ECF
:10037800466A4650000AD8B4C4EF01F049EF0FF0BE
:100388004550310AD8B4A8EF01F0030AD8B4ACEF4D
:1003980001F0010AD8B4B0EF01F0070AD8B4B4EFFD
:1003A80001F049EF0FF049EF0FF00A0E2D6EB20E73
:1003B8002E6E000E2F6E0A0E9EEC20F00001B25138
:1003C8008BEC1CF020EE49F002D8FAEF01F00500A2
:1003D800FA6EDE50FD6EDE50FE6EF850FF6EFA507B
:1003E800760E2D6E000E2E6E0B0E1200760E00018C
:1003F8009D6F000E9E6F9DC0D9FF9EC0DAFFDE285C
:10040800D8A409EF02F00BEF02F029EF02F020EE7A
:100418004BF002D824EF02F00500FA6EDE50FD6EB4
:10042800DE50FE6EF850FF6EFA50BCC027F0286A06
:10043800000E2A6E300E296E12EC19F027501200A9
:10044800000E0001766F29EF02F0760EB66F000EEF
:10045800B76F10EF03F0B6C0D9FFB7C0DAFF640E6C
:10046800DF6439EF02F03BEF02F04AEF02F0B6C06A
:10047800D9FFB7C0DAFFFE0EDE18D8A446EF02F0A7
:1004880048EF02F059EF02F04AEF02F0B6C027F049
:10049800B7C028F0CBEC14F0B6C0D9FFB7C0DAFF6C
:1004A800DF501FEC1EF009EF03F0B6C0D9FFB7C04C
:1004B800DAFF640EDF6463EF02F065EF02F080EFAD
:1004C80002F0B6C0D9FFB7C0DAFFDD0EDF606FEF0C
:1004D80002F071EF02F080EF02F0B6C027F0B7C06B
:1004E80028F0CBEC14F0B6C0D9FFB7C0DAFFDF5064
:1004F800BFEC1CF009EF03F0B6C027F0B7C028F036
:10050800CBEC14F0A0EF02F096EF02F096EF02F0B9
:1005180096EF02F096EF02F096EF02F096EF02F0F7
:1005280096EF02F0B6C0D9FFB7C0DAFFDF0EDF16CC
:10053800D1EF02F0D1EF02F0B6C0D9FFB7C0DAFFB1
:10054800DF50456E466A4650000AD8B4AEEF02F056
:10055800D1EF02F04550410AD8B496EF02F0030AF1
:10056800D8B496EF02F0010AD8B496EF02F0070A61
:10057800D8B496EF02F0250AD8B496EF02F0030A31
:10058800D8B496EF02F0010AD8B496EF02F0070A41
:10059800D8B496EF02F0D1EF02F0B6C0D9FFB7C0D9
:1005A800DAFFDF5094EC1AF0B6C0D9FFB7C0DAFF13
:1005B800DF507EEC19F00009D8A4E5EF02F0E7EF70
:1005C80002F0F6EF02F0B6C0D9FFB7C0DAFFDF508D
:1005D800456E466A200E45100001866F4650876FAB
:1005E80002EF03F0B6C0D9FFB7C0DAFFDF50456E9F
:1005F80045500001866F876B02EF03F08651F3ECDC
:100608001CF009EF03F009EF03F0CDEC10F0000146
:10061800B64BB72B10EF03F0B6C0D9FFB7C0DAFF5F
:10062800DF50D8A41AEF03F01CEF03F02FEF02F00D
:100638001EEF03F0DCEC21F0100E0001BB6F49EF58
:100648000FF0DCEC21F0000E2E6E280E2F6E7F0EC0
:10065800306E000E73EC1EF0000E2E6EAA0E2F6E7A
:100668007E0E306E010E73EC1EF0E80E2D6E030E3A
:100678002E6E000E2F6E000E306E94EC21F0510E8F
:100688000001BB6F49EF0FF09EEC21F027502810B6
:1006980029102A10D8A453EF03F055EF03F049EFBF
:1006A8000FF0520E0001BB6F49EF0FF049EF0FF04A
:1006B80031EC1FF00001BC6F70EF03F0530EBB6FFD
:1006C80049EF0FF0540EBB6F49EF0FF0080EBB6FE8
:1006D80049EF0FF049EF0FF0BC51456E466A46509E
:1006E800000AD8B47AEF03F049EF0FF045502A0A10
:1006F800D8B46AEF03F01B0AD8B462EF03F0030A18
:10070800D8B466EF03F049EF0FF049EF0FF0000E91
:100718002E6EFE0E2F6E7E0E306E000E73EC1EF0E7
:10072800000E2E6E950E2F6E7E0E306E010E73EC3F
:100738001EF0000E2E6E410E2F6E7E0E306E020ED3
:1007480073EC1EF0000E2E6E5C0E2F6E7D0E306E5A
:10075800030E73EC1EF031EC1FF00001BC6FC2EF0A
:1007680003F0550EBB6F49EF0FF0DCEC21F0500E93
:100778000001BB6F49EF0FF049EF0FF0BC51456E18
:10078800466A4650000AD8B4CCEF03F049EF0FF0A0
:100798004550230AD8B4B5EF03F0090AD8B4B9EF25
:1007A80003F049EF0FF049EF0FF020EE4FF002D8B9
:1007B800E8EF03F00500FA6EDE50FD6EDE50FE6EC7
:1007C800F850FF6EFA501200DCEC21F0000E000128
:1007D800A56F030EA565F3EF03F0F5EF03F0F9EF4E
:1007E80003F02DEF04F02DEF04F0000EA66F130EAA
:1007F800A66501EF04F003EF04F007EF04F022EF21
:1008080004F022EF04F0A6C02EF0FD0E2F6E7F0E2E
:10081800306EA55173EC1EF0000E286E0A0E276E7E
:1008280012EC20F00001A62B130EA6651EEF04F0B3
:1008380020EF04F007EF04F022EF04F0A52B030EDD
:10084800A56529EF04F02BEF04F0F9EF03F02DEF85
:1008580004F0000EA76F030EA76535EF04F037EF1D
:1008680004F03BEF04F06FEF04F06FEF04F0000EBC
:10087800A86F130EA86543EF04F045EF04F049EFA5
:1008880004F064EF04F064EF04F0A8C02EF0C10E89
:100898002F6E7D0E306EA75173EC1EF0000E286E81
:1008A8000A0E276E12EC20F00001A82B130EA86583
:1008B80060EF04F062EF04F049EF04F064EF04F035
:1008C800A72B030EA7656BEF04F06DEF04F03BEF69
:1008D80004F06FEF04F0000E2E6E170E2F6E7E0ED2
:1008E800306E010E73EC1EF0000E2E6E2C0E2F6E65
:1008F8007E0E306E020E73EC1EF0E80E2D6E030EA7
:100908002E6E000E2F6E000E306E94EC21F0560EF7
:100918000001BB6F49EF0FF09EEC21F02750281023
:1009280029102A10D8A49BEF04F09DEF04F049EF9A
:100938000FF0500E0001BB6F49EF0FF049EF0FF0B9
:1009480020EE59F002D8B3EF04F00500FA6EDE503D
:10095800FD6EDE50FE6EF850FF6EFA501200940ED7
:100968002E6E7C0E2F6E20EE53F002D8C6EF04F0E8
:100978000500FA6EDE50FD6EDE50FE6EF850FF6E1A
:10098800FA501200490E0001BB6FCBEF04F031ECB6
:100998001FF00001BC6F47EF06F0E3EF04F0E3EF50
:1009A80004F0E3EF04F0E3EF04F0E3EF04F0E3EF27
:1009B80004F0E3EF04F0E3EF04F0E3EF04F0BCC06D
:1009C80027F0286A000E2A6E300E296E12EC19F0F4
:1009D80027502D6EB20E2E6E000E2F6E0A0E9EEC54
:1009E80020F00001B2518BEC1CF020EE49F002D847
:1009F80016EF05F00500FA6EDE50FD6EDE50FE6E55
:100A0800F850FF6EFA50760E2D6E000E2E6EBCC09A
:100A180027F0286A000E2A6E300E296E12EC19F0A3
:100A280027501200760E00019D6F000E9E6F9DC02C
:100A3800D9FF9EC0DAFFDE28D8A425EF05F027EFFE
:100A480005F045EF05F020EE4BF002D840EF05F039
:100A58000500FA6EDE50FD6EDE50FE6EF850FF6E39
:100A6800FA50BCC027F0286A000E2A6E300E296E94
:100A780012EC19F027501200000E0001766F45EFB6
:100A880005F0760EB86F000EB96F2CEF06F0B8C0FF
:100A9800D9FFB9C0DAFF640EDF6455EF05F057EFF0
:100AA80005F066EF05F0B8C0D9FFB9C0DAFFFE0E51
:100AB800DE18D8A462EF05F064EF05F075EF05F0D5
:100AC80066EF05F0B8C027F0B9C028F0CBEC14F0F9
:100AD800B8C0D9FFB9C0DAFFDF501FEC1EF025EF10
:100AE80006F0B8C0D9FFB9C0DAFF640EDF647FEF43
:100AF80005F081EF05F09CEF05F0B8C0D9FFB9C04B
:100B0800DAFFDD0EDF608BEF05F08DEF05F09CEF6F
:100B180005F0B8C027F0B9C028F0CBEC14F0B8C085
:100B2800D9FFB9C0DAFFDF50BFEC1CF025EF06F0A3
:100B3800B8C027F0B9C028F0CBEC14F0BCEF05F032
:100B4800B2EF05F0B2EF05F0B2EF05F0B2EF05F045
:100B5800B2EF05F0B2EF05F0B2EF05F0B8C0D9FF7B
:100B6800B9C0DAFFDF0EDF16EDEF05F0EDEF05F0A7
:100B7800B8C0D9FFB9C0DAFFDF50456E466A4650A3
:100B8800000AD8B4CAEF05F0EDEF05F04550410A68
:100B9800D8B4B2EF05F0030AD8B4B2EF05F0010AF1
:100BA800D8B4B2EF05F0070AD8B4B2EF05F0250AB9
:100BB800D8B4B2EF05F0030AD8B4B2EF05F0010AD1
:100BC800D8B4B2EF05F0070AD8B4B2EF05F0EDEFEC
:100BD80005F0B8C0D9FFB9C0DAFFDF5094EC1AF0BD
:100BE800B8C0D9FFB9C0DAFFDF507EEC19F00009B0
:100BF800D8A401EF06F003EF06F012EF06F0B8C034
:100C0800D9FFB9C0DAFFDF50456E466A200E45109D
:100C18000001886F4650896F1EEF06F0B8C0D9FFF3
:100C2800B9C0DAFFDF50456E45500001886F896B07
:100C38001EEF06F08851F3EC1CF025EF06F025EFC7
:100C480006F0CDEC10F00001B84BB92B2CEF06F0F4
:100C5800B8C0D9FFB9C0DAFFDF50D8A436EF06F024
:100C680038EF06F04BEF05F03AEF06F0DCEC21F038
:100C7800100E0001BB6F49EF0FF0080EBB6F49EF74
:100C88000FF049EF0FF0BC51456E466A4650000A16
:100C9800D8B451EF06F049EF0FF045502A0AD8B4FE
:100CA80041EF06F01A0AD8B4E3EF04F0010AD8B409
:100CB800E3EF04F0030AD8B4E3EF04F0010AD8B470
:100CC800E3EF04F0070AD8B4E3EF04F0010AD8B45C
:100CD800E3EF04F0030AD8B4E3EF04F0010AD8B450
:100CE800E3EF04F00F0AD8B4E3EF04F0010AD8B434
:100CF800E3EF04F049EF0FF049EF0FF020EE59F061
:100D080002D891EF06F00500FA6EDE50FD6EDE5057
:100D1800FE6EF850FF6EFA50120020EE55F002D821
:100D2800A7EF06F00500FA6EDE50FD6EDE50FE6E8F
:100D3800F850FF6EFA50000E2E6EBF0E2F6E7E0E0C
:100D4800306E000E120020EE55F002D8BDEF06F00E
:100D58000500FA6EDE50FD6EDE50FE6EF850FF6E36
:100D6800FA50000E2E6E6B0E2F6E7E0E306E010E38
:100D78001200060E0001BB6F49EF0FF020EE55F090
:100D880002D8D8EF06F00500FA6EDE50FD6EDE5090
:100D9800FE6EF850FF6EFA50000E2E6E800E2F6E0B
:100DA8007E0E306E030E1200040E296E030E8DECBB
:100DB8001DF0410E7EEC19F00009D8A4E6EF06F00C
:100DC800E8EF06F0EFEF06F0000E00018B6F2D0E36
:100DD8008A6FF6EF06F0000E00018B6F2B0E8A6FFC
:100DE800F6EF06F08A519BEC1EF0080E296E030EF2
:100DF8008DEC1DF0420E7EEC19F00009D8A407EF27
:100E080007F009EF07F010EF07F0000E00018D6FF3
:100E18002D0E8C6F17EF07F0000E00018D6F2B0E53
:100E28008C6F17EF07F08C519BEC1EF00C0E296E9F
:100E3800030E8DEC1DF0430E7EEC19F00009D8A4CA
:100E480028EF07F02AEF07F031EF07F0000E000156
:100E58008F6F2D0E8E6F38EF07F0000E00018F6F29
:100E68002B0E8E6F38EF07F08E519BEC1EF0100E94
:100E7800296E030E8DEC1DF0440E7EEC19F000096E
:100E8800D8A449EF07F04BEF07F052EF07F0000E38
:100E98000001916F2D0E906F59EF07F0000E0001C1
:100EA800916F2B0E906F59EF07F090519BEC1EF04D
:100EB800070E0001BB6F49EF0FF031EC1FF0000186
:100EC800BC6F0DEF08F0BC5194EC1AF0040E296EBB
:100ED800030E8DEC1DF0410E7EEC19F00009D8A42C
:100EE80078EF07F07AEF07F081EF07F0000E0001C6
:100EF800936F2D0E926F88EF07F0000E0001936F2D
:100F08002B0E926F88EF07F092519BEC1EF049EF81
:100F18000FF00001BC5194EC1AF0080E296E030E74
:100F28008DEC1DF0420E7EEC19F00009D8A49FEF5D
:100F380007F0A1EF07F0A8EF07F0000E0001956F8A
:100F48002D0E946FAFEF07F0000E0001956F2B0E7A
:100F5800946FAFEF07F094519BEC1EF049EF0FF040
:100F68000001BC5194EC1AF00C0E296E030E8DECA6
:100F78001DF0430E7EEC19F00009D8A4C6EF07F067
:100F8800C8EF07F0CFEF07F0000E0001976F2D0EA6
:100F9800966FD6EF07F0000E0001976F2B0E966F35
:100FA800D6EF07F096519BEC1EF049EF0FF00001C9
:100FB800BC5194EC1AF0100E296E030E8DEC1DF046
:100FC800440E7EEC19F00009D8A4EDEF07F0EFEF1E
:100FD80007F0F6EF07F0000E0001996F2D0E986FDD
:100FE800FDEF07F0000E0001996F2B0E986FFDEFD3
:100FF80007F098519BEC1EF049EF0FF00A0E000124
:10100800BB6F49EF0FF0080EBB6F49EF0FF049EFC8
:101018000FF0BC51456E466A4650000AD8B417EF27
:1010280008F049EF0FF04550230AD8B402EF08F052
:10103800090AD8B407EF08F06B0AD8B467EF07F0CD
:10104800030AD8B48DEF07F0010AD8B4B4EF07F05B
:10105800070AD8B4DBEF07F049EF0FF049EF0FF0BC
:10106800E3EC1AF00001B26F20EE59F002D847EF16
:1010780008F00500FA6EDE50FD6EDE50FE6EF85088
:10108800FF6EFA50120020EE55F002D85DEF08F01E
:101098000500FA6EDE50FD6EDE50FE6EF850FF6EF3
:1010A800FA50000E2E6ED40E2F6E7E0E306E000E8D
:1010B80012000E0E0001BB6F49EF0FF031EC1FF06C
:1010C8000001BC6FD7EF08F06EEF08F06EEF08F084
:1010D8006EEF08F03EEC21F00009D8B476EF08F086
:1010E80078EF08F049EF0FF00001BC5194EC1AF0CA
:1010F8000001BC517EEC19F00009D8A486EF08F075
:1011080088EF08F093EF08F0200EBCC045F0466A5F
:10111800451000019A6F46509B6F99EF08F0BCC0CC
:101128009AF000019B6B99EF08F09A51F3EC1CF0D0
:10113800100E0001BB6F49EF0FF049EF0FF05AECAA
:101148001DF0100E0001BB6F49EF0FF058EC21F0B5
:10115800100E0001BB6F49EF0FF0D8EC21F0020A26
:10116800D8A4B9EF08F0BBEF08F0C0EF08F0030E01
:101178000001BB6F49EF0FF0DCEC19F0100E000115
:10118800BB6F49EF0FF049EF0FF04A0EBB6F49EF05
:101198000FF0290EBB6F49EF0FF05A0EBB6F49EFE6
:1011A8000FF049EF0FF0BC51456E466A4650000AF1
:1011B800D8B4E1EF08F049EF0FF04550230AD8B44E
:1011C800C9EF08F0090AD8B4B1EF08F01A0AD8B480
:1011D800CDEF08F0040AD8B4AAEF08F0020AD8B490
:1011E800A3EF08F00F0AD8B4D1EF08F0780AD8B402
:1011F8006EEF08F0030AD8B46EEF08F0010AD8B40D
:101208006EEF08F0070AD8B46EEF08F049EF0FF058
:1012180049EF0FF0CDEC10F00E0E0001BB6F49EF57
:101228000FF020EE55F002D82BEF09F00500FA6E0A
:10123800DE50FD6EDE50FE6EF850FF6EFA50000E66
:101248002E6EF50E2F6E7F0E306E030E120020EEFE
:1012580057F002D848EF09F00500FA6EDE50FD6E2F
:10126800DE50FE6EF850FF6EFA50010E326ED8EC6A
:1012780021F0456EFE0E4524336E346AFF0E34228B
:10128800020E356E030E120020EE57F002D865EFFD
:1012980009F00500FA6EDE50FD6EDE50FE6EF85065
:1012A800FF6EFA50040E326ED4EC21F0456EFE0E3D
:1012B8004524336E346AFF0E3422020E356E030E57
:1012C80012000B0E0001BB6F49EF0FF0460EBB6F0B
:1012D800010EAF6F49EF0FF0030EAF19D8A477EFE7
:1012E80009F079EF09F015EF0AF0020EB319D8B436
:1012F80080EF09F082EF09F015EF0AF020EE55F0C3
:1013080002D898EF09F00500FA6EDE50FD6EDE5047
:10131800FE6EF850FF6EFA50000E2E6E020E2F6E03
:101328007E0E306E000E1200FF0E406E010E75EC40
:1013380012F0000E406E090E75EC12F0010E406EB0
:101348000E0E75EC12F020EE55F002D8BDEF09F044
:101358000500FA6EDE50FD6EDE50FE6EF850FF6E30
:10136800FA50000E2E6EC30E2F6E7D0E306E020EDA
:10137800120020EE57F002D8DAEF09F00500FA6EF5
:10138800DE50FD6EDE50FE6EF850FF6EFA50040E11
:10139800326ED8EC21F0456EFE0E4524336E346A69
:1013A800FF0E3422020E356E020E120020EE57F0A8
:1013B80002D8F7EF09F00500FA6EDE50FD6EDE5038
:1013C800FE6EF850FF6EFA50010E326ED0EC21F02E
:1013D800456EFF0E4524336E346AFF0E3422020E2A
:1013E800356E020E120020EE57F002D813EF0AF005
:1013F8000500FA6EDE50FD6EDE50FE6EF850FF6E90
:10140800FA500B0E326EC6EC21F0010E2724336E13
:10141800000E2820346E050E356E020E120015EFF0
:101428000AF00001AF51D8A41CEF0AF01EEF0AF031
:1014380031EF0AF0100EBB6F20EE59F002D82FEFF3
:101448000AF00500FA6EDE50FD6EDE50FE6EF850B2
:10145800FF6EFA50120031EF0AF031EC1FF0000174
:10146800BC6F54EF0AF0010EB36F49EF0FF0020E94
:10147800B36F49EF0FF0000EB36F49EF0FF0020E94
:10148800B319D8A44AEF0AF04CEF0AF049EF0FF06D
:10149800030EB36F49EF0FF049EF0FF049EF0FF06C
:1014A800BC51456E466A4650000AD8B45EEF0AF051
:1014B80049EF0FF04550230AD8B437EF0AF0130A62
:1014C800D8B43FEF0AF0010AD8B443EF0AF0040A8F
:1014D800D8B43BEF0AF049EF0FF049EF0FF031ECC9
:1014E8001FF00001BC6F2F0EBC657DEF0AF07FEF87
:1014F8000AF0A2EF0AF03A0EBC6185EF0AF087EF16
:101508000AF0A2EF0AF0B40E2D6E000E2E6EBC513A
:10151800C2EC1EF00001B55109E1790EB45DD8A006
:1015280098EF0AF09AEF0AF09EEF0AF0000EB56FF6
:10153800780EB46F290EBB6FA2EF0AF02A0EBC1901
:10154800D8A4A9EF0AF0ABEF0AF0B6EF0AF0B40E90
:101558002E6E000E2F6E72EC20F0290E0001BB6F6C
:10156800B6EF0AF0230EBC19D8A4BDEF0AF0BFEFFE
:101578000AF049EF0FF02A0EBB6F49EF0FF049EF61
:101588000FF020EE55F002D8DBEF0AF00500FA6EF6
:10159800DE50FD6EDE50FE6EF850FF6EFA50000E03
:1015A8002E6E3D0E2F6E7F0E306E020E120020EE54
:1015B80057F002D8F3EF0AF00500FA6EDE50FD6E20
:1015C800DE50FE6EF850FF6EFA500F0E326EB4C049
:1015D80033F0B5C034F0030E356E020E1200280E3B
:1015E8000001BB6F49EF0FF0B451BFEC1CF020EEC7
:1015F80059F002D80AEF0BF00500FA6EDE50FD6EC6
:10160800DE50FE6EF850FF6EFA501200100E000108
:10161800BB6F49EF0FF031EC1FF00001BC6F2F0ECC
:10162800BC6519EF0BF01BEF0BF05EEF0BF03A0EF9
:10163800BC6121EF0BF023EF0BF05EEF0BF0B00E67
:101648002D6E000E2E6EBC51C2EC1EF0110E000164
:10165800B05D270EB159D8A034EF0BF036EF0BF080
:101668003AEF0BF0270EB16F100EB06F350EBB6F4F
:1016780049EF0FF05EEF0BF046EF0BF046EF0BF083
:1016880046EF0BF0DCEC21F0100E0001BB6F49EFC8
:101698000FF0360EBB6F49EF0FF0B00E2E6E000E36
:1016A8002F6E72EC20F0350E0001BB6F49EF0FF082
:1016B80049EF0FF0BC51456E466A4650000AD8B44F
:1016C80068EF0BF049EF0FF04550230AD8B44DEFFF
:1016D8000BF0090AD8B451EF0BF06B0AD8B446EFF7
:1016E8000BF0030AD8B446EF0BF0010AD8B446EF62
:1016F8000BF0070AD8B446EF0BF049EF0FF049EFAB
:101708000FF020EE59F002D894EF0BF00500FA6EB6
:10171800DE50FD6EDE50FE6EF850FF6EFA5012007D
:1017280020EE55F002D8AAEF0BF00500FA6EDE5055
:10173800FD6EDE50FE6EF850FF6EFA50000E2E6EF3
:10174800AE0E2F6E7D0E306E000E120020EE57F09A
:1017580002D8C2EF0BF00500FA6EDE50FD6EDE50C7
:10176800FE6EF850FF6EFA500F0E326EB0C033F0B6
:10177800B1C034F0050E356E000E120020EE55F0A3
:1017880002D8D8EF0BF00500FA6EDE50FD6EDE5081
:10179800FE6EF850FF6EFA50000E2E6EE90E2F6E98
:1017A8007E0E306E020E1200340E0001BB6F49EF40
:1017B8000FF00A0E2D6EB2C02EF00A0EC6EC20F005
:1017C80002D8FAEF0BF00500FA6E4750FD6E48504C
:1017D800FE6EF850FF6EFA50B0EC21F0020E27248E
:1017E8002D6E000E28202E6E0B0E1200330E2E6E5C
:1017F8007D0E2F6E20EE53F002D80DEF0CF0050091
:10180800FA6EDE50FD6EDE50FE6EF850FF6EFA5036
:10181800120031EC1FF00001BC6F20EF0CF04B0EF2
:10182800BB6F49EF0FF0DCEC21F0350E0001BB6F08
:1018380049EF0FF049EF0FF0BC51456E466A46502C
:10184800000AD8B42AEF0CF049EF0FF04550230AEC
:10185800D8B413EF0CF0090AD8B417EF0CF049EF1D
:101868000FF049EF0FF020EE59F002D846EF0CF0D8
:101878000500FA6EDE50FD6EDE50FE6EF850FF6E0B
:10188800FA501200E50E2E6E7C0E2F6E20EE53F0ED
:1018980002D859EF0CF00500FA6EDE50FD6EDE50EE
:1018A800FE6EF850FF6EFA5012004C0E0001BB6F2E
:1018B8005EEF0CF031EC1FF00001BC6FC0EF0CF0D4
:1018C80076EF0CF076EF0CF076EF0CF076EF0CF08C
:1018D80076EF0CF076EF0CF076EF0CF076EF0CF07C
:1018E80076EF0CF0BCC027F0286A000E2A6E300E86
:1018F800296E12EC19F027502D6EB2C02EF00A0E88
:10190800C6EC20F002D8A5EF0CF00500FA6E47509F
:10191800FD6E4850FE6EF850FF6EFA50B0EC21F0A4
:10192800020E27242D6E000E28202E6EBCC027F034
:10193800286A000E2A6E300E296E12EC19F0275014
:1019480012004D0E0001BB6F49EF0FF020EE59F069
:1019580002D8B9EF0CF00500FA6EDE50FD6EDE50CD
:10196800FE6EF850FF6EFA5012004A0E0001BB6F6F
:1019780049EF0FF049EF0FF0BC51456E466A4650EB
:10198800000AD8B4CAEF0CF049EF0FF045502A0A04
:10199800D8B4AAEF0CF01A0AD8B476EF0CF0010A02
:1019A800D8B476EF0CF0030AD8B476EF0CF0010A3D
:1019B800D8B476EF0CF0070AD8B476EF0CF0010A29
:1019C800D8B476EF0CF0030AD8B476EF0CF0010A1D
:1019D800D8B476EF0CF00F0AD8B476EF0CF0010A01
:1019E800D8B476EF0CF049EF0FF049EF0FF020EE86
:1019F80059F002D80AEF0DF00500FA6EDE50FD6EC0
:101A0800DE50FE6EF850FF6EFA501200000E000114
:101A1800A96F030EA96513EF0DF015EF0DF019EF7F
:101A28000DF05AEF0DF05AEF0DF0000EAA6F130EDD
:101A3800AA6521EF0DF023EF0DF027EF0DF04FEF22
:101A48000DF04FEF0DF020EE55F002D83DEF0DF000
:101A58000500FA6EDE50FD6EDE50FE6EF850FF6E29
:101A6800FA50AAC02EF0FD0E2F6E7F0E306EA951CF
:101A78001200000E286E0A0E276E12EC20F00001EC
:101A8800AA2B130EAA654BEF0DF04DEF0DF027EFC3
:101A98000DF04FEF0DF0A92B030EA96556EF0DF0D1
:101AA80058EF0DF019EF0DF05AEF0DF0000EAB6F77
:101AB800030EAB6562EF0DF064EF0DF068EF0DF00B
:101AC800A9EF0DF0A9EF0DF0000EAC6F130EAC6589
:101AD80070EF0DF072EF0DF076EF0DF09EEF0DF058
:101AE8009EEF0DF020EE55F002D88CEF0DF00500BA
:101AF800FA6EDE50FD6EDE50FE6EF850FF6EFA5044
:101B0800ACC02EF0C10E2F6E7D0E306EAB511200A0
:101B1800000E286E0A0E276E12EC20F00001AC2B86
:101B2800130EAC659AEF0DF09CEF0DF076EF0DF00B
:101B38009EEF0DF0AB2B030EAB65A5EF0DF0A7EFF5
:101B48000DF068EF0DF0A9EF0DF020EE55F002D87A
:101B5800BFEF0DF00500FA6EDE50FD6EDE50FE6E32
:101B6800F850FF6EFA50000E2E6E560E2F6E7E0E37
:101B7800306E010E120020EE55F002D8D5EF0DF0B0
:101B88000500FA6EDE50FD6EDE50FE6EF850FF6EF8
:101B9800FA50000E2E6ED80E2F6E7D0E306E020E8D
:101BA8001200E80E2D6E030E2E6E000E2F6E000E24
:101BB800306E94EC21F04E0E0001BB6F49EF0FF030
:101BC8009EEC21F02750281029102A10D8A4EFEFF6
:101BD8000DF0F1EF0DF049EF0FF0350E0001BB6F7E
:101BE80049EF0FF049EF0FF020EE55F002D80EEF55
:101BF8000EF00500FA6EDE50FD6EDE50FE6EF850F7
:101C0800FF6EFA50000E2E6E130E2F6E7F0E306E82
:101C1800020E120020EE57F002D826EF0EF0050053
:101C2800FA6EDE50FD6EDE50FE6EF850FF6EFA5012
:101C38000F0E326EB4C033F0B5C034F0030E356EFB
:101C4800020E12005B0E0001BB6F49EF0FF031EC82
:101C58001FF00001BC6F2F0EBC6535EF0EF037EF9B
:101C68000EF05AEF0EF03A0EBC613DEF0EF03FEF6A
:101C78000EF05AEF0EF0B40E2D6E000E2E6EBC5103
:101C8800C2EC1EF00001B55109E1650EB45DD8A0A3
:101C980050EF0EF052EF0EF056EF0EF0000EB56F4B
:101CA800640EB46F5A0EBB6F5AEF0EF02A0EBC19B1
:101CB800D8A461EF0EF063EF0EF06EEF0EF0B40EE5
:101CC8002E6E000E2F6E72EC20F05A0E0001BB6FC4
:101CD8006EEF0EF0230EBC19D8A475EF0EF077EF57
:101CE8000EF049EF0FF05C0EBB6F49EF0FF049EFB4
:101CF8000FF0B4511FEC1EF020EE59F002D88FEF10
:101D08000EF00500FA6EDE50FD6EDE50FE6EF850E5
:101D1800FF6EFA501200100E0001BB6F49EF0FF072
:101D2800B0C027F0B1C028F0CBEC21F01E0E0001A6
:101D3800BB6F010EB36F49EF0FF049EF0FF00001D1
:101D4800BB51456E466A4650000AD8B4AEEF0EF055
:101D580049EF0FF04550000AD8B456EF00F0010AD9
:101D6800D8B4F8EF00F0030AD8B456EF01F0010A2E
:101D7800D8B482EF06F0050AD8B4C2EF06F0010A1B
:101D8800D8B461EF07F00F0AD8B46AEF01F0010A7E
:101D9800D8B48EEF01F0030AD8B434EF08F0010A82
:101DA800D8B462EF08F0050AD8B415EF09F01E0A96
:101DB800D8B40EEF09F00E0AD8B46AEF09F0360A63
:101DC800D8B473EF0AF0010AD8B4C5EF0AF0030AD1
:101DD800D8B4F8EF0AF01E0AD8B40FEF0BF0010AD6
:101DE800D8B485EF0BF0030AD8B494EF0EF0700A5C
:101DF800D8B470EF09F0010AD8B4A2EF01F00F0AC5
:101E0800D8B4A4EF04F0010AD8B4CBEF04F0030A65
:101E1800D8B4DDEF0BF0010AD8B437EF0CF0070A9D
:101E2800D8B45EEF0CF0010AD8B4FBEF0CF0030A4B
:101E3800D8B4E4EF0DF01E0AD8B425EF03F0010A78
:101E4800D8B448EF03F0030AD8B45CEF03F0060AED
:101E5800D8B48BEF03F0010AD8B4D9EF03F0030A22
:101E6800D8B490EF04F00C0AD8B4F8EF0DF0010ADA
:101E7800D8B42BEF0EF0070AD8B47DEF0EF0380A6D
:101E8800D8B4D9EF01F049EF0FF0AEEC1BF095EFA5
:101E980010F0A3EF0EF0E3EC21F0BCEC21F0020E01
:101EA8000001AF6FA3EF0EF0D0EC21F031EC21F080
:101EB8000001BA6FB305D8B464EF0FF066EF0FF006
:101EC80079EF0FF0030EB319D8B46DEF0FF06FEF81
:101ED8000FF079EF0FF0B351D8A475EF0FF077EF4B
:101EE8000FF0A3EF0EF079EF0FF0030EAF6FA3EF33
:101EF8000EF0A3EF0EF0640EBA6585EF0FF087EFD2
:101F08000FF092EF0FF0FE0EBA19D8A48EEF0FF073
:101F180090EF0FF0C5EF0FF092EF0FF0BA0E276EAB
:101F2800000E286ECBEC14F00001BA51276E286A17
:101F3800296A2A6AFF0E2B6E0F0E2C6E000E2D6E6C
:101F4800000E2E6EE7EC1BF027C033F028C034F0EB
:101F580029C035F02AC036F0640E376E000E386E90
:101F6800000E396E000E3A6E0FEC16F033C041F0D9
:101F780034C042F0E8EC20F0060E0001AF6FA3EF8A
:101F88000EF0640EBA65CBEF0FF0CDEF0FF0F0EF67
:101F98000FF0DD0EBA61D3EF0FF0D5EF0FF0F0EFD1
:101FA8000FF0640EBA5FBAC027F0286A030E2A6ED3
:101FB800E80E296E89EC20F027C02DF028C02EF0FD
:101FC800000E2EBEFF0E2F6E306E94EC21F0040E24
:101FD8000001AF6FA3EF0EF0BA0E276E000E286E49
:101FE800CBEC14F0AE0E276E000E286E0001BA512D
:101FF8002DEC18F0050E0001AF6FA3EF0EF0A3EF64
:102008000EF0A3EF0EF09EEC21F0275028102910B7
:102018002A10D8A412EF10F014EF10F0A3EF0EF06E
:10202800060E0001AF6FA3EF0EF0A3EF0EF0AD0E9A
:10203800276E000E286EBA5175EC15F00009D8B459
:1020480028EF10F02AEF10F0A3EF0EF0060E0001B3
:10205800AF6FA3EF0EF0A3EF0EF0030EB319D8A4E1
:1020680038EF10F03AEF10F03CEF10F0020EB36FBB
:10207800070EAF6FA3EF0EF04BEC21F0D0EC21F080
:10208800456ED8EC21F0455CD8B04DEF10F04FEF1D
:1020980010F054EF10F0020E0001AF6FA3EF0EF036
:1020A800E6EC21F0080E0001AF6FA3EF0EF0A3EFEE
:1020B8000EF0B351D8B463EF10F065EF10F08CEF69
:1020C80010F0C6EC21F027C045F028C046F0D7EC48
:1020D80020F02750455C28504658D8A076EF10F0DD
:1020E80078EF10F085EF10F0D7EC20F0275028108B
:1020F800D8A481EF10F083EF10F08CEF10F085EF8B
:1021080010F0E3EC21F0020E0001AF6FA3EF0EF028
:10211800000E0001AF6FA3EF0EF0A3EF0EF0A3EFD8
:102128000EF00001AF51456E466A4650000AD8B419
:10213800A0EF10F0A3EF0EF04550000AD8B4A3EFBB
:102148000EF0010AD8B44FEF0FF0030AD8B458EFD5
:102158000FF0010AD8B47FEF0FF0070AD8B407EFE1
:1021680010F0010AD8B41BEF10F0030AD8B431EF0D
:1021780010F0010AD8B440EF10F00F0AD8B45DEFA0
:1021880010F0A3EF0EF0A3EF0EF0A3EF0EF007EFA1
:1021980000F0000E336E000E376E000E366E000E25
:1021A800356E5CC034F0000E296E000E8DEC1DF00B
:1021B800DEEF10F03350D8B4E4EF10F0E6EF10F093
:1021C800ECEF10F0200E9BEC1EF0352A6AEF12F0AF
:1021D8003450010D150EF324D96E000EF420DA6E7A
:1021E800DF50376E342A3750D8A4FDEF10F0FFEFD8
:1021F80010F003EF11F0010E336E6AEF12F0650E66
:10220800376009EF11F00BEF11F062EF11F037C0F2
:1022180036F0630E366413EF11F015EF11F034EF5A
:1022280011F0310E9BEC1EF0352A36C027F0286AD3
:10223800000E2A6E640E296E12EC19F02750366EC5
:102248000A0E36602AEF11F02CEF11F034EF11F07E
:10225800300E9BEC1EF0352A34EF11F034EF11F0FC
:10226800090E36643AEF11F03CEF11F057EF11F018
:1022780036C027F0286A000E2A6E0A0E296EB7ECBF
:1022880017F02750300F9BEC1EF0352A36C027F088
:10229800286A000E2A6E0A0E296E12EC19F02750D1
:1022A800366E57EF11F03650300F9BEC1EF0352A82
:1022B800250E9BEC1EF0352A6AEF12F0640E376487
:1022C80068EF11F06AEF11F0CFEF11F0DD0E376013
:1022D80070EF11F072EF11F0CFEF11F0370E276E9B
:1022E800000E286ECBEC14F037C036F0630E36645F
:1022F80080EF11F082EF11F0A1EF11F0310E9BEC9D
:102308001EF0352A36C027F0286A000E2A6E640EA1
:10231800296E12EC19F02750366E0A0E366097EFC8
:1023280011F099EF11F0A1EF11F0300E9BEC1EF0B7
:10233800352AA1EF11F0A1EF11F0090E3664A7EFCD
:1023480011F0A9EF11F0C4EF11F036C027F0286A98
:10235800000E2A6E0A0E296EB7EC17F02750300FC0
:102368009BEC1EF0352A36C027F0286A000E2A6E2C
:102378000A0E296E12EC19F02750366EC4EF11F0D0
:102388003650300F9BEC1EF0352A730E9BEC1EF076
:10239800352A6AEF12F0DC0E3764D5EF11F0D7EF6B
:1023A80011F044EF12F0FE0E3760DDEF11F0DFEFB1
:1023B80011F044EF12F0370E276E000E286ECBECAA
:1023C80014F015EF12F0F5EF11F0F5EF11F0F5EF4D
:1023D80011F0F5EF11F0F5EF11F0F5EF11F0F5EF61
:1023E80011F03750DF0B9BEC1EF0352A37BAFFEFA0
:1023F80011F001EF12F007EF12F0000E326E2B0E03
:10240800316E0DEF12F0000E326E2D0E316E0DEFA3
:1024180012F031509BEC1EF0352A6AEF12F06AEF89
:1024280012F037502F6E306A3050000AD8B41FEFC0
:1024380012F06AEF12F02F50410AD8B4F5EF11F0FC
:10244800030AD8B4F5EF11F0010AD8B4F5EF11F08A
:10245800070AD8B4F5EF11F0250AD8B4F5EF11F052
:10246800030AD8B4F5EF11F0010AD8B4F5EF11F06A
:10247800070AD8B4F5EF11F06AEF12F06AEF12F01C
:10248800FE0E3718D8A44BEF12F04DEF12F06AEF9A
:1024980012F0370E276E000E286ECBEC14F037C002
:1024A80036F03650300F9BEC1EF0352A250E9BEC8B
:1024B8001EF0352A6AEF12F06AEF12F06AEF12F096
:1024C8006AEF12F06AEF12F06AEF12F0140E356438
:1024D80070EF12F072EF12F0DEEF10F074EF12F0FE
:1024E8001200436E405024EC21F0446E4450D8B49E
:1024F80080EF12F082EF12F0ADEF12F0650E44603B
:1025080088EF12F08AEF12F0ADEF12F044C02FF00E
:10251800306AE9EC1EF0030AD8A495EF12F097EFA1
:1025280012F09AEF12F043069AEF12F043C032F01D
:1025380044C033F0346A44C02FF0306AE9EC1EF02E
:10254800356E000E46EC13F0250E9BEC1EF045EFA1
:1025580013F0640E4464B3EF12F0B5EF12F0E6EF37
:1025680012F0DD0E4460BBEF12F0BDEF12F0E6EFA3
:1025780012F0440E276E000E286ECBEC14F044C007
:102588002FF0306AE9EC1EF0030AD8A4CEEF12F05F
:10259800D0EF12F0D3EF12F04306D3EF12F043C09E
:1025A80032F044C033F0346A44C02FF0306AE9ECAA
:1025B8001EF0356E000E46EC13F0730E9BEC1EF009
:1025C80045EF13F0DC0E4464ECEF12F0EEEF12F07E
:1025D8001DEF13F0FE0E4460F4EF12F0F6EF12F068
:1025E8001DEF13F0440E276E000E286ECBEC14F08E
:1025F80043C029F0000E8DEC1DF04450DF0B9BEC1E
:102608001EF044BA0AEF13F00CEF13F012EF13F0B8
:10261800000E426E2B0E416E18EF13F0000E426E44
:102628002D0E416E18EF13F041509BEC1EF045EF54
:1026380013F0FE0E4418D8A424EF13F026EF13F07D
:1026480045EF13F0440E276E000E286ECBEC14F005
:1026580043C032F044C033F0346A44C02FF0306ACB
:10266800E9EC1EF0356E000E46EC13F0250E9BECDF
:102678001EF045EF13F045EF13F045EF13F045EF6B
:1026880013F012003B6E34BE4CEF13F04FEF13F013
:10269800010E50EF13F0000E3D6E3D50D8B457EFC9
:1026A80013F059EF13F05FEF13F0336C341ED8B00A
:1026B800342A5FEF13F032C029F03B508DEC1DF047
:1026C800270E3F6E100E3E6E050E3C6E94EF13F013
:1026D80033C027F034C028F03EC029F03FC02AF0AC
:1026E800B7EC17F027502810D8A47DEF13F07FEF30
:1026F80013F0ABEF13F03C0684EF13F0ABEF13F0DD
:102708003EC027F03FC028F0000E2A6E0A0E296E40
:10271800B7EC17F027C03EF028C03FF094EF13F055
:102728003FBEA1EF13F03F5006E13E04D8B09FEF43
:1027380013F0A1EF13F06CEF13F0ABEF13F0ABEF66
:1027480013F0200E9BEC1EF03506ABEF13F035505E
:10275800366E376A3D503CC038F0396A3826000E6C
:1027680039223650385C3950800A3A6E3750800A20
:102778003A58D8B0C2EF13F0C4EF13F0D0EF13F00B
:10278800020E3560CAEF13F0CCEF13F0A5EF13F08B
:10279800D0EF13F0D0EF13F03D50D8B4D6EF13F0CC
:1027A800D8EF13F0DDEF13F02D0E9BEC1EF0DDEFEC
:1027B80013F033C027F034C028F03EC029F03FC0E2
:1027C8002AF0B7EC17F02750300F9BEC1EF033C0FF
:1027D80027F034C028F03EC029F03FC02AF012ECA0
:1027E80019F027C033F028C034F03EC027F03FC0AE
:1027F80028F0000E2A6E0A0E296EB7EC17F027C0D3
:102808003EF028C03FF03FBE14EF14F03F5006E101
:102818003E04D8B012EF14F014EF14F0DDEF13F00B
:1028280016EF14F012002B6EB1EF14F027C0D9FF89
:1028380028C0DAFFDF50D8A424EF14F026EF14F0F4
:10284800CAEF14F027C0D9FF28C0DAFFFE0EDF6EEA
:10285800CAEF14F0CAEF14F027C0D9FF28C0DAFF76
:10286800640EDF26CAEF14F07CEF14F027C0D9FFFE
:1028780028C0DAFFDD0EDF6ECAEF14F027C0D9FFDB
:1028880028C0DAFFDE0EDF6ECAEF14F027C0D9FFCA
:1028980028C0DAFFDF0EDF6ECAEF14F027C0D9FFB9
:1028A80028C0DAFFE00EDF6ECAEF14F027C0D9FFA8
:1028B80028C0DAFFE10EDF6ECAEF14F027C0D9FF97
:1028C80028C0DAFFE20EDF6ECAEF14F027C0D9FF86
:1028D80028C0DAFFE30EDF6ECAEF14F027C0D9FF75
:1028E80028C0DAFFE40EDF6ECAEF14F0CAEF14F066
:1028F80027C0D9FF28C0DAFFDF50296E2A6A2A507C
:10290800000AD8B48AEF14F0CAEF14F02950410A2B
:10291800D8B43AEF14F0030AD8B44AEF14F0010A15
:10292800D8B45AEF14F0070AD8B46AEF14F0250A9D
:10293800D8B442EF14F0030AD8B452EF14F0010AE5
:10294800D8B462EF14F0070AD8B472EF14F0CAEFE3
:1029580014F0CAEF14F0CAEF14F02B50296E2A6A4B
:102968002A50000AD8B4BBEF14F0CAEF14F029506B
:10297800610AD8B47CEF14F0110AD8B41AEF14F035
:10298800040AD8B430EF14F0CAEF14F0120027C0CC
:10299800D9FF28C0DAFF650EDF60D5EF14F0D7EF56
:1029A80014F0DBEF14F074EF15F074EF15F027C096
:1029B800D9FF28C0DAFFDD0EDF60E5EF14F0E7EF9E
:1029C80014F03BEF15F027C0D9FF28C0DAFF640EDA
:1029D800DF5E74EF15F03BEF15F027C0D9FF28C074
:1029E800DAFF410EDF6E74EF15F027C0D9FF28C05B
:1029F800DAFF610EDF6E74EF15F027C0D9FF28C02B
:102A0800DAFF420EDF6E74EF15F027C0D9FF28C039
:102A1800DAFF620EDF6E74EF15F027C0D9FF28C009
:102A2800DAFF430EDF6E74EF15F027C0D9FF28C018
:102A3800DAFF630EDF6E74EF15F027C0D9FF28C0E8
:102A4800DAFF440EDF6E74EF15F027C0D9FF28C0F7
:102A5800DAFF640EDF6E74EF15F027C0D9FF28C0C7
:102A6800DAFF000EDF6E74EF15F074EF15F027C073
:102A7800D9FF28C0DAFFDF50296E2A6A2A50000AD7
:102A8800D8B449EF15F074EF15F02950DD0AD8B421
:102A9800F1EF14F0030AD8B4F9EF14F0010AD8B42E
:102AA80001EF15F03F0AD8B409EF15F0010AD8B4C0
:102AB80011EF15F0030AD8B419EF15F0010AD8B4CC
:102AC80021EF15F0070AD8B429EF15F01A0AD8B47F
:102AD80031EF15F074EF15F074EF15F074EF15F091
:102AE80012002B6EE1EF15F027C0D9FF28C0DAFFDE
:102AF800DF50020B0EEF16F00EEF16F00EEF16F089
:102B080027C0D9FF28C0DAFFDF50010B0EEF16F0FF
:102B18000EEF16F00EEF16F027C0D9FF28C0DAFF27
:102B2800DF50080B0EEF16F00EEF16F00EEF16F052
:102B380027C0D9FF28C0DAFFDF50040B0EEF16F0CC
:102B48000EEF16F00EEF16F027C0D9FF28C0DAFFF7
:102B5800DF50200B0EEF16F00EEF16F00EEF16F00A
:102B680027C0D9FF28C0DAFFDF50100B0EEF16F090
:102B78000EEF16F00EEF16F027C0D9FF28C0DAFFC7
:102B8800DF50800B0EEF16F00EEF16F00EEF16F07A
:102B980027C0D9FF28C0DAFFDF50400B0EEF16F030
:102BA8000EEF16F00EEF16F0000E0EEF16F00EEF09
:102BB80016F00EEF16F00EEF16F02B50296E2A6A5B
:102BC8002A50000AD8B4EBEF15F0D8EF15F02950C9
:102BD800410AD8B478EF15F0030AD8B490EF15F08D
:102BE800010AD8B4A8EF15F0070AD8B4C0EF15F059
:102BF800250AD8B484EF15F0030AD8B49CEF15F071
:102C0800010AD8B4B4EF15F0070AD8B4CCEF15F020
:102C1800D8EF15F01200000E3C6E3ABE18EF16F011
:102C280016EF16F024EF16F03A1E391E381E376CD0
:102C3800000E382239223A22010E3C6E24EF16F09B
:102C480036BE2BEF16F029EF16F037EF16F0361ECA
:102C5800351E341E336C000E342235223622010E06
:102C68003C1A37EF16F0000E3D6E000E3E6E000E59
:102C78003F6E000E406E3750381039103A10D8B4F5
:102C880048EF16F04AEF16F08CEF16F0010E3B6E87
:102C980056EF16F0D8903736383639363A363B2A5A
:102CA80056EF16F03AAE5BEF16F05DEF16F04EEF0A
:102CB80016F061EF16F061EF16F0D8903D363E360B
:102CC8003F3640363750335C3850345839503558D1
:102CD8003A503658D8A073EF16F075EF16F080EF1B
:102CE80016F03750335E3850345A3950355A3A5006
:102CF800365A3D8080EF16F0D8903A323932383261
:102D080037323B2E61EF16F08CEF16F08CEF16F091
:102D18003C50D8B492EF16F094EF16F09EEF16F0F0
:102D2800401E3F1E3E1E3D6C000E3E223F224022AA
:102D38009EEF16F03DC033F03EC034F03FC035F092
:102D480040C036F0A8EF16F01200000E336E5D0496
:102D5800346E020E3460B3EF16F0B5EF16F0B9EF2B
:102D680016F034EF17F034EF17F03450010D150E4C
:102D7800F324D96E000EF420DA6EDF50356E650E3E
:102D88003560C9EF16F0CBEF16F0D5EF16F035C069
:102D98002FF0306AE9EC1EF0326E32283326D5EF78
:102DA80016F0640E3564DBEF16F0DDEF16F0F2EF87
:102DB80016F0DD0E3560E3EF16F0E5EF16F0F2EFF2
:102DC80016F09C0E35242F6E306AFF0E3022E9EC87
:102DD8001EF0326E32283326F2EF16F0DC0E356420
:102DE800F8EF16F0FAEF16F004EF17F0FE0E356064
:102DF80000EF17F002EF17F004EF17F0020E33267A
:102E0800FE0E3518D8A40BEF17F00DEF17F017EFDB
:102E180017F035C02FF0306AE9EC1EF0326E322818
:102E2800332617EF17F0140E33641DEF17F01FEF5A
:102E380017F025EF17F034EF17F034EF17F029EFFC
:102E480017F034C05CF029EF17F03406020E346036
:102E580030EF17F032EF17F0B9EF16F034EF17F044
:102E68001200286E8A9C28C027F0273A0F0E2716D2
:102E7800274627468A502718C30B27188A6E8A9E2A
:102E88002804D8B44AEF17F04CEF17F057EF17F0B3
:102E9800020E2818D8A453EF17F055EF17F060EF7B
:102EA80017F057EF17F00D0E276EFC0EE82EFED721
:102EB800272EFCD766EF17F0420EE82EFED700D07B
:102EC80066EF17F08A8E2850F00B200AD8A46FEF0F
:102ED80017F071EF17F086EF17F08A9C28C027F0DB
:102EE800273A0F0E2716274627468A502718C30B5E
:102EF80027188A6E8A9E420EE82EFED700D08A8E48
:102F080086EF17F08A9C28C027F00F0E2716274651
:102F180027468A502718C30B27188A6E8A9E2804CA
:102F2800D8B499EF17F09BEF17F0A6EF17F0020E41
:102F38002818D8A4A2EF17F0A4EF17F0AFEF17F0F6
:102F4800A6EF17F00D0E276EFC0EE82EFED7272EE3
:102F5800FCD7B5EF17F0420EE82EFED700D0B5EF3C
:102F680017F08A8E1200000E2C6E2ABEC0EF17F0E2
:102F7800BEEF17F0C8EF17F0296C2A1ED8B02A2A1E
:102F8800010E2C6EC8EF17F028BECFEF17F0CDEF6B
:102F980017F0D7EF17F0276C281ED8B0282A010E93
:102FA8002C1AD7EF17F0000E2E6E000E2D6E29503A
:102FB8002A10D8B4E2EF17F0E4EF17F018EF18F082
:102FC800010E2B6EEEEF17F0D89029362A362B2AF1
:102FD800EEEF17F02AAEF3EF17F0F5EF17F0E8EF82
:102FE80017F0F9EF17F0F9EF17F0D8902D362E36C5
:102FF8002950275C2A502858D8A005EF18F007EF69
:1030080018F00EEF18F02950275E2A50285A2D8004
:103018000EEF18F0D8902A3229322B2EF9EF17F03C
:1030280018EF18F018EF18F02C50D8B41EEF18F05D
:1030380020EF18F026EF18F02D6C2E1ED8B02E2A8F
:1030480026EF18F02DC027F02EC028F02CEF18F02E
:1030580012002B6E72EF18F027C0D9FF28C0DAFFD4
:10306800000EDB809FEF18F027C0D9FF28C0DAFFD9
:10307800FE0EDF169FEF18F027C0D9FF28C0DAFF31
:10308800000EDB829FEF18F027C0D9FF28C0DAFFB7
:10309800FD0EDF169FEF18F027C0D9FF28C0DAFF12
:1030A800000EDB849FEF18F027C0D9FF28C0DAFF95
:1030B800FB0EDF169FEF18F027C0D9FF28C0DAFFF4
:1030C800000EDB869FEF18F027C0D9FF28C0DAFF73
:1030D800F70EDF169FEF18F09FEF18F02B50296EB0
:1030E8002A6A2A50000AD8B47CEF18F09FEF18F02B
:1030F8002950410AD8B430EF18F0030AD8B440EF89
:1031080018F0010AD8B450EF18F0070AD8B460EFE5
:1031180018F0250AD8B438EF18F0030AD8B448EFE5
:1031280018F0010AD8B458EF18F0070AD8B468EFB5
:1031380018F09FEF18F01200000E296E000E2A6E8C
:10314800030E2A64AAEF18F0ACEF18F0B0EF18F0ED
:103158000EEF19F00EEF19F02AC027F0010E286EB5
:10316800272AB9EF18F0D8902836272EB7EF18F08D
:103178002850836E000E2B6E030E2B64C6EF18F0DA
:10318800C8EF18F0CCEF18F003EF19F003EF19F0BF
:103198002BC027F0100E286E272AD5EF18F0D890EC
:1031A8002836272ED3EF18F0285083140009D8B4F6
:1031B800E0EF18F0E2EF18F0F8EF18F02A50040DDD
:1031C800E10E276E000E286EF3502726F4502822B1
:1031D8002B50010DF3502724D96EF4502820DA6EB5
:1031E800DF50296EF8EF18F02B2A030E2B64FFEF3F
:1031F80018F001EF19F0CCEF18F003EF19F02A2AB4
:10320800030E2A640AEF19F00CEF19F0B0EF18F06A
:103218000EEF19F0295011EF19F01200000E2C6E64
:1032280028BE1BEF19F019EF19F023EF19F0276CDE
:10323800281ED8B0282A010E2C6E23EF19F02ABEBA
:103248002AEF19F028EF19F030EF19F0296C2A1E2F
:10325800D8B02A2A30EF19F029502A10D8B437EFFD
:1032680019F039EF19F069EF19F0010E2B6E43EFE1
:1032780019F0D89029362A362B2A43EF19F02AAEAE
:1032880048EF19F04AEF19F03DEF19F04EEF19F039
:103298004EEF19F02950275C2A502858D8A057EF2C
:1032A80019F059EF19F05FEF19F02950275E2A50ED
:1032B800285A5FEF19F0D8902A3229322B2E4EEF78
:1032C80019F069EF19F069EF19F02C50D8B46FEFC5
:1032D80019F071EF19F077EF19F0276C281ED8B0A4
:1032E800282A77EF19F027C027F028C028F07DEFAB
:1032F80019F01200296EBEEF19F013B086EF19F01D
:1033080089EF19F0010E8AEF19F0000EDBEF19F0C2
:10331800DBEF19F013B293EF19F096EF19F0010EE5
:1033280097EF19F0000EDBEF19F0DBEF19F013B48B
:10333800A0EF19F0A3EF19F0010EA4EF19F0000E99
:10334800DBEF19F0DBEF19F013B6ADEF19F0B0EFC2
:1033580019F0010EB1EF19F0000EDBEF19F0DBEFF9
:1033680019F0000EDBEF19F0DBEF19F0DBEF19F0C5
:10337800DBEF19F02950276E286A2850000AD8B4C4
:10338800C8EF19F0B5EF19F02750410AD8B481EF0A
:1033980019F0030AD8B48EEF19F0010AD8B49BEFDC
:1033A80019F0070AD8B4A8EF19F0B5EF19F0120010
:1033B8005D50D8B4E2EF19F0E4EF19F035EF1AF0E8
:1033C800020E5D64EAEF19F0ECEF19F0EFEF19F077
:1033D8005D06EFEF19F05D50010D150EF324D96E5F
:1033E800000EF420DA6EDC0EDF64FDEF19F0FFEF5B
:1033F80019F029EF1AF05D50010D150EF324276E10
:10340800000EF420286ECBEC14F05D50010D150E63
:10341800F324D96E000EF420DA6EDF50DF0B94EC43
:103428001AF05D50010D150EF324D96E000EF4202C
:10343800DA6EDF50366E376A36C027F037C028F0AC
:10344800610E17EC14F029EF1AF05D50010D150EFE
:10345800F324D96E000EF420DA6E000EDF6E35EF1D
:103468001AF0A9EC16F01200000E2F6E000E306E46
:10347800000E316E000E326E2B502C102D102E10B7
:10348800D8B449EF1AF04BEF1AF08BEF1AF0010E8F
:10349800336E57EF1AF0D8902B362C362D362E3641
:1034A800332A57EF1AF02EAE5CEF1AF05EEF1AF0DF
:1034B8004FEF1AF062EF1AF062EF1AF0D8902F3639
:1034C8003036313632362B50275C2C5028582D5048
:1034D80029582E502A58D8A074EF1AF076EF1AF00F
:1034E80081EF1AF02B50275E2C50285A2D50295A5C
:1034F8002E502A5A2F8081EF1AF0D8902E322D3272
:103508002C322B32332E62EF1AF08BEF1AF02FC0C9
:1035180027F030C028F031C029F032C02AF012005C
:10352800296EC5EF1AF013A09CEF1AF09FEF1AF05E
:103538001380A0EF1AF01390E2EF1AF013A2A7EF8E
:103548001AF0AAEF1AF01382ABEF1AF01392E2EF17
:103558001AF013A4B2EF1AF0B5EF1AF01384B6EF0D
:103568001AF01394E2EF1AF013A6BDEF1AF0C0EFA9
:103578001AF01386C1EF1AF01396E2EF1AF0E2EF91
:103588001AF02950276E286A2850000AD8B4CFEFBD
:103598001AF0E2EF1AF02750410AD8B497EF1AF060
:1035A800030AD8B4A2EF1AF0010AD8B4ADEF1AF0A2
:1035B800070AD8B4B8EF1AF0E2EF1AF0120005C003
:1035C8002AF006C02BF007C02CF008C02DF0410EE1
:1035D8007EEC19F02A6E420E7EEC19F02B6E430E2B
:1035E8007EEC19F02C6E440E7EEC19F02D6E2A0E2E
:1035F8002E6E000E2F6E000E306E080E316E1CEF10
:103608001BF02EC0D9FF2FC0DAFFDF50D8B40FEF60
:103618001BF011EF1BF016EF1BF030503110306E1D
:1036280016EF1BF02E4A2F2AD89031321CEF1BF0D0
:103638003150D8A422EF1BF024EF1BF005EF1BF04C
:1036480026EF1BF0305029EF1BF01200000E2C6EF5
:10365800000E2B6E29502A10D8B435EF1BF037EF27
:103668001BF069EF1BF0010E2D6E41EF1BF0D89097
:1036780029362A362D2A41EF1BF02AAE46EF1BF0D9
:1036880048EF1BF03BEF1BF04CEF1BF04CEF1BF02F
:10369800D8902B362C362950275C2A502858D8A089
:1036A80058EF1BF05AEF1BF061EF1BF02950275E13
:1036B8002A50285A2B8061EF1BF0D8902A322932E1
:1036C8002D2E4CEF1BF069EF1BF02BC027F02CC000
:1036D80028F01200DE0EF66E3E0EF76E000EF86E43
:1036E80001EE00F010EE3CF00900F5CFEEFFE550DA
:1036F800E150FAE1100EF66E430EF76E000EF86E0A
:1037080000EE47F010EE17F00900F5CFEEFFE55098
:10371800E150FAE18A0EF66E3F0EF76E000EF86E73
:1037280000EEBDF010EE34F00900F5CFEEFFE550E5
:10373800E150FAE10001F26BF16B00EE01F0260EA8
:10374800EE6AE806FDE15E905E92000EF86E0001FA
:1037580009EF00F012042E6EE0EC21F0000E2F6E3F
:10376800D9EF1BF02F50010DF3500B24D96EF450F4
:103778000C20DA6E2F502A6E2B6A2A1E2B1E2A4A1C
:103788002B2A2E502C6E2D6A2A502C262B502D2297
:103798002C500924E16E2D500A20E26EE75027ECE8
:1037A8001DF0DF6E2F2AD9EF1BF012502F5CD8A026
:1037B800E0EF1BF0E2EF1BF0B6EF1BF0E4EF1BF0BD
:1037C800E0EC21F01200000E2F6E000E306E000E9D
:1037D800316E000E326EF1EF1BF027A0F6EF1BF0F2
:1037E800F8EF1BF002EF1CF02B502F262C50302244
:1037F8002D5031222E50322202EF1CF0D8902B3659
:103808002C362D362E36D8902A32293228322732B5
:103818002750281029102A10D8A415EF1CF017EFEC
:103828001CF0F1EF1BF02FC027F030C028F031C09A
:1038380029F032C02AF01200F29E000E276E2D0EDB
:10384800286E310E296E010E2A6E34C038F035C04C
:1038580039F036C03AF037C03BF0020ED89038360F
:1038680039363A363B36E82E32EF1CF038C02BF0AA
:1038780039C02CF03AC02DF03BC02EF038EC1AF0CD
:10388800FF0E27240001996FFF0E28209A6FAC982D
:10389800B886AC84AB8EAC8AAB889D8A9D98F28C36
:1038A800F28E1200000E306E000E296E000E8DECA6
:1038B8001DF079EF1CF00A0E3118D8B466EF1CF031
:1038C80068EF1CF06DEF1CF031509BEC1EF075EFAB
:1038D8001CF0000E296E302A30508DEC1DF075EF6B
:1038E8001CF02E4A2F2A79EF1CF02EC0F6FF2FC0AD
:1038F800F7FF0800F5CF31F03150D8A486EF1CF05F
:1039080088EF1CF05FEF1CF08AEF1CF012002B6EA2
:10391800080E2C6E410E2A6E2B28D8A496EF1CF0A8
:1039280098EF1CF0B2EF1CF0BEEF1CF0BEEF1CF0DD
:10393800B2EF1CF02B502C140009D8B4A6EF1CF0E1
:10394800A8EF1CF0ADEF1CF02A5094EC1AF0ADEF84
:103958001CF02A2AD8902C32B2EF1CF02C50D8A494
:10396800B8EF1CF0BAEF1CF09EEF1CF0BEEF1CF095
:10397800BEEF1CF01200366E120E5D60C6EF1CF032
:10398800C8EF1CF0F0EF1CF03650D8B4CEEF1CF0A6
:10399800D0EF1CF0F0EF1CF0360E276E000E286EEC
:1039A800740E17EC14F05D50010D150EF324D96E4A
:1039B800000EF420DA6E36C0DFFF5D2A5D50010D7F
:1039C800150EF324D96E000EF420DA6E000EDF6EA9
:1039D800F0EF1CF0F0EF1CF0A9EC16F01200366EB8
:1039E800120E5D60FAEF1CF0FCEF1CF024EF1DF0E6
:1039F8003650D8B402EF1DF004EF1DF024EF1DF08F
:103A0800360E276E000E286E610E17EC14F05D500E
:103A1800010D150EF324D96E000EF420DA6E36C0AF
:103A2800DFFF5D2A5D50010D150EF324D96E000EDF
:103A3800F420DA6E000EDF6E24EF1DF024EF1DF087
:103A4800A9EC16F01200276E800E296E000E286E63
:103A58004DEF1DF08094275029140009D8B437EF92
:103A68001DF039EF1DF03CEF1DF080803DEF1DF09B
:103A7800809080A242EF1DF044EF1DF048EF1DF04A
:103A88002950281248EF1DF08084D89029324DEF34
:103A98001DF02950D8A453EF1DF055EF1DF02EEF5F
:103AA8001DF08094285059EF1DF01200110E5C6033
:103AB80060EF1DF062EF1DF088EF1DF0FF0E276E1E
:103AC800FF0E286E5D50296E2A6A27502926285035
:103AD8002A225C502B6E2C6A29502B5C2C50800AB1
:103AE8002D6E2A50800A2D58D8B07DEF1DF07FEF3B
:103AF8001DF082EF1DF05C2A8CEF1DF05D045C6EFA
:103B08008CEF1DF08CEF1DF0110E5C6E8CEF1DF02C
:103B180012002C6E000E2D6EA0EF1DF0400E2D6EC3
:103B2800B9EF1DF0140E2D6EB9EF1DF0540E2D6E69
:103B3800B9EF1DF0B9EF1DF02C502A6E2B6A2B50EF
:103B4800000AD8B4AAEF1DF0B9EF1DF02A50010AF7
:103B5800D8B492EF1DF0030AD8B496EF1DF0010A0D
:103B6800D8B49AEF1DF0B9EF1DF02D5029247F0B22
:103B7800800F35EC17F01200316E31C027F0286A3B
:103B8800B2EC20F027C02FF028C030F0000E326EC3
:103B98000F0E3264D2EF1DF0D4EF1DF0D8EF1DF0F8
:103BA800EFEF1DF0EFEF1DF032502D24D96E000E0F
:103BB8002E20DA6EDF50276E32502F24F9EC1FF0DA
:103BC800322A0F0E3264EBEF1DF0EDEF1DF0D8EF47
:103BD8001DF0EFEF1DF01200316E31C027F0286A9A
:103BE800B2EC20F027C02FF028C030F0000E326E63
:103BF8000F0E326402EF1EF004EF1EF008EF1EF005
:103C08001EEF1EF01EEF1EF032502D24D96E000E4E
:103C18002E20DA6E32502F24A7EC21F0DF6E322AE4
:103C28000F0E32641AEF1EF01CEF1EF008EF1EF0A4
:103C38001EEF1EF01200366E120E5D6026EF1EF0AB
:103C480028EF1EF046EF1EF0360E276E000E286E87
:103C5800700E17EC14F05D50010D150EF324D96E9B
:103C6800000EF420DA6E36C0DFFF5D2A5D50010DCC
:103C7800150EF324D96E000EF420DA6E000EDF6EF6
:103C880046EF1EF0A9EC16F012002D6E2DC027F09D
:103C9800286AB2EC20F027C02BF028C02CF0000EC8
:103CA8002E6E0F0E2E645BEF1EF05DEF1EF061EFBF
:103CB8001EF072EF1EF072EF1EF0000E276E2E50EF
:103CC8002B24F9EC1FF02E2A0F0E2E646EEF1EF037
:103CD80070EF1EF061EF1EF072EF1EF01200326EF0
:103CE8002EC031F02EC029F032508DEC1DF08AEF35
:103CF8001EF02FC0F6FF30C0F7FF0800F5509BEC10
:103D08001EF02F4A302A312A8AEF1EF02FC0F6FF04
:103D180030C0F7FF0800F5500009D8A496EF1EF050
:103D280098EF1EF07DEF1EF09AEF1EF01200286E3D
:103D38008A8C28C027F0273A0F0E271627462746D1
:103D48008A502718C30B27188A6E8A9E420EE82EBF
:103D5800FED700D08A8E8A8C28C027F00F0E27162F
:103D6800274627468A502718C30B27188A6E8A9E2B
:103D7800420EE82EFED700D08A8E1200336ED00E87
:103D88002F6EFF0E306E2DC0D9FF2EC0DAFFDECFAA
:103D980027F0DDCF28F0000E2A6E0A0E296E89EC76
:103DA80020F03350316E326A2750312628503222A3
:103DB8002F503126305032222DC0D9FF2EC0DAFFC5
:103DC80031C0DEFF32C0DDFF1200000E316EFEEFA3
:103DD8001EF02FC027F030C028F0000E2A6E0A0E01
:103DE800296EB7EC17F027C02FF028C030F0312A21
:103DF800FEEF1EF02F503010D8A405EF1FF007EF8C
:103E08001FF0EDEF1EF009EF1FF031500CEF1FF01F
:103E180012002AC02CF02BC02DF0040E2E6ED89064
:103E28002D322C322E2E13EF1FF02C5008EC21F0DF
:103E380070EC21F0000E286E010E276E12EC20F0B7
:103E48002A38F00B08EC21F070EC21F0000E286EF7
:103E5800010E276E12EC20F01200000E2D6E000EDF
:103E68002C6EA0EC18F02D6E2D50D8B43EEF1FF03C
:103E780040EF1FF04AEF1FF01150D8A446EF1FF093
:103E880048EF1FF04AEF1FF02DC02CF02DC011F0A5
:103E98002C504FEF1FF0120064EC21F0000E286E3A
:103EA800010E276E12EC20F0C00E08EC21F070EC29
:103EB80021F0000E286E010E276E12EC20F0600E25
:103EC80008EC21F070EC21F0000E286E010E276E30
:103ED80012EC20F0120041542B43574A41503D2226
:103EE80000000000000000000000000000000000CA
:103EF8000000000000000000000000000000564024
:103F080000000000000000000000000000000000A9
:103F1800000093809382C650F00B0809C66E400ECD
:103F2800276E4B0E286E4C0E296E000E2A6E34C07A
:103F38002BF035C02CF036C02DF037C02EF038EC01
:103F48001AF02704C86EC78EC68A1200C1689394F7
:103F580093969398939A939C939E8A8E000E286EBC
:103F6800050E276E12EC20F0280E35EC17F00C0E1B
:103F780035EC17F0010E35EC17F0020E35EC17F0A2
:103F880012004D756E646F20616F20736575206334
:103F98006F6D616E646F000000000000000000009B
:103FA800000040380000313233413435364237386A
:103FB80039432A302344FD0ECF6E8F0ECE6E01504A
:103FC800021003100410D8B4ECEF1FF0EEEF1FF04E
:103FD800F5EF1FF00106000E025A035A045AF8EFD3
:103FE8001FF0CD90F8EF1FF01200286EF29E28C047
:103FF800A9FF27C0A8FFA69EA684550EA76EAA0EE5
:10400800A76EA68208EF20F0A6B20DEF20F00FEF02
:1040180020F008EF20F0A694F28E12001FEF20F097
:10402800070E296E7D0EE82EFED7292EFCD700F04C
:104038002706D8A0280627502810D8A426EF20F055
:1040480028EF20F014EF20F02AEF20F012003CC0F7
:1040580034F03DC035F03EC036F03FC037F020EEBA
:10406800DDF002D842EF20F00500FA6EDE50FD6E5A
:10407800DE50FE6EF850FF6EFA5012001200060075
:10408800F29E9EA04AEF20F04CEF20F058EF20F06F
:104098009DA051EF20F053EF20F058EF20F09E90B4
:1040A800DFEC1FF058EF20F0F28E5E921100C1682D
:1040B80027C00BF028C00CF029C009F02AC00AF06C
:1040C8002BC012F080969296809492948090929051
:1040D8008092928280948090808612002EC0D9FFB0
:1040E8002FC0DAFFDECF27F0DDCF28F0000E2A6ED2
:1040F8000A0E296E2AEC1BF02EC0D9FF2FC0DAFF5A
:1041080027C0DEFF28C0DDFF120027502902F3CFA9
:104118002BF0F4CF2CF027502A02F3502C262850ED
:104128002902F3502C262BC027F02CC028F09DEF35
:1041380020F01200326E32C027F0286AB2EC20F06C
:1041480027C030F028C031F02D503024A7EC21F0E2
:104158002EC0D9FF2FC0DAFFDF6E120027C029F06A
:1041680028C02AF0293A2A3AF00E2A1629500F0BAD
:104178002A12F00E291629C027F02AC028F0C5EF08
:1041880020F01200316E31C027F0286AB2EC20F01E
:1041980027C02FF028C030F02EC027F02D502F2434
:1041A800F9EC1FF0120016C029F02A6A29502A6E6D
:1041B800296A15502926000E2A2229C027F02AC06C
:1041C80028F0E7EF20F0120050EC1FF041C02AF071
:1041D80042C02BF00DEC1FF07CEC21F0000E286E95
:1041E800010E276E12EC20F01200000E296EFFEF70
:1041F80020F007EF21F0000E276E2950F9EC1FF090
:10420800292AFFEF20F01200276E27C0C9FF0DEF03
:1042180021F0C7B012EF21F014EF21F00DEF21F0DB
:1042280016EF21F01200CD92300ECD12CD84FD0E86
:10423800CF6E8F0ECE6ECD9C9D80F28CF28E1200CA
:10424800286E000E296ED0EC21F0282431EC21F0E4
:10425800296E295030EF21F01200276E2750010DEA
:10426800150EF324D96E000EF420DA6EDF503DEF00
:1042780021F01200110E5D6444EF21F047EF21F0A8
:10428800010E48EF21F0000E4AEF21F012005D50B8
:104298005B5CD8B052EF21F054EF21F057EF21F0DA
:1042A8005B2A57EF21F01200020E5C645EEF21F0EA
:1042B80060EF21F063EF21F05C0663EF21F012005C
:1042C800C58067EF21F09EA66CEF21F06EEF21F01C
:1042D80067EF21F09E96120072EF21F0C5BC77EFD0
:1042E80021F079EF21F072EF21F07BEF21F012003D
:1042F800C5847FEF21F09EA684EF21F086EF21F0A0
:104308007FEF21F09E961200803BE03B923C00003C
:0F431800F241543FAC38E63C8C26B84302020217
:104328002DC001F02EC002F02FC003F030C004F001
:10433800CD80120001C027F002C028F003C029F088
:1043480004C02AF01200276E27C0A9FFA69EA680E7
:10435800A850AFEF21F01200150E276E000E286E40
:10436800B6EF21F01200000E836EF00E956E12006B
:10437800000E0E6E000E0D6E120013901392139421
:10438800139612000DC027F00EC028F0120027C0A7
:1043980015F02850166E12005B50D3EF21F0120072
:1043A800120ED7EF21F012005D50DBEF21F0120062
:1043B800010E35EC17F01200809680861200020E6E
:0A43C8005B6E12000D4A0E2A12006F
:107C400000313A20494E534552495220534551552F
:107C5000454E4349410A323A20425553434152204E
:107C600053455155454E4349410A333A20524550F8
:107C70004554495220554C542E20534551550A34F1
:107C80003A20434F4E464947555241434F455320B2
:107C900020202000204553434F4C48412041204D97
:107CA000454D4F524941200A5155452044455345C1
:107CB0004A412045584543555441520A203020201E
:107CC0002031202020322020203320202034200A80
:107CD000203520202036202020372020203820204A
:107CE0002039200A00204553434F4C484120412071
:107CF0004D454D4F5249410A205155452044455369
:107D0000454A412053414C5641520A203020202000
:107D1000312020203220202033202020340A20351A
:107D200020202036202020372020203820202039F5
:107D300020200020202020444553454A4120534123
:107D40004C5641522020200A20202020205345510B
:107D500055454E434941203F20200A0A23202D202B
:107D600053494D2020202020202A202D204E414FF5
:107D70000041542B43495053544152543D225443E3
:107D800050222C223139322E3136382E342E3122E7
:107D90002C22333333220D0A0041542B43495053D4
:107DA00045525645523D312C3333330D0A00436959
:107DB000636C6F733A202020202020202020202078
:107DC0002020003C20202F20203E20633A2020202D
:107DD00020202020202020002020202020202020C3
:107DE00053414C56412020202020202000202020DC
:107DF000202020534547475549542020202020204B
:107E00002000202020202020205B202020205D201A
:107E10002020202020200020202020202020444539
:107E20004C455445442020202020200020202020A4
:107E3000202020204D454D4F525920202020202029
:107E4000002020202020204D454D4F524941203F09
:107E50002020202020002020202020205345515584
:107E6000454E434941202020202000202020202072
:107E7000444F2053495354454D4120202020200099
:107E80002020204120202042202020432020204468
:107E9000202020200020202044454C4554415220E1
:107EA000544F4441204120202000323A204C494D7B
:107EB000504152204D454D4F524941202020002035
:107EC0002020414A55535445204F20494E494349AB
:107ED0004F2020002020494E53495241204F53202B
:107EE000504153534F5320200030202D20436963CD
:107EF0006C6F20636F6E74696E756F202000204375
:107F0000455254455A412051554520444553454A10
:107F1000412000636F6E66696720636F6E74726CD8
:107F20003A20202020202500313A2056455249464B
:107F300049434152204D454D4F52494100636F6EB8
:107F40006669672074656D706F3A202020202020BC
:107F5000730041542B43574155544F434F4E4E3DB0
:107F6000300D0A0041542B4349504D4F44453D319B
:107F70000D0A0041542B43495053454E443D380DA2
:107F80000A0041542B43574D4F44453D300D0A00E4
:107F900041542B43574D4F44453D310D0A00415448
:107FA0002B4349504D55583D310D0A0041542B4348
:107FB000574D4F44453D320D0A0041542B43574D18
:107FC0004F44453D330D0A0041542B434950434C27
:107FD0004F53450D0A0041542B43574C41500D0A55
:107FE0000041542B43494653520D0A004142434439
:107FF00045464748003C20202F20203E00FF00003F
:020000040020DA
:08000000FFFFFFFFFFFFFFFF00
:020000040030CA
:0E000000040C181EFF0180FF0FC00FE00F4020
:00000001FF
