:020000040000FA
:0400000007EF00F016
:100008005A82F0ED1FF0DFEF1AF088EC1FF075EC64
:1000180021F0D6EC20F0000E346E2D0E356E310E28
:10002800366E010E376E6BEC1FF0000E426E000E3E
:10003800416EA7EC20F0000E0001BE6F000EBD6FF0
:10004800000EB66F000E746FEEC0ADF0EDC0AEF0EE
:10005800AD0E276E000E286EAE0E296E000E2A6EAB
:10006800010E2B6E08EC20F00001AF69000EBC6F8A
:10007800020E756F000EB16F000EB06F000EB36FF9
:10008800000EB26F000EB56F000EB46F000EB76FA2
:100098009FEF0EF09FEF0EF0000EA16F030EA1650B
:1000A80058EF00F05AEF00F05EEF00F09FEF00F01D
:1000B8009FEF00F0000EA26F130EA26566EF00F02E
:1000C80068EF00F06CEF00F094EF00F094EF00F0B0
:1000D80020EED3F002D882EF00F00500FA6EDE5071
:1000E800FD6EDE50FE6EF850FF6EFA50A2C02EF084
:1000F800FC0E2F6E7F0E306EA1511200000E286E7E
:100108000A0E276ED7EC1FF00001A22B130EA26572
:1001180090EF00F092EF00F06CEF00F094EF00F039
:10012800A12B030EA1659BEF00F09DEF00F05EEFA1
:1001380000F09FEF00F0000EA36F030EA365A7EF7A
:1001480000F0A9EF00F0ADEF00F0EEEF00F0EEEFF9
:1001580000F0000EA46F130EA465B5EF00F0B7EF22
:1001680000F0BBEF00F0E3EF00F0E3EF00F020EE6B
:10017800D3F002D8D1EF00F00500FA6EDE50FD6E24
:10018800DE50FE6EF850FF6EFA50A4C02EF0B80E86
:100198002F6E7D0E306EA3511200000E286E0A0ECF
:1001A800276ED7EC1FF00001A42B130EA465DFEF18
:1001B80000F0E1EF00F0BBEF00F0E3EF00F0A32B5D
:1001C800030EA365EAEF00F0ECEF00F0ADEF00F0EE
:1001D800EEEF00F0010EBD6F45EF0FF020EED3F00B
:1001E80002D808EF01F00500FA6EDE50FD6EDE5011
:1001F800FE6EF850FF6EFA50000E2E6EE40E2F6E53
:100208007D0E306E010E120021EE32F010EE60F01D
:10021800130EDBCFE3FFE806FCE2000E00019C6F43
:10022800600E9F6F000EA06F33EF01F09CC029F0A5
:10023800020E5CEC1DF09FC0D9FFA0C0DAFFDF50B2
:1002480097EC1EF000019C2B000E286E320E276ED4
:10025800D7EC1FF000019F4BA02B33EF01F09FC09C
:10026800D9FFA0C0DAFFDF50D8A43DEF01F03FEF7F
:1002780001F01AEF01F041EF01F0DC0E2D6E050ED2
:100288002E6E000E2F6E000E306E47EC21F0020E1F
:100298000001BD6F45EF0FF065EC21F027502810E5
:1002A80029102A10D8A45BEF01F05DEF01F045EFAB
:1002B8000FF0080E0001BD6F45EF0FF045EF0FF08E
:1002C8007FEC21F0EB0E2E6E7B0E2F6E20EED1F020
:1002D80002D879EF01F00500FA6EDE50FD6EDE50AF
:1002E800FE6EF850FF6EFA501200E80E2D6E030EE7
:1002F8002E6E000E2F6E000E306E47EC21F0090EA8
:100308000001BD6F45EF0FF065EC21F02750281074
:1003180029102A10D8A493EF01F095EF01F045EFCA
:100328000FF0470E0001BD6F45EF0FF045EF0FF0DE
:100338002DEC1FF00001BE6FB4EF01F0030EBD6F8E
:1003480045EF0FF0480EBD6F45EF0FF0640EBD6F1F
:1003580045EF0FF0500EBD6F45EF0FF045EF0FF072
:10036800BE51456E466A4650000AD8B4BEEF01F049
:1003780045EF0FF04550310AD8B4A2EF01F0030A57
:10038800D8B4A6EF01F0010AD8B4AAEF01F0070A21
:10039800D8B4AEEF01F045EF0FF045EF0FF00A0EBD
:1003A8002D6EB60E2E6E000E2F6E0A0E4BEC20F040
:1003B8000001B6515AEC1CF020EEDBF002D8F4EF45
:1003C80001F00500FA6EDE50FD6EDE50FE6EF8504C
:1003D800FF6EFA50760E2D6E000E2E6E0B0E12006A
:1003E800760E00019D6F000E9E6F9DC0D9FF9EC0C6
:1003F800DAFFDE28D8A403EF02F005EF02F023EFBE
:1004080002F020EEDDF002D81EEF02F00500FA6ED1
:10041800DE50FD6EDE50FE6EF850FF6EFA50BEC024
:1004280027F0286A000E2A6E300E296E0EEC19F09D
:1004380027501200000E0001766F23EF02F0760EAF
:10044800B86F000EB96F0AEF03F0B8C0D9FFB9C092
:10045800DAFF640EDF6433EF02F035EF02F044EFA9
:1004680002F0B8C0D9FFB9C0DAFFFE0EDE18D8A472
:1004780040EF02F042EF02F053EF02F044EF02F0D7
:10048800B8C027F0B9C028F0C7EC14F0B8C0D9FF3D
:10049800B9C0DAFFDF501BEC1EF003EF03F0B8C061
:1004A800D9FFB9C0DAFF640EDF645DEF02F05FEFD9
:1004B80002F07AEF02F0B8C0D9FFB9C0DAFFDD0E5A
:1004C800DF6069EF02F06BEF02F07AEF02F0B8C07C
:1004D80027F0B9C028F0C7EC14F0B8C0D9FFB9C0EC
:1004E800DAFFDF508EEC1CF003EF03F0B8C027F002
:1004F800B9C028F0C7EC14F09AEF02F090EF02F0C0
:1005080090EF02F090EF02F090EF02F090EF02F01F
:1005180090EF02F090EF02F0B8C0D9FFB9C0DAFF4F
:10052800DF0EDF16CBEF02F0CBEF02F0B8C0D9FF39
:10053800B9C0DAFFDF50456E466A4650000AD8B4A3
:10054800A8EF02F0CBEF02F04550410AD8B490EF83
:1005580002F0030AD8B490EF02F0010AD8B490EF81
:1005680002F0070AD8B490EF02F0250AD8B490EF49
:1005780002F0030AD8B490EF02F0010AD8B490EF61
:1005880002F0070AD8B490EF02F0CBEF02F0B8C03F
:10059800D9FFB9C0DAFFDF5090EC1AF0B8C0D9FF24
:1005A800B9C0DAFFDF507AEC19F00009D8A4DFEF00
:1005B80002F0E1EF02F0F0EF02F0B8C0D9FFB9C0E5
:1005C800DAFFDF50456E466A200E45100001866F3F
:1005D8004650876FFCEF02F0B8C0D9FFB9C0DAFF08
:1005E800DF50456E45500001866F876BFCEF02F0C7
:1005F8008651C2EC1CF003EF03F003EF03F0C9ECE3
:1006080010F00001B84BB92B0AEF03F0B8C0D9FFBE
:10061800B9C0DAFFDF50D8A414EF03F016EF03F0E7
:1006280029EF02F018EF03F09AEC21F0100E000108
:10063800BD6F45EF0FF09AEC21F0000E2E6E1F0EE5
:100648002F6E7F0E306E000E6FEC1EF0000E2E6EB9
:10065800A10E2F6E7E0E306E010E6FEC1EF0E80EAE
:100668002D6E030E2E6E000E2F6E000E306E47ECB0
:1006780021F0510E0001BD6F45EF0FF065EC21F040
:100688002750281029102A10D8A44DEF03F04FEF57
:1006980003F045EF0FF0520E0001BD6F45EF0FF06C
:1006A80045EF0FF02DEC1FF00001BE6F6AEF03F06D
:1006B800530EBD6F45EF0FF0540EBD6F45EF0FF0B1
:1006C800080EBD6F45EF0FF045EF0FF0BE51456EB8
:1006D800466A4650000AD8B474EF03F045EF0FF0AD
:1006E80045502A0AD8B464EF03F01B0AD8B45CEF6B
:1006F80003F0030AD8B460EF03F045EF0FF045EFBD
:100708000FF0000E2E6EF50E2F6E7E0E306E000E60
:100718006FEC1EF0000E2E6E8C0E2F6E7E0E306E5D
:10072800010E6FEC1EF0000E2E6E380E2F6E7E0E30
:10073800306E020E6FEC1EF0000E2E6E060E2F6E3F
:100748007D0E306E030E6FEC1EF02DEC1FF00001D5
:10075800BE6FBCEF03F0550EBD6F45EF0FF09AEC7E
:1007680021F0500E0001BD6F45EF0FF045EF0FF07F
:10077800BE51456E466A4650000AD8B4C6EF03F02B
:1007880045EF0FF04550230AD8B4AFEF03F0090A3C
:10079800D8B4B3EF03F045EF0FF045EF0FF020EEBC
:1007A800E1F002D8E2EF03F00500FA6EDE50FD6ECC
:1007B800DE50FE6EF850FF6EFA5012009AEC21F0EF
:1007C800000E0001A56F030EA565EDEF03F0EFEF36
:1007D80003F0F3EF03F027EF04F027EF04F0000E27
:1007E800A66F130EA665FBEF03F0FDEF03F001EF14
:1007F80004F01CEF04F01CEF04F0A6C02EF0FC0E71
:100808002F6E7F0E306EA5516FEC1EF0000E286E15
:100818000A0E276ED7EC1FF00001A62B130EA66553
:1008280018EF04F01AEF04F001EF04F01CEF04F0E5
:10083800A52B030EA56523EF04F025EF04F0F3EFD5
:1008480003F027EF04F0000EA76F030EA7652FEF44
:1008580004F031EF04F035EF04F069EF04F069EFCC
:1008680004F0000EA86F130EA8653DEF04F03FEFEB
:1008780004F043EF04F05EEF04F05EEF04F0A8C06C
:100888002EF0B80E2F6E7D0E306EA7516FEC1EF055
:10089800000E286E0A0E276ED7EC1FF00001A82B59
:1008A800130EA8655AEF04F05CEF04F043EF04F070
:1008B8005EEF04F0A72B030EA76565EF04F067EF62
:1008C80004F035EF04F069EF04F0000E2E6E0E0E02
:1008D8002F6E7E0E306E010E6FEC1EF0000E2E6E27
:1008E800230E2F6E7E0E306E020E6FEC1EF0E80E99
:1008F8002D6E030E2E6E000E2F6E000E306E47EC1E
:1009080021F0560E0001BD6F45EF0FF065EC21F0A8
:100918002750281029102A10D8A495EF04F097EF33
:1009280004F045EF0FF0500E0001BD6F45EF0FF0DA
:1009380045EF0FF020EED7F002D8ADEF04F0050038
:10094800FA6EDE50FD6EDE50FE6EF850FF6EFA5005
:1009580012003E0E2E6E7C0E2F6E20EED1F002D8C5
:10096800C0EF04F00500FA6EDE50FD6EDE50FE6E3C
:10097800F850FF6EFA501200490E0001BD6FC5EF26
:1009880004F02DEC1FF00001BE6F41EF06F0DDEF23
:1009980004F0DDEF04F0DDEF04F0DDEF04F0DDEF4F
:1009A80004F0DDEF04F0DDEF04F0DDEF04F0DDEF3F
:1009B80004F0BEC027F0286A000E2A6E300E296E99
:1009C8000EEC19F027502D6EB60E2E6E000E2F6EFF
:1009D8000A0E4BEC20F00001B6515AEC1CF020EE48
:1009E800DBF002D810EF05F00500FA6EDE50FD6E60
:1009F800DE50FE6EF850FF6EFA50760E2D6E000E29
:100A08002E6EBEC027F0286A000E2A6E300E296EA0
:100A18000EEC19F027501200760E00019D6F000EA3
:100A28009E6F9DC0D9FF9EC0DAFFDE28D8A41FEFB5
:100A380005F021EF05F03FEF05F020EEDDF002D8DC
:100A48003AEF05F00500FA6EDE50FD6EDE50FE6EE0
:100A5800F850FF6EFA50BEC027F0286A000E2A6EC2
:100A6800300E296E0EEC19F027501200000E00010E
:100A7800766F3FEF05F0760EBA6F000EBB6F26EF6C
:100A880006F0BAC0D9FFBBC0DAFF640EDF644FEFCF
:100A980005F051EF05F060EF05F0BAC0D9FFBBC013
:100AA800DAFFFE0EDE18D8A45CEF05F05EEF05F065
:100AB8006FEF05F060EF05F0BAC027F0BBC028F073
:100AC800C7EC14F0BAC0D9FFBBC0DAFFDF501BEC8B
:100AD8001EF01FEF06F0BAC0D9FFBBC0DAFF640EE4
:100AE800DF6479EF05F07BEF05F096EF05F0BAC00B
:100AF800D9FFBBC0DAFFDD0EDF6085EF05F087EFB9
:100B080005F096EF05F0BAC027F0BBC028F0C7EC97
:100B180014F0BAC0D9FFBBC0DAFFDF508EEC1CF06E
:100B28001FEF06F0BAC027F0BBC028F0C7EC14F0DE
:100B3800B6EF05F0ACEF05F0ACEF05F0ACEF05F063
:100B4800ACEF05F0ACEF05F0ACEF05F0ACEF05F05D
:100B5800BAC0D9FFBBC0DAFFDF0EDF16E7EF05F03A
:100B6800E7EF05F0BAC0D9FFBBC0DAFFDF50456E2A
:100B7800466A4650000AD8B4C4EF05F0E7EF05F01E
:100B88004550410AD8B4ACEF05F0030AD8B4ACEF2D
:100B980005F0010AD8B4ACEF05F0070AD8B4ACEFF9
:100BA80005F0250AD8B4ACEF05F0030AD8B4ACEFC9
:100BB80005F0010AD8B4ACEF05F0070AD8B4ACEFD9
:100BC80005F0E7EF05F0BAC0D9FFBBC0DAFFDF5088
:100BD80090EC1AF0BAC0D9FFBBC0DAFFDF507AEC4C
:100BE80019F00009D8A4FBEF05F0FDEF05F00CEFB4
:100BF80006F0BAC0D9FFBBC0DAFFDF50456E466ABF
:100C0800200E45100001886F4650896F18EF06F0D6
:100C1800BAC0D9FFBBC0DAFFDF50456E45500001AE
:100C2800886F896B18EF06F08851C2EC1CF01FEF33
:100C380006F01FEF06F0C9EC10F00001BA4BBB2B11
:100C480026EF06F0BAC0D9FFBBC0DAFFDF50D8A440
:100C580030EF06F032EF06F045EF05F034EF06F01E
:100C68009AEC21F0100E0001BD6F45EF0FF0080E51
:100C7800BD6F45EF0FF045EF0FF0BE51456E466A68
:100C88004650000AD8B44BEF06F045EF0FF0455038
:100C98002A0AD8B43BEF06F01A0AD8B4DDEF04F0FC
:100CA800010AD8B4DDEF04F0030AD8B4DDEF04F08C
:100CB800010AD8B4DDEF04F0070AD8B4DDEF04F078
:100CC800010AD8B4DDEF04F0030AD8B4DDEF04F06C
:100CD800010AD8B4DDEF04F00F0AD8B4DDEF04F050
:100CE800010AD8B4DDEF04F045EF0FF045EF0FF03F
:100CF80020EED7F002D88BEF06F00500FA6EDE5032
:100D0800FD6EDE50FE6EF850FF6EFA50120020EEB7
:100D1800D3F002D8A1EF06F00500FA6EDE50FD6EA2
:100D2800DE50FE6EF850FF6EFA50000E2E6EB60EB4
:100D38002F6E7E0E306E000E120020EED3F002D819
:100D4800B7EF06F00500FA6EDE50FD6EDE50FE6E5F
:100D5800F850FF6EFA50000E2E6E620E2F6E7E0E49
:100D6800306E010E1200060E0001BD6F45EF0FF048
:100D780020EED3F002D8D2EF06F00500FA6EDE506E
:100D8800FD6EDE50FE6EF850FF6EFA50000E2E6EAD
:100D9800770E2F6E7E0E306E030E1200040E296E33
:100DA800030E5CEC1DF0410E7AEC19F00009D8A492
:100DB800E0EF06F0E2EF06F0E9EF06F0000E0001C2
:100DC8008B6F2D0E8A6FF0EF06F0000E00018B6F0F
:100DD8002B0E8A6FF0EF06F08A5197EC1EF0080E82
:100DE800296E030E5CEC1DF0420E7AEC19F0000936
:100DF800D8A401EF07F003EF07F00AEF07F0000EA1
:100E080000018D6F2D0E8C6F11EF07F0000E0001A1
:100E18008D6F2B0E8C6F11EF07F08C5197EC1EF035
:100E28000C0E296E030E5CEC1DF0430E7AEC19F0E3
:100E38000009D8A422EF07F024EF07F02BEF07F002
:100E4800000E00018F6F2D0E8E6F32EF07F0000E2F
:100E580000018F6F2B0E8E6F32EF07F08E5197ECDB
:100E68001EF0100E296E030E5CEC1DF0440E7AEC99
:100E780019F00009D8A443EF07F045EF07F04CEF4D
:100E880007F0000E0001916F2D0E906F53EF07F0E1
:100E9800000E0001916F2B0E906F53EF07F09051E9
:100EA80097EC1EF0070E0001BD6F45EF0FF02DEC1B
:100EB8001FF00001BE6F07EF08F0BE5190EC1AF06A
:100EC800040E296E030E5CEC1DF0410E7AEC19F04D
:100ED8000009D8A472EF07F074EF07F07BEF07F072
:100EE800000E0001936F2D0E926F82EF07F0000E37
:100EF8000001936F2B0E926F82EF07F0925197ECDF
:100F08001EF045EF0FF00001BE5190EC1AF0080EEC
:100F1800296E030E5CEC1DF0420E7AEC19F0000904
:100F2800D8A499EF07F09BEF07F0A2EF07F0000EA7
:100F38000001956F2D0E946FA9EF07F0000E0001C8
:100F4800956F2B0E946FA9EF07F0945197EC1EF054
:100F580045EF0FF00001BE5190EC1AF00C0E296E0F
:100F6800030E5CEC1DF0430E7AEC19F00009D8A4CE
:100F7800C0EF07F0C2EF07F0C9EF07F0000E00015D
:100F8800976F2D0E966FD0EF07F0000E0001976F48
:100F98002B0E966FD0EF07F0965197EC1EF045EFA9
:100FA8000FF00001BE5190EC1AF0100E296E030EDE
:100FB8005CEC1DF0440E7AEC19F00009D8A4E7EFB8
:100FC80007F0E9EF07F0F0EF07F0000E0001996F66
:100FD8002D0E986FF7EF07F0000E0001996F2B0E9A
:100FE800986FF7EF07F0985197EC1EF045EF0FF068
:100FF8000A0E0001BD6F45EF0FF0080EBD6F45EFFB
:101008000FF045EF0FF0BE51456E466A4650000A94
:10101800D8B411EF08F045EF0FF04550230AD8B4C3
:10102800FCEF07F0090AD8B401EF08F06B0AD8B44E
:1010380061EF07F0030AD8B487EF07F0010AD8B4C4
:10104800AEEF07F0070AD8B4D5EF07F045EF0FF079
:1010580045EF0FF028EC1BF00001B66F20EED7F03B
:1010680002D841EF08F00500FA6EDE50FD6EDE5042
:10107800FE6EF850FF6EFA50120020EED3F002D840
:1010880057EF08F00500FA6EDE50FD6EDE50FE6E7A
:10109800F850FF6EFA50000E2E6ECB0E2F6E7E0E9D
:1010A800306E000E12000E0E0001BD6F45EF0FF0FE
:1010B8002DEC1FF00001BE6FD1EF08F068EF08F0CB
:1010C80068EF08F068EF08F0FDEC20F00009D8B4EC
:1010D80070EF08F072EF08F045EF0FF00001BE5115
:1010E80090EC1AF00001BE517AEC19F00009D8A46E
:1010F80080EF08F082EF08F08DEF08F0200EBEC0F8
:1011080045F0466A451000019A6F46509B6F93EF71
:1011180008F0BEC09AF000019B6B93EF08F09A515B
:10112800C2EC1CF0100E0001BD6F45EF0FF045EF4B
:101138000FF029EC1DF0100E0001BD6F45EF0FF008
:1011480017EC21F0100E0001BD6F45EF0FF096EC83
:1011580021F0020AD8A4B3EF08F0B5EF08F0BAEF0F
:1011680008F0030E0001BD6F45EF0FF0D8EC19F041
:10117800100E0001BD6F45EF0FF045EF0FF04A0E5E
:10118800BD6F45EF0FF0290EBD6F45EF0FF05A0EFA
:10119800BD6F45EF0FF045EF0FF0BE51456E466A43
:1011A8004650000AD8B4DBEF08F045EF0FF0455081
:1011B800230AD8B4C3EF08F0090AD8B4ABEF08F093
:1011C8001A0AD8B4C7EF08F0040AD8B4A4EF08F094
:1011D800020AD8B49DEF08F00F0AD8B4CBEF08F094
:1011E800780AD8B468EF08F0030AD8B468EF08F0B2
:1011F800010AD8B468EF08F0070AD8B468EF08F015
:1012080045EF0FF045EF0FF0C9EC10F00E0E00019E
:10121800BD6F45EF0FF020EED3F002D825EF09F0AF
:101228000500FA6EDE50FD6EDE50FE6EF850FF6E61
:10123800FA50000E2E6EF40E2F6E7F0E306E030ED7
:10124800120020EED5F002D842EF09F00500FA6E40
:10125800DE50FD6EDE50FE6EF850FF6EFA50010E45
:10126800326E96EC21F0456EFE0E4524336E346ADC
:10127800FF0E3422020E356E030E120020EED5F05A
:1012880002D85FEF09F00500FA6EDE50FD6EDE5001
:10129800FE6EF850FF6EFA50040E326E92EC21F09A
:1012A800456EFE0E4524336E346AFF0E3422020E5C
:1012B800356E030E12000B0E0001BD6F45EF0FF0E7
:1012C800460EBD6F010EAF6F45EF0FF0030EAF195D
:1012D800D8A471EF09F073EF09F00FEF0AF0020ECE
:1012E800B719D8B47AEF09F07CEF09F00FEF0AF0DC
:1012F80020EED3F002D892EF09F00500FA6EDE5026
:10130800FD6EDE50FE6EF850FF6EFA50000E2E6E27
:10131800F90E2F6E7D0E306E000E1200FF0E406E1D
:10132800010E71EC12F0000E406E090E71EC12F015
:10133800010E406E0E0E71EC12F020EED3F002D8C2
:10134800B7EF09F00500FA6EDE50FD6EDE50FE6E56
:10135800F850FF6EFA50000E2E6EBA0E2F6E7D0EEC
:10136800306E020E120020EED5F002D8D4EF09F04C
:101378000500FA6EDE50FD6EDE50FE6EF850FF6E10
:10138800FA50040E326E96EC21F0456EFE0E45249E
:10139800336E346AFF0E3422020E356E020E1200CE
:1013A80020EED5F002D8F1EF09F00500FA6EDE5014
:1013B800FD6EDE50FE6EF850FF6EFA50010E326E72
:1013C8008EEC21F0456EFF0E4524336E346AFF0E15
:1013D8003422020E356E020E120020EED5F002D82D
:1013E8000DEF0AF00500FA6EDE50FD6EDE50FE6E5F
:1013F800F850FF6EFA500B0E326E84EC21F0010E9D
:101408002724336E000E2820346E050E356E020E2A
:1014180012000FEF0AF00001AF51D8A416EF0AF03E
:1014280018EF0AF02BEF0AF0100EBD6F20EED7F080
:1014380002D829EF0AF00500FA6EDE50FD6EDE5084
:10144800FE6EF850FF6EFA5012002BEF0AF02DECEA
:101458001FF00001BE6F4EEF0AF0010EB76F45EFA7
:101468000FF0020EB76F45EF0FF0000EB76F45EFA4
:101478000FF0020EB719D8A444EF0AF046EF0AF0AD
:1014880045EF0FF0030EB76F45EF0FF045EF0FF084
:1014980045EF0FF0BE51456E466A4650000AD8B473
:1014A80058EF0AF045EF0FF04550230AD8B431EF52
:1014B8000AF0130AD8B439EF0AF0010AD8B43DEF9C
:1014C8000AF0040AD8B435EF0AF045EF0FF045EFFB
:1014D8000FF02DEC1FF00001BE6F2F0EBE6577EFE9
:1014E8000AF079EF0AF09CEF0AF03A0EBE617FEF3E
:1014F8000AF081EF0AF09CEF0AF0B00E2D6E000E94
:101508002E6EBE51BEEC1EF00001B15109E1790EFC
:10151800B05DD8A092EF0AF094EF0AF098EF0AF0C5
:10152800000EB16F780EB06F290EBD6F9CEF0AF0F8
:101538002A0EBE19D8A4A3EF0AF0A5EF0AF0B0EF5F
:101548000AF0B00E2E6E000E2F6E1FEC20F0290E42
:101558000001BD6FB0EF0AF0230EBE19D8A4B7EF93
:101568000AF0B9EF0AF045EF0FF02A0EBD6F45EF0C
:101578000FF045EF0FF020EED3F002D8D5EF0AF0C8
:101588000500FA6EDE50FD6EDE50FE6EF850FF6EFE
:10159800FA50000E2E6E340E2F6E7F0E306E020E35
:1015A800120020EED5F002D8EDEF0AF00500FA6E31
:1015B800DE50FD6EDE50FE6EF850FF6EFA500F0ED4
:1015C800326EB0C033F0B1C034F0030E356E020E87
:1015D8001200280E0001BD6F45EF0FF0B0518EECE0
:1015E8001CF020EED7F002D804EF0BF00500FA6EDD
:1015F800DE50FD6EDE50FE6EF850FF6EFA5012009F
:10160800100E0001BD6F45EF0FF02DEC1FF000012B
:10161800BE6F2F0EBE6513EF0BF015EF0BF058EFF2
:101628000BF03A0EBE611BEF0BF01DEF0BF058EFFD
:101638000BF0B40E2D6E000E2E6EBE51BEEC1EF0D9
:10164800110E0001B45D270EB559D8A02EEF0BF08E
:1016580030EF0BF034EF0BF0270EB56F100EB46FB0
:10166800350EBD6F45EF0FF058EF0BF040EF0BF064
:1016780040EF0BF040EF0BF09AEC21F0100E000158
:10168800BD6F45EF0FF0360EBD6F45EF0FF0B40E8E
:101698002E6E000E2F6E1FEC20F0350E0001BD6F70
:1016A80045EF0FF045EF0FF0BE51456E466A4650C4
:1016B800000AD8B462EF0BF045EF0FF04550230A4B
:1016C800D8B447EF0BF0090AD8B44BEF0BF06B0A0C
:1016D800D8B440EF0BF0030AD8B440EF0BF0010A7E
:1016E800D8B440EF0BF0070AD8B440EF0BF045EF41
:1016F8000FF045EF0FF020EED7F002D88EEF0BF089
:101708000500FA6EDE50FD6EDE50FE6EF850FF6E7C
:10171800FA50120020EED3F002D8A4EF0BF0050027
:10172800FA6EDE50FD6EDE50FE6EF850FF6EFA5017
:10173800000E2E6EA50E2F6E7D0E306E000E12005E
:1017480020EED5F002D8BCEF0BF00500FA6EDE50A3
:10175800FD6EDE50FE6EF850FF6EFA500F0E326EC0
:10176800B4C033F0B5C034F0050E356E000E12006B
:1017780020EED3F002D8D2EF0BF00500FA6EDE505F
:10178800FD6EDE50FE6EF850FF6EFA50000E2E6EA3
:10179800E00E2F6E7E0E306E020E1200340E000127
:1017A800BD6F45EF0FF00A0E2D6EB6C02EF00A0E73
:1017B80085EC20F002D8F5EF0BF005000001FA6E79
:1017C800D951FD6EDA51FE6EF850FF6EFA506EEC8C
:1017D80021F0020E27242D6E000E28202E6E0B0EEF
:1017E8001200DD0E2E6E7C0E2F6E20EED1F002D888
:1017F80008EF0CF00500FA6EDE50FD6EDE50FE6E4E
:10180800F850FF6EFA5012002DEC1FF00001BE6F69
:101818001BEF0CF04B0EBD6F45EF0FF09AEC21F06B
:10182800350E0001BD6F45EF0FF045EF0FF0BE51CB
:10183800456E466A4650000AD8B425EF0CF045EFCD
:101848000FF04550230AD8B40EEF0CF0090AD8B4AB
:1018580012EF0CF045EF0FF045EF0FF020EED7F048
:1018680002D841EF0CF00500FA6EDE50FD6EDE5036
:10187800FE6EF850FF6EFA5012008F0E2E6E7C0E20
:101888002F6E20EED1F002D854EF0CF00500FA6E5E
:10189800DE50FD6EDE50FE6EF850FF6EFA501200FC
:1018A8004C0E0001BD6F59EF0CF02DEC1FF000013C
:1018B800BE6FBCEF0CF071EF0CF071EF0CF071EF34
:1018C8000CF071EF0CF071EF0CF071EF0CF071EFA0
:1018D8000CF071EF0CF071EF0CF0BEC027F0286A25
:1018E800000E2A6E300E296E0EEC19F027502D6E60
:1018F800B6C02EF00A0E85EC20F002D8A1EF0CF04D
:1019080005000001FA6ED951FD6EDA51FE6EF850ED
:10191800FF6EFA506EEC21F0020E27242D6E000E99
:1019280028202E6EBEC027F0286A000E2A6E300EC0
:10193800296E0EEC19F0275012004D0E0001BD6FF4
:1019480045EF0FF020EED7F002D8B5EF0CF0050008
:10195800FA6EDE50FD6EDE50FE6EF850FF6EFA50E5
:1019680012004A0E0001BD6F45EF0FF045EF0FF072
:10197800BE51456E466A4650000AD8B4C6EF0CF010
:1019880045EF0FF045502A0AD8B4A6EF0CF01A0A12
:10199800D8B471EF0CF0010AD8B471EF0CF0030A57
:1019A800D8B471EF0CF0010AD8B471EF0CF0070A43
:1019B800D8B471EF0CF0010AD8B471EF0CF0030A37
:1019C800D8B471EF0CF0010AD8B471EF0CF00F0A1B
:1019D800D8B471EF0CF0010AD8B471EF0CF045EFF0
:1019E8000FF045EF0FF020EED7F002D806EF0DF01C
:1019F8000500FA6EDE50FD6EDE50FE6EF850FF6E8A
:101A0800FA501200000E0001A96F030EA9650FEF2E
:101A18000DF011EF0DF015EF0DF056EF0DF056EF3C
:101A28000DF0000EAA6F130EAA651DEF0DF01FEF43
:101A38000DF023EF0DF04BEF0DF04BEF0DF020EE16
:101A4800D3F002D839EF0DF00500FA6EDE50FD6EC6
:101A5800DE50FE6EF850FF6EFA50AAC02EF0FC0E53
:101A68002F6E7F0E306EA9511200000E286E0A0EDE
:101A7800276ED7EC1FF00001AA2B130EAA6547EFBB
:101A88000DF049EF0DF023EF0DF04BEF0DF0A92B02
:101A9800030EA96552EF0DF054EF0DF015EF0DF0A0
:101AA80056EF0DF0000EAB6F030EAB655EEF0DF059
:101AB80060EF0DF064EF0DF0A5EF0DF0A5EF0DF060
:101AC800000EAC6F130EAC656CEF0DF06EEF0DF001
:101AD80072EF0DF09AEF0DF09AEF0DF020EED3F0C3
:101AE80002D888EF0DF00500FA6EDE50FD6EDE506C
:101AF800FE6EF850FF6EFA50ACC02EF0B80E2F6E86
:101B08007D0E306EAB511200000E286E0A0E276E45
:101B1800D7EC1FF00001AC2B130EAC6596EF0DF05F
:101B280098EF0DF072EF0DF09AEF0DF0AB2B030E5E
:101B3800AB65A1EF0DF0A3EF0DF064EF0DF0A5EF8D
:101B48000DF020EED3F002D8BBEF0DF00500FA6ED1
:101B5800DE50FD6EDE50FE6EF850FF6EFA50000E3D
:101B68002E6E4D0E2F6E7E0E306E010E120020EE80
:101B7800D3F002D8D1EF0DF00500FA6EDE50FD6EFD
:101B8800DE50FE6EF850FF6EFA50000E2E6ECF0E2D
:101B98002F6E7D0E306E020E1200E80E2D6E030EB3
:101BA8002E6E000E2F6E000E306E47EC21F04E0E9A
:101BB8000001BD6F45EF0FF065EC21F027502810AC
:101BC80029102A10D8A4EBEF0DF0EDEF0DF045EF3A
:101BD8000FF0350E0001BD6F45EF0FF045EF0FF028
:101BE80020EED3F002D80AEF0EF00500FA6EDE50B0
:101BF800FD6EDE50FE6EF850FF6EFA50000E2E6E2F
:101C08000A0E2F6E7F0E306E020E120020EED5F0F7
:101C180002D822EF0EF00500FA6EDE50FD6EDE509F
:101C2800FE6EF850FF6EFA500F0E326EB2C033F0EF
:101C3800B3C034F0030E356E020E12005B0E0001C5
:101C4800BD6F45EF0FF02DEC1FF00001BE6F2F0E9A
:101C5800BE6531EF0EF033EF0EF056EF0EF03A0E90
:101C6800BE6139EF0EF03BEF0EF056EF0EF0B20EFC
:101C78002D6E000E2E6EBE51BEEC1EF00001B3514B
:101C880009E1650EB25DD8A04CEF0EF04EEF0EF0F4
:101C980052EF0EF0000EB36F640EB26F5A0EBD6FA6
:101CA80056EF0EF02A0EBE19D8A45DEF0EF05FEFC6
:101CB8000EF06AEF0EF0B20E2E6E000E2F6E1FECB5
:101CC80020F05A0E0001BD6F6AEF0EF0230EBE1908
:101CD800D8A471EF0EF073EF0EF045EF0FF05C0E25
:101CE800BD6F45EF0FF045EF0FF0B2511BEC1EF042
:101CF80020EED7F002D88BEF0EF00500FA6EDE501A
:101D0800FD6EDE50FE6EF850FF6EFA501200100E97
:101D18000001BD6F45EF0FF0B4C027F0B5C028F043
:101D280089EC21F01E0E0001BD6F010EB76F45EF63
:101D38000FF045EF0FF00001BD51456E466A465061
:101D4800000AD8B4AAEF0EF045EF0FF04550000A8C
:101D5800D8B450EF00F0010AD8B4F2EF00F0030A4B
:101D6800D8B450EF01F0010AD8B47CEF06F0050AA8
:101D7800D8B4BCEF06F0010AD8B45BEF07F00F0A3D
:101D8800D8B464EF01F0010AD8B488EF01F0030A6F
:101D9800D8B42EEF08F0010AD8B45CEF08F0050AB1
:101DA800D8B40FEF09F01E0AD8B408EF09F00E0AEC
:101DB800D8B464EF09F0360AD8B46DEF0AF0010A16
:101DC800D8B4BFEF0AF0030AD8B4F2EF0AF01E0A3B
:101DD800D8B409EF0BF0010AD8B47FEF0BF0030A6F
:101DE800D8B490EF0EF0700AD8B46AEF09F0010A7F
:101DF800D8B49CEF01F00F0AD8B49EEF04F0010AA2
:101E0800D8B4C5EF04F0030AD8B4D7EF0BF0010A31
:101E1800D8B432EF0CF0070AD8B459EF0CF0010A25
:101E2800D8B4F7EF0CF0030AD8B4E0EF0DF01E0AAF
:101E3800D8B41FEF03F0010AD8B442EF03F0030A45
:101E4800D8B456EF03F0060AD8B485EF03F0010AB8
:101E5800D8B4D3EF03F0030AD8B48AEF04F00C0A1D
:101E6800D8B4F4EF0DF0010AD8B427EF0EF0070A42
:101E7800D8B479EF0EF0380AD8B4D3EF01F045EFB3
:101E88000FF0B3EC1BF091EF10F09FEF0EF0A1EC08
:101E980021F07AEC21F0020E0001AF6F9FEF0EF0F7
:101EA8008EEC21F0F0EC20F00001BC6FB705D8B43F
:101EB80060EF0FF062EF0FF075EF0FF0030EB71938
:101EC800D8B469EF0FF06BEF0FF075EF0FF0B75163
:101ED800D8A471EF0FF073EF0FF09FEF0EF075EFCE
:101EE8000FF0030EAF6F9FEF0EF09FEF0EF0640E32
:101EF800BC6581EF0FF083EF0FF08EEF0FF0FE0E51
:101F0800BC19D8A48AEF0FF08CEF0FF0C1EF0FF0D7
:101F18008EEF0FF0BC0E276E000E286EC7EC14F083
:101F28000001BC51276E286A296A2A6AFF0E2B6EA7
:101F38000F0E2C6E000E2D6E000E2E6EECEC1BF0AC
:101F480027C033F028C034F029C035F02AC036F055
:101F5800640E376E000E386E000E396E000E3A6E43
:101F68000BEC16F033C041F034C042F0A7EC20F07F
:101F7800060E0001AF6F9FEF0EF0640EBC65C7EF51
:101F88000FF0C9EF0FF0ECEF0FF0DD0EBC61CFEFF3
:101F98000FF0D1EF0FF0ECEF0FF0640EBC5FBCC098
:101FA80027F0286A030E2A6EE80E296E36EC20F018
:101FB80027C02DF028C02EF0000E2EBEFF0E2F6E6B
:101FC800306E47EC21F0040E0001AF6F9FEF0EF06A
:101FD800BC0E276E000E286EC7EC14F0AE0E276EEE
:101FE800000E286E0001BC5129EC18F0050E000106
:101FF800AF6F9FEF0EF09FEF0EF09FEF0EF065ECC6
:1020080021F02750281029102A10D8A40EEF10F01C
:1020180010EF10F09FEF0EF0060E0001AF6F9FEF6C
:102028000EF09FEF0EF0AD0E276E000E286EBC511D
:1020380071EC15F00009D8B424EF10F026EF10F079
:102048009FEF0EF0060E0001AF6F9FEF0EF09FEFAF
:102058000EF0030EB719D8A434EF10F036EF10F0D5
:1020680038EF10F0020EB76F070EAF6F9FEF0EF04C
:102078000AEC21F08EEC21F0456E96EC21F0455CDF
:10208800D8B049EF10F04BEF10F050EF10F0020EFF
:102098000001AF6F9FEF0EF0A4EC21F0080E0001D5
:1020A800AF6F9FEF0EF09FEF0EF0B751D8B45FEF10
:1020B80010F061EF10F088EF10F084EC21F027C0E9
:1020C80045F028C046F096EC20F02750455C285093
:1020D8004658D8A072EF10F074EF10F081EF10F0AE
:1020E80096EC20F027502810D8A47DEF10F07FEF51
:1020F80010F088EF10F081EF10F0A1EC21F0020E43
:102108000001AF6F9FEF0EF0000E0001AF6F9FEF61
:102118000EF09FEF0EF09FEF0EF00001AF51456EED
:10212800466A4650000AD8B49CEF10F09FEF0EF0B4
:102138004550000AD8B49FEF0EF0010AD8B44BEF0F
:102148000FF0030AD8B454EF0FF0010AD8B47BEFAC
:102158000FF0070AD8B403EF10F0010AD8B417EF4C
:1021680010F0030AD8B42DEF10F0010AD8B43CEFF0
:1021780010F00F0AD8B459EF10F09FEF0EF09FEF50
:102188000EF09FEF0EF007EF00F0000E336E000E1A
:10219800376E000E366E000E356E58C034F0000EE5
:1021A800296E000E5CEC1DF0DAEF10F03350D8B455
:1021B800E0EF10F0E2EF10F0E8EF10F0200E97ECEF
:1021C8001EF0352A66EF12F03450010D150EF32477
:1021D800D96E000EF420DA6EDF50376E342A37508D
:1021E800D8A4F9EF10F0FBEF10F0FFEF10F0010E9C
:1021F800336E66EF12F0650E376005EF11F007EFEA
:1022080011F05EEF11F037C036F0630E36640FEF51
:1022180011F011EF11F030EF11F0310E97EC1EF0C4
:10222800352A36C027F0286A000E2A6E640E296EF9
:102238000EEC19F02750366E0A0E366026EF11F0B4
:1022480028EF11F030EF11F0300E97EC1EF0352A20
:1022580030EF11F030EF11F0090E366436EF11F05F
:1022680038EF11F053EF11F036C027F0286A000E4E
:102278002A6E0A0E296EB3EC17F02750300F97EC30
:102288001EF0352A36C027F0286A000E2A6E0A0E7C
:10229800296E0EEC19F02750366E53EF11F03650B8
:1022A800300F97EC1EF0352A250E97EC1EF0352AD4
:1022B80066EF12F0640E376464EF11F066EF11F008
:1022C800CBEF11F0DD0E37606CEF11F06EEF11F00F
:1022D800CBEF11F0370E276E000E286EC7EC14F006
:1022E80037C036F0630E36647CEF11F07EEF11F0E4
:1022F8009DEF11F0310E97EC1EF0352A36C027F00D
:10230800286A000E2A6E640E296E0EEC19F027500A
:10231800366E0A0E366093EF11F095EF11F09DEFCF
:1023280011F0300E97EC1EF0352A9DEF11F09DEF5D
:1023380011F0090E3664A3EF11F0A5EF11F0C0EF0C
:1023480011F036C027F0286A000E2A6E0A0E296E90
:10235800B3EC17F02750300F97EC1EF0352A36C033
:1023680027F0286A000E2A6E0A0E296E0EEC19F064
:102378002750366EC0EF11F03650300F97EC1EF034
:10238800352A730E97EC1EF0352A66EF12F0DC0E34
:102398003764D1EF11F0D3EF11F040EF12F0FE0ED9
:1023A8003760D9EF11F0DBEF11F040EF12F0370E84
:1023B800276E000E286EC7EC14F011EF12F0F1EF43
:1023C80011F0F1EF11F0F1EF11F0F1EF11F0F1EF81
:1023D80011F0F1EF11F0F1EF11F03750DF0B97EC3E
:1023E8001EF0352A37BAFBEF11F0FDEF11F003EFBD
:1023F80012F0000E326E2B0E316E09EF12F0000E45
:10240800326E2D0E316E09EF12F0315097EC1EF03E
:10241800352A66EF12F066EF12F037502F6E306AE9
:102428003050000AD8B41BEF12F066EF12F02F50AC
:10243800410AD8B4F1EF11F0030AD8B4F1EF11F062
:10244800010AD8B4F1EF11F0070AD8B4F1EF11F08E
:10245800250AD8B4F1EF11F0030AD8B4F1EF11F05E
:10246800010AD8B4F1EF11F0070AD8B4F1EF11F06E
:1024780066EF12F066EF12F0FE0E3718D8A447EF99
:1024880012F049EF12F066EF12F0370E276E000EC9
:10249800286EC7EC14F037C036F03650300F97EC82
:1024A8001EF0352A250E97EC1EF0352A66EF12F03D
:1024B80066EF12F066EF12F066EF12F066EF12F0B8
:1024C80066EF12F0140E35646CEF12F06EEF12F036
:1024D800DAEF10F070EF12F01200436E4050E3ECA8
:1024E80020F0446E4450D8B47CEF12F07EEF12F026
:1024F800A9EF12F0650E446084EF12F086EF12F037
:10250800A9EF12F044C02FF0306AE5EC1EF0030A80
:10251800D8A491EF12F093EF12F096EF12F0430661
:1025280096EF12F043C032F044C033F0346A44C02E
:102538002FF0306AE5EC1EF0356E000E42EC13F019
:10254800250E97EC1EF041EF13F0640E4464AFEFD4
:1025580012F0B1EF12F0E2EF12F0DD0E4460B7EFC7
:1025680012F0B9EF12F0E2EF12F0440E276E000EEF
:10257800286EC7EC14F044C02FF0306AE5EC1EF06A
:10258800030AD8A4CAEF12F0CCEF12F0CFEF12F082
:102598004306CFEF12F043C032F044C033F0346A40
:1025A80044C02FF0306AE5EC1EF0356E000E42ECA8
:1025B80013F0730E97EC1EF041EF13F0DC0E446439
:1025C800E8EF12F0EAEF12F019EF13F0FE0E446094
:1025D800F0EF12F0F2EF12F019EF13F0440E276E3D
:1025E800000E286EC7EC14F043C029F0000E5CEC16
:1025F8001DF04450DF0B97EC1EF044BA06EF13F0C1
:1026080008EF13F00EEF13F0000E426E2B0E416E22
:1026180014EF13F0000E426E2D0E416E14EF13F0FE
:10262800415097EC1EF041EF13F0FE0E4418D8A469
:1026380020EF13F022EF13F041EF13F0440E276E52
:10264800000E286EC7EC14F043C032F044C033F0DB
:10265800346A44C02FF0306AE5EC1EF0356E000E87
:1026680042EC13F0250E97EC1EF041EF13F041EF0A
:1026780013F041EF13F041EF13F012003B6E34BE3C
:1026880048EF13F04BEF13F0010E4CEF13F0000E70
:102698003D6E3D50D8B453EF13F055EF13F05BEF98
:1026A80013F0336C341ED8B0342A5BEF13F032C009
:1026B80029F03B505CEC1DF0270E3F6E100E3E6E6D
:1026C800050E3C6E90EF13F033C027F034C028F0AD
:1026D8003EC029F03FC02AF0B3EC17F0275028106D
:1026E800D8A479EF13F07BEF13F0A7EF13F03C06B3
:1026F80080EF13F0A7EF13F03EC027F03FC028F09B
:10270800000E2A6E0A0E296EB3EC17F027C03EF0B1
:1027180028C03FF090EF13F03FBE9DEF13F03F50FD
:1027280006E13E04D8B09BEF13F09DEF13F068EF7D
:1027380013F0A7EF13F0A7EF13F0200E97EC1EF09D
:102748003506A7EF13F03550366E376A3D503CC05A
:1027580038F0396A3826000E39223650385C39503C
:10276800800A3A6E3750800A3A58D8B0BEEF13F054
:10277800C0EF13F0CCEF13F0020E3560C6EF13F084
:10278800C8EF13F0A1EF13F0CCEF13F0CCEF13F078
:102798003D50D8B4D2EF13F0D4EF13F0D9EF13F0C3
:1027A8002D0E97EC1EF0D9EF13F033C027F034C08C
:1027B80028F03EC029F03FC02AF0B3EC17F02750AC
:1027C800300F97EC1EF033C027F034C028F03EC01D
:1027D80029F03FC02AF00EEC19F027C033F028C0CA
:1027E80034F03EC027F03FC028F0000E2A6E0A0ED3
:1027F800296EB3EC17F027C03EF028C03FF03FBE6B
:1028080010EF14F03F5006E13E04D8B00EEF14F07C
:1028180010EF14F0D9EF13F012EF14F012002B6E32
:10282800ADEF14F027C0D9FF28C0DAFFDF50D8A4D5
:1028380020EF14F022EF14F0C6EF14F027C0D9FFF0
:1028480028C0DAFFFE0EDF6EC6EF14F0C6EF14F0F4
:1028580027C0D9FF28C0DAFF640EDF26C6EF14F0C0
:1028680078EF14F027C0D9FF28C0DAFFDD0EDF6E3D
:10287800C6EF14F027C0D9FF28C0DAFFDE0EDF6EDE
:10288800C6EF14F027C0D9FF28C0DAFFDF0EDF6ECD
:10289800C6EF14F027C0D9FF28C0DAFFE00EDF6EBC
:1028A800C6EF14F027C0D9FF28C0DAFFE10EDF6EAB
:1028B800C6EF14F027C0D9FF28C0DAFFE20EDF6E9A
:1028C800C6EF14F027C0D9FF28C0DAFFE30EDF6E89
:1028D800C6EF14F027C0D9FF28C0DAFFE40EDF6E78
:1028E800C6EF14F0C6EF14F027C0D9FF28C0DAFFEE
:1028F800DF50296E2A6A2A50000AD8B486EF14F0ED
:10290800C6EF14F02950410AD8B436EF14F0030A80
:10291800D8B446EF14F0010AD8B456EF14F0070AF9
:10292800D8B466EF14F0250AD8B43EEF14F0030AC1
:10293800D8B44EEF14F0010AD8B45EEF14F0070AC9
:10294800D8B46EEF14F0C6EF14F0C6EF14F0C6EF6B
:1029580014F02B50296E2A6A2A50000AD8B4B7EF0F
:1029680014F0C6EF14F02950610AD8B478EF14F0C7
:10297800110AD8B416EF14F0040AD8B42CEF14F0E6
:10298800C6EF14F0120027C0D9FF28C0DAFF650E81
:10299800DF60D1EF14F0D3EF14F0D7EF14F070EF3D
:1029A80015F070EF15F027C0D9FF28C0DAFFDD0E4B
:1029B800DF60E1EF14F0E3EF14F037EF15F027C014
:1029C800D9FF28C0DAFF640EDF5E70EF15F037EF2D
:1029D80015F027C0D9FF28C0DAFF410EDF6E70EF6F
:1029E80015F027C0D9FF28C0DAFF610EDF6E70EF3F
:1029F80015F027C0D9FF28C0DAFF420EDF6E70EF4E
:102A080015F027C0D9FF28C0DAFF620EDF6E70EF1D
:102A180015F027C0D9FF28C0DAFF430EDF6E70EF2C
:102A280015F027C0D9FF28C0DAFF630EDF6E70EFFC
:102A380015F027C0D9FF28C0DAFF440EDF6E70EF0B
:102A480015F027C0D9FF28C0DAFF640EDF6E70EFDB
:102A580015F027C0D9FF28C0DAFF000EDF6E70EF2F
:102A680015F070EF15F027C0D9FF28C0DAFFDF5046
:102A7800296E2A6A2A50000AD8B445EF15F070EF7B
:102A880015F02950DD0AD8B4EDEF14F0030AD8B4D4
:102A9800F5EF14F0010AD8B4FDEF14F03F0AD8B4EA
:102AA80005EF15F0010AD8B40DEF15F0030AD8B4F4
:102AB80015EF15F0010AD8B41DEF15F0070AD8B4C0
:102AC80025EF15F01A0AD8B42DEF15F070EF15F0B0
:102AD80070EF15F070EF15F012002B6EDDEF15F0AA
:102AE80027C0D9FF28C0DAFFDF50020B0AEF16F023
:102AF8000AEF16F00AEF16F027C0D9FF28C0DAFF50
:102B0800DF50010B0AEF16F00AEF16F00AEF16F085
:102B180027C0D9FF28C0DAFFDF50080B0AEF16F0EC
:102B28000AEF16F00AEF16F027C0D9FF28C0DAFF1F
:102B3800DF50040B0AEF16F00AEF16F00AEF16F052
:102B480027C0D9FF28C0DAFFDF50200B0AEF16F0A4
:102B58000AEF16F00AEF16F027C0D9FF28C0DAFFEF
:102B6800DF50100B0AEF16F00AEF16F00AEF16F016
:102B780027C0D9FF28C0DAFFDF50800B0AEF16F014
:102B88000AEF16F00AEF16F027C0D9FF28C0DAFFBF
:102B9800DF50400B0AEF16F00AEF16F00AEF16F0B6
:102BA800000E0AEF16F00AEF16F00AEF16F00AEF19
:102BB80016F02B50296E2A6A2A50000AD8B4E7EF7B
:102BC80015F0D4EF15F02950410AD8B474EF15F078
:102BD800030AD8B48CEF15F0010AD8B4A4EF15F0A5
:102BE800070AD8B4BCEF15F0250AD8B480EF15F061
:102BF800030AD8B498EF15F0010AD8B4B0EF15F06D
:102C0800070AD8B4C8EF15F0D4EF15F01200000E7B
:102C18003C6E3ABE14EF16F012EF16F020EF16F0E5
:102C28003A1E391E381E376C000E382239223A22D5
:102C3800010E3C6E20EF16F036BE27EF16F025EF9A
:102C480016F033EF16F0361E351E341E336C000EA8
:102C5800342235223622010E3C1A33EF16F0000ECC
:102C68003D6E000E3E6E000E3F6E000E406E3750F9
:102C7800381039103A10D8B444EF16F046EF16F071
:102C880088EF16F0010E3B6E52EF16F0D8903736EB
:102C9800383639363A363B2A52EF16F03AAE57EF05
:102CA80016F059EF16F04AEF16F05DEF16F05DEFEB
:102CB80016F0D8903D363E363F3640363750335CB6
:102CC80038503458395035583A503658D8A06FEFE4
:102CD80016F071EF16F07CEF16F03750335E38506F
:102CE800345A3950355A3A50365A3D807CEF16F0EE
:102CF800D8903A323932383237323B2E5DEF16F0FF
:102D080088EF16F088EF16F03C50D8B48EEF16F026
:102D180090EF16F09AEF16F0401E3F1E3E1E3D6CD7
:102D2800000E3E223F2240229AEF16F03DC033F0BB
:102D38003EC034F03FC035F040C036F0A4EF16F086
:102D48001200000E336E5904346E020E3460AFEF79
:102D580016F0B1EF16F0B5EF16F030EF17F030EFD0
:102D680017F03450010D150EF324D96E000EF4201F
:102D7800DA6EDF50356E650E3560C5EF16F0C7EFB9
:102D880016F0D1EF16F035C02FF0306AE5EC1EF0E2
:102D9800326E32283326D1EF16F0640E3564D7EF41
:102DA80016F0D9EF16F0EEEF16F0DD0E3560DFEF16
:102DB80016F0E1EF16F0EEEF16F09C0E35242F6EAC
:102DC800306AFF0E3022E5EC1EF0326E32283326D0
:102DD800EEEF16F0DC0E3564F4EF16F0F6EF16F0B1
:102DE80000EF17F0FE0E3560FCEF16F0FEEF16F060
:102DF80000EF17F0020E3326FE0E3518D8A407EFA1
:102E080017F009EF17F013EF17F035C02FF0306AFD
:102E1800E5EC1EF0326E3228332613EF17F0140E4D
:102E2800336419EF17F01BEF17F021EF17F030EFAD
:102E380017F030EF17F025EF17F034C058F025EFF2
:102E480017F03406020E34602CEF17F02EEF17F04F
:102E5800B5EF16F030EF17F01200286E8A9C28C0E4
:102E680027F0273A0F0E2716274627468A50271895
:102E7800C30B27188A6E8A9E2804D8B446EF17F029
:102E880048EF17F053EF17F0020E2818D8A44FEFA9
:102E980017F051EF17F05CEF17F053EF17F00D0E26
:102EA800276EFC0EE82EFED7272EFCD762EF17F010
:102EB800420EE82EFED700D062EF17F08A8E285017
:102EC800F00B200AD8A46BEF17F06DEF17F082EF24
:102ED80017F08A9C28C027F0273A0F0E2716274696
:102EE80027468A502718C30B27188A6E8A9E420ED7
:102EF800E82EFED700D08A8E82EF17F08A9C28C071
:102F080027F00F0E2716274627468A502718C30B87
:102F180027188A6E8A9E2804D8B495EF17F097EF81
:102F280017F0A2EF17F0020E2818D8A49EEF17F09A
:102F3800A0EF17F0ABEF17F0A2EF17F00D0E276E0A
:102F4800FC0EE82EFED7272EFCD7B1EF17F0420E65
:102F5800E82EFED700D0B1EF17F08A8E1200000ECF
:102F68002C6E2ABEBCEF17F0BAEF17F0C4EF17F0BB
:102F7800296C2A1ED8B02A2A010E2C6EC4EF17F02D
:102F880028BECBEF17F0C9EF17F0D3EF17F0276C77
:102F9800281ED8B0282A010E2C1AD3EF17F0000EDD
:102FA8002E6E000E2D6E29502A10D8B4DEEF17F0C1
:102FB800E0EF17F014EF18F0010E2B6EEAEF17F0A0
:102FC800D89029362A362B2AEAEF17F02AAEEFEFE7
:102FD80017F0F1EF17F0E4EF17F0F5EF17F0F5EF52
:102FE80017F0D8902D362E362950275C2A502858AD
:102FF800D8A001EF18F003EF18F00AEF18F02950E5
:10300800275E2A50285A2D800AEF18F0D8902A32C5
:1030180029322B2EF5EF17F014EF18F014EF18F0F3
:103028002C50D8B41AEF18F01CEF18F022EF18F053
:103038002D6C2E1ED8B02E2A22EF18F02DC027F0A6
:103048002EC028F028EF18F012002B6E6EEF18F043
:1030580027C0D9FF28C0DAFF000EDB809BEF18F0ED
:1030680027C0D9FF28C0DAFFFE0EDF169BEF18F045
:1030780027C0D9FF28C0DAFF000EDB829BEF18F0CB
:1030880027C0D9FF28C0DAFFFD0EDF169BEF18F026
:1030980027C0D9FF28C0DAFF000EDB849BEF18F0A9
:1030A80027C0D9FF28C0DAFFFB0EDF169BEF18F008
:1030B80027C0D9FF28C0DAFF000EDB869BEF18F087
:1030C80027C0D9FF28C0DAFFF70EDF169BEF18F0EC
:1030D8009BEF18F02B50296E2A6A2A50000AD8B4A0
:1030E80078EF18F09BEF18F02950410AD8B42CEF6C
:1030F80018F0030AD8B43CEF18F0010AD8B44CEF22
:1031080018F0070AD8B45CEF18F0250AD8B434EFE1
:1031180018F0030AD8B444EF18F0010AD8B454EFF1
:1031280018F0070AD8B464EF18F09BEF18F01200F3
:10313800000E296E000E2A6E030E2A64A6EF18F000
:10314800A8EF18F0ACEF18F00AEF19F00AEF19F031
:103158002AC027F0010E286E272AB5EF18F0D8905C
:103168002836272EB3EF18F02850836E000E2B6EEA
:10317800030E2B64C2EF18F0C4EF18F0C8EF18F074
:10318800FFEF18F0FFEF18F02BC027F0100E286E95
:10319800272AD1EF18F0D8902836272ECFEF18F02D
:1031A800285083140009D8B4DCEF18F0DEEF18F0CB
:1031B800F4EF18F02A50040DBF0E276E000E286E8B
:1031C800F3502726F45028222B50010DF3502724C2
:1031D800D96EF4502820DA6EDF50296EF4EF18F01B
:1031E8002B2A030E2B64FBEF18F0FDEF18F0C8EF45
:1031F80018F0FFEF18F02A2A030E2A6406EF19F0D8
:1032080008EF19F0ACEF18F00AEF19F029500DEF9C
:1032180019F01200000E2C6E28BE17EF19F015EFEA
:1032280019F01FEF19F0276C281ED8B0282A010EB4
:103238002C6E1FEF19F02ABE26EF19F024EF19F0B3
:103248002CEF19F0296C2A1ED8B02A2A2CEF19F075
:1032580029502A10D8B433EF19F035EF19F065EF7B
:1032680019F0010E2B6E3FEF19F0D89029362A3647
:103278002B2A3FEF19F02AAE44EF19F046EF19F068
:1032880039EF19F04AEF19F04AEF19F02950275C85
:103298002A502858D8A053EF19F055EF19F05BEFD2
:1032A80019F02950275E2A50285A5BEF19F0D89058
:1032B8002A3229322B2E4AEF19F065EF19F065EF03
:1032C80019F02C50D8B46BEF19F06DEF19F073EFBB
:1032D80019F0276C281ED8B0282A73EF19F027C0D8
:1032E80027F028C028F079EF19F01200296EBAEFFC
:1032F80019F014B082EF19F085EF19F0010E86EF7E
:1033080019F0000ED7EF19F0D7EF19F014B28FEFBC
:1033180019F092EF19F0010E93EF19F0000ED7EFA4
:1033280019F0D7EF19F014B49CEF19F09FEF19F0CA
:10333800010EA0EF19F0000ED7EF19F0D7EF19F032
:1033480014B6A9EF19F0ACEF19F0010EADEF19F0B2
:10335800000ED7EF19F0D7EF19F0000ED7EF19F0DC
:10336800D7EF19F0D7EF19F0D7EF19F02950276EDA
:10337800286A2850000AD8B4C4EF19F0B1EF19F040
:103388002750410AD8B47DEF19F0030AD8B48AEF60
:1033980019F0010AD8B497EF19F0070AD8B4A4EFC6
:1033A80019F0B1EF19F012005950D8B4DEEF19F046
:1033B800E0EF19F031EF1AF0020E5964E6EF19F058
:1033C800E8EF19F0EBEF19F05906EBEF19F0595047
:1033D800010D150EF324D96E000EF420DA6EDC0E02
:1033E800DF64F9EF19F0FBEF19F025EF1AF05950E7
:1033F800010D150EF324276E000EF420286EC7EC7D
:1034080014F05950010D150EF324D96E000EF42056
:10341800DA6EDF50DF0B90EC1AF05950010D150EE3
:10342800F324D96E000EF420DA6EDF50366E376A58
:1034380036C027F037C028F0610E13EC14F025EFE2
:103448001AF05950010D150EF324D96E000EF42010
:10345800DA6E000EDF6E31EF1AF0A5EC16F01200EE
:10346800000E2F6E000E306E000E316E000E326EA2
:103478002B502C102D102E10D8B445EF1AF047EF12
:103488001AF087EF1AF0010E336E53EF1AF0D89046
:103498002B362C362D362E36332A53EF1AF02EAE15
:1034A80058EF1AF05AEF1AF04BEF1AF05EEF1AF0D5
:1034B8005EEF1AF0D8902F363036313632362B5030
:1034C800275C2C5028582D5029582E502A58D8A0FF
:1034D80070EF1AF072EF1AF07DEF1AF02B50275E9A
:1034E8002C50285A2D50295A2E502A5A2F807DEFB9
:1034F8001AF0D8902E322D322C322B32332E5EEF2A
:103508001AF087EF1AF02FC027F030C028F031C02A
:1035180029F032C02AF01200296EC1EF1AF014A067
:1035280098EF1AF09BEF1AF014809CEF1AF01490A1
:10353800DEEF1AF014A2A3EF1AF0A6EF1AF0148225
:10354800A7EF1AF01492DEEF1AF014A4AEEF1AF0F7
:10355800B1EF1AF01484B2EF1AF01494DEEF1AF0F7
:1035680014A6B9EF1AF0BCEF1AF01486BDEF1AF0E2
:103578001496DEEF1AF0DEEF1AF02950276E286A4B
:103588002850000AD8B4CBEF1AF0DEEF1AF0275013
:10359800410AD8B493EF1AF0030AD8B49EEF1AF090
:1035A800010AD8B4A9EF1AF0070AD8B4B4EF1AF090
:1035B800DEEF1AF01200DC0EF66E3B0EF76E000E10
:1035C800F86E01EE00F010EE5AF00900F5CFEEFFAC
:1035D800E550E150FAE1E60EF66E400EF76E000E89
:1035E800F86E00EEBFF010EE24F00900F5CFEEFF04
:1035F800E550E150FAE1B60EF66E420EF76E000E97
:10360800F86E00EE47F010EE13F00900F5CFEEFF6C
:10361800E550E150FAE101EE5AF0140EEE6AE806C0
:10362800FDE100EEE3F00C0EEE6AE806FDE100EEC7
:1036380001F0260EEE6AE806FDE15A905A92000E55
:10364800F86E000109EF00F005C02AF006C02BF063
:1036580007C02CF008C02DF0410E7AEC19F02A6E44
:10366800420E7AEC19F02B6E430E7AEC19F02C6EA0
:10367800440E7AEC19F02D6E2A0E2E6E000E2F6E67
:10368800000E306E080E316E61EF1BF02EC0D9FFB0
:103698002FC0DAFFDF50D8B454EF1BF056EF1BF001
:1036A8005BEF1BF030503110306E5BEF1BF02E4A91
:1036B8002F2AD890313261EF1BF03150D8A467EF30
:1036C8001BF069EF1BF04AEF1BF06BEF1BF030505B
:1036D8006EEF1BF01200000E2C6E000E2B6E2950A0
:1036E8002A10D8B47AEF1BF07CEF1BF0AEEF1BF07A
:1036F800010E2D6E86EF1BF0D89029362A362D2A1A
:1037080086EF1BF02AAE8BEF1BF08DEF1BF080EFDE
:103718001BF091EF1BF091EF1BF0D8902B362C3655
:103728002950275C2A502858D8A09DEF1BF09FEFFE
:103738001BF0A6EF1BF02950275E2A50285A2B8031
:10374800A6EF1BF0D8902A3229322D2E91EF1BF0CC
:10375800AEEF1BF02BC027F02CC028F0120012048B
:103768002E6E9EEC21F0000E2F6EDEEF1BF02F5018
:10377800010DF3500B24D96EF4500C20DA6E2F5043
:103788002A6E2B6A2A1E2B1E2A4A2B2A2E502C6E92
:103798002D6A2A502C262B502D222C500924E16EFC
:1037A8002D500A20E26EE750F6EC1CF0DF6E2F2A4F
:1037B800DEEF1BF012502F5CD8A0E5EF1BF0E7EF0F
:1037C8001BF0BBEF1BF0E9EF1BF09EEC21F01200A1
:1037D800000E2F6E000E306E000E316E000E326E2F
:1037E800F6EF1BF027A0FBEF1BF0FDEF1BF007EF38
:1037F8001CF02B502F262C5030222D5031222E50C9
:10380800322207EF1CF0D8902B362C362D362E3668
:10381800D8902A32293228322732275028102910E6
:103828002A10D8A41AEF1CF01CEF1CF0F6EF1BF0BE
:103838002FC027F030C028F031C029F032C02AF05C
:103848001200000E306E000E296E000E5CEC1DF0AA
:1038580048EF1CF00A0E3118D8B435EF1CF037EFDA
:103868001CF03CEF1CF0315097EC1EF044EF1CF0BC
:10387800000E296E302A30505CEC1DF044EF1CF02D
:103888002E4A2F2A48EF1CF02EC0F6FF2FC0F7FF54
:103898000800F5CF31F03150D8A455EF1CF057EFA0
:1038A8001CF02EEF1CF059EF1CF012002B6E080EC6
:1038B8002C6E410E2A6E2B28D8A465EF1CF067EFFA
:1038C8001CF081EF1CF08DEF1CF08DEF1CF081EFE8
:1038D8001CF02B502C140009D8B475EF1CF077EFAE
:1038E8001CF07CEF1CF02A5090EC1AF07CEF1CF0D6
:1038F8002A2AD8902C3281EF1CF02C50D8A487EFBC
:103908001CF089EF1CF06DEF1CF08DEF1CF08DEFB3
:103918001CF01200366E120E596095EF1CF097EFEE
:103928001CF0BFEF1CF03650D8B49DEF1CF09FEF91
:103938001CF0BFEF1CF0360E276E000E286E740EBA
:1039480013EC14F05950010D150EF324D96E000E26
:10395800F420DA6E36C0DFFF592A5950010D150ED2
:10396800F324D96E000EF420DA6E000EDF6EBFEF7E
:103978001CF0BFEF1CF0A5EC16F01200366E120E0C
:103988005960C9EF1CF0CBEF1CF0F3EF1CF0365078
:10399800D8B4D1EF1CF0D3EF1CF0F3EF1CF0360EC7
:1039A800276E000E286E610E13EC14F05950010DAD
:1039B800150EF324D96E000EF420DA6E36C0DFFF40
:1039C800592A5950010D150EF324D96E000EF42012
:1039D800DA6E000EDF6EF3EF1CF0F3EF1CF0A5ECCF
:1039E80016F01200276E800E296E000E286E1CEF4E
:1039F8001DF08094275029140009D8B406EF1DF053
:103A080008EF1DF00BEF1DF080800CEF1DF080908B
:103A180080A211EF1DF013EF1DF017EF1DF02950D4
:103A2800281217EF1DF08084D89029321CEF1DF062
:103A38002950D8A422EF1DF024EF1DF0FDEF1CF053
:103A48008094285028EF1DF01200110E58602FEFB7
:103A58001DF031EF1DF057EF1DF0FF0E276EFF0E22
:103A6800286E5950296E2A6A2750292628502A225A
:103A780058502B6E2C6A29502B5C2C50800A2D6EC6
:103A88002A50800A2D58D8B04CEF1DF04EEF1DF08B
:103A980051EF1DF0582A5BEF1DF05904586E5BEF8B
:103AA8001DF05BEF1DF0110E586E5BEF1DF012005C
:103AB8002C6E000E2D6E6FEF1DF0400E2D6E88EFF0
:103AC8001DF0140E2D6E88EF1DF0540E2D6E88EF2C
:103AD8001DF088EF1DF02C502A6E2B6A2B50000A1F
:103AE800D8B479EF1DF088EF1DF02A50010AD8B438
:103AF80061EF1DF0030AD8B465EF1DF0010AD8B4D0
:103B080069EF1DF088EF1DF02D5029247F0B800FE1
:103B180031EC17F01200316E31C027F0286A5FECE3
:103B280020F027C02FF028C030F0000E326E0F0EA4
:103B38003264A1EF1DF0A3EF1DF0A7EF1DF0BEEF5B
:103B48001DF0BEEF1DF032502D24D96E000E2E2030
:103B5800DA6EDF50276E32502F24A3EC1FF0322A82
:103B68000F0E3264BAEF1DF0BCEF1DF0A7EF1DF089
:103B7800BEEF1DF01200316E31C027F0286A5FECED
:103B880020F027C02FF028C030F0000E326E0F0E44
:103B98003264D1EF1DF0D3EF1DF0D7EF1DF0EDEF3C
:103BA8001DF0EDEF1DF032502D24D96E000E2E20A1
:103BB800DA6E32502F2451EC21F0DF6E322A0F0ECC
:103BC8003264E9EF1DF0EBEF1DF0D7EF1DF0EDEFDC
:103BD8001DF0120041542B43574A41503D2200002A
:103BE80000000000000000000000000000000000CD
:103BF800000041542B43495053454E443D22000098
:103C08000000000000004D756E646F20616F207326
:103C1800657520636F6D616E646F000000000000C1
:103C28000000000000000000000000000000366EE8
:103C3800120E596022EF1EF024EF1EF042EF1EF024
:103C4800360E276E000E286E700E13EC14F05950C5
:103C5800010D150EF324D96E000EF420DA6E36C06D
:103C6800DFFF592A5950010D150EF324D96E000EA5
:103C7800F420DA6E000EDF6E42EF1EF0A5EC16F0AF
:103C880012002D6E2DC027F0286A5FEC20F027C0A7
:103C98002BF028C02CF0000E2E6E0F0E2E6457EF5E
:103CA8001EF059EF1EF05DEF1EF06EEF1EF06EEF86
:103CB8001EF0000E276E2E502B24A3EC1FF02E2A88
:103CC8000F0E2E646AEF1EF06CEF1EF05DEF1EF013
:103CD8006EEF1EF01200326E2EC031F02EC029F0A9
:103CE80032505CEC1DF086EF1EF02FC0F6FF30C09E
:103CF800F7FF0800F55097EC1EF02F4A302A312ABA
:103D080086EF1EF02FC0F6FF30C0F7FF0800F55011
:103D18000009D8A492EF1EF094EF1EF079EF1EF080
:103D280096EF1EF01200286E8A8C28C027F0273ADA
:103D38000F0E2716274627468A502718C30B271821
:103D48008A6E8A9E420EE82EFED700D08A8E8A8C12
:103D580028C027F00F0E2716274627468A5027180F
:103D6800C30B27188A6E8A9E420EE82EFED700D013
:103D78008A8E1200336ED00E2F6EFF0E306E2DC05D
:103D8800D9FF2EC0DAFFDECF27F0DDCF28F0000EF6
:103D98002A6E0A0E296E36EC20F03350316E326AE4
:103DA80027503126285032222F50312630503222C7
:103DB8002DC0D9FF2EC0DAFF31C0DEFF32C0DDFFD3
:103DC8001200000E316EFAEF1EF02FC027F030C03F
:103DD80028F0000E2A6E0A0E296EB3EC17F027C0E1
:103DE8002FF028C030F0312AFAEF1EF02F50301093
:103DF800D8A401EF1FF003EF1FF0E9EF1EF005EF65
:103E08001FF0315008EF1FF012002AC02CF02BC011
:103E18002DF0040E2E6ED8902D322C322E2E0FEF50
:103E28001FF02C50C7EC20F02FEC21F0000E286E6C
:103E3800010E276ED7EC1FF02A38F00BC7EC20F0E4
:103E48002FEC21F0000E286E010E276ED7EC1FF024
:103E58001200000E2D6E000E2C6E9CEC18F02D6ECC
:103E68002D50D8B43AEF1FF03CEF1FF046EF1FF08B
:103E78001150D8A442EF1FF044EF1FF046EF1FF097
:103E88002DC02CF02DC011F02C504BEF1FF012005C
:103E980023EC21F0000E286E010E276ED7EC1FF0E0
:103EA800C00EC7EC20F02FEC21F0000E286E010E9A
:103EB800276ED7EC1FF0600EC7EC20F02FEC21F036
:103EC800000E286E010E276ED7EC1FF012009380AB
:103ED8009382C650F00B0809C66E400E276E4B0E33
:103EE800286E4C0E296E000E2A6E34C02BF035C099
:103EF8002CF036C02DF037C02EF034EC1AF0270421
:103F0800C86EC78EC68A1200C16893949396939818
:103F1800939A939C939E8A8E000E286E050E276EA8
:103F2800D7EC1FF0280E31EC17F00C0E31EC17F01F
:103F3800010E31EC17F0020E31EC17F01200286E6A
:103F4800F29E28C0A9FF27C0A8FFA69EA69CA6840B
:103F5800550EA76EAA0EA76EA682B3EF1FF0A6B2E3
:103F6800B8EF1FF0BAEF1FF0B3EF1FF0A694F28E70
:103F78001200FD0ECF6E8F0ECE6E01500210031090
:103F88000410D8B4CAEF1FF0CCEF1FF0D3EF1FF026
:103F98000106000E025A035A045AD6EF1FF0CD90BC
:103FA800D6EF1FF01200E4EF1FF0070E296E7D0E0A
:103FB800E82EFED7292EFCD700F02706D8A0280621
:103FC80027502810D8A4EBEF1FF0EDEF1FF0D9EF22
:103FD8001FF0EFEF1FF012000600F29E9EA0F7EF11
:103FE8001FF0F9EF1FF005EF20F09DA0FEEF1FF086
:103FF80000EF20F005EF20F09E90BDEC1FF005EFDC
:1040080020F0F28E5A921100C16827C00BF028C028
:104018000CF029C009F02AC00AF02BC012F08096D3
:1040280092968094929480909290809292828094BA
:104038008090808612002EC0D9FF2FC0DAFFDECF15
:1040480027F0DDCF28F0000E2A6E0A0E296E6FECDD
:104058001BF02EC0D9FF2FC0DAFF27C0DEFF28C013
:10406800DDFF120027502902F3CF2BF0F4CF2CF0FC
:1040780027502A02F3502C2628502902F3502C26C8
:104088002BC027F02CC028F04AEF20F01200326E27
:1040980032C027F0286A5FEC20F027C030F028C033
:1040A80031F02D50302451EC21F02EC0D9FF2FC013
:1040B800DAFFDF6E120027C029F028C02AF0293A5B
:1040C8002A3AF00E2A1629500F0B2A12F00E29163A
:1040D80029C027F02AC028F072EF20F012003132F0
:1040E800334134353642373839432A302344103F78
:1040F8004A38DE3C842634431E3B7E3B8A3C000023
:104108007041316E31C027F0286A5FEC20F027C07B
:104118002FF028C030F02EC027F02D502F24A3EC0C
:104128001FF0120016C029F02A6A29502A6E296A3F
:1041380015502926000E2A2229C027F02AC028F067
:10414800A6EF20F012004CEC1FF041C02AF042C04C
:104158002BF009EC1FF03BEC21F0000E286E010E4D
:10416800276ED7EC1FF01200000E296EBEEF20F06C
:10417800C6EF20F0000E276E2950A3EC1FF0292A65
:10418800BEEF20F01200276E27C0C9FFCCEF20F049
:10419800C7B0D1EF20F0D3EF20F0CCEF20F0D5EF6F
:1041A80020F01200CD92300ECD12CD84FD0ECF6ED0
:1041B8008F0ECE6ECD9C9D80F28CF28E1200286EF2
:1041C800000E296E8EEC21F02824F0EC20F0296EE8
:1041D8002950EFEF20F01200276E2750010D150E21
:1041E800F324D96E000EF420DA6EDF50FCEF20F0D5
:1041F8001200110E596403EF21F006EF21F0010EB1
:1042080007EF21F0000E09EF21F012005950575C1A
:10421800D8B011EF21F013EF21F016EF21F0572A53
:1042280016EF21F01200020E58641DEF21F01FEF67
:1042380021F022EF21F0580622EF21F01200C5806C
:1042480026EF21F09EA62BEF21F02DEF21F026EF8F
:1042580021F09E96120031EF21F0C5BC36EF21F017
:1042680038EF21F031EF21F03AEF21F01200C58448
:104278003EEF21F09EA643EF21F045EF21F03EEFFF
:1042880021F09E9612002DC001F02EC002F02FC022
:1042980003F030C004F0CD801200276E27C0A9FFBC
:1042A800A69EA69CA680A8505AEF21F012000000F6
:1042B80000000000000000000000000000000202F2
:0142C80002F3
:1042CA0001C027F002C028F003C029F004C02AF078
:1042DA001200150E276E000E286E74EF21F01200E0
:1042EA00000E836EF00E956E1200000E0E6E000E1A
:1042FA000D6E1200149014921494149612000DC0AC
:10430A0027F00EC028F0120027C015F02850166EAC
:10431A001200575091EF21F01200120E95EF21F082
:10432A001200595099EF21F01200010E31EC17F0EA
:10433A001200809680861200020E576E12000D4AF5
:04434A000E2A120025
:107BEA0000313A20494E5345524952205345515586
:107BFA00454E4349410A323A2042555343415220A5
:107C0A0053455155454E4349410A333A205245504E
:107C1A004554495220554C542E20534551550A3447
:107C2A003A20434F4E464947555241434F45532008
:107C3A0020202000204553434F4C48412041204DED
:107C4A00454D4F524941200A515545204445534517
:107C5A004A412045584543555441520A2030202074
:107C6A002031202020322020203320202034200AD6
:107C7A0020352020203620202037202020382020A0
:107C8A002039200A00204553434F4C4841204120C7
:107C9A004D454D4F5249410A2051554520444553BF
:107CAA00454A412053414C5641520A203020202057
:107CBA00312020203220202033202020340A203571
:107CCA00202020362020203720202038202020394C
:107CDA0020200020202020444553454A412053417A
:107CEA004C5641522020200A202020202053455162
:107CFA0055454E434941203F20200A0A23202D2082
:107D0A0053494D2020202020202A202D204E414F4B
:107D1A000041542B43575341503D22576972656CB9
:107D2A00657373222C222A2A2A2A2A2A2A2A222CF0
:107D3A00312C322C342C300D0A0041542B4349503B
:107D4A0053544152543D22544350222C2231393249
:107D5A002E3136382E342E31222C22333333220D53
:107D6A000A0041542B43575341503D225443432266
:107D7A002C223837363534333231222C312C322CFE
:107D8A00342C300D0A0041542B4349505345525666
:107D9A0045523D312C3333330D0A004369636C6F0E
:107DAA00733A20202020202020202020202020007C
:107DBA003C20202F20203E20633A20202020202013
:107DCA002020202000202020202020202053414C49
:107DDA005641202020202020200020202020202062
:107DEA005345474755495420202020202020002071
:107DFA002020202020205B202020205D2020202001
:107E0A00202020002020202020202044454C4554BA
:107E1A00454420202020202000202020202020202F
:107E2A00204D454D4F52592020202020200020204F
:107E3A00202020204D454D4F524941203F202020EF
:107E4A0020200020202020202053455155454E4314
:107E5A0049412020202020002020202020444F209B
:107E6A0053495354454D41202020202000202020F2
:107E7A00412020204220202043202020442020206E
:107E8A00200020202044454C4554415220544F4460
:107E9A0041204120202000323A204C494D50415285
:107EAA00204D454D4F52494120202000202020419D
:107EBA004A55535445204F20494E4943494F2020A3
:107ECA00002020494E53495241204F5320504153DC
:107EDA00534F5320200030202D204369636C6F20BC
:107EEA00636F6E74696E756F20200020434552548B
:107EFA00455A412051554520444553454A412000A1
:107F0A00636F6E66696720636F6E74726C3A2020C5
:107F1A002020202500313A205645524946494341FE
:107F2A0052204D454D4F52494100636F6E66696755
:107F3A002074656D706F3A20202020202073004144
:107F4A00542B43574155544F434F4E4E3D300D0A23
:107F5A000041542B4349505345525645523D300D2A
:107F6A000A0041542B4349504D4F44453D300D0AB8
:107F7A000041542B4349504D4F44453D310D0A00B1
:107F8A0041542B4349504D55583D300D0A00415438
:107F9A002B43574D4F44453D310D0A0041542B4365
:107FAA0049504D55583D310D0A0041542B43574D08
:107FBA004F44453D320D0A0041542B43574D4F441F
:107FCA00453D330D0A0041542B434950434C4F530E
:107FDA00450D0A0041542B43574C41500D0A0041AC
:107FEA00542B43494653520D0A003C20202F20208F
:057FFA003E00FF000045
:020000040020DA
:08000000FFFFFFFFFFFFFFFF00
:020000040030CA
:0E000000040C181EFF0180FF0FC00FE00F4020
:00000001FF
